{
  "_format": "hh-sol-artifact-1",
  "contractName": "BuyBackBurnerUniswap",
  "sourceName": "contracts/BuyBackBurnerUniswap.sol",
  "abi": [
    {
      "inputs": [],
      "name": "AlreadyInitialized",
      "type": "error"
    },
    {
      "inputs": [
        {
          "internalType": "address",
          "name": "sender",
          "type": "address"
        },
        {
          "internalType": "address",
          "name": "owner",
          "type": "address"
        }
      ],
      "name": "OwnerOnly",
      "type": "error"
    },
    {
      "inputs": [],
      "name": "T",
      "type": "error"
    },
    {
      "inputs": [],
      "name": "ZeroAddress",
      "type": "error"
    },
    {
      "anonymous": false,
      "inputs": [
        {
          "indexed": false,
          "internalType": "uint256",
          "name": "olasAmount",
          "type": "uint256"
        }
      ],
      "name": "BuyBack",
      "type": "event"
    },
    {
      "anonymous": false,
      "inputs": [
        {
          "indexed": true,
          "internalType": "address",
          "name": "implementation",
          "type": "address"
        }
      ],
      "name": "ImplementationUpdated",
      "type": "event"
    },
    {
      "anonymous": false,
      "inputs": [
        {
          "indexed": true,
          "internalType": "address",
          "name": "oracle",
          "type": "address"
        },
        {
          "indexed": true,
          "internalType": "address",
          "name": "sender",
          "type": "address"
        }
      ],
      "name": "OraclePriceUpdated",
      "type": "event"
    },
    {
      "anonymous": false,
      "inputs": [
        {
          "indexed": true,
          "internalType": "address",
          "name": "oracle",
          "type": "address"
        }
      ],
      "name": "OracleUpdated",
      "type": "event"
    },
    {
      "anonymous": false,
      "inputs": [
        {
          "indexed": true,
          "internalType": "address",
          "name": "owner",
          "type": "address"
        }
      ],
      "name": "OwnerUpdated",
      "type": "event"
    },
    {
      "inputs": [],
      "name": "BUY_BACK_BURNER_PROXY",
      "outputs": [
        {
          "internalType": "bytes32",
          "name": "",
          "type": "bytes32"
        }
      ],
      "stateMutability": "view",
      "type": "function"
    },
    {
      "inputs": [],
      "name": "MAX_ALLOWED_DEVIATION",
      "outputs": [
        {
          "internalType": "uint256",
          "name": "",
          "type": "uint256"
        }
      ],
      "stateMutability": "view",
      "type": "function"
    },
    {
      "inputs": [],
      "name": "OLAS_BURNER",
      "outputs": [
        {
          "internalType": "address",
          "name": "",
          "type": "address"
        }
      ],
      "stateMutability": "view",
      "type": "function"
    },
    {
      "inputs": [],
      "name": "SECONDS_AGO",
      "outputs": [
        {
          "internalType": "uint32",
          "name": "",
          "type": "uint32"
        }
      ],
      "stateMutability": "view",
      "type": "function"
    },
    {
      "inputs": [],
      "name": "VERSION",
      "outputs": [
        {
          "internalType": "string",
          "name": "",
          "type": "string"
        }
      ],
      "stateMutability": "view",
      "type": "function"
    },
    {
      "inputs": [
        {
          "internalType": "uint256",
          "name": "nativeTokenAmount",
          "type": "uint256"
        }
      ],
      "name": "buyBack",
      "outputs": [],
      "stateMutability": "nonpayable",
      "type": "function"
    },
    {
      "inputs": [
        {
          "internalType": "address",
          "name": "newImplementation",
          "type": "address"
        }
      ],
      "name": "changeImplementation",
      "outputs": [],
      "stateMutability": "nonpayable",
      "type": "function"
    },
    {
      "inputs": [
        {
          "internalType": "address",
          "name": "newOracle",
          "type": "address"
        }
      ],
      "name": "changeOracle",
      "outputs": [],
      "stateMutability": "nonpayable",
      "type": "function"
    },
    {
      "inputs": [
        {
          "internalType": "address",
          "name": "newOwner",
          "type": "address"
        }
      ],
      "name": "changeOwner",
      "outputs": [],
      "stateMutability": "nonpayable",
      "type": "function"
    },
    {
      "inputs": [
        {
          "internalType": "address",
          "name": "token0",
          "type": "address"
        },
        {
          "internalType": "address",
          "name": "token1",
          "type": "address"
        },
        {
          "internalType": "address",
          "name": "uniV3PositionManager",
          "type": "address"
        },
        {
          "internalType": "uint24",
          "name": "fee",
          "type": "uint24"
        }
      ],
      "name": "checkPoolPrices",
      "outputs": [],
      "stateMutability": "view",
      "type": "function"
    },
    {
      "inputs": [
        {
          "internalType": "bytes",
          "name": "payload",
          "type": "bytes"
        }
      ],
      "name": "initialize",
      "outputs": [],
      "stateMutability": "nonpayable",
      "type": "function"
    },
    {
      "inputs": [
        {
          "internalType": "address",
          "name": "",
          "type": "address"
        }
      ],
      "name": "mapAccountActivities",
      "outputs": [
        {
          "internalType": "uint256",
          "name": "",
          "type": "uint256"
        }
      ],
      "stateMutability": "view",
      "type": "function"
    },
    {
      "inputs": [],
      "name": "maxSlippage",
      "outputs": [
        {
          "internalType": "uint256",
          "name": "",
          "type": "uint256"
        }
      ],
      "stateMutability": "view",
      "type": "function"
    },
    {
      "inputs": [],
      "name": "nativeToken",
      "outputs": [
        {
          "internalType": "address",
          "name": "",
          "type": "address"
        }
      ],
      "stateMutability": "view",
      "type": "function"
    },
    {
      "inputs": [],
      "name": "olas",
      "outputs": [
        {
          "internalType": "address",
          "name": "",
          "type": "address"
        }
      ],
      "stateMutability": "view",
      "type": "function"
    },
    {
      "inputs": [],
      "name": "oracle",
      "outputs": [
        {
          "internalType": "address",
          "name": "",
          "type": "address"
        }
      ],
      "stateMutability": "view",
      "type": "function"
    },
    {
      "inputs": [],
      "name": "owner",
      "outputs": [
        {
          "internalType": "address",
          "name": "",
          "type": "address"
        }
      ],
      "stateMutability": "view",
      "type": "function"
    },
    {
      "inputs": [],
      "name": "router",
      "outputs": [
        {
          "internalType": "address",
          "name": "",
          "type": "address"
        }
      ],
      "stateMutability": "view",
      "type": "function"
    },
    {
      "inputs": [],
      "name": "updateOraclePrice",
      "outputs": [],
      "stateMutability": "nonpayable",
      "type": "function"
    }
  ],
  "bytecode": "0x608060405260016005553480156013575f5ffd5b506123c3806100215f395ff3fe608060405234801561000f575f5ffd5b5060043610610148575f3560e01c80638b9ee610116100c7578063c0bbd8841161007d578063f887ea4011610063578063f887ea40146102ef578063f9cc3e9c1461030f578063ffa1ad7414610336575f5ffd5b8063c0bbd884146102c7578063e1758bd8146102cf575f5ffd5b80638da5cb5b116100ad5780638da5cb5b14610277578063a6f9dae114610296578063aeb2d711146102a9575f5ffd5b80638b9ee610146102535780638c04166f1461026e575f5ffd5b8063439fab911161011c57806347c421b51161010257806347c421b5146102115780637c9e639f146102245780637dc0d1d014610233575f5ffd5b8063439fab91146101eb57806343b23a1b146101fe575f5ffd5b806231d1151461014c578063053f90401461019657806317a68dd8146101ab57806340b67a9b146101be575b5f5ffd5b60015461016c9073ffffffffffffffffffffffffffffffffffffffff1681565b60405173ffffffffffffffffffffffffffffffffffffffff90911681526020015b60405180910390f35b6101a96101a4366004611a97565b61037f565b005b6101a96101b9366004611acf565b610573565b6101dd6101cc366004611acf565b60066020525f908152604090205481565b60405190815260200161018d565b6101a96101f9366004611b6d565b610698565b6101a961020c366004611c1f565b610721565b6101a961021f366004611acf565b610ae4565b6101dd67016345785d8a000081565b60035461016c9073ffffffffffffffffffffffffffffffffffffffff1681565b61016c7351eb65012ca5ceb07320c497f4151ac207fea4e081565b6101dd60045481565b5f5461016c9073ffffffffffffffffffffffffffffffffffffffff1681565b6101a96102a4366004611acf565b610c10565b6102b261070881565b60405163ffffffff909116815260200161018d565b6101a9610d3a565b60025461016c9073ffffffffffffffffffffffffffffffffffffffff1681565b60075461016c9073ffffffffffffffffffffffffffffffffffffffff1681565b6101dd7fc6d7bd4bd971fa336816fe30b665cc6caccce8b123cc8ea692d132f342c4fc1981565b6103726040518060400160405280600581526020017f302e322e3000000000000000000000000000000000000000000000000000000081525081565b60405161018d9190611c7f565b6005546001146103f0576040517f08c379a000000000000000000000000000000000000000000000000000000000815260206004820152601060248201527f5265656e7472616e63792067756172640000000000000000000000000000000060448201526064015b60405180910390fd5b60026005819055546040517f70a082310000000000000000000000000000000000000000000000000000000081523060048201525f9173ffffffffffffffffffffffffffffffffffffffff16906370a0823190602401602060405180830381865afa158015610461573d5f5f3e3d5ffd5b505050506040513d601f19601f820116820180604052508101906104859190611cd2565b905081158061049357508082115b1561049c578091505b5f8211610505576040517f08c379a000000000000000000000000000000000000000000000000000000000815260206004820181905260248201527f496e73756666696369656e74206e617469766520746f6b656e20616d6f756e7460448201526064016103e7565b335f90815260066020526040812080549161051f83611d16565b91905055505f61052e83610e9b565b90507fce4ecff3fe64868b2d2c7c1125babbbff1d01a1a2566d1edd4ed0f91deaa93508160405161056191815260200190565b60405180910390a15050600160055550565b5f5473ffffffffffffffffffffffffffffffffffffffff1633146105e4575f546040517fa43d6ada00000000000000000000000000000000000000000000000000000000815233600482015273ffffffffffffffffffffffffffffffffffffffff90911660248201526044016103e7565b73ffffffffffffffffffffffffffffffffffffffff8116610631576040517fd92e233d00000000000000000000000000000000000000000000000000000000815260040160405180910390fd5b7fc6d7bd4bd971fa336816fe30b665cc6caccce8b123cc8ea692d132f342c4fc1981905560405173ffffffffffffffffffffffffffffffffffffffff8216907f310ba5f1d2ed074b51e2eccd052a47ae9ab7c6b800d1fca3db3999d6a592ca03905f90a250565b5f5473ffffffffffffffffffffffffffffffffffffffff16156106e7576040517f0dc149f000000000000000000000000000000000000000000000000000000000815260040160405180910390fd5b5f80547fffffffffffffffffffffffff00000000000000000000000000000000000000001633179055600160055561071e816111dd565b50565b5f8273ffffffffffffffffffffffffffffffffffffffff1663c45a01556040518163ffffffff1660e01b8152600401602060405180830381865afa15801561076b573d5f5f3e3d5ffd5b505050506040513d601f19601f8201168201806040525081019061078f9190611d4d565b6040517f1698ee8200000000000000000000000000000000000000000000000000000000815273ffffffffffffffffffffffffffffffffffffffff8781166004830152868116602483015262ffffff851660448301529192505f91831690631698ee8290606401602060405180830381865afa158015610811573d5f5f3e3d5ffd5b505050506040513d601f19601f820116820180604052508101906108359190611d4d565b905073ffffffffffffffffffffffffffffffffffffffff81166108b4576040517f08c379a000000000000000000000000000000000000000000000000000000000815260206004820152601360248201527f506f6f6c20646f6573206e6f742065786973740000000000000000000000000060448201526064016103e7565b5f5f8273ffffffffffffffffffffffffffffffffffffffff16633850c7bd6040518163ffffffff1660e01b815260040160e060405180830381865afa1580156108ff573d5f5f3e3d5ffd5b505050506040513d601f19601f820116820180604052508101906109239190611d8d565b50506040517f252c09d700000000000000000000000000000000000000000000000000000000815261ffff841660048201529496509194505f9373ffffffffffffffffffffffffffffffffffffffff8816935063252c09d792506024019050608060405180830381865afa15801561099d573d5f5f3e3d5ffd5b505050506040513d601f19601f820116820180604052508101906109c19190611e31565b505050905042610708826109d59190611e8e565b63ffffffff1610156109eb575050505050610ade565b5f6109f585611364565b90505f610a2273ffffffffffffffffffffffffffffffffffffffff861680680100000000000000006114fa565b90505f8215610a6357828211610a5357610a4e610a3f8385611eb0565b670de0b6b3a7640000856114fa565b610a60565b610a60610a3f8484611eb0565b90505b67016345785d8a0000811115610ad5576040517f08c379a000000000000000000000000000000000000000000000000000000000815260206004820152601860248201527f507269636520646576696174696f6e20746f6f2068696768000000000000000060448201526064016103e7565b50505050505050505b50505050565b5f5473ffffffffffffffffffffffffffffffffffffffff163314610b55575f546040517fa43d6ada00000000000000000000000000000000000000000000000000000000815233600482015273ffffffffffffffffffffffffffffffffffffffff90911660248201526044016103e7565b73ffffffffffffffffffffffffffffffffffffffff8116610ba2576040517fd92e233d00000000000000000000000000000000000000000000000000000000815260040160405180910390fd5b600380547fffffffffffffffffffffffff00000000000000000000000000000000000000001673ffffffffffffffffffffffffffffffffffffffff83169081179091556040517f3df77beb5db05fcdd70a30fc8adf3f83f9501b68579455adbd100b8180940394905f90a250565b5f5473ffffffffffffffffffffffffffffffffffffffff163314610c81575f546040517fa43d6ada00000000000000000000000000000000000000000000000000000000815233600482015273ffffffffffffffffffffffffffffffffffffffff90911660248201526044016103e7565b73ffffffffffffffffffffffffffffffffffffffff8116610cce576040517fd92e233d00000000000000000000000000000000000000000000000000000000815260040160405180910390fd5b5f80547fffffffffffffffffffffffff00000000000000000000000000000000000000001673ffffffffffffffffffffffffffffffffffffffff8316908117825560405190917f4ffd725fc4a22075e9ec71c59edf9c38cdeb588a91b24fc5b61388c5be41282b91a250565b335f908152600660205260408120805491610d5483611d16565b9091555050600354604080517f673a7e2800000000000000000000000000000000000000000000000000000000815290515f9273ffffffffffffffffffffffffffffffffffffffff169163673a7e28916004808301926020929190829003018187875af1158015610dc7573d5f5f3e3d5ffd5b505050506040513d601f19601f82011682018060405250810190610deb9190611ec3565b905080610e54576040517f08c379a000000000000000000000000000000000000000000000000000000000815260206004820152601a60248201527f4f7261636c6520707269636520757064617465206661696c656400000000000060448201526064016103e7565b600354604051339173ffffffffffffffffffffffffffffffffffffffff16907fccf049defd051e7117a233e0f6c01636afab6fb9b1824ae42b5bf7e034fdba37905f90a350565b600354600480546040517f136d6f21000000000000000000000000000000000000000000000000000000008152918201525f9173ffffffffffffffffffffffffffffffffffffffff169063136d6f2190602401602060405180830381865afa158015610f09573d5f5f3e3d5ffd5b505050506040513d601f19601f82011682018060405250810190610f2d9190611ec3565b610fb9576040517f08c379a000000000000000000000000000000000000000000000000000000000815260206004820152602660248201527f4265666f7265207377617020736c697070616765206c696d697420697320627260448201527f656163686564000000000000000000000000000000000000000000000000000060648201526084016103e7565b600354604080517f98d5fdca00000000000000000000000000000000000000000000000000000000815290515f9273ffffffffffffffffffffffffffffffffffffffff16916398d5fdca9160048083019260209291908290030181865afa158015611026573d5f5f3e3d5ffd5b505050506040513d601f19601f8201168201806040525081019061104a9190611cd2565b905061105583611518565b91505f60035f9054906101000a900473ffffffffffffffffffffffffffffffffffffffff1673ffffffffffffffffffffffffffffffffffffffff166398d5fdca6040518163ffffffff1660e01b8152600401602060405180830381865afa1580156110c2573d5f5f3e3d5ffd5b505050506040513d601f19601f820116820180604052508101906110e69190611cd2565b90505f606460045460646110fa9190611eb0565b6111049085611edc565b61110e9190611f20565b90505f606460045460646111229190611f33565b61112c9086611edc565b6111369190611f20565b90508183101580156111485750808311155b6111d4576040517f08c379a000000000000000000000000000000000000000000000000000000000815260206004820152602560248201527f4166746572207377617020736c697070616765206c696d69742069732062726560448201527f616368656400000000000000000000000000000000000000000000000000000060648201526084016103e7565b50505050919050565b6060818060200190518101906111f39190611f69565b600455805190915081905f9061120b5761120b612012565b602002602001015160015f6101000a81548173ffffffffffffffffffffffffffffffffffffffff021916908373ffffffffffffffffffffffffffffffffffffffff1602179055508060018151811061126557611265612012565b602002602001015160025f6101000a81548173ffffffffffffffffffffffffffffffffffffffff021916908373ffffffffffffffffffffffffffffffffffffffff160217905550806002815181106112bf576112bf612012565b602002602001015160035f6101000a81548173ffffffffffffffffffffffffffffffffffffffff021916908373ffffffffffffffffffffffffffffffffffffffff1602179055508060038151811061131957611319612012565b602002602001015160075f6101000a81548173ffffffffffffffffffffffffffffffffffffffff021916908373ffffffffffffffffffffffffffffffffffffffff1602179055505050565b6040805160028082526060820183525f9283929190602083019080368337019050509050610708815f8151811061139d5761139d612012565b63ffffffff909216602092830291909101909101526040517f883bdbfd0000000000000000000000000000000000000000000000000000000081525f9073ffffffffffffffffffffffffffffffffffffffff85169063883bdbfd9061140690859060040161203f565b5f60405180830381865afa158015611420573d5f5f3e3d5ffd5b505050506040513d5f823e601f3d9081017fffffffffffffffffffffffffffffffffffffffffffffffffffffffffffffffe016820160405261146591908101906120f5565b5090505f815f8151811061147b5761147b612012565b60200260200101518260018151811061149657611496612012565b60200260200101516114a891906121ba565b90505f6114b7610708836121ff565b90505f6114c382611737565b90506114ef73ffffffffffffffffffffffffffffffffffffffff821680680100000000000000006114fa565b979650505050505050565b828202811515841585830485141716611511575f5ffd5b0492915050565b6002546007546040517f095ea7b300000000000000000000000000000000000000000000000000000000815273ffffffffffffffffffffffffffffffffffffffff9182166004820152602481018490525f92919091169063095ea7b3906044016020604051808303815f875af1158015611594573d5f5f3e3d5ffd5b505050506040513d601f19601f820116820180604052508101906115b89190611ec3565b506040805160028082526060820183525f926020830190803683375050600254825192935073ffffffffffffffffffffffffffffffffffffffff16918391505f9061160557611605612012565b73ffffffffffffffffffffffffffffffffffffffff9283166020918202929092010152600180548351921691839190811061164257611642612012565b73ffffffffffffffffffffffffffffffffffffffff92831660209182029290920101526007546040517f38ed17390000000000000000000000000000000000000000000000000000000081525f9291909116906338ed1739906116b19087908590879030904290600401612272565b5f604051808303815f875af11580156116cc573d5f5f3e3d5ffd5b505050506040513d5f823e601f3d9081017fffffffffffffffffffffffffffffffffffffffffffffffffffffffffffffffe016820160405261171191908101906122fc565b90508060018151811061172657611726612012565b602002602001015192505050919050565b5f5f5f8360020b1261174c578260020b611753565b8260020b5f035b9050620d89e8811115611792576040517f2bc80f3a00000000000000000000000000000000000000000000000000000000815260040160405180910390fd5b5f816001165f036117b4577001000000000000000000000000000000006117c6565b6ffffcb933bd6fad37aa2d162d1a5940015b70ffffffffffffffffffffffffffffffffff16905060028216156117fa576ffff97272373d413259a46990580e213a0260801c5b6004821615611819576ffff2e50f5f656932ef12357cf3c7fdcc0260801c5b6008821615611838576fffe5caca7e10e4e61c3624eaa0941cd00260801c5b6010821615611857576fffcb9843d60f6159c9db58835c9266440260801c5b6020821615611876576fff973b41fa98c081472e6896dfb254c00260801c5b6040821615611895576fff2ea16466c96a3843ec78b326b528610260801c5b60808216156118b4576ffe5dee046a99a2a811c461f1969c30530260801c5b6101008216156118d4576ffcbe86c7900a88aedcffc83b479aa3a40260801c5b6102008216156118f4576ff987a7253ac413176f2b074cf7815e540260801c5b610400821615611914576ff3392b0822b70005940c7a398e4b70f30260801c5b610800821615611934576fe7159475a2c29b7443b29c7fa6e889d90260801c5b611000821615611954576fd097f3bdfd2022b8845ad8f792aa58250260801c5b612000821615611974576fa9f746462d870fdf8a65dc1f90e061e50260801c5b614000821615611994576f70d869a156d2a1b890bb3df62baf32f70260801c5b6180008216156119b4576f31be135f97d08fd981231505542fcfa60260801c5b620100008216156119d5576f09aa508b5b7a84e1c677de54f3e99bc90260801c5b620200008216156119f5576e5d6af8dedb81196699c329225ee6040260801c5b62040000821615611a14576d2216e584f5fa1ea926041bedfe980260801c5b62080000821615611a31576b048a170391f7dc42444e8fa20260801c5b5f8460020b1315611a6f57807fffffffffffffffffffffffffffffffffffffffffffffffffffffffffffffffff81611a6b57611a6b611ef3565b0490505b640100000000810615611a83576001611a85565b5f5b60ff16602082901c0192505050919050565b5f60208284031215611aa7575f5ffd5b5035919050565b73ffffffffffffffffffffffffffffffffffffffff8116811461071e575f5ffd5b5f60208284031215611adf575f5ffd5b8135611aea81611aae565b9392505050565b7f4e487b71000000000000000000000000000000000000000000000000000000005f52604160045260245ffd5b604051601f82017fffffffffffffffffffffffffffffffffffffffffffffffffffffffffffffffe016810167ffffffffffffffff81118282101715611b6557611b65611af1565b604052919050565b5f60208284031215611b7d575f5ffd5b813567ffffffffffffffff811115611b93575f5ffd5b8201601f81018413611ba3575f5ffd5b803567ffffffffffffffff811115611bbd57611bbd611af1565b611bee60207fffffffffffffffffffffffffffffffffffffffffffffffffffffffffffffffe0601f84011601611b1e565b818152856020838501011115611c02575f5ffd5b816020840160208301375f91810160200191909152949350505050565b5f5f5f5f60808587031215611c32575f5ffd5b8435611c3d81611aae565b93506020850135611c4d81611aae565b92506040850135611c5d81611aae565b9150606085013562ffffff81168114611c74575f5ffd5b939692955090935050565b602081525f82518060208401528060208501604085015e5f6040828501015260407fffffffffffffffffffffffffffffffffffffffffffffffffffffffffffffffe0601f83011684010191505092915050565b5f60208284031215611ce2575f5ffd5b5051919050565b7f4e487b71000000000000000000000000000000000000000000000000000000005f52601160045260245ffd5b5f7fffffffffffffffffffffffffffffffffffffffffffffffffffffffffffffffff8203611d4657611d46611ce9565b5060010190565b5f60208284031215611d5d575f5ffd5b8151611aea81611aae565b805161ffff81168114611d79575f5ffd5b919050565b80518015158114611d79575f5ffd5b5f5f5f5f5f5f5f60e0888a031215611da3575f5ffd5b8751611dae81611aae565b8097505060208801518060020b8114611dc5575f5ffd5b9550611dd360408901611d68565b9450611de160608901611d68565b9350611def60808901611d68565b925060a088015160ff81168114611e04575f5ffd5b9150611e1260c08901611d7e565b905092959891949750929550565b8051600681900b8114611d79575f5ffd5b5f5f5f5f60808587031215611e44575f5ffd5b845163ffffffff81168114611e57575f5ffd5b9350611e6560208601611e20565b92506040850151611e7581611aae565b9150611e8360608601611d7e565b905092959194509250565b63ffffffff8181168382160190811115611eaa57611eaa611ce9565b92915050565b81810381811115611eaa57611eaa611ce9565b5f60208284031215611ed3575f5ffd5b611aea82611d7e565b8082028115828204841417611eaa57611eaa611ce9565b7f4e487b71000000000000000000000000000000000000000000000000000000005f52601260045260245ffd5b5f82611f2e57611f2e611ef3565b500490565b80820180821115611eaa57611eaa611ce9565b5f67ffffffffffffffff821115611f5f57611f5f611af1565b5060051b60200190565b5f5f60408385031215611f7a575f5ffd5b825167ffffffffffffffff811115611f90575f5ffd5b8301601f81018513611fa0575f5ffd5b8051611fb3611fae82611f46565b611b1e565b8082825260208201915060208360051b850101925087831115611fd4575f5ffd5b6020840193505b82841015611fff578351611fee81611aae565b825260209384019390910190611fdb565b6020969096015195979596505050505050565b7f4e487b71000000000000000000000000000000000000000000000000000000005f52603260045260245ffd5b602080825282518282018190525f918401906040840190835b8181101561207c57835163ffffffff16835260209384019390920191600101612058565b509095945050505050565b5f82601f830112612096575f5ffd5b81516120a4611fae82611f46565b8082825260208201915060208360051b8601019250858311156120c5575f5ffd5b602085015b838110156120eb5780516120dd81611aae565b8352602092830192016120ca565b5095945050505050565b5f5f60408385031215612106575f5ffd5b825167ffffffffffffffff81111561211c575f5ffd5b8301601f8101851361212c575f5ffd5b805161213a611fae82611f46565b8082825260208201915060208360051b85010192508783111561215b575f5ffd5b6020840193505b828410156121845761217384611e20565b825260209384019390910190612162565b80955050505050602083015167ffffffffffffffff8111156121a4575f5ffd5b6121b085828601612087565b9150509250929050565b600682810b9082900b037fffffffffffffffffffffffffffffffffffffffffffffffffff800000000000008112667fffffffffffff82131715611eaa57611eaa611ce9565b5f8160060b8360060b8061221557612215611ef3565b7fffffffffffffffffffffffffffffffffffffffffffffffffffffffffffffffff81147fffffffffffffffffffffffffffffffffffffffffffffffffff800000000000008314161561226957612269611ce9565b90059392505050565b5f60a0820187835286602084015260a0604084015280865180835260c0850191506020880192505f5b818110156122cf57835173ffffffffffffffffffffffffffffffffffffffff1683526020938401939092019160010161229b565b505073ffffffffffffffffffffffffffffffffffffffff9590951660608401525050608001529392505050565b5f6020828403121561230c575f5ffd5b815167ffffffffffffffff811115612322575f5ffd5b8201601f81018413612332575f5ffd5b8051612340611fae82611f46565b8082825260208201915060208360051b850101925086831115612361575f5ffd5b6020840193505b82841015612383578351825260209384019390910190612368565b969550505050505056fea26469706673582212205b8d806a7cc144d9d6e3db4431a95745f448e530fe86e1a7f240ef3e1769343b64736f6c634300081c0033",
  "linkReferences": {},
  "deployedLinkReferences": {}
}