{
  "_format": "hh-sol-artifact-1",
  "contractName": "BuyBackBurnerUniswap",
  "sourceName": "contracts/BuyBackBurnerUniswap.sol",
  "abi": [
    {
      "inputs": [],
      "name": "AlreadyInitialized",
      "type": "error"
    },
    {
      "inputs": [
        {
          "internalType": "address",
          "name": "sender",
          "type": "address"
        },
        {
          "internalType": "address",
          "name": "owner",
          "type": "address"
        }
      ],
      "name": "OwnerOnly",
      "type": "error"
    },
    {
      "inputs": [],
      "name": "T",
      "type": "error"
    },
    {
      "inputs": [],
      "name": "ZeroAddress",
      "type": "error"
    },
    {
      "anonymous": false,
      "inputs": [
        {
          "indexed": false,
          "internalType": "uint256",
          "name": "olasAmount",
          "type": "uint256"
        }
      ],
      "name": "BuyBack",
      "type": "event"
    },
    {
      "anonymous": false,
      "inputs": [
        {
          "indexed": true,
          "internalType": "address",
          "name": "implementation",
          "type": "address"
        }
      ],
      "name": "ImplementationUpdated",
      "type": "event"
    },
    {
      "anonymous": false,
      "inputs": [
        {
          "indexed": true,
          "internalType": "address",
          "name": "oracle",
          "type": "address"
        },
        {
          "indexed": true,
          "internalType": "address",
          "name": "sender",
          "type": "address"
        }
      ],
      "name": "OraclePriceUpdated",
      "type": "event"
    },
    {
      "anonymous": false,
      "inputs": [
        {
          "indexed": true,
          "internalType": "address",
          "name": "oracle",
          "type": "address"
        }
      ],
      "name": "OracleUpdated",
      "type": "event"
    },
    {
      "anonymous": false,
      "inputs": [
        {
          "indexed": true,
          "internalType": "address",
          "name": "owner",
          "type": "address"
        }
      ],
      "name": "OwnerUpdated",
      "type": "event"
    },
    {
      "inputs": [],
      "name": "BUY_BACK_BURNER_PROXY",
      "outputs": [
        {
          "internalType": "bytes32",
          "name": "",
          "type": "bytes32"
        }
      ],
      "stateMutability": "view",
      "type": "function"
    },
    {
      "inputs": [],
      "name": "MAX_ALLOWED_DEVIATION",
      "outputs": [
        {
          "internalType": "uint256",
          "name": "",
          "type": "uint256"
        }
      ],
      "stateMutability": "view",
      "type": "function"
    },
    {
      "inputs": [],
      "name": "OLAS_BURNER",
      "outputs": [
        {
          "internalType": "address",
          "name": "",
          "type": "address"
        }
      ],
      "stateMutability": "view",
      "type": "function"
    },
    {
      "inputs": [],
      "name": "SECONDS_AGO",
      "outputs": [
        {
          "internalType": "uint32",
          "name": "",
          "type": "uint32"
        }
      ],
      "stateMutability": "view",
      "type": "function"
    },
    {
      "inputs": [],
      "name": "VERSION",
      "outputs": [
        {
          "internalType": "string",
          "name": "",
          "type": "string"
        }
      ],
      "stateMutability": "view",
      "type": "function"
    },
    {
      "inputs": [
        {
          "internalType": "uint256",
          "name": "nativeTokenAmount",
          "type": "uint256"
        }
      ],
      "name": "buyBack",
      "outputs": [],
      "stateMutability": "nonpayable",
      "type": "function"
    },
    {
      "inputs": [
        {
          "internalType": "address",
          "name": "newImplementation",
          "type": "address"
        }
      ],
      "name": "changeImplementation",
      "outputs": [],
      "stateMutability": "nonpayable",
      "type": "function"
    },
    {
      "inputs": [
        {
          "internalType": "address",
          "name": "newOracle",
          "type": "address"
        }
      ],
      "name": "changeOracle",
      "outputs": [],
      "stateMutability": "nonpayable",
      "type": "function"
    },
    {
      "inputs": [
        {
          "internalType": "address",
          "name": "newOwner",
          "type": "address"
        }
      ],
      "name": "changeOwner",
      "outputs": [],
      "stateMutability": "nonpayable",
      "type": "function"
    },
    {
      "inputs": [
        {
          "internalType": "address",
          "name": "token0",
          "type": "address"
        },
        {
          "internalType": "address",
          "name": "token1",
          "type": "address"
        },
        {
          "internalType": "address",
          "name": "uniV3PositionManager",
          "type": "address"
        },
        {
          "internalType": "uint24",
          "name": "fee",
          "type": "uint24"
        }
      ],
      "name": "checkPoolPrices",
      "outputs": [],
      "stateMutability": "view",
      "type": "function"
    },
    {
      "inputs": [
        {
          "internalType": "bytes",
          "name": "payload",
          "type": "bytes"
        }
      ],
      "name": "initialize",
      "outputs": [],
      "stateMutability": "nonpayable",
      "type": "function"
    },
    {
      "inputs": [
        {
          "internalType": "address",
          "name": "",
          "type": "address"
        }
      ],
      "name": "mapAccountActivities",
      "outputs": [
        {
          "internalType": "uint256",
          "name": "",
          "type": "uint256"
        }
      ],
      "stateMutability": "view",
      "type": "function"
    },
    {
      "inputs": [],
      "name": "maxSlippage",
      "outputs": [
        {
          "internalType": "uint256",
          "name": "",
          "type": "uint256"
        }
      ],
      "stateMutability": "view",
      "type": "function"
    },
    {
      "inputs": [],
      "name": "nativeToken",
      "outputs": [
        {
          "internalType": "address",
          "name": "",
          "type": "address"
        }
      ],
      "stateMutability": "view",
      "type": "function"
    },
    {
      "inputs": [],
      "name": "olas",
      "outputs": [
        {
          "internalType": "address",
          "name": "",
          "type": "address"
        }
      ],
      "stateMutability": "view",
      "type": "function"
    },
    {
      "inputs": [],
      "name": "oracle",
      "outputs": [
        {
          "internalType": "address",
          "name": "",
          "type": "address"
        }
      ],
      "stateMutability": "view",
      "type": "function"
    },
    {
      "inputs": [],
      "name": "owner",
      "outputs": [
        {
          "internalType": "address",
          "name": "",
          "type": "address"
        }
      ],
      "stateMutability": "view",
      "type": "function"
    },
    {
      "inputs": [],
      "name": "router",
      "outputs": [
        {
          "internalType": "address",
          "name": "",
          "type": "address"
        }
      ],
      "stateMutability": "view",
      "type": "function"
    },
    {
      "inputs": [],
      "name": "updateOraclePrice",
      "outputs": [],
      "stateMutability": "nonpayable",
      "type": "function"
    }
  ],
  "bytecode": "0x60806040526001600555348015601457600080fd5b50612481806100246000396000f3fe608060405234801561001057600080fd5b50600436106101505760003560e01c80638b9ee610116100cd578063c0bbd88411610081578063f887ea4011610066578063f887ea40146102fa578063f9cc3e9c1461031a578063ffa1ad741461034157600080fd5b8063c0bbd884146102d2578063e1758bd8146102da57600080fd5b80638da5cb5b116100b25780638da5cb5b14610281578063a6f9dae1146102a1578063aeb2d711146102b457600080fd5b80638b9ee6101461025d5780638c04166f1461027857600080fd5b8063439fab911161012457806347c421b51161010957806347c421b51461021b5780637c9e639f1461022e5780637dc0d1d01461023d57600080fd5b8063439fab91146101f557806343b23a1b1461020857600080fd5b806231d11514610155578063053f90401461019f57806317a68dd8146101b457806340b67a9b146101c7575b600080fd5b6001546101759073ffffffffffffffffffffffffffffffffffffffff1681565b60405173ffffffffffffffffffffffffffffffffffffffff90911681526020015b60405180910390f35b6101b26101ad366004611af7565b61038a565b005b6101b26101c2366004611b32565b610584565b6101e76101d5366004611b32565b60066020526000908152604090205481565b604051908152602001610196565b6101b2610203366004611bd4565b6106ac565b6101b2610216366004611c8c565b610737565b6101b2610229366004611b32565b610b09565b6101e767016345785d8a000081565b6003546101759073ffffffffffffffffffffffffffffffffffffffff1681565b6101757351eb65012ca5ceb07320c497f4151ac207fea4e081565b6101e760045481565b6000546101759073ffffffffffffffffffffffffffffffffffffffff1681565b6101b26102af366004611b32565b610c38565b6102bd61070881565b60405163ffffffff9091168152602001610196565b6101b2610d65565b6002546101759073ffffffffffffffffffffffffffffffffffffffff1681565b6007546101759073ffffffffffffffffffffffffffffffffffffffff1681565b6101e77fc6d7bd4bd971fa336816fe30b665cc6caccce8b123cc8ea692d132f342c4fc1981565b61037d6040518060400160405280600581526020017f302e322e3000000000000000000000000000000000000000000000000000000081525081565b6040516101969190611cf0565b6005546001146103fb576040517f08c379a000000000000000000000000000000000000000000000000000000000815260206004820152601060248201527f5265656e7472616e63792067756172640000000000000000000000000000000060448201526064015b60405180910390fd5b60026005819055546040517f70a0823100000000000000000000000000000000000000000000000000000000815230600482015260009173ffffffffffffffffffffffffffffffffffffffff16906370a0823190602401602060405180830381865afa15801561046f573d6000803e3d6000fd5b505050506040513d601f19601f820116820180604052508101906104939190611d5c565b90508115806104a157508082115b156104aa578091505b60008211610514576040517f08c379a000000000000000000000000000000000000000000000000000000000815260206004820181905260248201527f496e73756666696369656e74206e617469766520746f6b656e20616d6f756e7460448201526064016103f2565b33600090815260066020526040812080549161052f83611da4565b9190505550600061053f83610ecb565b90507fce4ecff3fe64868b2d2c7c1125babbbff1d01a1a2566d1edd4ed0f91deaa93508160405161057291815260200190565b60405180910390a15050600160055550565b60005473ffffffffffffffffffffffffffffffffffffffff1633146105f7576000546040517fa43d6ada00000000000000000000000000000000000000000000000000000000815233600482015273ffffffffffffffffffffffffffffffffffffffff90911660248201526044016103f2565b73ffffffffffffffffffffffffffffffffffffffff8116610644576040517fd92e233d00000000000000000000000000000000000000000000000000000000815260040160405180910390fd5b7fc6d7bd4bd971fa336816fe30b665cc6caccce8b123cc8ea692d132f342c4fc1981905560405173ffffffffffffffffffffffffffffffffffffffff8216907f310ba5f1d2ed074b51e2eccd052a47ae9ab7c6b800d1fca3db3999d6a592ca0390600090a250565b60005473ffffffffffffffffffffffffffffffffffffffff16156106fc576040517f0dc149f000000000000000000000000000000000000000000000000000000000815260040160405180910390fd5b600080547fffffffffffffffffffffffff00000000000000000000000000000000000000001633179055600160055561073481611219565b50565b60008273ffffffffffffffffffffffffffffffffffffffff1663c45a01556040518163ffffffff1660e01b8152600401602060405180830381865afa158015610784573d6000803e3d6000fd5b505050506040513d601f19601f820116820180604052508101906107a89190611ddc565b6040517f1698ee8200000000000000000000000000000000000000000000000000000000815273ffffffffffffffffffffffffffffffffffffffff8781166004830152868116602483015262ffffff85166044830152919250600091831690631698ee8290606401602060405180830381865afa15801561082d573d6000803e3d6000fd5b505050506040513d601f19601f820116820180604052508101906108519190611ddc565b905073ffffffffffffffffffffffffffffffffffffffff81166108d0576040517f08c379a000000000000000000000000000000000000000000000000000000000815260206004820152601360248201527f506f6f6c20646f6573206e6f742065786973740000000000000000000000000060448201526064016103f2565b6000808273ffffffffffffffffffffffffffffffffffffffff16633850c7bd6040518163ffffffff1660e01b815260040160e060405180830381865afa15801561091e573d6000803e3d6000fd5b505050506040513d601f19601f820116820180604052508101906109429190611e20565b50506040517f252c09d700000000000000000000000000000000000000000000000000000000815261ffff8416600482015294965091945060009373ffffffffffffffffffffffffffffffffffffffff8816935063252c09d792506024019050608060405180830381865afa1580156109bf573d6000803e3d6000fd5b505050506040513d601f19601f820116820180604052508101906109e39190611ecc565b505050905042610708826109f79190611f2d565b63ffffffff161015610a0d575050505050610b03565b6000610a18856113a5565b90506000610a4673ffffffffffffffffffffffffffffffffffffffff86168068010000000000000000611546565b905060008215610a8857828211610a7857610a73610a648385611f4f565b670de0b6b3a764000085611546565b610a85565b610a85610a648484611f4f565b90505b67016345785d8a0000811115610afa576040517f08c379a000000000000000000000000000000000000000000000000000000000815260206004820152601860248201527f507269636520646576696174696f6e20746f6f2068696768000000000000000060448201526064016103f2565b50505050505050505b50505050565b60005473ffffffffffffffffffffffffffffffffffffffff163314610b7c576000546040517fa43d6ada00000000000000000000000000000000000000000000000000000000815233600482015273ffffffffffffffffffffffffffffffffffffffff90911660248201526044016103f2565b73ffffffffffffffffffffffffffffffffffffffff8116610bc9576040517fd92e233d00000000000000000000000000000000000000000000000000000000815260040160405180910390fd5b600380547fffffffffffffffffffffffff00000000000000000000000000000000000000001673ffffffffffffffffffffffffffffffffffffffff83169081179091556040517f3df77beb5db05fcdd70a30fc8adf3f83f9501b68579455adbd100b818094039490600090a250565b60005473ffffffffffffffffffffffffffffffffffffffff163314610cab576000546040517fa43d6ada00000000000000000000000000000000000000000000000000000000815233600482015273ffffffffffffffffffffffffffffffffffffffff90911660248201526044016103f2565b73ffffffffffffffffffffffffffffffffffffffff8116610cf8576040517fd92e233d00000000000000000000000000000000000000000000000000000000815260040160405180910390fd5b600080547fffffffffffffffffffffffff00000000000000000000000000000000000000001673ffffffffffffffffffffffffffffffffffffffff8316908117825560405190917f4ffd725fc4a22075e9ec71c59edf9c38cdeb588a91b24fc5b61388c5be41282b91a250565b336000908152600660205260408120805491610d8083611da4565b9091555050600354604080517f673a7e28000000000000000000000000000000000000000000000000000000008152905160009273ffffffffffffffffffffffffffffffffffffffff169163673a7e28916004808301926020929190829003018187875af1158015610df6573d6000803e3d6000fd5b505050506040513d601f19601f82011682018060405250810190610e1a9190611f62565b905080610e83576040517f08c379a000000000000000000000000000000000000000000000000000000000815260206004820152601a60248201527f4f7261636c6520707269636520757064617465206661696c656400000000000060448201526064016103f2565b600354604051339173ffffffffffffffffffffffffffffffffffffffff16907fccf049defd051e7117a233e0f6c01636afab6fb9b1824ae42b5bf7e034fdba3790600090a350565b600354600480546040517f136d6f210000000000000000000000000000000000000000000000000000000081529182015260009173ffffffffffffffffffffffffffffffffffffffff169063136d6f2190602401602060405180830381865afa158015610f3c573d6000803e3d6000fd5b505050506040513d601f19601f82011682018060405250810190610f609190611f62565b610fec576040517f08c379a000000000000000000000000000000000000000000000000000000000815260206004820152602660248201527f4265666f7265207377617020736c697070616765206c696d697420697320627260448201527f656163686564000000000000000000000000000000000000000000000000000060648201526084016103f2565b600354604080517f98d5fdca000000000000000000000000000000000000000000000000000000008152905160009273ffffffffffffffffffffffffffffffffffffffff16916398d5fdca9160048083019260209291908290030181865afa15801561105c573d6000803e3d6000fd5b505050506040513d601f19601f820116820180604052508101906110809190611d5c565b905061108b83611565565b91506000600360009054906101000a900473ffffffffffffffffffffffffffffffffffffffff1673ffffffffffffffffffffffffffffffffffffffff166398d5fdca6040518163ffffffff1660e01b8152600401602060405180830381865afa1580156110fc573d6000803e3d6000fd5b505050506040513d601f19601f820116820180604052508101906111209190611d5c565b90506000606460045460646111359190611f4f565b61113f9085611f7d565b6111499190611fc3565b905060006064600454606461115e9190611fd7565b6111689086611f7d565b6111729190611fc3565b90508183101580156111845750808311155b611210576040517f08c379a000000000000000000000000000000000000000000000000000000000815260206004820152602560248201527f4166746572207377617020736c697070616765206c696d69742069732062726560448201527f616368656400000000000000000000000000000000000000000000000000000060648201526084016103f2565b50505050919050565b60608180602001905181019061122f919061200e565b60045580519091508190600090611248576112486120bc565b6020026020010151600160006101000a81548173ffffffffffffffffffffffffffffffffffffffff021916908373ffffffffffffffffffffffffffffffffffffffff160217905550806001815181106112a3576112a36120bc565b6020026020010151600260006101000a81548173ffffffffffffffffffffffffffffffffffffffff021916908373ffffffffffffffffffffffffffffffffffffffff160217905550806002815181106112fe576112fe6120bc565b6020026020010151600360006101000a81548173ffffffffffffffffffffffffffffffffffffffff021916908373ffffffffffffffffffffffffffffffffffffffff16021790555080600381518110611359576113596120bc565b6020026020010151600760006101000a81548173ffffffffffffffffffffffffffffffffffffffff021916908373ffffffffffffffffffffffffffffffffffffffff1602179055505050565b60408051600280825260608201835260009283929190602083019080368337019050509050610708816000815181106113e0576113e06120bc565b63ffffffff909216602092830291909101909101526040517f883bdbfd00000000000000000000000000000000000000000000000000000000815260009073ffffffffffffffffffffffffffffffffffffffff85169063883bdbfd9061144a9085906004016120eb565b600060405180830381865afa158015611467573d6000803e3d6000fd5b505050506040513d6000823e601f3d9081017fffffffffffffffffffffffffffffffffffffffffffffffffffffffffffffffe01682016040526114ad91908101906121a5565b5090506000816000815181106114c5576114c56120bc565b6020026020010151826001815181106114e0576114e06120bc565b60200260200101516114f29190612270565b90506000611502610708836122b5565b9050600061150f82611790565b905061153b73ffffffffffffffffffffffffffffffffffffffff82168068010000000000000000611546565b979650505050505050565b82820281151584158583048514171661155e57600080fd5b0492915050565b6002546007546040517f095ea7b300000000000000000000000000000000000000000000000000000000815273ffffffffffffffffffffffffffffffffffffffff918216600482015260248101849052600092919091169063095ea7b3906044016020604051808303816000875af11580156115e5573d6000803e3d6000fd5b505050506040513d601f19601f820116820180604052508101906116099190611f62565b506040805160028082526060820183526000926020830190803683375050600254825192935073ffffffffffffffffffffffffffffffffffffffff1691839150600090611658576116586120bc565b73ffffffffffffffffffffffffffffffffffffffff92831660209182029290920101526001805483519216918391908110611695576116956120bc565b73ffffffffffffffffffffffffffffffffffffffff92831660209182029290920101526007546040517f38ed173900000000000000000000000000000000000000000000000000000000815260009291909116906338ed1739906117059087908590879030904290600401612329565b6000604051808303816000875af1158015611724573d6000803e3d6000fd5b505050506040513d6000823e601f3d9081017fffffffffffffffffffffffffffffffffffffffffffffffffffffffffffffffe016820160405261176a91908101906123b5565b90508060018151811061177f5761177f6120bc565b602002602001015192505050919050565b60008060008360020b126117a7578260020b6117af565b8260020b6000035b9050620d89e88111156117ee576040517f2bc80f3a00000000000000000000000000000000000000000000000000000000815260040160405180910390fd5b60008160011660000361181257700100000000000000000000000000000000611824565b6ffffcb933bd6fad37aa2d162d1a5940015b70ffffffffffffffffffffffffffffffffff1690506002821615611858576ffff97272373d413259a46990580e213a0260801c5b6004821615611877576ffff2e50f5f656932ef12357cf3c7fdcc0260801c5b6008821615611896576fffe5caca7e10e4e61c3624eaa0941cd00260801c5b60108216156118b5576fffcb9843d60f6159c9db58835c9266440260801c5b60208216156118d4576fff973b41fa98c081472e6896dfb254c00260801c5b60408216156118f3576fff2ea16466c96a3843ec78b326b528610260801c5b6080821615611912576ffe5dee046a99a2a811c461f1969c30530260801c5b610100821615611932576ffcbe86c7900a88aedcffc83b479aa3a40260801c5b610200821615611952576ff987a7253ac413176f2b074cf7815e540260801c5b610400821615611972576ff3392b0822b70005940c7a398e4b70f30260801c5b610800821615611992576fe7159475a2c29b7443b29c7fa6e889d90260801c5b6110008216156119b2576fd097f3bdfd2022b8845ad8f792aa58250260801c5b6120008216156119d2576fa9f746462d870fdf8a65dc1f90e061e50260801c5b6140008216156119f2576f70d869a156d2a1b890bb3df62baf32f70260801c5b618000821615611a12576f31be135f97d08fd981231505542fcfa60260801c5b62010000821615611a33576f09aa508b5b7a84e1c677de54f3e99bc90260801c5b62020000821615611a53576e5d6af8dedb81196699c329225ee6040260801c5b62040000821615611a72576d2216e584f5fa1ea926041bedfe980260801c5b62080000821615611a8f576b048a170391f7dc42444e8fa20260801c5b60008460020b1315611ace57807fffffffffffffffffffffffffffffffffffffffffffffffffffffffffffffffff81611aca57611aca611f94565b0490505b640100000000810615611ae2576001611ae5565b60005b60ff16602082901c0192505050919050565b600060208284031215611b0957600080fd5b5035919050565b73ffffffffffffffffffffffffffffffffffffffff8116811461073457600080fd5b600060208284031215611b4457600080fd5b8135611b4f81611b10565b9392505050565b7f4e487b7100000000000000000000000000000000000000000000000000000000600052604160045260246000fd5b604051601f82017fffffffffffffffffffffffffffffffffffffffffffffffffffffffffffffffe016810167ffffffffffffffff81118282101715611bcc57611bcc611b56565b604052919050565b600060208284031215611be657600080fd5b813567ffffffffffffffff811115611bfd57600080fd5b8201601f81018413611c0e57600080fd5b803567ffffffffffffffff811115611c2857611c28611b56565b611c5960207fffffffffffffffffffffffffffffffffffffffffffffffffffffffffffffffe0601f84011601611b85565b818152856020838501011115611c6e57600080fd5b81602084016020830137600091810160200191909152949350505050565b60008060008060808587031215611ca257600080fd5b8435611cad81611b10565b93506020850135611cbd81611b10565b92506040850135611ccd81611b10565b9150606085013562ffffff81168114611ce557600080fd5b939692955090935050565b602081526000825180602084015260005b81811015611d1e5760208186018101516040868401015201611d01565b5060006040828501015260407fffffffffffffffffffffffffffffffffffffffffffffffffffffffffffffffe0601f83011684010191505092915050565b600060208284031215611d6e57600080fd5b5051919050565b7f4e487b7100000000000000000000000000000000000000000000000000000000600052601160045260246000fd5b60007fffffffffffffffffffffffffffffffffffffffffffffffffffffffffffffffff8203611dd557611dd5611d75565b5060010190565b600060208284031215611dee57600080fd5b8151611b4f81611b10565b805161ffff81168114611e0b57600080fd5b919050565b80518015158114611e0b57600080fd5b600080600080600080600060e0888a031215611e3b57600080fd5b8751611e4681611b10565b8097505060208801518060020b8114611e5e57600080fd5b9550611e6c60408901611df9565b9450611e7a60608901611df9565b9350611e8860808901611df9565b925060a088015160ff81168114611e9e57600080fd5b9150611eac60c08901611e10565b905092959891949750929550565b8051600681900b8114611e0b57600080fd5b60008060008060808587031215611ee257600080fd5b845163ffffffff81168114611ef657600080fd5b9350611f0460208601611eba565b92506040850151611f1481611b10565b9150611f2260608601611e10565b905092959194509250565b63ffffffff8181168382160190811115611f4957611f49611d75565b92915050565b81810381811115611f4957611f49611d75565b600060208284031215611f7457600080fd5b611b4f82611e10565b8082028115828204841417611f4957611f49611d75565b7f4e487b7100000000000000000000000000000000000000000000000000000000600052601260045260246000fd5b600082611fd257611fd2611f94565b500490565b80820180821115611f4957611f49611d75565b600067ffffffffffffffff82111561200457612004611b56565b5060051b60200190565b6000806040838503121561202157600080fd5b825167ffffffffffffffff81111561203857600080fd5b8301601f8101851361204957600080fd5b805161205c61205782611fea565b611b85565b8082825260208201915060208360051b85010192508783111561207e57600080fd5b6020840193505b828410156120a957835161209881611b10565b825260209384019390910190612085565b6020969096015195979596505050505050565b7f4e487b7100000000000000000000000000000000000000000000000000000000600052603260045260246000fd5b602080825282518282018190526000918401906040840190835b8181101561212957835163ffffffff16835260209384019390920191600101612105565b509095945050505050565b600082601f83011261214557600080fd5b815161215361205782611fea565b8082825260208201915060208360051b86010192508583111561217557600080fd5b602085015b8381101561219b57805161218d81611b10565b83526020928301920161217a565b5095945050505050565b600080604083850312156121b857600080fd5b825167ffffffffffffffff8111156121cf57600080fd5b8301601f810185136121e057600080fd5b80516121ee61205782611fea565b8082825260208201915060208360051b85010192508783111561221057600080fd5b6020840193505b828410156122395761222884611eba565b825260209384019390910190612217565b80955050505050602083015167ffffffffffffffff81111561225a57600080fd5b61226685828601612134565b9150509250929050565b600682810b9082900b037fffffffffffffffffffffffffffffffffffffffffffffffffff800000000000008112667fffffffffffff82131715611f4957611f49611d75565b60008160060b8360060b806122cc576122cc611f94565b7fffffffffffffffffffffffffffffffffffffffffffffffffffffffffffffffff81147fffffffffffffffffffffffffffffffffffffffffffffffffff800000000000008314161561232057612320611d75565b90059392505050565b600060a0820187835286602084015260a0604084015280865180835260c08501915060208801925060005b8181101561238857835173ffffffffffffffffffffffffffffffffffffffff16835260209384019390920191600101612354565b505073ffffffffffffffffffffffffffffffffffffffff9590951660608401525050608001529392505050565b6000602082840312156123c757600080fd5b815167ffffffffffffffff8111156123de57600080fd5b8201601f810184136123ef57600080fd5b80516123fd61205782611fea565b8082825260208201915060208360051b85010192508683111561241f57600080fd5b6020840193505b82841015612441578351825260209384019390910190612426565b969550505050505056fea264697066735822122061e9bdf25329413bc8195ad412b18158f182dd641858661db5a6a2ca22f07a5164736f6c634300081c0033",
  "linkReferences": {},
  "deployedLinkReferences": {}
}