{
  "_format": "hh-sol-artifact-1",
  "contractName": "MemeArbitrum",
  "sourceName": "contracts/MemeArbitrum.sol",
  "abi": [
    {
      "inputs": [
        {
          "internalType": "address",
          "name": "_olas",
          "type": "address"
        },
        {
          "internalType": "address",
          "name": "_nativeToken",
          "type": "address"
        },
        {
          "internalType": "address",
          "name": "_uniV3PositionManager",
          "type": "address"
        },
        {
          "internalType": "address",
          "name": "_buyBackBurner",
          "type": "address"
        },
        {
          "internalType": "uint256",
          "name": "_minNativeTokenValue",
          "type": "uint256"
        }
      ],
      "stateMutability": "nonpayable",
      "type": "constructor"
    },
    {
      "anonymous": false,
      "inputs": [
        {
          "indexed": true,
          "internalType": "address",
          "name": "hearter",
          "type": "address"
        },
        {
          "indexed": true,
          "internalType": "address",
          "name": "memeToken",
          "type": "address"
        },
        {
          "indexed": false,
          "internalType": "uint256",
          "name": "allocation",
          "type": "uint256"
        }
      ],
      "name": "Collected",
      "type": "event"
    },
    {
      "anonymous": false,
      "inputs": [
        {
          "indexed": true,
          "internalType": "address",
          "name": "feeCollector",
          "type": "address"
        },
        {
          "indexed": true,
          "internalType": "address",
          "name": "memeToken",
          "type": "address"
        },
        {
          "indexed": false,
          "internalType": "uint256",
          "name": "nativeTokenAmount",
          "type": "uint256"
        },
        {
          "indexed": false,
          "internalType": "uint256",
          "name": "memeTokenAmount",
          "type": "uint256"
        }
      ],
      "name": "FeesCollected",
      "type": "event"
    },
    {
      "anonymous": false,
      "inputs": [
        {
          "indexed": true,
          "internalType": "address",
          "name": "hearter",
          "type": "address"
        },
        {
          "indexed": true,
          "internalType": "uint256",
          "name": "memeNonce",
          "type": "uint256"
        },
        {
          "indexed": false,
          "internalType": "uint256",
          "name": "amount",
          "type": "uint256"
        }
      ],
      "name": "Hearted",
      "type": "event"
    },
    {
      "anonymous": false,
      "inputs": [
        {
          "indexed": false,
          "internalType": "uint256",
          "name": "amount",
          "type": "uint256"
        }
      ],
      "name": "OLASJourneyToAscendance",
      "type": "event"
    },
    {
      "anonymous": false,
      "inputs": [
        {
          "indexed": true,
          "internalType": "address",
          "name": "memeToken",
          "type": "address"
        },
        {
          "indexed": false,
          "internalType": "uint256",
          "name": "amount",
          "type": "uint256"
        }
      ],
      "name": "Purged",
      "type": "event"
    },
    {
      "anonymous": false,
      "inputs": [
        {
          "indexed": true,
          "internalType": "address",
          "name": "summoner",
          "type": "address"
        },
        {
          "indexed": true,
          "internalType": "uint256",
          "name": "memeNonce",
          "type": "uint256"
        },
        {
          "indexed": false,
          "internalType": "uint256",
          "name": "amount",
          "type": "uint256"
        }
      ],
      "name": "Summoned",
      "type": "event"
    },
    {
      "anonymous": false,
      "inputs": [
        {
          "indexed": true,
          "internalType": "address",
          "name": "unleasher",
          "type": "address"
        },
        {
          "indexed": true,
          "internalType": "uint256",
          "name": "memeNonce",
          "type": "uint256"
        },
        {
          "indexed": true,
          "internalType": "address",
          "name": "memeToken",
          "type": "address"
        },
        {
          "indexed": false,
          "internalType": "uint256",
          "name": "lpTokenId",
          "type": "uint256"
        },
        {
          "indexed": false,
          "internalType": "uint256",
          "name": "liquidity",
          "type": "uint256"
        }
      ],
      "name": "Unleashed",
      "type": "event"
    },
    {
      "inputs": [],
      "name": "COLLECT_DELAY",
      "outputs": [
        {
          "internalType": "uint256",
          "name": "",
          "type": "uint256"
        }
      ],
      "stateMutability": "view",
      "type": "function"
    },
    {
      "inputs": [],
      "name": "DECIMALS",
      "outputs": [
        {
          "internalType": "uint8",
          "name": "",
          "type": "uint8"
        }
      ],
      "stateMutability": "view",
      "type": "function"
    },
    {
      "inputs": [],
      "name": "FEE_TIER",
      "outputs": [
        {
          "internalType": "uint24",
          "name": "",
          "type": "uint24"
        }
      ],
      "stateMutability": "view",
      "type": "function"
    },
    {
      "inputs": [],
      "name": "LP_PERCENTAGE",
      "outputs": [
        {
          "internalType": "uint256",
          "name": "",
          "type": "uint256"
        }
      ],
      "stateMutability": "view",
      "type": "function"
    },
    {
      "inputs": [],
      "name": "MAX_TICK",
      "outputs": [
        {
          "internalType": "int24",
          "name": "",
          "type": "int24"
        }
      ],
      "stateMutability": "view",
      "type": "function"
    },
    {
      "inputs": [],
      "name": "MIN_TICK",
      "outputs": [
        {
          "internalType": "int24",
          "name": "",
          "type": "int24"
        }
      ],
      "stateMutability": "view",
      "type": "function"
    },
    {
      "inputs": [],
      "name": "MIN_TOTAL_SUPPLY",
      "outputs": [
        {
          "internalType": "uint256",
          "name": "",
          "type": "uint256"
        }
      ],
      "stateMutability": "view",
      "type": "function"
    },
    {
      "inputs": [],
      "name": "OLAS_BURN_PERCENTAGE",
      "outputs": [
        {
          "internalType": "uint256",
          "name": "",
          "type": "uint256"
        }
      ],
      "stateMutability": "view",
      "type": "function"
    },
    {
      "inputs": [],
      "name": "UNLEASH_DELAY",
      "outputs": [
        {
          "internalType": "uint256",
          "name": "",
          "type": "uint256"
        }
      ],
      "stateMutability": "view",
      "type": "function"
    },
    {
      "inputs": [],
      "name": "VERSION",
      "outputs": [
        {
          "internalType": "string",
          "name": "",
          "type": "string"
        }
      ],
      "stateMutability": "view",
      "type": "function"
    },
    {
      "inputs": [],
      "name": "buyBackBurner",
      "outputs": [
        {
          "internalType": "address",
          "name": "",
          "type": "address"
        }
      ],
      "stateMutability": "view",
      "type": "function"
    },
    {
      "inputs": [
        {
          "internalType": "address[]",
          "name": "tokens",
          "type": "address[]"
        }
      ],
      "name": "collectFees",
      "outputs": [],
      "stateMutability": "nonpayable",
      "type": "function"
    },
    {
      "inputs": [
        {
          "internalType": "address",
          "name": "memeToken",
          "type": "address"
        }
      ],
      "name": "collectThisMeme",
      "outputs": [],
      "stateMutability": "nonpayable",
      "type": "function"
    },
    {
      "inputs": [
        {
          "internalType": "uint256",
          "name": "memeNonce",
          "type": "uint256"
        }
      ],
      "name": "heartThisMeme",
      "outputs": [],
      "stateMutability": "payable",
      "type": "function"
    },
    {
      "inputs": [
        {
          "internalType": "address",
          "name": "",
          "type": "address"
        }
      ],
      "name": "mapAccountActivities",
      "outputs": [
        {
          "internalType": "uint256",
          "name": "",
          "type": "uint256"
        }
      ],
      "stateMutability": "view",
      "type": "function"
    },
    {
      "inputs": [
        {
          "internalType": "uint256",
          "name": "",
          "type": "uint256"
        },
        {
          "internalType": "address",
          "name": "",
          "type": "address"
        }
      ],
      "name": "memeHearters",
      "outputs": [
        {
          "internalType": "uint256",
          "name": "",
          "type": "uint256"
        }
      ],
      "stateMutability": "view",
      "type": "function"
    },
    {
      "inputs": [
        {
          "internalType": "uint256",
          "name": "",
          "type": "uint256"
        }
      ],
      "name": "memeSummons",
      "outputs": [
        {
          "internalType": "string",
          "name": "name",
          "type": "string"
        },
        {
          "internalType": "string",
          "name": "symbol",
          "type": "string"
        },
        {
          "internalType": "uint256",
          "name": "totalSupply",
          "type": "uint256"
        },
        {
          "internalType": "uint256",
          "name": "nativeTokenContributed",
          "type": "uint256"
        },
        {
          "internalType": "uint256",
          "name": "summonTime",
          "type": "uint256"
        },
        {
          "internalType": "uint256",
          "name": "unleashTime",
          "type": "uint256"
        },
        {
          "internalType": "uint256",
          "name": "heartersAmount",
          "type": "uint256"
        },
        {
          "internalType": "uint256",
          "name": "positionId",
          "type": "uint256"
        },
        {
          "internalType": "bool",
          "name": "isNativeFirst",
          "type": "bool"
        }
      ],
      "stateMutability": "view",
      "type": "function"
    },
    {
      "inputs": [
        {
          "internalType": "address",
          "name": "",
          "type": "address"
        }
      ],
      "name": "memeTokenNonces",
      "outputs": [
        {
          "internalType": "uint256",
          "name": "",
          "type": "uint256"
        }
      ],
      "stateMutability": "view",
      "type": "function"
    },
    {
      "inputs": [
        {
          "internalType": "uint256",
          "name": "",
          "type": "uint256"
        }
      ],
      "name": "memeTokens",
      "outputs": [
        {
          "internalType": "address",
          "name": "",
          "type": "address"
        }
      ],
      "stateMutability": "view",
      "type": "function"
    },
    {
      "inputs": [],
      "name": "minNativeTokenValue",
      "outputs": [
        {
          "internalType": "uint256",
          "name": "",
          "type": "uint256"
        }
      ],
      "stateMutability": "view",
      "type": "function"
    },
    {
      "inputs": [],
      "name": "nativeToken",
      "outputs": [
        {
          "internalType": "address",
          "name": "",
          "type": "address"
        }
      ],
      "stateMutability": "view",
      "type": "function"
    },
    {
      "inputs": [],
      "name": "numTokens",
      "outputs": [
        {
          "internalType": "uint256",
          "name": "",
          "type": "uint256"
        }
      ],
      "stateMutability": "view",
      "type": "function"
    },
    {
      "inputs": [],
      "name": "olas",
      "outputs": [
        {
          "internalType": "address",
          "name": "",
          "type": "address"
        }
      ],
      "stateMutability": "view",
      "type": "function"
    },
    {
      "inputs": [
        {
          "internalType": "address",
          "name": "memeToken",
          "type": "address"
        }
      ],
      "name": "purgeThisMeme",
      "outputs": [],
      "stateMutability": "nonpayable",
      "type": "function"
    },
    {
      "inputs": [],
      "name": "scheduleForAscendance",
      "outputs": [],
      "stateMutability": "nonpayable",
      "type": "function"
    },
    {
      "inputs": [],
      "name": "scheduledForAscendance",
      "outputs": [
        {
          "internalType": "uint256",
          "name": "",
          "type": "uint256"
        }
      ],
      "stateMutability": "view",
      "type": "function"
    },
    {
      "inputs": [
        {
          "internalType": "string",
          "name": "name",
          "type": "string"
        },
        {
          "internalType": "string",
          "name": "symbol",
          "type": "string"
        },
        {
          "internalType": "uint256",
          "name": "totalSupply",
          "type": "uint256"
        }
      ],
      "name": "summonThisMeme",
      "outputs": [],
      "stateMutability": "payable",
      "type": "function"
    },
    {
      "inputs": [],
      "name": "uniV3PositionManager",
      "outputs": [
        {
          "internalType": "address",
          "name": "",
          "type": "address"
        }
      ],
      "stateMutability": "view",
      "type": "function"
    },
    {
      "inputs": [
        {
          "internalType": "uint256",
          "name": "memeNonce",
          "type": "uint256"
        }
      ],
      "name": "unleashThisMeme",
      "outputs": [],
      "stateMutability": "nonpayable",
      "type": "function"
    }
  ],
  "bytecode": "0x61012060405260016002556001600355600160045534801561001f575f5ffd5b50604051614d1b380380614d1b83398101604081905261003e91610082565b6001600160a01b0394851660a05292841660c05290831660e052909116610100526080526100dc565b80516001600160a01b038116811461007d575f5ffd5b919050565b5f5f5f5f5f60a08688031215610096575f5ffd5b61009f86610067565b94506100ad60208701610067565b93506100bb60408701610067565b92506100c960608701610067565b9150608086015190509295509295909350565b60805160a05160c05160e05161010051614b8b6101905f395f8181610432015281816111f4015261234401525f81816104ac0152818161230e0152818161243301528181612a2401528181612c2f01528181612cd601528181612d910152612ef401525f81816105770152818161122301528181611f180152818161227a015281816122a00152818161292f0152818161297a01526129a201525f6101ce01525f81816104df015261155a0152614b8b5ff3fe6080604052600436106101b9575f3560e01c806372f2a36b116100f2578063b72124e311610092578063e0be161711610062578063e0be161714610553578063e1758bd814610566578063f74e481b14610599578063ffa1ad74146105b8575f5ffd5b8063b72124e314610514578063be399e2b1461052a578063d1b0c28814610514578063dab346ff1461053f575f5ffd5b8063a1634b14116100cd578063a1634b1414610468578063a2a7eb951461049b578063a5ae390c146104ce578063b1bd3c9514610501575f5ffd5b806372f2a36b146103ed578063803551a9146104215780638e499bcf14610454575f5ffd5b806340b67a9b1161015d5780635122c409116101385780635122c4091461037657806358c0f7291461039357806367608ad0146103b25780636882a888146103c6575f5ffd5b806340b67a9b14610303578063466ffbce1461032e5780634c69a6c91461034d575f5ffd5b80631ecfd535116101985780631ecfd5351461027f5780632e0f2625146102aa57806335f9f8d9146102d05780633d0cc375146102e4575f5ffd5b806231d115146101bd57806309ca5a111461021a5780630df400c61461023b575b5f5ffd5b3480156101c8575f5ffd5b506101f07f000000000000000000000000000000000000000000000000000000000000000081565b60405173ffffffffffffffffffffffffffffffffffffffff90911681526020015b60405180910390f35b348015610225575f5ffd5b50610239610234366004613137565b61060d565b005b348015610246575f5ffd5b50610271610255366004613172565b600660209081525f928352604080842090915290825290205481565b604051908152602001610211565b34801561028a575f5ffd5b506102716102993660046131a0565b60076020525f908152604090205481565b3480156102b5575f5ffd5b506102be601281565b60405160ff9091168152602001610211565b3480156102db575f5ffd5b50610271603281565b3480156102ef575f5ffd5b506102396102fe3660046131a0565b610865565b34801561030e575f5ffd5b5061027161031d3660046131a0565b60086020525f908152604090205481565b348015610339575f5ffd5b506101f0610348366004613137565b610da9565b348015610358575f5ffd5b5061036261271081565b60405162ffffff9091168152602001610211565b348015610381575f5ffd5b5061027169d3c21bcecceda100000081565b34801561039e575f5ffd5b506102396103ad36600461323e565b610dde565b3480156103bd575f5ffd5b506102396110a3565b3480156103d1575f5ffd5b506103da6112c9565b60405160029190910b8152602001610211565b3480156103f8575f5ffd5b5061040c610407366004613137565b6112f5565b6040516102119998979695949392919061333e565b34801561042c575f5ffd5b506101f07f000000000000000000000000000000000000000000000000000000000000000081565b34801561045f575f5ffd5b506102715f5481565b348015610473575f5ffd5b506103da7ffffffffffffffffffffffffffffffffffffffffffffffffffffffffffff2766081565b3480156104a6575f5ffd5b506101f07f000000000000000000000000000000000000000000000000000000000000000081565b3480156104d9575f5ffd5b506102717f000000000000000000000000000000000000000000000000000000000000000081565b61023961050f366004613429565b61144b565b34801561051f575f5ffd5b506102716201518081565b348015610535575f5ffd5b5061027160015481565b34801561054a575f5ffd5b50610271600a81565b610239610561366004613137565b61189f565b348015610571575f5ffd5b506101f07f000000000000000000000000000000000000000000000000000000000000000081565b3480156105a4575f5ffd5b506102396105b33660046131a0565b611b29565b3480156105c3575f5ffd5b506106006040518060400160405280600581526020017f302e322e3000000000000000000000000000000000000000000000000000000081525081565b6040516102119190613497565b60035460011461067e576040517f08c379a000000000000000000000000000000000000000000000000000000000815260206004820152601060248201527f5265656e7472616e63792067756172640000000000000000000000000000000060448201526064015b60405180910390fd5b60026003555f81815260056020526040902060048101546106fb576040517f08c379a000000000000000000000000000000000000000000000000000000000815260206004820152601560248201527f4d656d65206e6f74207965742073756d6d6f6e656400000000000000000000006044820152606401610675565b600581015415610767576040517f08c379a000000000000000000000000000000000000000000000000000000000815260206004820152601660248201527f4d656d6520616c726561647920756e6c656173686564000000000000000000006044820152606401610675565b62015180816004015461077a91906134d6565b4210156107e3576040517f08c379a000000000000000000000000000000000000000000000000000000000815260206004820152601260248201527f43616e6e6f7420756e6c656173682079657400000000000000000000000000006044820152606401610675565b60038101546107f181611f16565b5f60646107ff600a846134ef565b6108099190613506565b90505f610816828461353e565b90508160015f82825461082991906134d6565b9091555050335f90815260086020526040812080549161084883613551565b919050555061085985858386611f96565b50506001600355505050565b6003546001146108d1576040517f08c379a000000000000000000000000000000000000000000000000000000000815260206004820152601060248201527f5265656e7472616e6379206775617264000000000000000000000000000000006044820152606401610675565b600260035573ffffffffffffffffffffffffffffffffffffffff81165f9081526007602090815260408083205480845260059092528083208151610120810190925280549293928290829061092590613588565b80601f016020809104026020016040519081016040528092919081815260200182805461095190613588565b801561099c5780601f106109735761010080835404028352916020019161099c565b820191905f5260205f20905b81548152906001019060200180831161097f57829003601f168201915b505050505081526020016001820180546109b590613588565b80601f01602080910402602001604051908101604052809291908181526020018280546109e190613588565b8015610a2c5780601f10610a0357610100808354040283529160200191610a2c565b820191905f5260205f20905b815481529060010190602001808311610a0f57829003601f168201915b505050918352505060028201546020820152600382015460408201526004820154606082015260058201546080820152600682015460a080830191909152600783015460c083015260089092015460ff16151560e090910152810151909150610af1576040517f08c379a000000000000000000000000000000000000000000000000000000000815260206004820152601260248201527f4d656d65206e6f7420756e6c65617368656400000000000000000000000000006044820152606401610675565b620151808160a00151610b0491906134d6565b4211610b92576040517f08c379a000000000000000000000000000000000000000000000000000000000815260206004820152602e60248201527f5075726765206f6e6c7920616c6c6f7765642066726f6d20323420686f75727360448201527f20616674657220756e6c656173680000000000000000000000000000000000006064820152608401610675565b335f908152600860205260408120805491610bac83613551565b90915550506040517f70a0823100000000000000000000000000000000000000000000000000000000815230600482015283905f9073ffffffffffffffffffffffffffffffffffffffff8316906370a0823190602401602060405180830381865afa158015610c1d573d5f5f3e3d5ffd5b505050506040513d601f19601f82011682018060405250810190610c4191906135d9565b90505f8111610cd2576040517f08c379a000000000000000000000000000000000000000000000000000000000815260206004820152602360248201527f486173206265656e20707572676564206f72206e6f7468696e6720746f20707560448201527f72676500000000000000000000000000000000000000000000000000000000006064820152608401610675565b6040517f42966c680000000000000000000000000000000000000000000000000000000081526004810182905273ffffffffffffffffffffffffffffffffffffffff8316906342966c68906024015f604051808303815f87803b158015610d37575f5ffd5b505af1158015610d49573d5f5f3e3d5ffd5b505050508473ffffffffffffffffffffffffffffffffffffffff167f265db6c9c62cb962adbcf4398a54e4b02b2d87b28ab5b7538850150465a5f43c82604051610d9591815260200190565b60405180910390a250506001600355505050565b60098181548110610db8575f80fd5b5f9182526020909120015473ffffffffffffffffffffffffffffffffffffffff16905081565b600354600114610e4a576040517f08c379a000000000000000000000000000000000000000000000000000000000815260206004820152601060248201527f5265656e7472616e6379206775617264000000000000000000000000000000006044820152606401610675565b6002600355335f908152600860205260408120805491610e6983613551565b909155505f90505b815181101561109a575f60075f848481518110610e9057610e906135f0565b602002602001015173ffffffffffffffffffffffffffffffffffffffff1673ffffffffffffffffffffffffffffffffffffffff1681526020019081526020015f205490505f60055f8381526020019081526020015f20604051806101200160405290815f82018054610f0190613588565b80601f0160208091040260200160405190810160405280929190818152602001828054610f2d90613588565b8015610f785780601f10610f4f57610100808354040283529160200191610f78565b820191905f5260205f20905b815481529060010190602001808311610f5b57829003601f168201915b50505050508152602001600182018054610f9190613588565b80601f0160208091040260200160405190810160405280929190818152602001828054610fbd90613588565b80156110085780601f10610fdf57610100808354040283529160200191611008565b820191905f5260205f20905b815481529060010190602001808311610feb57829003601f168201915b505050918352505060028201546020820152600382015460408201526004820154606082015260058201546080820152600682015460a0820152600782015460c082015260089091015460ff16151560e090910152845190915061109090859085908110611078576110786135f0565b60200260200101518260e00151836101000151612270565b5050600101610e71565b50506001600355565b60035460011461110f576040517f08c379a000000000000000000000000000000000000000000000000000000000815260206004820152601060248201527f5265656e7472616e6379206775617264000000000000000000000000000000006044820152606401610675565b60026003556004545f9061112557600154611129565b6001545b90505f8111611194576040517f08c379a000000000000000000000000000000000000000000000000000000000815260206004820152600f60248201527f4e6f7468696e6720746f2073656e6400000000000000000000000000000000006044820152606401610675565b5f60018190553381526008602052604081208054916111b283613551565b90915550506040517fa9059cbb00000000000000000000000000000000000000000000000000000000815273ffffffffffffffffffffffffffffffffffffffff7f000000000000000000000000000000000000000000000000000000000000000081166004830152602482018390527f0000000000000000000000000000000000000000000000000000000000000000169063a9059cbb906044016020604051808303815f875af1158015611269573d5f5f3e3d5ffd5b505050506040513d601f19601f8201168201806040525081019061128d919061361d565b506040518181527f132eb3b7605c938c3aa08831e03193219701a828c869ae61e2eac9ae2e97d6439060200160405180910390a1506001600355565b6112f27ffffffffffffffffffffffffffffffffffffffffffffffffffffffffffff2766061363c565b81565b60056020525f908152604090208054819061130f90613588565b80601f016020809104026020016040519081016040528092919081815260200182805461133b90613588565b80156113865780601f1061135d57610100808354040283529160200191611386565b820191905f5260205f20905b81548152906001019060200180831161136957829003601f168201915b50505050509080600101805461139b90613588565b80601f01602080910402602001604051908101604052809291908181526020018280546113c790613588565b80156114125780601f106113e957610100808354040283529160200191611412565b820191905f5260205f20905b8154815290600101906020018083116113f557829003601f168201915b50505050600283015460038401546004850154600586015460068701546007880154600890980154969794969395509193909260ff1689565b6003546001146114b7576040517f08c379a000000000000000000000000000000000000000000000000000000000815260206004820152601060248201527f5265656e7472616e6379206775617264000000000000000000000000000000006044820152606401610675565b60026003558251158015906114cc57505f8251115b611558576040517f08c379a000000000000000000000000000000000000000000000000000000000815260206004820152602160248201527f4e616d6520616e642073796d626f6c206d757374206e6f7420626520656d707460448201527f79000000000000000000000000000000000000000000000000000000000000006064820152608401610675565b7f0000000000000000000000000000000000000000000000000000000000000000341015611608576040517f08c379a000000000000000000000000000000000000000000000000000000000815260206004820152603060248201527f4d696e696d756d206e617469766520746f6b656e2076616c756520697320726560448201527f71756972656420746f2073756d6d6f6e000000000000000000000000000000006064820152608401610675565b69d3c21bcecceda100000081101561167c576040517f08c379a000000000000000000000000000000000000000000000000000000000815260206004820152601f60248201527f4d696e696d756d20746f74616c20737570706c79206973206e6f74206d6574006044820152606401610675565b6fffffffffffffffffffffffffffffffff81106116f5576040517f08c379a000000000000000000000000000000000000000000000000000000000815260206004820152601d60248201527f4d6178696d756d20746f74616c20737570706c79206f766572666c6f770000006044820152606401610675565b600254604080516101208101825285815260208082018690528183018590523460608301524260808301525f60a0830181905260c0830181905260e0830181905261010083018190528481526005909152919091208151819061175890826136c4565b506020820151600182019061176d90826136c4565b506040828101516002830155606083015160038301556080830151600483015560a0830151600583015560c083015160068084019190915560e0840151600784015561010090930151600892830180547fffffffffffffffffffffffffffffffffffffffffffffffffffffffffffffff00169115159190911790555f848152602093845281812033825284528181203490559190925290812080549161181283613551565b9091555061182390508160016134d6565b600255604051348152819033907f5c41f4ea011db1ad5568b9114b1d3cab1ef32c9fbcda67408d722503d19002fc9060200160405180910390a3604051348152819033907fbe9e2dd3ea9f989c1b2e8c4e8f99d486f6fed42c7a8ec7f1ac42e550f571eda19060200160405180910390a3505060016003555050565b60035460011461190b576040517f08c379a000000000000000000000000000000000000000000000000000000000815260206004820152601060248201527f5265656e7472616e6379206775617264000000000000000000000000000000006044820152606401610675565b60026003553461199d576040517f08c379a000000000000000000000000000000000000000000000000000000000815260206004820152602d60248201527f4e617469766520746f6b656e20616d6f756e74206d757374206265206772656160448201527f746572207468616e207a65726f000000000000000000000000000000000000006064820152608401610675565b5f8181526005602052604090206004810154611a15576040517f08c379a000000000000000000000000000000000000000000000000000000000815260206004820152601560248201527f4d656d65206e6f74207965742073756d6d6f6e656400000000000000000000006044820152606401610675565b600581015415611a81576040517f08c379a000000000000000000000000000000000000000000000000000000000815260206004820152601660248201527f4d656d6520616c726561647920756e6c656173686564000000000000000000006044820152606401610675565b6003810154611a9034826134d6565b600383018190555f848152600660209081526040808320338452909152812080549293503492909190611ac49084906134d6565b9091555050335f908152600860205260408120805491611ae383613551565b9091555050604051348152839033907fbe9e2dd3ea9f989c1b2e8c4e8f99d486f6fed42c7a8ec7f1ac42e550f571eda19060200160405180910390a35050600160035550565b600354600114611b95576040517f08c379a000000000000000000000000000000000000000000000000000000000815260206004820152601060248201527f5265656e7472616e6379206775617264000000000000000000000000000000006044820152606401610675565b600260035573ffffffffffffffffffffffffffffffffffffffff81165f90815260076020908152604080832054808452600590925280832081516101208101909252805492939282908290611be990613588565b80601f0160208091040260200160405190810160405280929190818152602001828054611c1590613588565b8015611c605780601f10611c3757610100808354040283529160200191611c60565b820191905f5260205f20905b815481529060010190602001808311611c4357829003601f168201915b50505050508152602001600182018054611c7990613588565b80601f0160208091040260200160405190810160405280929190818152602001828054611ca590613588565b8015611cf05780601f10611cc757610100808354040283529160200191611cf0565b820191905f5260205f20905b815481529060010190602001808311611cd357829003601f168201915b505050918352505060028201546020820152600382015460408201526004820154606082015260058201546080820152600682015460a080830191909152600783015460c083015260089092015460ff16151560e090910152810151909150611db5576040517f08c379a000000000000000000000000000000000000000000000000000000000815260206004820152601260248201527f4d656d65206e6f7420756e6c65617368656400000000000000000000000000006044820152606401610675565b620151808160a00151611dc891906134d6565b421115611e57576040517f08c379a000000000000000000000000000000000000000000000000000000000815260206004820152603160248201527f436f6c6c656374206f6e6c7920616c6c6f77656420756e74696c20323420686f60448201527f75727320616674657220756e6c656173680000000000000000000000000000006064820152608401610675565b5f82815260066020908152604080832033845290915290205480611ed7576040517f08c379a000000000000000000000000000000000000000000000000000000000815260206004820152601360248201527f4e6f20746f6b656e20616c6c6f636174696f6e000000000000000000000000006044820152606401610675565b335f908152600860205260408120805491611ef183613551565b9190505550611f0b84848460c0015184866060015161261b565b505060016003555050565b7f000000000000000000000000000000000000000000000000000000000000000073ffffffffffffffffffffffffffffffffffffffff1663d0e30db0826040518263ffffffff1660e01b81526004015f604051808303818588803b158015611f7c575f5ffd5b505af1158015611f8e573d5f5f3e3d5ffd5b505050505050565b5f606460328560020154611faa91906134ef565b611fb49190613506565b90505f818560020154611fc7919061353e565b90505f6120ed87875f018054611fdc90613588565b80601f016020809104026020016040519081016040528092919081815260200182805461200890613588565b80156120535780601f1061202a57610100808354040283529160200191612053565b820191905f5260205f20905b81548152906001019060200180831161203657829003601f168201915b505050505088600101805461206790613588565b80601f016020809104026020016040519081016040528092919081815260200182805461209390613588565b80156120de5780601f106120b5576101008083540402835291602001916120de565b820191905f5260205f20905b8154815290600101906020018083116120c157829003601f168201915b5050505050896002015461273f565b73ffffffffffffffffffffffffffffffffffffffff81165f9081526007602052604081208990559091508080612124848988612913565b4260058d015560068c0188905560078c01839055919450925090508015612174576008890180547fffffffffffffffffffffffffffffffffffffffffffffffffffffffffffffff00168215151790555b600980546001810182557f6e1540171b6c0c960b71a7020d9f60077f6af931a8bbf590da0223dacf75c7af0180547fffffffffffffffffffffffff00000000000000000000000000000000000000001673ffffffffffffffffffffffffffffffffffffffff8716179055545f9081558a8152600660209081526040808320338452909152902054801561220e5761220e858c88848c61261b565b604080518581526020810185905273ffffffffffffffffffffffffffffffffffffffff8716918d9133917fbbd80a362e989e1735d4e639796d60a759994a28ab43a4ab255336414657e914910160405180910390a45050505050505050505050565b5f5f8261229e57847f00000000000000000000000000000000000000000000000000000000000000006122c1565b7f0000000000000000000000000000000000000000000000000000000000000000855b6040517f43b23a1b00000000000000000000000000000000000000000000000000000000815273ffffffffffffffffffffffffffffffffffffffff808416600483015280831660248301527f00000000000000000000000000000000000000000000000000000000000000008116604483015261271060648301529294509092507f0000000000000000000000000000000000000000000000000000000000000000909116906343b23a1b906084015f6040518083038186803b158015612386575f5ffd5b505afa158015612398573d5f5f3e3d5ffd5b50506040805160808101825287815230602082019081526fffffffffffffffffffffffffffffffff8284018181526060840182815294517ffc6f786500000000000000000000000000000000000000000000000000000000815284516004820152925173ffffffffffffffffffffffffffffffffffffffff908116602485015290518216604484015293511660648201529093505f925082917f0000000000000000000000000000000000000000000000000000000000000000169063fc6f78659060840160408051808303815f875af1158015612478573d5f5f3e3d5ffd5b505050506040513d601f19601f8201168201806040525081019061249c91906137db565b915091505f8211806124ad57505f81115b612513576040517f08c379a000000000000000000000000000000000000000000000000000000000815260206004820152601360248201527f5a65726f206665657320617661696c61626c65000000000000000000000000006044820152606401610675565b5f5f871561252557508290508161252b565b50819050825b6040517f42966c680000000000000000000000000000000000000000000000000000000081526004810182905273ffffffffffffffffffffffffffffffffffffffff8b16906342966c68906024015f604051808303815f87803b158015612590575f5ffd5b505af11580156125a2573d5f5f3e3d5ffd5b505050508160015f8282546125b791906134d6565b9091555050604080518381526020810183905273ffffffffffffffffffffffffffffffffffffffff8c169133917f28a87b6059180e46de5fb9ab35eb043e8fe00ab45afcc7789e3934ecbbcde3ea910160405180910390a350505050505050505050565b5f8161262784866134ef565b6126319190613506565b5f8681526006602090815260408083203380855292528083209290925590517fa9059cbb000000000000000000000000000000000000000000000000000000008152600481019190915260248101829052909150869073ffffffffffffffffffffffffffffffffffffffff82169063a9059cbb906044016020604051808303815f875af11580156126c4573d5f5f3e3d5ffd5b505050506040513d601f19601f820116820180604052508101906126e8919061361d565b5060405182815273ffffffffffffffffffffffffffffffffffffffff88169033907f484decdc1e9549e1866295f6f86c889ded3f7de410e7488a7a415978589dc8fd9060200160405180910390a350505050505050565b604080514260208201527fffffffffffffffffffffffffffffffffffffffff0000000000000000000000003360601b1691810191909152605481018590525f908190607401604080517fffffffffffffffffffffffffffffffffffffffffffffffffffffffffffffffe081840301815282825280516020918201209083018190529250016040516020818303038152906040528051906020012090505f604051806020016127ec9061312a565b7fffffffffffffffffffffffffffffffffffffffffffffffffffffffffffffffe082820381018352601f909101166040819052612834908890889060129089906020016137fd565b604080517fffffffffffffffffffffffffffffffffffffffffffffffffffffffffffffffe081840301815290829052612870929160200161384f565b6040516020818303038152906040529050818151826020015ff5925073ffffffffffffffffffffffffffffffffffffffff8316612909576040517f08c379a000000000000000000000000000000000000000000000000000000000815260206004820152601560248201527f546f6b656e206372656174696f6e206661696c656400000000000000000000006044820152606401610675565b5050949350505050565b5f5f5f8573ffffffffffffffffffffffffffffffffffffffff167f000000000000000000000000000000000000000000000000000000000000000073ffffffffffffffffffffffffffffffffffffffff16101561296e575060015b5f5f5f5f846129a057897f0000000000000000000000000000000000000000000000000000000000000000898b6129c5565b7f00000000000000000000000000000000000000000000000000000000000000008a8a8a5b93509350935093505f8282670de0b6b3a76400006129e391906134ef565b6129ed9190613506565b90505f633b9aca006129fe83613078565b612a15906c010000000000000000000000006134ef565b612a1f9190613506565b90505f7f000000000000000000000000000000000000000000000000000000000000000073ffffffffffffffffffffffffffffffffffffffff1663c45a01556040518163ffffffff1660e01b8152600401602060405180830381865afa158015612a8b573d5f5f3e3d5ffd5b505050506040513d601f19601f82011682018060405250810190612aaf919061386b565b6040517f1698ee8200000000000000000000000000000000000000000000000000000000815273ffffffffffffffffffffffffffffffffffffffff8981166004830152888116602483015261271060448301529192505f91831690631698ee8290606401602060405180830381865afa158015612b2e573d5f5f3e3d5ffd5b505050506040513d601f19601f82011682018060405250810190612b52919061386b565b905073ffffffffffffffffffffffffffffffffffffffff811615612bd2576040517f08c379a000000000000000000000000000000000000000000000000000000000815260206004820152601960248201527f506f6f6c2061646472657373206d757374206265207a65726f000000000000006044820152606401610675565b6040517f13ead56200000000000000000000000000000000000000000000000000000000815273ffffffffffffffffffffffffffffffffffffffff89811660048301528881166024830152612710604483015284811660648301527f000000000000000000000000000000000000000000000000000000000000000016906313ead562906084016020604051808303815f875af1158015612c75573d5f5f3e3d5ffd5b505050506040513d601f19601f82011682018060405250810190612c99919061386b565b6040517f095ea7b300000000000000000000000000000000000000000000000000000000815273ffffffffffffffffffffffffffffffffffffffff7f000000000000000000000000000000000000000000000000000000000000000081166004830152602482018990529192509089169063095ea7b3906044016020604051808303815f875af1158015612d2f573d5f5f3e3d5ffd5b505050506040513d601f19601f82011682018060405250810190612d53919061361d565b506040517f095ea7b300000000000000000000000000000000000000000000000000000000815273ffffffffffffffffffffffffffffffffffffffff7f0000000000000000000000000000000000000000000000000000000000000000811660048301526024820187905288169063095ea7b3906044016020604051808303815f875af1158015612de6573d5f5f3e3d5ffd5b505050506040513d601f19601f82011682018060405250810190612e0a919061361d565b505f6040518061016001604052808a73ffffffffffffffffffffffffffffffffffffffff1681526020018973ffffffffffffffffffffffffffffffffffffffff16815260200161271062ffffff1681526020017ffffffffffffffffffffffffffffffffffffffffffffffffffffffffffff2766060020b81526020017ffffffffffffffffffffffffffffffffffffffffffffffffffffffffffff27660612eb09061363c565b60020b81526020018881526020018781526020015f81526020015f81526020013073ffffffffffffffffffffffffffffffffffffffff1681526020014281525090507f000000000000000000000000000000000000000000000000000000000000000073ffffffffffffffffffffffffffffffffffffffff166388316456826040518263ffffffff1660e01b8152600401612f4b9190613886565b6080604051808303815f875af1158015612f67573d5f5f3e3d5ffd5b505050506040513d601f19601f82011682018060405250810190612f8b9190613971565b929e506fffffffffffffffffffffffffffffffff9091169c50975095505f8a612fbf57868f612fba919061353e565b612fcb565b878f612fcb919061353e565b90508015612fea578060015f828254612fe491906134d6565b90915550505b6040517f32148f67000000000000000000000000000000000000000000000000000000008152603c600482015273ffffffffffffffffffffffffffffffffffffffff8416906332148f67906024015f604051808303815f87803b15801561304f575f5ffd5b505af1158015613061573d5f5f3e3d5ffd5b505050505050505050505050505093509350939050565b60b58171010000000000000000000000000000000000811061309f5760409190911b9060801c5b690100000000000000000081106130bb5760209190911b9060401c5b6501000000000081106130d35760109190911b9060201c5b630100000081106130e95760089190911b9060101c5b62010000010260121c80820401600190811c80830401811c80830401811c80830401811c80830401811c80830401811c80830401901c908190048111900390565b611194806139c283390190565b5f60208284031215613147575f5ffd5b5035919050565b73ffffffffffffffffffffffffffffffffffffffff8116811461316f575f5ffd5b50565b5f5f60408385031215613183575f5ffd5b8235915060208301356131958161314e565b809150509250929050565b5f602082840312156131b0575f5ffd5b81356131bb8161314e565b9392505050565b7f4e487b71000000000000000000000000000000000000000000000000000000005f52604160045260245ffd5b604051601f82017fffffffffffffffffffffffffffffffffffffffffffffffffffffffffffffffe016810167ffffffffffffffff81118282101715613236576132366131c2565b604052919050565b5f6020828403121561324e575f5ffd5b813567ffffffffffffffff811115613264575f5ffd5b8201601f81018413613274575f5ffd5b803567ffffffffffffffff81111561328e5761328e6131c2565b8060051b61329e602082016131ef565b918252602081840181019290810190878411156132b9575f5ffd5b6020850194505b838510156132e757843592506132d58361314e565b828252602094850194909101906132c0565b979650505050505050565b5f81518084528060208401602086015e5f6020828601015260207fffffffffffffffffffffffffffffffffffffffffffffffffffffffffffffffe0601f83011685010191505092915050565b61012081525f61335261012083018c6132f2565b8281036020840152613364818c6132f2565b604084019a909a5250506060810196909652608086019490945260a085019290925260c084015260e083015215156101009091015292915050565b5f82601f8301126133ae575f5ffd5b813567ffffffffffffffff8111156133c8576133c86131c2565b6133f960207fffffffffffffffffffffffffffffffffffffffffffffffffffffffffffffffe0601f840116016131ef565b81815284602083860101111561340d575f5ffd5b816020850160208301375f918101602001919091529392505050565b5f5f5f6060848603121561343b575f5ffd5b833567ffffffffffffffff811115613451575f5ffd5b61345d8682870161339f565b935050602084013567ffffffffffffffff811115613479575f5ffd5b6134858682870161339f565b93969395505050506040919091013590565b602081525f6131bb60208301846132f2565b7f4e487b71000000000000000000000000000000000000000000000000000000005f52601160045260245ffd5b808201808211156134e9576134e96134a9565b92915050565b80820281158282048414176134e9576134e96134a9565b5f82613539577f4e487b71000000000000000000000000000000000000000000000000000000005f52601260045260245ffd5b500490565b818103818111156134e9576134e96134a9565b5f7fffffffffffffffffffffffffffffffffffffffffffffffffffffffffffffffff8203613581576135816134a9565b5060010190565b600181811c9082168061359c57607f821691505b6020821081036135d3577f4e487b71000000000000000000000000000000000000000000000000000000005f52602260045260245ffd5b50919050565b5f602082840312156135e9575f5ffd5b5051919050565b7f4e487b71000000000000000000000000000000000000000000000000000000005f52603260045260245ffd5b5f6020828403121561362d575f5ffd5b815180151581146131bb575f5ffd5b5f8160020b7fffffffffffffffffffffffffffffffffffffffffffffffffffffffffff8000008103613670576136706134a9565b5f0392915050565b601f8211156136bf57805f5260205f20601f840160051c8101602085101561369d5750805b601f840160051c820191505b818110156136bc575f81556001016136a9565b50505b505050565b815167ffffffffffffffff8111156136de576136de6131c2565b6136f2816136ec8454613588565b84613678565b6020601f821160018114613743575f831561370d5750848201515b7fffffffffffffffffffffffffffffffffffffffffffffffffffffffffffffffff600385901b1c1916600184901b1784556136bc565b5f848152602081207fffffffffffffffffffffffffffffffffffffffffffffffffffffffffffffffe08516915b828110156137905787850151825560209485019460019092019101613770565b50848210156137cc57868401517fffffffffffffffffffffffffffffffffffffffffffffffffffffffffffffffff600387901b60f8161c191681555b50505050600190811b01905550565b5f5f604083850312156137ec575f5ffd5b505080516020909101519092909150565b608081525f61380f60808301876132f2565b828103602084015261382181876132f2565b60ff95909516604084015250506060015292915050565b5f81518060208401855e5f93019283525090919050565b5f61386361385d8386613838565b84613838565b949350505050565b5f6020828403121561387b575f5ffd5b81516131bb8161314e565b815173ffffffffffffffffffffffffffffffffffffffff168152610160810160208301516138cc602084018273ffffffffffffffffffffffffffffffffffffffff169052565b5060408301516138e3604084018262ffffff169052565b5060608301516138f8606084018260020b9052565b50608083015161390d608084018260020b9052565b5060a083015160a083015260c083015160c083015260e083015160e083015261010083015161010083015261012083015161396161012084018273ffffffffffffffffffffffffffffffffffffffff169052565b5061014092830151919092015290565b5f5f5f5f60808587031215613984575f5ffd5b845160208601519094506fffffffffffffffffffffffffffffffff811681146139ab575f5ffd5b604086015160609096015194979096509250505056fe60e060405234801561000f575f5ffd5b5060405161119438038061119483398101604081905261002e91610216565b8383835f61003c848261031d565b506001610049838261031d565b5060ff81166080524660a05261005d610078565b60c0525061006f915033905082610110565b5050505061046d565b5f7f8b73c3c69bb8fe3d512ecc4cf759cc79239f7b179b0ffacaa9a75d522b39400f5f6040516100a891906103d7565b6040805191829003822060208301939093528101919091527fc89efdaa54c0f20c7adf612882df0950f5a951637e0307cdcb4c672f298b8bc660608201524660808201523060a082015260c00160405160208183030381529060405280519060200120905090565b8060025f8282546101219190610448565b90915550506001600160a01b0382165f818152600360209081526040808320805486019055518481527fddf252ad1be2c89b69c2b068fc378daa952ba7f163c4a11628f55a4df523b3ef910160405180910390a35050565b634e487b7160e01b5f52604160045260245ffd5b5f82601f83011261019c575f5ffd5b81516001600160401b038111156101b5576101b5610179565b604051601f8201601f19908116603f011681016001600160401b03811182821017156101e3576101e3610179565b6040528181528382016020018510156101fa575f5ffd5b8160208501602083015e5f918101602001919091529392505050565b5f5f5f5f60808587031215610229575f5ffd5b84516001600160401b0381111561023e575f5ffd5b61024a8782880161018d565b602087015190955090506001600160401b03811115610267575f5ffd5b6102738782880161018d565b935050604085015160ff81168114610289575f5ffd5b6060959095015193969295505050565b600181811c908216806102ad57607f821691505b6020821081036102cb57634e487b7160e01b5f52602260045260245ffd5b50919050565b601f82111561031857805f5260205f20601f840160051c810160208510156102f65750805b601f840160051c820191505b81811015610315575f8155600101610302565b50505b505050565b81516001600160401b0381111561033657610336610179565b61034a816103448454610299565b846102d1565b6020601f82116001811461037c575f83156103655750848201515b5f19600385901b1c1916600184901b178455610315565b5f84815260208120601f198516915b828110156103ab578785015182556020948501946001909201910161038b565b50848210156103c857868401515f19600387901b60f8161c191681555b50505050600190811b01905550565b5f5f83546103e481610299565b6001821680156103fb57600181146104105761043d565b60ff198316865281151582028601935061043d565b865f5260205f205f5b8381101561043557815488820152600190910190602001610419565b505081860193505b509195945050505050565b8082018082111561046757634e487b7160e01b5f52601160045260245ffd5b92915050565b60805160a05160c051610cfd6104975f395f6104b101525f61047c01525f61014e0152610cfd5ff3fe608060405234801561000f575f5ffd5b50600436106100da575f3560e01c806342966c681161008857806395d89b411161006357806395d89b41146101dd578063a9059cbb146101e5578063d505accf146101f8578063dd62ed3e1461020b575f5ffd5b806342966c681461018a57806370a082311461019f5780637ecebe00146101be575f5ffd5b806323b872dd116100b857806323b872dd14610136578063313ce567146101495780633644e51514610182575f5ffd5b806306fdde03146100de578063095ea7b3146100fc57806318160ddd1461011f575b5f5ffd5b6100e6610235565b6040516100f391906109b9565b60405180910390f35b61010f61010a366004610a34565b6102c0565b60405190151581526020016100f3565b61012860025481565b6040519081526020016100f3565b61010f610144366004610a5c565b610339565b6101707f000000000000000000000000000000000000000000000000000000000000000081565b60405160ff90911681526020016100f3565b610128610479565b61019d610198366004610a96565b6104d3565b005b6101286101ad366004610aad565b60036020525f908152604090205481565b6101286101cc366004610aad565b60056020525f908152604090205481565b6100e66104e0565b61010f6101f3366004610a34565b6104ed565b61019d610206366004610acd565b610570565b610128610219366004610b3a565b600460209081525f928352604080842090915290825290205481565b5f805461024190610b6b565b80601f016020809104026020016040519081016040528092919081815260200182805461026d90610b6b565b80156102b85780601f1061028f576101008083540402835291602001916102b8565b820191905f5260205f20905b81548152906001019060200180831161029b57829003601f168201915b505050505081565b335f81815260046020908152604080832073ffffffffffffffffffffffffffffffffffffffff8716808552925280832085905551919290917f8c5be1e5ebec7d5bd14f71427d1e84f3dd0314c0f7b2291e5b200ac8c7c3b925906103279086815260200190565b60405180910390a35060015b92915050565b73ffffffffffffffffffffffffffffffffffffffff83165f9081526004602090815260408083203384529091528120547fffffffffffffffffffffffffffffffffffffffffffffffffffffffffffffffff81146103cb5761039a8382610bbc565b73ffffffffffffffffffffffffffffffffffffffff86165f9081526004602090815260408083203384529091529020555b73ffffffffffffffffffffffffffffffffffffffff85165f90815260036020526040812080548592906103ff908490610bbc565b909155505073ffffffffffffffffffffffffffffffffffffffff8085165f81815260036020526040908190208054870190555190918716907fddf252ad1be2c89b69c2b068fc378daa952ba7f163c4a11628f55a4df523b3ef906104669087815260200190565b60405180910390a3506001949350505050565b5f7f000000000000000000000000000000000000000000000000000000000000000046146104ae576104a961088e565b905090565b507f000000000000000000000000000000000000000000000000000000000000000090565b6104dd3382610926565b50565b6001805461024190610b6b565b335f9081526003602052604081208054839190839061050d908490610bbc565b909155505073ffffffffffffffffffffffffffffffffffffffff83165f81815260036020526040908190208054850190555133907fddf252ad1be2c89b69c2b068fc378daa952ba7f163c4a11628f55a4df523b3ef906103279086815260200190565b428410156105df576040517f08c379a000000000000000000000000000000000000000000000000000000000815260206004820152601760248201527f5045524d49545f444541444c494e455f4558504952454400000000000000000060448201526064015b60405180910390fd5b5f60016105ea610479565b73ffffffffffffffffffffffffffffffffffffffff8a81165f8181526005602090815260409182902080546001810190915582517f6e71edae12b1b97f4d1f60370fef10105fa2faae0126114a169c64845d6126c98184015280840194909452938d166060840152608083018c905260a083019390935260c08083018b90528151808403909101815260e0830190915280519201919091207f190100000000000000000000000000000000000000000000000000000000000061010083015261010282019290925261012281019190915261014201604080517fffffffffffffffffffffffffffffffffffffffffffffffffffffffffffffffe081840301815282825280516020918201205f84529083018083525260ff871690820152606081018590526080810184905260a0016020604051602081039080840390855afa158015610738573d5f5f3e3d5ffd5b50506040517fffffffffffffffffffffffffffffffffffffffffffffffffffffffffffffffe0015191505073ffffffffffffffffffffffffffffffffffffffff8116158015906107b357508773ffffffffffffffffffffffffffffffffffffffff168173ffffffffffffffffffffffffffffffffffffffff16145b610819576040517f08c379a000000000000000000000000000000000000000000000000000000000815260206004820152600e60248201527f494e56414c49445f5349474e455200000000000000000000000000000000000060448201526064016105d6565b73ffffffffffffffffffffffffffffffffffffffff9081165f9081526004602090815260408083208a8516808552908352928190208990555188815291928a16917f8c5be1e5ebec7d5bd14f71427d1e84f3dd0314c0f7b2291e5b200ac8c7c3b925910160405180910390a350505050505050565b5f7f8b73c3c69bb8fe3d512ecc4cf759cc79239f7b179b0ffacaa9a75d522b39400f5f6040516108be9190610bf4565b6040805191829003822060208301939093528101919091527fc89efdaa54c0f20c7adf612882df0950f5a951637e0307cdcb4c672f298b8bc660608201524660808201523060a082015260c00160405160208183030381529060405280519060200120905090565b73ffffffffffffffffffffffffffffffffffffffff82165f908152600360205260408120805483929061095a908490610bbc565b90915550506002805482900390556040518181525f9073ffffffffffffffffffffffffffffffffffffffff8416907fddf252ad1be2c89b69c2b068fc378daa952ba7f163c4a11628f55a4df523b3ef9060200160405180910390a35050565b602081525f82518060208401528060208501604085015e5f6040828501015260407fffffffffffffffffffffffffffffffffffffffffffffffffffffffffffffffe0601f83011684010191505092915050565b803573ffffffffffffffffffffffffffffffffffffffff81168114610a2f575f5ffd5b919050565b5f5f60408385031215610a45575f5ffd5b610a4e83610a0c565b946020939093013593505050565b5f5f5f60608486031215610a6e575f5ffd5b610a7784610a0c565b9250610a8560208501610a0c565b929592945050506040919091013590565b5f60208284031215610aa6575f5ffd5b5035919050565b5f60208284031215610abd575f5ffd5b610ac682610a0c565b9392505050565b5f5f5f5f5f5f5f60e0888a031215610ae3575f5ffd5b610aec88610a0c565b9650610afa60208901610a0c565b95506040880135945060608801359350608088013560ff81168114610b1d575f5ffd5b9699959850939692959460a0840135945060c09093013592915050565b5f5f60408385031215610b4b575f5ffd5b610b5483610a0c565b9150610b6260208401610a0c565b90509250929050565b600181811c90821680610b7f57607f821691505b602082108103610bb6577f4e487b71000000000000000000000000000000000000000000000000000000005f52602260045260245ffd5b50919050565b81810381811115610333577f4e487b71000000000000000000000000000000000000000000000000000000005f52601160045260245ffd5b5f5f83545f8160011c90506001821680610c0f57607f821691505b602082108103610c46577f4e487b71000000000000000000000000000000000000000000000000000000005f52602260045260245ffd5b808015610c5a5760018114610c8d57610cbb565b7fffffffffffffffffffffffffffffffffffffffffffffffffffffffffffffff0084168752821515830287019450610cbb565b5f888152602090205f5b84811015610cb357815489820152600190910190602001610c97565b505082870194505b5092969550505050505056fea26469706673582212205df7019458ddc6a358585d679221b07a9e24fb31dbf8c630fcd1d119dc2aee2864736f6c634300081c0033a2646970667358221220316c712e042f4f2ef575240478dc178ea21ffd1c916d87538f300fd64389f3a764736f6c634300081c0033",
  "linkReferences": {},
  "deployedLinkReferences": {}
}