{
  "_format": "hh-sol-artifact-1",
  "contractName": "MemeArbitrum",
  "sourceName": "contracts/MemeArbitrum.sol",
  "abi": [
    {
      "inputs": [
        {
          "internalType": "address",
          "name": "_olasL2",
          "type": "address"
        },
        {
          "internalType": "address",
          "name": "_usdc",
          "type": "address"
        },
        {
          "internalType": "address",
          "name": "_router",
          "type": "address"
        },
        {
          "internalType": "address",
          "name": "_factory",
          "type": "address"
        },
        {
          "internalType": "uint256",
          "name": "_minNativeTokenValue",
          "type": "uint256"
        },
        {
          "internalType": "address",
          "name": "_weth",
          "type": "address"
        },
        {
          "internalType": "address",
          "name": "_l2TokenRelayer",
          "type": "address"
        },
        {
          "internalType": "address",
          "name": "_oracle",
          "type": "address"
        },
        {
          "internalType": "address",
          "name": "_balancerVault",
          "type": "address"
        },
        {
          "internalType": "bytes32",
          "name": "_balancerPoolId",
          "type": "bytes32"
        }
      ],
      "stateMutability": "nonpayable",
      "type": "constructor"
    },
    {
      "anonymous": false,
      "inputs": [
        {
          "indexed": true,
          "internalType": "address",
          "name": "hearter",
          "type": "address"
        },
        {
          "indexed": true,
          "internalType": "address",
          "name": "memeToken",
          "type": "address"
        },
        {
          "indexed": false,
          "internalType": "uint256",
          "name": "allocation",
          "type": "uint256"
        }
      ],
      "name": "Collected",
      "type": "event"
    },
    {
      "anonymous": false,
      "inputs": [
        {
          "indexed": true,
          "internalType": "address",
          "name": "hearter",
          "type": "address"
        },
        {
          "indexed": true,
          "internalType": "address",
          "name": "memeToken",
          "type": "address"
        },
        {
          "indexed": false,
          "internalType": "uint256",
          "name": "amount",
          "type": "uint256"
        }
      ],
      "name": "Hearted",
      "type": "event"
    },
    {
      "anonymous": false,
      "inputs": [
        {
          "indexed": true,
          "internalType": "address",
          "name": "olas",
          "type": "address"
        },
        {
          "indexed": false,
          "internalType": "uint256",
          "name": "amount",
          "type": "uint256"
        }
      ],
      "name": "OLASJourneyToAscendance",
      "type": "event"
    },
    {
      "anonymous": false,
      "inputs": [
        {
          "indexed": true,
          "internalType": "address",
          "name": "memeToken",
          "type": "address"
        },
        {
          "indexed": false,
          "internalType": "uint256",
          "name": "remainingAmount",
          "type": "uint256"
        }
      ],
      "name": "Purged",
      "type": "event"
    },
    {
      "anonymous": false,
      "inputs": [
        {
          "indexed": true,
          "internalType": "address",
          "name": "summoner",
          "type": "address"
        },
        {
          "indexed": true,
          "internalType": "address",
          "name": "memeToken",
          "type": "address"
        },
        {
          "indexed": false,
          "internalType": "uint256",
          "name": "nativeTokenContributed",
          "type": "uint256"
        }
      ],
      "name": "Summoned",
      "type": "event"
    },
    {
      "anonymous": false,
      "inputs": [
        {
          "indexed": true,
          "internalType": "address",
          "name": "unleasher",
          "type": "address"
        },
        {
          "indexed": true,
          "internalType": "address",
          "name": "memeToken",
          "type": "address"
        },
        {
          "indexed": true,
          "internalType": "address",
          "name": "lpPairAddress",
          "type": "address"
        },
        {
          "indexed": false,
          "internalType": "uint256",
          "name": "liquidity",
          "type": "uint256"
        },
        {
          "indexed": false,
          "internalType": "uint256",
          "name": "burnPercentageOfStable",
          "type": "uint256"
        }
      ],
      "name": "Unleashed",
      "type": "event"
    },
    {
      "inputs": [],
      "name": "COLLECT_DEADLINE",
      "outputs": [
        {
          "internalType": "uint256",
          "name": "",
          "type": "uint256"
        }
      ],
      "stateMutability": "view",
      "type": "function"
    },
    {
      "inputs": [],
      "name": "DECIMALS",
      "outputs": [
        {
          "internalType": "uint8",
          "name": "",
          "type": "uint8"
        }
      ],
      "stateMutability": "view",
      "type": "function"
    },
    {
      "inputs": [],
      "name": "LP_PERCENTAGE",
      "outputs": [
        {
          "internalType": "uint256",
          "name": "",
          "type": "uint256"
        }
      ],
      "stateMutability": "view",
      "type": "function"
    },
    {
      "inputs": [],
      "name": "MIN_TOTAL_SUPPLY",
      "outputs": [
        {
          "internalType": "uint256",
          "name": "",
          "type": "uint256"
        }
      ],
      "stateMutability": "view",
      "type": "function"
    },
    {
      "inputs": [],
      "name": "OLAS_BURNER",
      "outputs": [
        {
          "internalType": "address",
          "name": "",
          "type": "address"
        }
      ],
      "stateMutability": "view",
      "type": "function"
    },
    {
      "inputs": [],
      "name": "OLAS_BURN_PERCENTAGE",
      "outputs": [
        {
          "internalType": "uint256",
          "name": "",
          "type": "uint256"
        }
      ],
      "stateMutability": "view",
      "type": "function"
    },
    {
      "inputs": [],
      "name": "SLIPPAGE",
      "outputs": [
        {
          "internalType": "uint256",
          "name": "",
          "type": "uint256"
        }
      ],
      "stateMutability": "view",
      "type": "function"
    },
    {
      "inputs": [],
      "name": "TOKEN_GAS_LIMIT",
      "outputs": [
        {
          "internalType": "uint32",
          "name": "",
          "type": "uint32"
        }
      ],
      "stateMutability": "view",
      "type": "function"
    },
    {
      "inputs": [],
      "name": "UNLEASH_DELAY",
      "outputs": [
        {
          "internalType": "uint256",
          "name": "",
          "type": "uint256"
        }
      ],
      "stateMutability": "view",
      "type": "function"
    },
    {
      "inputs": [],
      "name": "VERSION",
      "outputs": [
        {
          "internalType": "string",
          "name": "",
          "type": "string"
        }
      ],
      "stateMutability": "view",
      "type": "function"
    },
    {
      "inputs": [],
      "name": "balancerPoolId",
      "outputs": [
        {
          "internalType": "bytes32",
          "name": "",
          "type": "bytes32"
        }
      ],
      "stateMutability": "view",
      "type": "function"
    },
    {
      "inputs": [],
      "name": "balancerVault",
      "outputs": [
        {
          "internalType": "address",
          "name": "",
          "type": "address"
        }
      ],
      "stateMutability": "view",
      "type": "function"
    },
    {
      "inputs": [
        {
          "internalType": "address",
          "name": "memeToken",
          "type": "address"
        }
      ],
      "name": "collectThisMeme",
      "outputs": [],
      "stateMutability": "nonpayable",
      "type": "function"
    },
    {
      "inputs": [],
      "name": "factory",
      "outputs": [
        {
          "internalType": "address",
          "name": "",
          "type": "address"
        }
      ],
      "stateMutability": "view",
      "type": "function"
    },
    {
      "inputs": [
        {
          "internalType": "address",
          "name": "memeToken",
          "type": "address"
        }
      ],
      "name": "heartThisMeme",
      "outputs": [],
      "stateMutability": "payable",
      "type": "function"
    },
    {
      "inputs": [],
      "name": "l2TokenRelayer",
      "outputs": [
        {
          "internalType": "address",
          "name": "",
          "type": "address"
        }
      ],
      "stateMutability": "view",
      "type": "function"
    },
    {
      "inputs": [
        {
          "internalType": "address",
          "name": "",
          "type": "address"
        }
      ],
      "name": "mapAccountActivities",
      "outputs": [
        {
          "internalType": "uint256",
          "name": "",
          "type": "uint256"
        }
      ],
      "stateMutability": "view",
      "type": "function"
    },
    {
      "inputs": [
        {
          "internalType": "address",
          "name": "",
          "type": "address"
        },
        {
          "internalType": "address",
          "name": "",
          "type": "address"
        }
      ],
      "name": "memeHearters",
      "outputs": [
        {
          "internalType": "uint256",
          "name": "",
          "type": "uint256"
        }
      ],
      "stateMutability": "view",
      "type": "function"
    },
    {
      "inputs": [
        {
          "internalType": "address",
          "name": "",
          "type": "address"
        }
      ],
      "name": "memeSummons",
      "outputs": [
        {
          "internalType": "uint256",
          "name": "nativeTokenContributed",
          "type": "uint256"
        },
        {
          "internalType": "uint256",
          "name": "summonTime",
          "type": "uint256"
        },
        {
          "internalType": "uint256",
          "name": "unleashTime",
          "type": "uint256"
        },
        {
          "internalType": "uint256",
          "name": "heartersAmount",
          "type": "uint256"
        }
      ],
      "stateMutability": "view",
      "type": "function"
    },
    {
      "inputs": [
        {
          "internalType": "uint256",
          "name": "",
          "type": "uint256"
        }
      ],
      "name": "memeTokens",
      "outputs": [
        {
          "internalType": "address",
          "name": "",
          "type": "address"
        }
      ],
      "stateMutability": "view",
      "type": "function"
    },
    {
      "inputs": [],
      "name": "minNativeTokenValue",
      "outputs": [
        {
          "internalType": "uint256",
          "name": "",
          "type": "uint256"
        }
      ],
      "stateMutability": "view",
      "type": "function"
    },
    {
      "inputs": [],
      "name": "numTokens",
      "outputs": [
        {
          "internalType": "uint256",
          "name": "",
          "type": "uint256"
        }
      ],
      "stateMutability": "view",
      "type": "function"
    },
    {
      "inputs": [],
      "name": "olas",
      "outputs": [
        {
          "internalType": "address",
          "name": "",
          "type": "address"
        }
      ],
      "stateMutability": "view",
      "type": "function"
    },
    {
      "inputs": [],
      "name": "olasL1",
      "outputs": [
        {
          "internalType": "address",
          "name": "",
          "type": "address"
        }
      ],
      "stateMutability": "view",
      "type": "function"
    },
    {
      "inputs": [],
      "name": "oracle",
      "outputs": [
        {
          "internalType": "address",
          "name": "",
          "type": "address"
        }
      ],
      "stateMutability": "view",
      "type": "function"
    },
    {
      "inputs": [
        {
          "internalType": "address",
          "name": "memeToken",
          "type": "address"
        }
      ],
      "name": "purgeThisMeme",
      "outputs": [],
      "stateMutability": "nonpayable",
      "type": "function"
    },
    {
      "inputs": [],
      "name": "referenceToken",
      "outputs": [
        {
          "internalType": "address",
          "name": "",
          "type": "address"
        }
      ],
      "stateMutability": "view",
      "type": "function"
    },
    {
      "inputs": [],
      "name": "router",
      "outputs": [
        {
          "internalType": "address",
          "name": "",
          "type": "address"
        }
      ],
      "stateMutability": "view",
      "type": "function"
    },
    {
      "inputs": [
        {
          "internalType": "uint256",
          "name": "limit",
          "type": "uint256"
        },
        {
          "internalType": "uint256",
          "name": "tokenGasLimit",
          "type": "uint256"
        },
        {
          "internalType": "bytes",
          "name": "bridgePayload",
          "type": "bytes"
        }
      ],
      "name": "scheduleOLASForAscendance",
      "outputs": [],
      "stateMutability": "payable",
      "type": "function"
    },
    {
      "inputs": [],
      "name": "scheduledForAscendance",
      "outputs": [
        {
          "internalType": "uint256",
          "name": "",
          "type": "uint256"
        }
      ],
      "stateMutability": "view",
      "type": "function"
    },
    {
      "inputs": [
        {
          "internalType": "string",
          "name": "name",
          "type": "string"
        },
        {
          "internalType": "string",
          "name": "symbol",
          "type": "string"
        },
        {
          "internalType": "uint256",
          "name": "totalSupply",
          "type": "uint256"
        }
      ],
      "name": "summonThisMeme",
      "outputs": [],
      "stateMutability": "payable",
      "type": "function"
    },
    {
      "inputs": [
        {
          "internalType": "address",
          "name": "memeToken",
          "type": "address"
        },
        {
          "internalType": "uint256",
          "name": "limit",
          "type": "uint256"
        }
      ],
      "name": "unleashThisMeme",
      "outputs": [],
      "stateMutability": "nonpayable",
      "type": "function"
    },
    {
      "inputs": [],
      "name": "weth",
      "outputs": [
        {
          "internalType": "address",
          "name": "",
          "type": "address"
        }
      ],
      "stateMutability": "view",
      "type": "function"
    },
    {
      "stateMutability": "payable",
      "type": "receive"
    }
  ],
  "bytecode": "0x6101e06040526001600255348015610015575f5ffd5b5060405161415f38038061415f833981016040819052610034916100ab565b6001600160a01b03808b1660a05298891660c05296881660e05294871661010052608093909352908516610120528416610140528316610160528216610180526101a05261111061111160901b0119909101166101c052610151565b80516001600160a01b03811681146100a6575f5ffd5b919050565b5f5f5f5f5f5f5f5f5f5f6101408b8d0312156100c5575f5ffd5b6100ce8b610090565b99506100dc60208c01610090565b98506100ea60408c01610090565b97506100f860608c01610090565b965060808b0151955061010d60a08c01610090565b945061011b60c08c01610090565b935061012960e08c01610090565b92506101386101008c01610090565b91506101208b015190509295989b9194979a5092959850565b60805160a05160c05160e05161010051610120516101405161016051610180516101a0516101c051613ef461026b5f395f81816104a30152611be801525f8181610661015261191f01525f8181610329015281816118750152611a3601525f81816104d60152611e6b01525f818161058a01528181611afb0152611c6501525f81816103cb0152611d8f01525f81816105e501526120f001525f81816106e901528181611f970152818161219701528181612273015261238101525f8181610294015281816118a60152818161196001528181611dfc015281816120bc015281816121c9015261232a01525f81816102130152818161198701528181611b2c0152611cf201525f81816105570152610f340152613ef45ff3fe6080604052600436106101f7575f3560e01c80637dc0d1d011610117578063c45a0155116100ac578063dbbb64b91161007c578063f76c603711610062578063f76c6037146106a2578063f887ea40146106d8578063ffa1ad741461070b575f5ffd5b8063dbbb64b914610650578063f74e481b14610683575f5ffd5b8063c45a0155146105d4578063cf4ffb7e14610607578063d1b0c28814610626578063dab346ff1461063c575f5ffd5b8063a5ae390c116100e7578063a5ae390c14610546578063a7be1b5014610579578063b1bd3c95146105ac578063be399e2b146105bf575f5ffd5b80637dc0d1d0146104c55780638b9ee610146104f85780638e499bcf1461051f5780639823bb1314610533575f5ffd5b80633d0cc3751161018d5780634c1c6cbf1161015d5780634c1c6cbf146104375780635122c40914610462578063709a5c9c1461047f57806371799d8a14610492575f5ffd5b80633d0cc375146103995780633fc8cef3146103ba57806340b67a9b146103ed578063466ffbce14610418575f5ffd5b8063158274a5116101c8578063158274a5146103185780632e0f26251461034b57806335f9f8d91461037157806336b4134a14610385575f5ffd5b806231d115146102025780630a42f8bd1461025f5780631265b6511461028357806314c7312b146102b6575f5ffd5b366101fe57005b5f5ffd5b34801561020d575f5ffd5b506102357f000000000000000000000000000000000000000000000000000000000000000081565b60405173ffffffffffffffffffffffffffffffffffffffff90911681526020015b60405180910390f35b34801561026a575f5ffd5b506102756202a30081565b604051908152602001610256565b34801561028e575f5ffd5b506102357f000000000000000000000000000000000000000000000000000000000000000081565b3480156102c1575f5ffd5b506102f86102d036600461254f565b600360208190525f918252604090912080546001820154600283015492909301549092919084565b604080519485526020850193909352918301526060820152608001610256565b348015610323575f5ffd5b506102357f000000000000000000000000000000000000000000000000000000000000000081565b348015610356575f5ffd5b5061035f601281565b60405160ff9091168152602001610256565b34801561037c575f5ffd5b50610275603281565b348015610390575f5ffd5b50610275606181565b3480156103a4575f5ffd5b506103b86103b336600461254f565b610760565b005b3480156103c5575f5ffd5b506102357f000000000000000000000000000000000000000000000000000000000000000081565b3480156103f8575f5ffd5b5061027561040736600461254f565b60056020525f908152604090205481565b348015610423575f5ffd5b50610235610432366004612571565b610b42565b348015610442575f5ffd5b5061044d620493e081565b60405163ffffffff9091168152602001610256565b34801561046d575f5ffd5b5061027569d3c21bcecceda100000081565b6103b861048d366004612684565b610b77565b34801561049d575f5ffd5b506102357f000000000000000000000000000000000000000000000000000000000000000081565b3480156104d0575f5ffd5b506102357f000000000000000000000000000000000000000000000000000000000000000081565b348015610503575f5ffd5b506102357351eb65012ca5ceb07320c497f4151ac207fea4e081565b34801561052a575f5ffd5b506102755f5481565b6103b861054136600461254f565b610ce3565b348015610551575f5ffd5b506102757f000000000000000000000000000000000000000000000000000000000000000081565b348015610584575f5ffd5b506102357f000000000000000000000000000000000000000000000000000000000000000081565b6103b86105ba366004612701565b610f32565b3480156105ca575f5ffd5b5061027560015481565b3480156105df575f5ffd5b506102357f000000000000000000000000000000000000000000000000000000000000000081565b348015610612575f5ffd5b506103b861062136600461276f565b611223565b348015610631575f5ffd5b506102756201518081565b348015610647575f5ffd5b50610275600a81565b34801561065b575f5ffd5b506102757f000000000000000000000000000000000000000000000000000000000000000081565b34801561068e575f5ffd5b506103b861069d36600461254f565b61159c565b3480156106ad575f5ffd5b506102756106bc366004612799565b600460209081525f928352604080842090915290825290205481565b3480156106e3575f5ffd5b506102357f000000000000000000000000000000000000000000000000000000000000000081565b348015610716575f5ffd5b506107536040518060400160405280600581526020017f302e312e3000000000000000000000000000000000000000000000000000000081525081565b604051610256919061281c565b6002546001146107d1576040517f08c379a000000000000000000000000000000000000000000000000000000000815260206004820152601060248201527f5265656e7472616e63792067756172640000000000000000000000000000000060448201526064015b60405180910390fd5b73ffffffffffffffffffffffffffffffffffffffff81165f90815260036020818152604092839020835160808101855281548152600182015492810183905260028201549481019490945290910154606083015261088b576040517f08c379a000000000000000000000000000000000000000000000000000000000815260206004820152601160248201527f4d656d65206e6f742073756d6d6f6e656400000000000000000000000000000060448201526064016107c8565b6202a300816020015161089e919061285b565b421161092c576040517f08c379a000000000000000000000000000000000000000000000000000000000815260206004820152602d60248201527f5075726765206f6e6c7920616c6c6f7765642066726f6d20343820686f75727360448201527f2061667465722073756d6d6f6e0000000000000000000000000000000000000060648201526084016107c8565b335f9081526005602052604081208054916109468361286e565b90915550506040517f70a0823100000000000000000000000000000000000000000000000000000000815230600482015282905f9073ffffffffffffffffffffffffffffffffffffffff8316906370a0823190602401602060405180830381865afa1580156109b7573d5f5f3e3d5ffd5b505050506040513d601f19601f820116820180604052508101906109db91906128a5565b90505f8111610a6c576040517f08c379a000000000000000000000000000000000000000000000000000000000815260206004820152602360248201527f486173206265656e20707572676564206f72206e6f7468696e6720746f20707560448201527f726765000000000000000000000000000000000000000000000000000000000060648201526084016107c8565b6040517f42966c680000000000000000000000000000000000000000000000000000000081526004810182905273ffffffffffffffffffffffffffffffffffffffff8316906342966c68906024015f604051808303815f87803b158015610ad1575f5ffd5b505af1158015610ae3573d5f5f3e3d5ffd5b505050508373ffffffffffffffffffffffffffffffffffffffff167f265db6c9c62cb962adbcf4398a54e4b02b2d87b28ab5b7538850150465a5f43c82604051610b2f91815260200190565b60405180910390a2505060016002555050565b60068181548110610b51575f80fd5b5f9182526020909120015473ffffffffffffffffffffffffffffffffffffffff16905081565b600254600114610be3576040517f08c379a000000000000000000000000000000000000000000000000000000000815260206004820152601060248201527f5265656e7472616e63792067756172640000000000000000000000000000000060448201526064016107c8565b5f60015411610c4e576040517f08c379a000000000000000000000000000000000000000000000000000000000815260206004820152600f60248201527f4e6f7468696e6720746f206275726e000000000000000000000000000000000060448201526064016107c8565b335f908152600560205260408120805491610c688361286e565b91905055505f610c7a60015485611838565b5f6001819055909150610c8e828585611abe565b90508015610cdc57604051329082905f81818185875af1925050503d805f8114610cd3576040519150601f19603f3d011682016040523d82523d5f602084013e610cd8565b606091505b5050505b5050505050565b5f3411610d72576040517f08c379a000000000000000000000000000000000000000000000000000000000815260206004820152602d60248201527f4e617469766520746f6b656e20616d6f756e74206d757374206265206772656160448201527f746572207468616e207a65726f0000000000000000000000000000000000000060648201526084016107c8565b73ffffffffffffffffffffffffffffffffffffffff81165f908152600360205260409020805480610dff576040517f08c379a000000000000000000000000000000000000000000000000000000000815260206004820152601560248201527f4d656d65206e6f74207965742073756d6d6f6e6564000000000000000000000060448201526064016107c8565b600282015415610e6b576040517f08c379a000000000000000000000000000000000000000000000000000000000815260206004820152601660248201527f4d656d6520616c726561647920756e6c6561736865640000000000000000000060448201526064016107c8565b610e75348261285b565b80835573ffffffffffffffffffffffffffffffffffffffff84165f908152600460209081526040808320338452909152812080549293503492909190610ebc90849061285b565b9091555050335f908152600560205260408120805491610edb8361286e565b909155505060405134815273ffffffffffffffffffffffffffffffffffffffff84169033907fb4dec46ff7703ee80325aa5ed4df0691d6d8791df96b50240552403cec1c9eda9060200160405180910390a3505050565b7f0000000000000000000000000000000000000000000000000000000000000000341015610fe2576040517f08c379a000000000000000000000000000000000000000000000000000000000815260206004820152603060248201527f4d696e696d756d206e617469766520746f6b656e2076616c756520697320726560448201527f71756972656420746f2073756d6d6f6e0000000000000000000000000000000060648201526084016107c8565b69d3c21bcecceda1000000811015611056576040517f08c379a000000000000000000000000000000000000000000000000000000000815260206004820152601f60248201527f4d696e696d756d20746f74616c20737570706c79206973206e6f74206d65740060448201526064016107c8565b5f83836012846040516110689061251e565b61107594939291906128bc565b604051809103905ff08015801561108e573d5f5f3e3d5ffd5b5060408051608081018252348082524260208084019182525f8486018181526060860182815273ffffffffffffffffffffffffffffffffffffffff891680845260038086528985209851895595516001808a01919091559251600289015590519690940195909555600482528581203382528252858120939093556006805494850181557ff652222313e28459528d920b65115c16c04f3efc82aaedc97be59f3f377c0d3f90940180547fffffffffffffffffffffffff000000000000000000000000000000000000000016909217909155915481556005909152908120805492935083929161117d8361286e565b909155505060405134815273ffffffffffffffffffffffffffffffffffffffff82169033907f109fe5b1a043e1fc6e8b6f4905613c0a5b82de0d8798558c67f0243106b2d7ad9060200160405180910390a360405134815273ffffffffffffffffffffffffffffffffffffffff82169033907fb4dec46ff7703ee80325aa5ed4df0691d6d8791df96b50240552403cec1c9eda9060200160405180910390a35050505050565b60025460011461128f576040517f08c379a000000000000000000000000000000000000000000000000000000000815260206004820152601060248201527f5265656e7472616e63792067756172640000000000000000000000000000000060448201526064016107c8565b73ffffffffffffffffffffffffffffffffffffffff82165f90815260036020526040902080546001820154611320576040517f08c379a000000000000000000000000000000000000000000000000000000000815260206004820152601160248201527f4d656d65206e6f742073756d6d6f6e656400000000000000000000000000000060448201526064016107c8565b620151808260010154611333919061285b565b42101561139c576040517f08c379a000000000000000000000000000000000000000000000000000000000815260206004820152601260248201527f43616e6e6f7420756e6c6561736820796574000000000000000000000000000060448201526064016107c8565b5f6113a78285611d69565b90505f60646113b7600a846128f7565b6113c1919061290e565b90508060015f8282546113d4919061285b565b909155506113e490508183612946565b91505f8690505f8173ffffffffffffffffffffffffffffffffffffffff166318160ddd6040518163ffffffff1660e01b8152600401602060405180830381865afa158015611434573d5f5f3e3d5ffd5b505050506040513d601f19601f8201168201806040525081019061145891906128a5565b90505f60646114686032846128f7565b611472919061290e565b90505f61147f8284612946565b90505f5f61148e8c898661207f565b4260028d015560038c01859055335f90815260056020526040812080549395509193506114ba8361286e565b909155505073ffffffffffffffffffffffffffffffffffffffff8c165f9081526004602090815260408083203384529091529020548015611501576115018d82868d6123fa565b8273ffffffffffffffffffffffffffffffffffffffff168d73ffffffffffffffffffffffffffffffffffffffff163373ffffffffffffffffffffffffffffffffffffffff167fcef3279530e487be6d2c4583c847d17d5a328a9b6ab1e27ad458690257ba7768858c604051611580929190918252602082015260400190565b60405180910390a4505060016002555050505050505050505050565b600254600114611608576040517f08c379a000000000000000000000000000000000000000000000000000000000815260206004820152601060248201527f5265656e7472616e63792067756172640000000000000000000000000000000060448201526064016107c8565b73ffffffffffffffffffffffffffffffffffffffff81165f908152600360208181526040928390208351608081018552815481526001820154928101929092526002810154938201849052909101546060820152906116c3576040517f08c379a000000000000000000000000000000000000000000000000000000000815260206004820152601260248201527f4d656d65206e6f7420756e6c656173686564000000000000000000000000000060448201526064016107c8565b6202a30081602001516116d6919061285b565b421115611765576040517f08c379a000000000000000000000000000000000000000000000000000000000815260206004820152603060248201527f436f6c6c656374206f6e6c7920616c6c6f77656420756e74696c20343820686f60448201527f7572732061667465722073756d6d6f6e0000000000000000000000000000000060648201526084016107c8565b73ffffffffffffffffffffffffffffffffffffffff82165f908152600460209081526040808320338452909152902054806117fc576040517f08c379a000000000000000000000000000000000000000000000000000000000815260206004820152601360248201527f4e6f20746f6b656e20616c6c6f636174696f6e0000000000000000000000000060448201526064016107c8565b335f9081526005602052604081208054916118168361286e565b919050555061182e83828460600151855f01516123fa565b5050600160025550565b6040517f095ea7b300000000000000000000000000000000000000000000000000000000815273ffffffffffffffffffffffffffffffffffffffff7f000000000000000000000000000000000000000000000000000000000000000081166004830152602482018490525f917f00000000000000000000000000000000000000000000000000000000000000009091169063095ea7b3906044016020604051808303815f875af11580156118ee573d5f5f3e3d5ffd5b505050506040513d601f19601f820116820180604052508101906119129190612959565b506040805160c0810182527f000000000000000000000000000000000000000000000000000000000000000081525f602080830182905273ffffffffffffffffffffffffffffffffffffffff7f00000000000000000000000000000000000000000000000000000000000000008116848601527f0000000000000000000000000000000000000000000000000000000000000000811660608086019190915260808086018a905286518088018852600281527f30780000000000000000000000000000000000000000000000000000000000008186015260a087015286519081018752308082529381018590528087019390935282019290925292517f52bbbe290000000000000000000000000000000000000000000000000000000081529192917f0000000000000000000000000000000000000000000000000000000000000000909116906352bbbe2990611a73908590859089904290600401612978565b6020604051808303815f875af1158015611a8f573d5f5f3e3d5ffd5b505050506040513d601f19601f82011682018060405250810190611ab391906128a5565b925050505b92915050565b6040517f095ea7b300000000000000000000000000000000000000000000000000000000815273ffffffffffffffffffffffffffffffffffffffff7f000000000000000000000000000000000000000000000000000000000000000081166004830152602482018590525f917f00000000000000000000000000000000000000000000000000000000000000009091169063095ea7b3906044016020604051808303815f875af1158015611b74573d5f5f3e3d5ffd5b505050506040513d601f19601f82011682018060405250810190611b989190612959565b50620493e0831015611bab57620493e092505b6040517f7b3a3c8b00000000000000000000000000000000000000000000000000000000815273ffffffffffffffffffffffffffffffffffffffff7f0000000000000000000000000000000000000000000000000000000000000000811660048301527351eb65012ca5ceb07320c497f4151ac207fea4e060248301526044820186905260806064830152600260848301527f307800000000000000000000000000000000000000000000000000000000000060a48301527f00000000000000000000000000000000000000000000000000000000000000001690637b3a3c8b9060c4015f604051808303815f875af1158015611caa573d5f5f3e3d5ffd5b505050506040513d5f823e601f3d9081017fffffffffffffffffffffffffffffffffffffffffffffffffffffffffffffffe0168201604052611cef9190810190612aa7565b507f000000000000000000000000000000000000000000000000000000000000000073ffffffffffffffffffffffffffffffffffffffff167f40a3e75fd2efcf074c9c0520c5367ccb3093ded646970bdc8c3108748e5d3f0e85604051611d5891815260200190565b60405180910390a250349392505050565b6040805160028082526060820183525f92839291906020830190803683370190505090507f0000000000000000000000000000000000000000000000000000000000000000815f81518110611dc057611dc0612b1c565b602002602001019073ffffffffffffffffffffffffffffffffffffffff16908173ffffffffffffffffffffffffffffffffffffffff16815250507f000000000000000000000000000000000000000000000000000000000000000081600181518110611e2e57611e2e612b1c565b602002602001019073ffffffffffffffffffffffffffffffffffffffff16908173ffffffffffffffffffffffffffffffffffffffff16815250505f7f000000000000000000000000000000000000000000000000000000000000000073ffffffffffffffffffffffffffffffffffffffff1663feaf968c6040518163ffffffff1660e01b815260040160a0604051808303815f875af1158015611ed3573d5f5f3e3d5ffd5b505050506040513d601f19601f82011682018060405250810190611ef79190612b67565b5050509150505f8113611f66576040517f08c379a000000000000000000000000000000000000000000000000000000000815260206004820152601960248201527f4f7261636c6520707269636520697320696e636f72726563740000000000000060448201526064016107c8565b5f69021e19e0c9bab24000006061611f7e88856128f7565b611f8891906128f7565b611f92919061290e565b90505f7f000000000000000000000000000000000000000000000000000000000000000073ffffffffffffffffffffffffffffffffffffffff16637ff36ab588848730426040518663ffffffff1660e01b8152600401611ff59493929190612bb5565b5f6040518083038185885af1158015612010573d5f5f3e3d5ffd5b50505050506040513d5f823e601f3d9081017fffffffffffffffffffffffffffffffffffffffffffffffffffffffffffffffe01682016040526120569190810190612c38565b90508060018151811061206b5761206b612b1c565b602002602001015194505050505092915050565b6040517fc9c6539600000000000000000000000000000000000000000000000000000000815273ffffffffffffffffffffffffffffffffffffffff7f00000000000000000000000000000000000000000000000000000000000000008116600483015284811660248301525f9182917f0000000000000000000000000000000000000000000000000000000000000000169063c9c65396906044016020604051808303815f875af1158015612136573d5f5f3e3d5ffd5b505050506040513d601f19601f8201168201806040525081019061215a9190612ce4565b6040517f095ea7b300000000000000000000000000000000000000000000000000000000815273ffffffffffffffffffffffffffffffffffffffff7f000000000000000000000000000000000000000000000000000000000000000081166004830152602482018790529193507f00000000000000000000000000000000000000000000000000000000000000009091169063095ea7b3906044016020604051808303815f875af1158015612211573d5f5f3e3d5ffd5b505050506040513d601f19601f820116820180604052508101906122359190612959565b506040517f095ea7b300000000000000000000000000000000000000000000000000000000815273ffffffffffffffffffffffffffffffffffffffff7f0000000000000000000000000000000000000000000000000000000000000000811660048301526024820185905286169063095ea7b3906044016020604051808303815f875af11580156122c8573d5f5f3e3d5ffd5b505050506040513d601f19601f820116820180604052508101906122ec9190612959565b506040517fe8e3370000000000000000000000000000000000000000000000000000000000815273ffffffffffffffffffffffffffffffffffffffff7f000000000000000000000000000000000000000000000000000000000000000081166004830152868116602483015260448201869052606482018590525f6084830181905260a48301523060c48301524260e48301527f0000000000000000000000000000000000000000000000000000000000000000169063e8e3370090610104016060604051808303815f875af11580156123c8573d5f5f3e3d5ffd5b505050506040513d601f19601f820116820180604052508101906123ec9190612cff565b939793965092945050505050565b835f8261240785876128f7565b612411919061290e565b73ffffffffffffffffffffffffffffffffffffffff8781165f9081526004602081815260408084203380865292528084209390935591517fa9059cbb000000000000000000000000000000000000000000000000000000008152908101919091526024810183905291925083169063a9059cbb906044016020604051808303815f875af11580156124a4573d5f5f3e3d5ffd5b505050506040513d601f19601f820116820180604052508101906124c89190612959565b5060405181815273ffffffffffffffffffffffffffffffffffffffff87169033907f484decdc1e9549e1866295f6f86c889ded3f7de410e7488a7a415978589dc8fd9060200160405180910390a3505050505050565b61119480612d2b83390190565b73ffffffffffffffffffffffffffffffffffffffff8116811461254c575f5ffd5b50565b5f6020828403121561255f575f5ffd5b813561256a8161252b565b9392505050565b5f60208284031215612581575f5ffd5b5035919050565b7f4e487b71000000000000000000000000000000000000000000000000000000005f52604160045260245ffd5b604051601f82017fffffffffffffffffffffffffffffffffffffffffffffffffffffffffffffffe016810167ffffffffffffffff811182821017156125fc576125fc612588565b604052919050565b5f67ffffffffffffffff82111561261d5761261d612588565b50601f017fffffffffffffffffffffffffffffffffffffffffffffffffffffffffffffffe01660200190565b5f61265b61265684612604565b6125b5565b905082815283838301111561266e575f5ffd5b828260208301375f602084830101529392505050565b5f5f5f60608486031215612696575f5ffd5b8335925060208401359150604084013567ffffffffffffffff8111156126ba575f5ffd5b8401601f810186136126ca575f5ffd5b6126d986823560208401612649565b9150509250925092565b5f82601f8301126126f2575f5ffd5b61256a83833560208501612649565b5f5f5f60608486031215612713575f5ffd5b833567ffffffffffffffff811115612729575f5ffd5b612735868287016126e3565b935050602084013567ffffffffffffffff811115612751575f5ffd5b61275d868287016126e3565b93969395505050506040919091013590565b5f5f60408385031215612780575f5ffd5b823561278b8161252b565b946020939093013593505050565b5f5f604083850312156127aa575f5ffd5b82356127b58161252b565b915060208301356127c58161252b565b809150509250929050565b5f81518084528060208401602086015e5f6020828601015260207fffffffffffffffffffffffffffffffffffffffffffffffffffffffffffffffe0601f83011685010191505092915050565b602081525f61256a60208301846127d0565b7f4e487b71000000000000000000000000000000000000000000000000000000005f52601160045260245ffd5b80820180821115611ab857611ab861282e565b5f7fffffffffffffffffffffffffffffffffffffffffffffffffffffffffffffffff820361289e5761289e61282e565b5060010190565b5f602082840312156128b5575f5ffd5b5051919050565b608081525f6128ce60808301876127d0565b82810360208401526128e081876127d0565b60ff95909516604084015250506060015292915050565b8082028115828204841417611ab857611ab861282e565b5f82612941577f4e487b71000000000000000000000000000000000000000000000000000000005f52601260045260245ffd5b500490565b81810381811115611ab857611ab861282e565b5f60208284031215612969575f5ffd5b8151801515811461256a575f5ffd5b60e08152845160e08201525f6020860151600281106129be577f4e487b71000000000000000000000000000000000000000000000000000000005f52602160045260245ffd5b610100830152604086015173ffffffffffffffffffffffffffffffffffffffff166101208301526060860151612a0d61014084018273ffffffffffffffffffffffffffffffffffffffff169052565b50608086015161016083015260a086015160c0610180840152612a346101a08401826127d0565b915050612a95602083018673ffffffffffffffffffffffffffffffffffffffff815116825260208101511515602083015273ffffffffffffffffffffffffffffffffffffffff60408201511660408301526060810151151560608301525050565b60a082019390935260c0015292915050565b5f60208284031215612ab7575f5ffd5b815167ffffffffffffffff811115612acd575f5ffd5b8201601f81018413612add575f5ffd5b8051612aeb61265682612604565b818152856020838501011115612aff575f5ffd5b8160208401602083015e5f91810160200191909152949350505050565b7f4e487b71000000000000000000000000000000000000000000000000000000005f52603260045260245ffd5b805169ffffffffffffffffffff81168114612b62575f5ffd5b919050565b5f5f5f5f5f60a08688031215612b7b575f5ffd5b612b8486612b49565b60208701516040880151606089015192975090955093509150612ba960808701612b49565b90509295509295909350565b5f608082018683526080602084015280865180835260a0850191506020880192505f5b81811015612c0c57835173ffffffffffffffffffffffffffffffffffffffff16835260209384019390920191600101612bd8565b505073ffffffffffffffffffffffffffffffffffffffff95909516604084015250506060015292915050565b5f60208284031215612c48575f5ffd5b815167ffffffffffffffff811115612c5e575f5ffd5b8201601f81018413612c6e575f5ffd5b805167ffffffffffffffff811115612c8857612c88612588565b8060051b612c98602082016125b5565b91825260208184018101929081019087841115612cb3575f5ffd5b6020850194505b83851015612cd957845180835260209586019590935090910190612cba565b979650505050505050565b5f60208284031215612cf4575f5ffd5b815161256a8161252b565b5f5f5f60608486031215612d11575f5ffd5b505081516020830151604090930151909492935091905056fe60e060405234801561000f575f5ffd5b5060405161119438038061119483398101604081905261002e91610216565b8383835f61003c848261031d565b506001610049838261031d565b5060ff81166080524660a05261005d610078565b60c0525061006f915033905082610110565b5050505061046d565b5f7f8b73c3c69bb8fe3d512ecc4cf759cc79239f7b179b0ffacaa9a75d522b39400f5f6040516100a891906103d7565b6040805191829003822060208301939093528101919091527fc89efdaa54c0f20c7adf612882df0950f5a951637e0307cdcb4c672f298b8bc660608201524660808201523060a082015260c00160405160208183030381529060405280519060200120905090565b8060025f8282546101219190610448565b90915550506001600160a01b0382165f818152600360209081526040808320805486019055518481527fddf252ad1be2c89b69c2b068fc378daa952ba7f163c4a11628f55a4df523b3ef910160405180910390a35050565b634e487b7160e01b5f52604160045260245ffd5b5f82601f83011261019c575f5ffd5b81516001600160401b038111156101b5576101b5610179565b604051601f8201601f19908116603f011681016001600160401b03811182821017156101e3576101e3610179565b6040528181528382016020018510156101fa575f5ffd5b8160208501602083015e5f918101602001919091529392505050565b5f5f5f5f60808587031215610229575f5ffd5b84516001600160401b0381111561023e575f5ffd5b61024a8782880161018d565b602087015190955090506001600160401b03811115610267575f5ffd5b6102738782880161018d565b935050604085015160ff81168114610289575f5ffd5b6060959095015193969295505050565b600181811c908216806102ad57607f821691505b6020821081036102cb57634e487b7160e01b5f52602260045260245ffd5b50919050565b601f82111561031857805f5260205f20601f840160051c810160208510156102f65750805b601f840160051c820191505b81811015610315575f8155600101610302565b50505b505050565b81516001600160401b0381111561033657610336610179565b61034a816103448454610299565b846102d1565b6020601f82116001811461037c575f83156103655750848201515b5f19600385901b1c1916600184901b178455610315565b5f84815260208120601f198516915b828110156103ab578785015182556020948501946001909201910161038b565b50848210156103c857868401515f19600387901b60f8161c191681555b50505050600190811b01905550565b5f5f83546103e481610299565b6001821680156103fb57600181146104105761043d565b60ff198316865281151582028601935061043d565b865f5260205f205f5b8381101561043557815488820152600190910190602001610419565b505081860193505b509195945050505050565b8082018082111561046757634e487b7160e01b5f52601160045260245ffd5b92915050565b60805160a05160c051610cfd6104975f395f6104b101525f61047c01525f61014e0152610cfd5ff3fe608060405234801561000f575f5ffd5b50600436106100da575f3560e01c806342966c681161008857806395d89b411161006357806395d89b41146101dd578063a9059cbb146101e5578063d505accf146101f8578063dd62ed3e1461020b575f5ffd5b806342966c681461018a57806370a082311461019f5780637ecebe00146101be575f5ffd5b806323b872dd116100b857806323b872dd14610136578063313ce567146101495780633644e51514610182575f5ffd5b806306fdde03146100de578063095ea7b3146100fc57806318160ddd1461011f575b5f5ffd5b6100e6610235565b6040516100f391906109b9565b60405180910390f35b61010f61010a366004610a34565b6102c0565b60405190151581526020016100f3565b61012860025481565b6040519081526020016100f3565b61010f610144366004610a5c565b610339565b6101707f000000000000000000000000000000000000000000000000000000000000000081565b60405160ff90911681526020016100f3565b610128610479565b61019d610198366004610a96565b6104d3565b005b6101286101ad366004610aad565b60036020525f908152604090205481565b6101286101cc366004610aad565b60056020525f908152604090205481565b6100e66104e0565b61010f6101f3366004610a34565b6104ed565b61019d610206366004610acd565b610570565b610128610219366004610b3a565b600460209081525f928352604080842090915290825290205481565b5f805461024190610b6b565b80601f016020809104026020016040519081016040528092919081815260200182805461026d90610b6b565b80156102b85780601f1061028f576101008083540402835291602001916102b8565b820191905f5260205f20905b81548152906001019060200180831161029b57829003601f168201915b505050505081565b335f81815260046020908152604080832073ffffffffffffffffffffffffffffffffffffffff8716808552925280832085905551919290917f8c5be1e5ebec7d5bd14f71427d1e84f3dd0314c0f7b2291e5b200ac8c7c3b925906103279086815260200190565b60405180910390a35060015b92915050565b73ffffffffffffffffffffffffffffffffffffffff83165f9081526004602090815260408083203384529091528120547fffffffffffffffffffffffffffffffffffffffffffffffffffffffffffffffff81146103cb5761039a8382610bbc565b73ffffffffffffffffffffffffffffffffffffffff86165f9081526004602090815260408083203384529091529020555b73ffffffffffffffffffffffffffffffffffffffff85165f90815260036020526040812080548592906103ff908490610bbc565b909155505073ffffffffffffffffffffffffffffffffffffffff8085165f81815260036020526040908190208054870190555190918716907fddf252ad1be2c89b69c2b068fc378daa952ba7f163c4a11628f55a4df523b3ef906104669087815260200190565b60405180910390a3506001949350505050565b5f7f000000000000000000000000000000000000000000000000000000000000000046146104ae576104a961088e565b905090565b507f000000000000000000000000000000000000000000000000000000000000000090565b6104dd3382610926565b50565b6001805461024190610b6b565b335f9081526003602052604081208054839190839061050d908490610bbc565b909155505073ffffffffffffffffffffffffffffffffffffffff83165f81815260036020526040908190208054850190555133907fddf252ad1be2c89b69c2b068fc378daa952ba7f163c4a11628f55a4df523b3ef906103279086815260200190565b428410156105df576040517f08c379a000000000000000000000000000000000000000000000000000000000815260206004820152601760248201527f5045524d49545f444541444c494e455f4558504952454400000000000000000060448201526064015b60405180910390fd5b5f60016105ea610479565b73ffffffffffffffffffffffffffffffffffffffff8a81165f8181526005602090815260409182902080546001810190915582517f6e71edae12b1b97f4d1f60370fef10105fa2faae0126114a169c64845d6126c98184015280840194909452938d166060840152608083018c905260a083019390935260c08083018b90528151808403909101815260e0830190915280519201919091207f190100000000000000000000000000000000000000000000000000000000000061010083015261010282019290925261012281019190915261014201604080517fffffffffffffffffffffffffffffffffffffffffffffffffffffffffffffffe081840301815282825280516020918201205f84529083018083525260ff871690820152606081018590526080810184905260a0016020604051602081039080840390855afa158015610738573d5f5f3e3d5ffd5b50506040517fffffffffffffffffffffffffffffffffffffffffffffffffffffffffffffffe0015191505073ffffffffffffffffffffffffffffffffffffffff8116158015906107b357508773ffffffffffffffffffffffffffffffffffffffff168173ffffffffffffffffffffffffffffffffffffffff16145b610819576040517f08c379a000000000000000000000000000000000000000000000000000000000815260206004820152600e60248201527f494e56414c49445f5349474e455200000000000000000000000000000000000060448201526064016105d6565b73ffffffffffffffffffffffffffffffffffffffff9081165f9081526004602090815260408083208a8516808552908352928190208990555188815291928a16917f8c5be1e5ebec7d5bd14f71427d1e84f3dd0314c0f7b2291e5b200ac8c7c3b925910160405180910390a350505050505050565b5f7f8b73c3c69bb8fe3d512ecc4cf759cc79239f7b179b0ffacaa9a75d522b39400f5f6040516108be9190610bf4565b6040805191829003822060208301939093528101919091527fc89efdaa54c0f20c7adf612882df0950f5a951637e0307cdcb4c672f298b8bc660608201524660808201523060a082015260c00160405160208183030381529060405280519060200120905090565b73ffffffffffffffffffffffffffffffffffffffff82165f908152600360205260408120805483929061095a908490610bbc565b90915550506002805482900390556040518181525f9073ffffffffffffffffffffffffffffffffffffffff8416907fddf252ad1be2c89b69c2b068fc378daa952ba7f163c4a11628f55a4df523b3ef9060200160405180910390a35050565b602081525f82518060208401528060208501604085015e5f6040828501015260407fffffffffffffffffffffffffffffffffffffffffffffffffffffffffffffffe0601f83011684010191505092915050565b803573ffffffffffffffffffffffffffffffffffffffff81168114610a2f575f5ffd5b919050565b5f5f60408385031215610a45575f5ffd5b610a4e83610a0c565b946020939093013593505050565b5f5f5f60608486031215610a6e575f5ffd5b610a7784610a0c565b9250610a8560208501610a0c565b929592945050506040919091013590565b5f60208284031215610aa6575f5ffd5b5035919050565b5f60208284031215610abd575f5ffd5b610ac682610a0c565b9392505050565b5f5f5f5f5f5f5f60e0888a031215610ae3575f5ffd5b610aec88610a0c565b9650610afa60208901610a0c565b95506040880135945060608801359350608088013560ff81168114610b1d575f5ffd5b9699959850939692959460a0840135945060c09093013592915050565b5f5f60408385031215610b4b575f5ffd5b610b5483610a0c565b9150610b6260208401610a0c565b90509250929050565b600181811c90821680610b7f57607f821691505b602082108103610bb6577f4e487b71000000000000000000000000000000000000000000000000000000005f52602260045260245ffd5b50919050565b81810381811115610333577f4e487b71000000000000000000000000000000000000000000000000000000005f52601160045260245ffd5b5f5f83545f8160011c90506001821680610c0f57607f821691505b602082108103610c46577f4e487b71000000000000000000000000000000000000000000000000000000005f52602260045260245ffd5b808015610c5a5760018114610c8d57610cbb565b7fffffffffffffffffffffffffffffffffffffffffffffffffffffffffffffff0084168752821515830287019450610cbb565b5f888152602090205f5b84811015610cb357815489820152600190910190602001610c97565b505082870194505b5092969550505050505056fea26469706673582212205df7019458ddc6a358585d679221b07a9e24fb31dbf8c630fcd1d119dc2aee2864736f6c634300081c0033a264697066735822122053ef9b2d10a29cda46266040b2febeeb65470be7c855de05ff741ebc3be3cd7f64736f6c634300081c0033",
  "linkReferences": {},
  "deployedLinkReferences": {}
}