{
  "_format": "hh-sol-artifact-1",
  "contractName": "MemeCelo",
  "sourceName": "contracts/MemeCelo.sol",
  "abi": [
    {
      "inputs": [
        {
          "internalType": "address",
          "name": "_olas",
          "type": "address"
        },
        {
          "internalType": "address",
          "name": "_nativeToken",
          "type": "address"
        },
        {
          "internalType": "address",
          "name": "_uniV3PositionManager",
          "type": "address"
        },
        {
          "internalType": "address",
          "name": "_buyBackBurner",
          "type": "address"
        },
        {
          "internalType": "uint256",
          "name": "_minNativeTokenValue",
          "type": "uint256"
        }
      ],
      "stateMutability": "nonpayable",
      "type": "constructor"
    },
    {
      "anonymous": false,
      "inputs": [
        {
          "indexed": true,
          "internalType": "address",
          "name": "hearter",
          "type": "address"
        },
        {
          "indexed": true,
          "internalType": "address",
          "name": "memeToken",
          "type": "address"
        },
        {
          "indexed": false,
          "internalType": "uint256",
          "name": "allocation",
          "type": "uint256"
        }
      ],
      "name": "Collected",
      "type": "event"
    },
    {
      "anonymous": false,
      "inputs": [
        {
          "indexed": true,
          "internalType": "address",
          "name": "feeCollector",
          "type": "address"
        },
        {
          "indexed": true,
          "internalType": "address",
          "name": "memeToken",
          "type": "address"
        },
        {
          "indexed": false,
          "internalType": "uint256",
          "name": "nativeTokenAmount",
          "type": "uint256"
        },
        {
          "indexed": false,
          "internalType": "uint256",
          "name": "memeTokenAmount",
          "type": "uint256"
        }
      ],
      "name": "FeesCollected",
      "type": "event"
    },
    {
      "anonymous": false,
      "inputs": [
        {
          "indexed": true,
          "internalType": "address",
          "name": "hearter",
          "type": "address"
        },
        {
          "indexed": true,
          "internalType": "uint256",
          "name": "memeNonce",
          "type": "uint256"
        },
        {
          "indexed": false,
          "internalType": "uint256",
          "name": "amount",
          "type": "uint256"
        }
      ],
      "name": "Hearted",
      "type": "event"
    },
    {
      "anonymous": false,
      "inputs": [
        {
          "indexed": false,
          "internalType": "uint256",
          "name": "amount",
          "type": "uint256"
        }
      ],
      "name": "OLASJourneyToAscendance",
      "type": "event"
    },
    {
      "anonymous": false,
      "inputs": [
        {
          "indexed": true,
          "internalType": "address",
          "name": "memeToken",
          "type": "address"
        },
        {
          "indexed": false,
          "internalType": "uint256",
          "name": "amount",
          "type": "uint256"
        }
      ],
      "name": "Purged",
      "type": "event"
    },
    {
      "anonymous": false,
      "inputs": [
        {
          "indexed": true,
          "internalType": "address",
          "name": "summoner",
          "type": "address"
        },
        {
          "indexed": true,
          "internalType": "uint256",
          "name": "memeNonce",
          "type": "uint256"
        },
        {
          "indexed": false,
          "internalType": "uint256",
          "name": "amount",
          "type": "uint256"
        }
      ],
      "name": "Summoned",
      "type": "event"
    },
    {
      "anonymous": false,
      "inputs": [
        {
          "indexed": true,
          "internalType": "address",
          "name": "unleasher",
          "type": "address"
        },
        {
          "indexed": true,
          "internalType": "uint256",
          "name": "memeNonce",
          "type": "uint256"
        },
        {
          "indexed": true,
          "internalType": "address",
          "name": "memeToken",
          "type": "address"
        },
        {
          "indexed": false,
          "internalType": "uint256",
          "name": "lpTokenId",
          "type": "uint256"
        },
        {
          "indexed": false,
          "internalType": "uint256",
          "name": "liquidity",
          "type": "uint256"
        }
      ],
      "name": "Unleashed",
      "type": "event"
    },
    {
      "inputs": [],
      "name": "COLLECT_DELAY",
      "outputs": [
        {
          "internalType": "uint256",
          "name": "",
          "type": "uint256"
        }
      ],
      "stateMutability": "view",
      "type": "function"
    },
    {
      "inputs": [],
      "name": "DECIMALS",
      "outputs": [
        {
          "internalType": "uint8",
          "name": "",
          "type": "uint8"
        }
      ],
      "stateMutability": "view",
      "type": "function"
    },
    {
      "inputs": [],
      "name": "FEE_TIER",
      "outputs": [
        {
          "internalType": "uint24",
          "name": "",
          "type": "uint24"
        }
      ],
      "stateMutability": "view",
      "type": "function"
    },
    {
      "inputs": [],
      "name": "LP_PERCENTAGE",
      "outputs": [
        {
          "internalType": "uint256",
          "name": "",
          "type": "uint256"
        }
      ],
      "stateMutability": "view",
      "type": "function"
    },
    {
      "inputs": [],
      "name": "MAX_TICK",
      "outputs": [
        {
          "internalType": "int24",
          "name": "",
          "type": "int24"
        }
      ],
      "stateMutability": "view",
      "type": "function"
    },
    {
      "inputs": [],
      "name": "MIN_TICK",
      "outputs": [
        {
          "internalType": "int24",
          "name": "",
          "type": "int24"
        }
      ],
      "stateMutability": "view",
      "type": "function"
    },
    {
      "inputs": [],
      "name": "MIN_TOTAL_SUPPLY",
      "outputs": [
        {
          "internalType": "uint256",
          "name": "",
          "type": "uint256"
        }
      ],
      "stateMutability": "view",
      "type": "function"
    },
    {
      "inputs": [],
      "name": "OLAS_BURN_PERCENTAGE",
      "outputs": [
        {
          "internalType": "uint256",
          "name": "",
          "type": "uint256"
        }
      ],
      "stateMutability": "view",
      "type": "function"
    },
    {
      "inputs": [],
      "name": "UNLEASH_DELAY",
      "outputs": [
        {
          "internalType": "uint256",
          "name": "",
          "type": "uint256"
        }
      ],
      "stateMutability": "view",
      "type": "function"
    },
    {
      "inputs": [],
      "name": "VERSION",
      "outputs": [
        {
          "internalType": "string",
          "name": "",
          "type": "string"
        }
      ],
      "stateMutability": "view",
      "type": "function"
    },
    {
      "inputs": [],
      "name": "buyBackBurner",
      "outputs": [
        {
          "internalType": "address",
          "name": "",
          "type": "address"
        }
      ],
      "stateMutability": "view",
      "type": "function"
    },
    {
      "inputs": [
        {
          "internalType": "address[]",
          "name": "tokens",
          "type": "address[]"
        }
      ],
      "name": "collectFees",
      "outputs": [],
      "stateMutability": "nonpayable",
      "type": "function"
    },
    {
      "inputs": [
        {
          "internalType": "address",
          "name": "memeToken",
          "type": "address"
        }
      ],
      "name": "collectThisMeme",
      "outputs": [],
      "stateMutability": "nonpayable",
      "type": "function"
    },
    {
      "inputs": [
        {
          "internalType": "uint256",
          "name": "memeNonce",
          "type": "uint256"
        }
      ],
      "name": "heartThisMeme",
      "outputs": [],
      "stateMutability": "payable",
      "type": "function"
    },
    {
      "inputs": [
        {
          "internalType": "address",
          "name": "",
          "type": "address"
        }
      ],
      "name": "mapAccountActivities",
      "outputs": [
        {
          "internalType": "uint256",
          "name": "",
          "type": "uint256"
        }
      ],
      "stateMutability": "view",
      "type": "function"
    },
    {
      "inputs": [
        {
          "internalType": "uint256",
          "name": "",
          "type": "uint256"
        },
        {
          "internalType": "address",
          "name": "",
          "type": "address"
        }
      ],
      "name": "memeHearters",
      "outputs": [
        {
          "internalType": "uint256",
          "name": "",
          "type": "uint256"
        }
      ],
      "stateMutability": "view",
      "type": "function"
    },
    {
      "inputs": [
        {
          "internalType": "uint256",
          "name": "",
          "type": "uint256"
        }
      ],
      "name": "memeSummons",
      "outputs": [
        {
          "internalType": "string",
          "name": "name",
          "type": "string"
        },
        {
          "internalType": "string",
          "name": "symbol",
          "type": "string"
        },
        {
          "internalType": "uint256",
          "name": "totalSupply",
          "type": "uint256"
        },
        {
          "internalType": "uint256",
          "name": "nativeTokenContributed",
          "type": "uint256"
        },
        {
          "internalType": "uint256",
          "name": "summonTime",
          "type": "uint256"
        },
        {
          "internalType": "uint256",
          "name": "unleashTime",
          "type": "uint256"
        },
        {
          "internalType": "uint256",
          "name": "heartersAmount",
          "type": "uint256"
        },
        {
          "internalType": "uint256",
          "name": "positionId",
          "type": "uint256"
        },
        {
          "internalType": "bool",
          "name": "isNativeFirst",
          "type": "bool"
        }
      ],
      "stateMutability": "view",
      "type": "function"
    },
    {
      "inputs": [
        {
          "internalType": "address",
          "name": "",
          "type": "address"
        }
      ],
      "name": "memeTokenNonces",
      "outputs": [
        {
          "internalType": "uint256",
          "name": "",
          "type": "uint256"
        }
      ],
      "stateMutability": "view",
      "type": "function"
    },
    {
      "inputs": [
        {
          "internalType": "uint256",
          "name": "",
          "type": "uint256"
        }
      ],
      "name": "memeTokens",
      "outputs": [
        {
          "internalType": "address",
          "name": "",
          "type": "address"
        }
      ],
      "stateMutability": "view",
      "type": "function"
    },
    {
      "inputs": [],
      "name": "minNativeTokenValue",
      "outputs": [
        {
          "internalType": "uint256",
          "name": "",
          "type": "uint256"
        }
      ],
      "stateMutability": "view",
      "type": "function"
    },
    {
      "inputs": [],
      "name": "nativeToken",
      "outputs": [
        {
          "internalType": "address",
          "name": "",
          "type": "address"
        }
      ],
      "stateMutability": "view",
      "type": "function"
    },
    {
      "inputs": [],
      "name": "numTokens",
      "outputs": [
        {
          "internalType": "uint256",
          "name": "",
          "type": "uint256"
        }
      ],
      "stateMutability": "view",
      "type": "function"
    },
    {
      "inputs": [],
      "name": "olas",
      "outputs": [
        {
          "internalType": "address",
          "name": "",
          "type": "address"
        }
      ],
      "stateMutability": "view",
      "type": "function"
    },
    {
      "inputs": [
        {
          "internalType": "address",
          "name": "memeToken",
          "type": "address"
        }
      ],
      "name": "purgeThisMeme",
      "outputs": [],
      "stateMutability": "nonpayable",
      "type": "function"
    },
    {
      "inputs": [],
      "name": "scheduleForAscendance",
      "outputs": [],
      "stateMutability": "nonpayable",
      "type": "function"
    },
    {
      "inputs": [],
      "name": "scheduledForAscendance",
      "outputs": [
        {
          "internalType": "uint256",
          "name": "",
          "type": "uint256"
        }
      ],
      "stateMutability": "view",
      "type": "function"
    },
    {
      "inputs": [
        {
          "internalType": "string",
          "name": "name",
          "type": "string"
        },
        {
          "internalType": "string",
          "name": "symbol",
          "type": "string"
        },
        {
          "internalType": "uint256",
          "name": "totalSupply",
          "type": "uint256"
        }
      ],
      "name": "summonThisMeme",
      "outputs": [],
      "stateMutability": "payable",
      "type": "function"
    },
    {
      "inputs": [],
      "name": "uniV3PositionManager",
      "outputs": [
        {
          "internalType": "address",
          "name": "",
          "type": "address"
        }
      ],
      "stateMutability": "view",
      "type": "function"
    },
    {
      "inputs": [
        {
          "internalType": "uint256",
          "name": "memeNonce",
          "type": "uint256"
        }
      ],
      "name": "unleashThisMeme",
      "outputs": [],
      "stateMutability": "nonpayable",
      "type": "function"
    }
  ],
  "bytecode": "0x61012060405260016002556001600355600160045534801561002057600080fd5b50604051614e21380380614e2183398101604081905261003f91610084565b6001600160a01b0394851660a05292841660c05290831660e052909116610100526080526100e2565b80516001600160a01b038116811461007f57600080fd5b919050565b600080600080600060a0868803121561009c57600080fd5b6100a586610068565b94506100b360208701610068565b93506100c160408701610068565b92506100cf60608701610068565b9150608086015190509295509295909350565b60805160a05160c05160e05161010051614c8b6101966000396000818161044e01528181611237015261232a0152600081816104cc015281816122f40152818161241e01528181612a2a01528181612c3a01528181612ce401528181612da20152612f0b01526000818161059c015281816112660152818161226001528181612286015281816129300152818161297d01526129a5015260006101d801526000818161050001526115a60152614c8b6000f3fe6080604052600436106101c15760003560e01c806372f2a36b116100f7578063b72124e311610095578063e0be161711610064578063e0be161714610577578063e1758bd81461058a578063f74e481b146105be578063ffa1ad74146105de57600080fd5b8063b72124e314610535578063be399e2b1461054c578063d1b0c28814610535578063dab346ff1461056257600080fd5b8063a1634b14116100d1578063a1634b1414610486578063a2a7eb95146104ba578063a5ae390c146104ee578063b1bd3c951461052257600080fd5b806372f2a36b14610407578063803551a91461043c5780638e499bcf1461047057600080fd5b806340b67a9b116101645780635122c4091161013e5780635122c4091461038c57806358c0f729146103aa57806367608ad0146103ca5780636882a888146103df57600080fd5b806340b67a9b14610315578063466ffbce146103425780634c69a6c91461036257600080fd5b80631ecfd535116101a05780631ecfd5351461028c5780632e0f2625146102b957806335f9f8d9146102e05780633d0cc375146102f557600080fd5b806231d115146101c657806309ca5a11146102245780630df400c614610246575b600080fd5b3480156101d257600080fd5b506101fa7f000000000000000000000000000000000000000000000000000000000000000081565b60405173ffffffffffffffffffffffffffffffffffffffff90911681526020015b60405180910390f35b34801561023057600080fd5b5061024461023f366004613158565b610634565b005b34801561025257600080fd5b5061027e610261366004613193565b600660209081526000928352604080842090915290825290205481565b60405190815260200161021b565b34801561029857600080fd5b5061027e6102a73660046131c3565b60076020526000908152604090205481565b3480156102c557600080fd5b506102ce601281565b60405160ff909116815260200161021b565b3480156102ec57600080fd5b5061027e603281565b34801561030157600080fd5b506102446103103660046131c3565b610888565b34801561032157600080fd5b5061027e6103303660046131c3565b60086020526000908152604090205481565b34801561034e57600080fd5b506101fa61035d366004613158565b610ddb565b34801561036e57600080fd5b5061037861271081565b60405162ffffff909116815260200161021b565b34801561039857600080fd5b5061027e69d3c21bcecceda100000081565b3480156103b657600080fd5b506102446103c5366004613265565b610e12565b3480156103d657600080fd5b506102446110e3565b3480156103eb57600080fd5b506103f461130f565b60405160029190910b815260200161021b565b34801561041357600080fd5b50610427610422366004613158565b61133b565b60405161021b9998979695949392919061338c565b34801561044857600080fd5b506101fa7f000000000000000000000000000000000000000000000000000000000000000081565b34801561047c57600080fd5b5061027e60005481565b34801561049257600080fd5b506103f47ffffffffffffffffffffffffffffffffffffffffffffffffffffffffffff2766081565b3480156104c657600080fd5b506101fa7f000000000000000000000000000000000000000000000000000000000000000081565b3480156104fa57600080fd5b5061027e7f000000000000000000000000000000000000000000000000000000000000000081565b61024461053036600461347c565b611496565b34801561054157600080fd5b5061027e6201518081565b34801561055857600080fd5b5061027e60015481565b34801561056e57600080fd5b5061027e600a81565b610244610585366004613158565b6118ed565b34801561059657600080fd5b506101fa7f000000000000000000000000000000000000000000000000000000000000000081565b3480156105ca57600080fd5b506102446105d93660046131c3565b611b7a565b3480156105ea57600080fd5b506106276040518060400160405280600581526020017f302e322e3000000000000000000000000000000000000000000000000000000081525081565b60405161021b91906134ef565b6003546001146106a5576040517f08c379a000000000000000000000000000000000000000000000000000000000815260206004820152601060248201527f5265656e7472616e63792067756172640000000000000000000000000000000060448201526064015b60405180910390fd5b600260035560008181526005602052604090206004810154610723576040517f08c379a000000000000000000000000000000000000000000000000000000000815260206004820152601560248201527f4d656d65206e6f74207965742073756d6d6f6e65640000000000000000000000604482015260640161069c565b60058101541561078f576040517f08c379a000000000000000000000000000000000000000000000000000000000815260206004820152601660248201527f4d656d6520616c726561647920756e6c65617368656400000000000000000000604482015260640161069c565b6201518081600401546107a29190613531565b42101561080b576040517f08c379a000000000000000000000000000000000000000000000000000000000815260206004820152601260248201527f43616e6e6f7420756e6c65617368207965740000000000000000000000000000604482015260640161069c565b60038101546000606461081f600a8461354a565b6108299190613561565b90506000610837828461359c565b9050816001600082825461084b9190613531565b909155505033600090815260086020526040812080549161086b836135af565b919050555061087c85858386611f71565b50506001600355505050565b6003546001146108f4576040517f08c379a000000000000000000000000000000000000000000000000000000000815260206004820152601060248201527f5265656e7472616e637920677561726400000000000000000000000000000000604482015260640161069c565b600260035573ffffffffffffffffffffffffffffffffffffffff8116600090815260076020908152604080832054808452600590925280832081516101208101909252805492939282908290610949906135e7565b80601f0160208091040260200160405190810160405280929190818152602001828054610975906135e7565b80156109c25780601f10610997576101008083540402835291602001916109c2565b820191906000526020600020905b8154815290600101906020018083116109a557829003601f168201915b505050505081526020016001820180546109db906135e7565b80601f0160208091040260200160405190810160405280929190818152602001828054610a07906135e7565b8015610a545780601f10610a2957610100808354040283529160200191610a54565b820191906000526020600020905b815481529060010190602001808311610a3757829003601f168201915b505050918352505060028201546020820152600382015460408201526004820154606082015260058201546080820152600682015460a080830191909152600783015460c083015260089092015460ff16151560e090910152810151909150610b19576040517f08c379a000000000000000000000000000000000000000000000000000000000815260206004820152601260248201527f4d656d65206e6f7420756e6c6561736865640000000000000000000000000000604482015260640161069c565b620151808160a00151610b2c9190613531565b4211610bba576040517f08c379a000000000000000000000000000000000000000000000000000000000815260206004820152602e60248201527f5075726765206f6e6c7920616c6c6f7765642066726f6d20323420686f75727360448201527f20616674657220756e6c65617368000000000000000000000000000000000000606482015260840161069c565b336000908152600860205260408120805491610bd5836135af565b90915550506040517f70a08231000000000000000000000000000000000000000000000000000000008152306004820152839060009073ffffffffffffffffffffffffffffffffffffffff8316906370a0823190602401602060405180830381865afa158015610c49573d6000803e3d6000fd5b505050506040513d601f19601f82011682018060405250810190610c6d919061363a565b905060008111610cff576040517f08c379a000000000000000000000000000000000000000000000000000000000815260206004820152602360248201527f486173206265656e20707572676564206f72206e6f7468696e6720746f20707560448201527f7267650000000000000000000000000000000000000000000000000000000000606482015260840161069c565b6040517f42966c680000000000000000000000000000000000000000000000000000000081526004810182905273ffffffffffffffffffffffffffffffffffffffff8316906342966c6890602401600060405180830381600087803b158015610d6757600080fd5b505af1158015610d7b573d6000803e3d6000fd5b505050508473ffffffffffffffffffffffffffffffffffffffff167f265db6c9c62cb962adbcf4398a54e4b02b2d87b28ab5b7538850150465a5f43c82604051610dc791815260200190565b60405180910390a250506001600355505050565b60098181548110610deb57600080fd5b60009182526020909120015473ffffffffffffffffffffffffffffffffffffffff16905081565b600354600114610e7e576040517f08c379a000000000000000000000000000000000000000000000000000000000815260206004820152601060248201527f5265656e7472616e637920677561726400000000000000000000000000000000604482015260640161069c565b6002600355336000908152600860205260408120805491610e9e836135af565b919050555060005b81518110156110da57600060076000848481518110610ec757610ec7613653565b602002602001015173ffffffffffffffffffffffffffffffffffffffff1673ffffffffffffffffffffffffffffffffffffffff16815260200190815260200160002054905060006005600083815260200190815260200160002060405180610120016040529081600082018054610f3d906135e7565b80601f0160208091040260200160405190810160405280929190818152602001828054610f69906135e7565b8015610fb65780601f10610f8b57610100808354040283529160200191610fb6565b820191906000526020600020905b815481529060010190602001808311610f9957829003601f168201915b50505050508152602001600182018054610fcf906135e7565b80601f0160208091040260200160405190810160405280929190818152602001828054610ffb906135e7565b80156110485780601f1061101d57610100808354040283529160200191611048565b820191906000526020600020905b81548152906001019060200180831161102b57829003601f168201915b505050918352505060028201546020820152600382015460408201526004820154606082015260058201546080820152600682015460a0820152600782015460c082015260089091015460ff16151560e09091015284519091506110d0908590859081106110b8576110b8613653565b60200260200101518260e00151836101000151612255565b5050600101610ea6565b50506001600355565b60035460011461114f576040517f08c379a000000000000000000000000000000000000000000000000000000000815260206004820152601060248201527f5265656e7472616e637920677561726400000000000000000000000000000000604482015260640161069c565b60026003556004546000906111665760015461116a565b6001545b9050600081116111d6576040517f08c379a000000000000000000000000000000000000000000000000000000000815260206004820152600f60248201527f4e6f7468696e6720746f2073656e640000000000000000000000000000000000604482015260640161069c565b600060018190553381526008602052604081208054916111f5836135af565b90915550506040517fa9059cbb00000000000000000000000000000000000000000000000000000000815273ffffffffffffffffffffffffffffffffffffffff7f000000000000000000000000000000000000000000000000000000000000000081166004830152602482018390527f0000000000000000000000000000000000000000000000000000000000000000169063a9059cbb906044016020604051808303816000875af11580156112af573d6000803e3d6000fd5b505050506040513d601f19601f820116820180604052508101906112d39190613682565b506040518181527f132eb3b7605c938c3aa08831e03193219701a828c869ae61e2eac9ae2e97d6439060200160405180910390a1506001600355565b6113387ffffffffffffffffffffffffffffffffffffffffffffffffffffffffffff276606136a4565b81565b600560205260009081526040902080548190611356906135e7565b80601f0160208091040260200160405190810160405280929190818152602001828054611382906135e7565b80156113cf5780601f106113a4576101008083540402835291602001916113cf565b820191906000526020600020905b8154815290600101906020018083116113b257829003601f168201915b5050505050908060010180546113e4906135e7565b80601f0160208091040260200160405190810160405280929190818152602001828054611410906135e7565b801561145d5780601f106114325761010080835404028352916020019161145d565b820191906000526020600020905b81548152906001019060200180831161144057829003601f168201915b50505050600283015460038401546004850154600586015460068701546007880154600890980154969794969395509193909260ff1689565b600354600114611502576040517f08c379a000000000000000000000000000000000000000000000000000000000815260206004820152601060248201527f5265656e7472616e637920677561726400000000000000000000000000000000604482015260640161069c565b6002600355825115801590611518575060008251115b6115a4576040517f08c379a000000000000000000000000000000000000000000000000000000000815260206004820152602160248201527f4e616d6520616e642073796d626f6c206d757374206e6f7420626520656d707460448201527f7900000000000000000000000000000000000000000000000000000000000000606482015260840161069c565b7f0000000000000000000000000000000000000000000000000000000000000000341015611654576040517f08c379a000000000000000000000000000000000000000000000000000000000815260206004820152603060248201527f4d696e696d756d206e617469766520746f6b656e2076616c756520697320726560448201527f71756972656420746f2073756d6d6f6e00000000000000000000000000000000606482015260840161069c565b69d3c21bcecceda10000008110156116c8576040517f08c379a000000000000000000000000000000000000000000000000000000000815260206004820152601f60248201527f4d696e696d756d20746f74616c20737570706c79206973206e6f74206d657400604482015260640161069c565b6fffffffffffffffffffffffffffffffff8110611741576040517f08c379a000000000000000000000000000000000000000000000000000000000815260206004820152601d60248201527f4d6178696d756d20746f74616c20737570706c79206f766572666c6f77000000604482015260640161069c565b60025460408051610120810182528581526020808201869052818301859052346060830152426080830152600060a0830181905260c0830181905260e083018190526101008301819052848152600590915291909120815181906117a59082613731565b50602082015160018201906117ba9082613731565b506040828101516002830155606083015160038301556080830151600483015560a0830151600583015560c083015160068084019190915560e0840151600784015561010090930151600892830180547fffffffffffffffffffffffffffffffffffffffffffffffffffffffffffffff001691151591909117905560008481526020938452818120338252845281812034905591909252908120805491611860836135af565b909155506118719050816001613531565b600255604051348152819033907f5c41f4ea011db1ad5568b9114b1d3cab1ef32c9fbcda67408d722503d19002fc9060200160405180910390a3604051348152819033907fbe9e2dd3ea9f989c1b2e8c4e8f99d486f6fed42c7a8ec7f1ac42e550f571eda19060200160405180910390a3505060016003555050565b600354600114611959576040517f08c379a000000000000000000000000000000000000000000000000000000000815260206004820152601060248201527f5265656e7472616e637920677561726400000000000000000000000000000000604482015260640161069c565b6002600355346119eb576040517f08c379a000000000000000000000000000000000000000000000000000000000815260206004820152602d60248201527f4e617469766520746f6b656e20616d6f756e74206d757374206265206772656160448201527f746572207468616e207a65726f00000000000000000000000000000000000000606482015260840161069c565b60008181526005602052604090206004810154611a64576040517f08c379a000000000000000000000000000000000000000000000000000000000815260206004820152601560248201527f4d656d65206e6f74207965742073756d6d6f6e65640000000000000000000000604482015260640161069c565b600581015415611ad0576040517f08c379a000000000000000000000000000000000000000000000000000000000815260206004820152601660248201527f4d656d6520616c726561647920756e6c65617368656400000000000000000000604482015260640161069c565b6003810154611adf3482613531565b600383018190556000848152600660209081526040808320338452909152812080549293503492909190611b14908490613531565b9091555050336000908152600860205260408120805491611b34836135af565b9091555050604051348152839033907fbe9e2dd3ea9f989c1b2e8c4e8f99d486f6fed42c7a8ec7f1ac42e550f571eda19060200160405180910390a35050600160035550565b600354600114611be6576040517f08c379a000000000000000000000000000000000000000000000000000000000815260206004820152601060248201527f5265656e7472616e637920677561726400000000000000000000000000000000604482015260640161069c565b600260035573ffffffffffffffffffffffffffffffffffffffff8116600090815260076020908152604080832054808452600590925280832081516101208101909252805492939282908290611c3b906135e7565b80601f0160208091040260200160405190810160405280929190818152602001828054611c67906135e7565b8015611cb45780601f10611c8957610100808354040283529160200191611cb4565b820191906000526020600020905b815481529060010190602001808311611c9757829003601f168201915b50505050508152602001600182018054611ccd906135e7565b80601f0160208091040260200160405190810160405280929190818152602001828054611cf9906135e7565b8015611d465780601f10611d1b57610100808354040283529160200191611d46565b820191906000526020600020905b815481529060010190602001808311611d2957829003601f168201915b505050918352505060028201546020820152600382015460408201526004820154606082015260058201546080820152600682015460a080830191909152600783015460c083015260089092015460ff16151560e090910152810151909150611e0b576040517f08c379a000000000000000000000000000000000000000000000000000000000815260206004820152601260248201527f4d656d65206e6f7420756e6c6561736865640000000000000000000000000000604482015260640161069c565b620151808160a00151611e1e9190613531565b421115611ead576040517f08c379a000000000000000000000000000000000000000000000000000000000815260206004820152603160248201527f436f6c6c656374206f6e6c7920616c6c6f77656420756e74696c20323420686f60448201527f75727320616674657220756e6c65617368000000000000000000000000000000606482015260840161069c565b600082815260066020908152604080832033845290915290205480611f2e576040517f08c379a000000000000000000000000000000000000000000000000000000000815260206004820152601360248201527f4e6f20746f6b656e20616c6c6f636174696f6e00000000000000000000000000604482015260640161069c565b336000908152600860205260408120805491611f49836135af565b9190505550611f6384848460c00151848660600151612612565b505060016003555050565b50565b6000606460328560020154611f86919061354a565b611f909190613561565b90506000818560020154611fa4919061359c565b905060006120d087876000018054611fbb906135e7565b80601f0160208091040260200160405190810160405280929190818152602001828054611fe7906135e7565b80156120345780601f1061200957610100808354040283529160200191612034565b820191906000526020600020905b81548152906001019060200180831161201757829003601f168201915b5050505050886001018054612048906135e7565b80601f0160208091040260200160405190810160405280929190818152602001828054612074906135e7565b80156120c15780601f10612096576101008083540402835291602001916120c1565b820191906000526020600020905b8154815290600101906020018083116120a457829003601f168201915b5050505050896002015461273b565b73ffffffffffffffffffffffffffffffffffffffff811660009081526007602052604081208990559091508080612108848988612912565b4260058d015560068c0188905560078c01839055919450925090508015612158576008890180547fffffffffffffffffffffffffffffffffffffffffffffffffffffffffffffff00168215151790555b600980546001810182557f6e1540171b6c0c960b71a7020d9f60077f6af931a8bbf590da0223dacf75c7af0180547fffffffffffffffffffffffff00000000000000000000000000000000000000001673ffffffffffffffffffffffffffffffffffffffff87161790555460009081558a815260066020908152604080832033845290915290205480156121f3576121f3858c88848c612612565b604080518581526020810185905273ffffffffffffffffffffffffffffffffffffffff8716918d9133917fbbd80a362e989e1735d4e639796d60a759994a28ab43a4ab255336414657e914910160405180910390a45050505050505050505050565b6000808261228457847f00000000000000000000000000000000000000000000000000000000000000006122a7565b7f0000000000000000000000000000000000000000000000000000000000000000855b6040517f43b23a1b00000000000000000000000000000000000000000000000000000000815273ffffffffffffffffffffffffffffffffffffffff808416600483015280831660248301527f00000000000000000000000000000000000000000000000000000000000000008116604483015261271060648301529294509092507f0000000000000000000000000000000000000000000000000000000000000000909116906343b23a1b9060840160006040518083038186803b15801561236e57600080fd5b505afa158015612382573d6000803e3d6000fd5b50506040805160808101825287815230602082019081526fffffffffffffffffffffffffffffffff8284018181526060840182815294517ffc6f786500000000000000000000000000000000000000000000000000000000815284516004820152925173ffffffffffffffffffffffffffffffffffffffff908116602485015290518216604484015293511660648201529093506000925082917f0000000000000000000000000000000000000000000000000000000000000000169063fc6f78659060840160408051808303816000875af1158015612466573d6000803e3d6000fd5b505050506040513d601f19601f8201168201806040525081019061248a919061384a565b91509150600082118061249d5750600081115b612503576040517f08c379a000000000000000000000000000000000000000000000000000000000815260206004820152601360248201527f5a65726f206665657320617661696c61626c6500000000000000000000000000604482015260640161069c565b600080871561251657508290508161251c565b50819050825b6040517f42966c680000000000000000000000000000000000000000000000000000000081526004810182905273ffffffffffffffffffffffffffffffffffffffff8b16906342966c6890602401600060405180830381600087803b15801561258457600080fd5b505af1158015612598573d6000803e3d6000fd5b5050505081600160008282546125ae9190613531565b9091555050604080518381526020810183905273ffffffffffffffffffffffffffffffffffffffff8c169133917f28a87b6059180e46de5fb9ab35eb043e8fe00ab45afcc7789e3934ecbbcde3ea910160405180910390a350505050505050505050565b60008161261f848661354a565b6126299190613561565b60008681526006602090815260408083203380855292528083209290925590517fa9059cbb000000000000000000000000000000000000000000000000000000008152600481019190915260248101829052909150869073ffffffffffffffffffffffffffffffffffffffff82169063a9059cbb906044016020604051808303816000875af11580156126c0573d6000803e3d6000fd5b505050506040513d601f19601f820116820180604052508101906126e49190613682565b5060405182815273ffffffffffffffffffffffffffffffffffffffff88169033907f484decdc1e9549e1866295f6f86c889ded3f7de410e7488a7a415978589dc8fd9060200160405180910390a350505050505050565b604080514260208201527fffffffffffffffffffffffffffffffffffffffff0000000000000000000000003360601b1691810191909152605481018590526000908190607401604080517fffffffffffffffffffffffffffffffffffffffffffffffffffffffffffffffe081840301815282825280516020918201209083018190529250016040516020818303038152906040528051906020012090506000604051806020016127ea9061314b565b7fffffffffffffffffffffffffffffffffffffffffffffffffffffffffffffffe082820381018352601f9091011660408190526128329088908890601290899060200161386e565b604080517fffffffffffffffffffffffffffffffffffffffffffffffffffffffffffffffe08184030181529082905261286e92916020016138aa565b6040516020818303038152906040529050818151826020016000f5925073ffffffffffffffffffffffffffffffffffffffff8316612908576040517f08c379a000000000000000000000000000000000000000000000000000000000815260206004820152601560248201527f546f6b656e206372656174696f6e206661696c65640000000000000000000000604482015260640161069c565b5050949350505050565b60008060008573ffffffffffffffffffffffffffffffffffffffff167f000000000000000000000000000000000000000000000000000000000000000073ffffffffffffffffffffffffffffffffffffffff16101561296f575060015b600080600080846129a357897f0000000000000000000000000000000000000000000000000000000000000000898b6129c8565b7f00000000000000000000000000000000000000000000000000000000000000008a8a8a5b935093509350935060008282670de0b6b3a76400006129e7919061354a565b6129f19190613561565b90506000633b9aca00612a0383613099565b612a1a906c0100000000000000000000000061354a565b612a249190613561565b905060007f000000000000000000000000000000000000000000000000000000000000000073ffffffffffffffffffffffffffffffffffffffff1663c45a01556040518163ffffffff1660e01b8152600401602060405180830381865afa158015612a93573d6000803e3d6000fd5b505050506040513d601f19601f82011682018060405250810190612ab791906138d9565b6040517f1698ee8200000000000000000000000000000000000000000000000000000000815273ffffffffffffffffffffffffffffffffffffffff898116600483015288811660248301526127106044830152919250600091831690631698ee8290606401602060405180830381865afa158015612b39573d6000803e3d6000fd5b505050506040513d601f19601f82011682018060405250810190612b5d91906138d9565b905073ffffffffffffffffffffffffffffffffffffffff811615612bdd576040517f08c379a000000000000000000000000000000000000000000000000000000000815260206004820152601960248201527f506f6f6c2061646472657373206d757374206265207a65726f00000000000000604482015260640161069c565b6040517f13ead56200000000000000000000000000000000000000000000000000000000815273ffffffffffffffffffffffffffffffffffffffff89811660048301528881166024830152612710604483015284811660648301527f000000000000000000000000000000000000000000000000000000000000000016906313ead562906084016020604051808303816000875af1158015612c83573d6000803e3d6000fd5b505050506040513d601f19601f82011682018060405250810190612ca791906138d9565b6040517f095ea7b300000000000000000000000000000000000000000000000000000000815273ffffffffffffffffffffffffffffffffffffffff7f000000000000000000000000000000000000000000000000000000000000000081166004830152602482018990529192509089169063095ea7b3906044016020604051808303816000875af1158015612d40573d6000803e3d6000fd5b505050506040513d601f19601f82011682018060405250810190612d649190613682565b506040517f095ea7b300000000000000000000000000000000000000000000000000000000815273ffffffffffffffffffffffffffffffffffffffff7f0000000000000000000000000000000000000000000000000000000000000000811660048301526024820187905288169063095ea7b3906044016020604051808303816000875af1158015612dfa573d6000803e3d6000fd5b505050506040513d601f19601f82011682018060405250810190612e1e9190613682565b5060006040518061016001604052808a73ffffffffffffffffffffffffffffffffffffffff1681526020018973ffffffffffffffffffffffffffffffffffffffff16815260200161271062ffffff1681526020017ffffffffffffffffffffffffffffffffffffffffffffffffffffffffffff2766060020b81526020017ffffffffffffffffffffffffffffffffffffffffffffffffffffffffffff27660612ec5906136a4565b60020b815260200188815260200187815260200160008152602001600081526020013073ffffffffffffffffffffffffffffffffffffffff1681526020014281525090507f000000000000000000000000000000000000000000000000000000000000000073ffffffffffffffffffffffffffffffffffffffff166388316456826040518263ffffffff1660e01b8152600401612f6291906138f6565b6080604051808303816000875af1158015612f81573d6000803e3d6000fd5b505050506040513d601f19601f82011682018060405250810190612fa591906139e1565b929e506fffffffffffffffffffffffffffffffff9091169c509750955060008a612fda57868f612fd5919061359c565b612fe6565b878f612fe6919061359c565b905080156130065780600160008282546130009190613531565b90915550505b6040517f32148f67000000000000000000000000000000000000000000000000000000008152603c600482015273ffffffffffffffffffffffffffffffffffffffff8416906332148f6790602401600060405180830381600087803b15801561306e57600080fd5b505af1158015613082573d6000803e3d6000fd5b505050505050505050505050505093509350939050565b60b5817101000000000000000000000000000000000081106130c05760409190911b9060801c5b690100000000000000000081106130dc5760209190911b9060401c5b6501000000000081106130f45760109190911b9060201c5b6301000000811061310a5760089190911b9060101c5b62010000010260121c80820401600190811c80830401811c80830401811c80830401811c80830401811c80830401811c80830401901c908190048111900390565b61122080613a3683390190565b60006020828403121561316a57600080fd5b5035919050565b73ffffffffffffffffffffffffffffffffffffffff81168114611f6e57600080fd5b600080604083850312156131a657600080fd5b8235915060208301356131b881613171565b809150509250929050565b6000602082840312156131d557600080fd5b81356131e081613171565b9392505050565b7f4e487b7100000000000000000000000000000000000000000000000000000000600052604160045260246000fd5b604051601f82017fffffffffffffffffffffffffffffffffffffffffffffffffffffffffffffffe016810167ffffffffffffffff8111828210171561325d5761325d6131e7565b604052919050565b60006020828403121561327757600080fd5b813567ffffffffffffffff81111561328e57600080fd5b8201601f8101841361329f57600080fd5b803567ffffffffffffffff8111156132b9576132b96131e7565b8060051b6132c960208201613216565b918252602081840181019290810190878411156132e557600080fd5b6020850194505b83851015613313578435925061330183613171565b828252602094850194909101906132ec565b979650505050505050565b60005b83811015613339578181015183820152602001613321565b50506000910152565b6000815180845261335a81602086016020860161331e565b601f017fffffffffffffffffffffffffffffffffffffffffffffffffffffffffffffffe0169290920160200192915050565b610120815260006133a161012083018c613342565b82810360208401526133b3818c613342565b604084019a909a5250506060810196909652608086019490945260a085019290925260c084015260e083015215156101009091015292915050565b600082601f8301126133ff57600080fd5b813567ffffffffffffffff811115613419576134196131e7565b61344a60207fffffffffffffffffffffffffffffffffffffffffffffffffffffffffffffffe0601f84011601613216565b81815284602083860101111561345f57600080fd5b816020850160208301376000918101602001919091529392505050565b60008060006060848603121561349157600080fd5b833567ffffffffffffffff8111156134a857600080fd5b6134b4868287016133ee565b935050602084013567ffffffffffffffff8111156134d157600080fd5b6134dd868287016133ee565b93969395505050506040919091013590565b6020815260006131e06020830184613342565b7f4e487b7100000000000000000000000000000000000000000000000000000000600052601160045260246000fd5b8082018082111561354457613544613502565b92915050565b808202811582820484141761354457613544613502565b600082613597577f4e487b7100000000000000000000000000000000000000000000000000000000600052601260045260246000fd5b500490565b8181038181111561354457613544613502565b60007fffffffffffffffffffffffffffffffffffffffffffffffffffffffffffffffff82036135e0576135e0613502565b5060010190565b600181811c908216806135fb57607f821691505b602082108103613634577f4e487b7100000000000000000000000000000000000000000000000000000000600052602260045260246000fd5b50919050565b60006020828403121561364c57600080fd5b5051919050565b7f4e487b7100000000000000000000000000000000000000000000000000000000600052603260045260246000fd5b60006020828403121561369457600080fd5b815180151581146131e057600080fd5b60008160020b7fffffffffffffffffffffffffffffffffffffffffffffffffffffffffff80000081036136d9576136d9613502565b60000392915050565b601f82111561372c57806000526020600020601f840160051c810160208510156137095750805b601f840160051c820191505b818110156137295760008155600101613715565b50505b505050565b815167ffffffffffffffff81111561374b5761374b6131e7565b61375f8161375984546135e7565b846136e2565b6020601f8211600181146137b1576000831561377b5750848201515b7fffffffffffffffffffffffffffffffffffffffffffffffffffffffffffffffff600385901b1c1916600184901b178455613729565b6000848152602081207fffffffffffffffffffffffffffffffffffffffffffffffffffffffffffffffe08516915b828110156137ff57878501518255602094850194600190920191016137df565b508482101561383b57868401517fffffffffffffffffffffffffffffffffffffffffffffffffffffffffffffffff600387901b60f8161c191681555b50505050600190811b01905550565b6000806040838503121561385d57600080fd5b505080516020909101519092909150565b6080815260006138816080830187613342565b82810360208401526138938187613342565b60ff95909516604084015250506060015292915050565b600083516138bc81846020880161331e565b8351908301906138d081836020880161331e565b01949350505050565b6000602082840312156138eb57600080fd5b81516131e081613171565b815173ffffffffffffffffffffffffffffffffffffffff1681526101608101602083015161393c602084018273ffffffffffffffffffffffffffffffffffffffff169052565b506040830151613953604084018262ffffff169052565b506060830151613968606084018260020b9052565b50608083015161397d608084018260020b9052565b5060a083015160a083015260c083015160c083015260e083015160e08301526101008301516101008301526101208301516139d161012084018273ffffffffffffffffffffffffffffffffffffffff169052565b5061014092830151919092015290565b600080600080608085870312156139f757600080fd5b845160208601519094506fffffffffffffffffffffffffffffffff81168114613a1f57600080fd5b604086015160609096015194979096509250505056fe60e060405234801561001057600080fd5b5060405161122038038061122083398101604081905261002f91610238565b838383600061003e848261034a565b50600161004b838261034a565b5060ff81166080524660a05261005f61007a565b60c05250610071915033905082610114565b505050506104a4565b60007f8b73c3c69bb8fe3d512ecc4cf759cc79239f7b179b0ffacaa9a75d522b39400f60006040516100ac9190610408565b6040805191829003822060208301939093528101919091527fc89efdaa54c0f20c7adf612882df0950f5a951637e0307cdcb4c672f298b8bc660608201524660808201523060a082015260c00160405160208183030381529060405280519060200120905090565b8060026000828254610126919061047d565b90915550506001600160a01b0382166000818152600360209081526040808320805486019055518481527fddf252ad1be2c89b69c2b068fc378daa952ba7f163c4a11628f55a4df523b3ef910160405180910390a35050565b634e487b7160e01b600052604160045260246000fd5b600082601f8301126101a657600080fd5b81516001600160401b038111156101bf576101bf61017f565b604051601f8201601f19908116603f011681016001600160401b03811182821017156101ed576101ed61017f565b60405281815283820160200185101561020557600080fd5b60005b8281101561022457602081860181015183830182015201610208565b506000918101602001919091529392505050565b6000806000806080858703121561024e57600080fd5b84516001600160401b0381111561026457600080fd5b61027087828801610195565b602087015190955090506001600160401b0381111561028e57600080fd5b61029a87828801610195565b935050604085015160ff811681146102b157600080fd5b6060959095015193969295505050565b600181811c908216806102d557607f821691505b6020821081036102f557634e487b7160e01b600052602260045260246000fd5b50919050565b601f82111561034557806000526020600020601f840160051c810160208510156103225750805b601f840160051c820191505b81811015610342576000815560010161032e565b50505b505050565b81516001600160401b038111156103635761036361017f565b6103778161037184546102c1565b846102fb565b6020601f8211600181146103ab57600083156103935750848201515b600019600385901b1c1916600184901b178455610342565b600084815260208120601f198516915b828110156103db57878501518255602094850194600190920191016103bb565b50848210156103f95786840151600019600387901b60f8161c191681555b50505050600190811b01905550565b6000808354610416816102c1565b60018216801561042d576001811461044257610472565b60ff1983168652811515820286019350610472565b86600052602060002060005b8381101561046a5781548882015260019091019060200161044e565b505081860193505b509195945050505050565b8082018082111561049e57634e487b7160e01b600052601160045260246000fd5b92915050565b60805160a05160c051610d4d6104d360003960006104c30152600061048e015260006101540152610d4d6000f3fe608060405234801561001057600080fd5b50600436106100df5760003560e01c806342966c681161008c57806395d89b411161006657806395d89b41146101e5578063a9059cbb146101ed578063d505accf14610200578063dd62ed3e1461021357600080fd5b806342966c681461019057806370a08231146101a55780637ecebe00146101c557600080fd5b806323b872dd116100bd57806323b872dd1461013c578063313ce5671461014f5780633644e5151461018857600080fd5b806306fdde03146100e4578063095ea7b31461010257806318160ddd14610125575b600080fd5b6100ec61023e565b6040516100f991906109d7565b60405180910390f35b610115610110366004610a6c565b6102cc565b60405190151581526020016100f9565b61012e60025481565b6040519081526020016100f9565b61011561014a366004610a96565b610346565b6101767f000000000000000000000000000000000000000000000000000000000000000081565b60405160ff90911681526020016100f9565b61012e61048a565b6101a361019e366004610ad3565b6104e5565b005b61012e6101b3366004610aec565b60036020526000908152604090205481565b61012e6101d3366004610aec565b60056020526000908152604090205481565b6100ec6104f2565b6101156101fb366004610a6c565b6104ff565b6101a361020e366004610b0e565b610584565b61012e610221366004610b81565b600460209081526000928352604080842090915290825290205481565b6000805461024b90610bb4565b80601f016020809104026020016040519081016040528092919081815260200182805461027790610bb4565b80156102c45780601f10610299576101008083540402835291602001916102c4565b820191906000526020600020905b8154815290600101906020018083116102a757829003601f168201915b505050505081565b33600081815260046020908152604080832073ffffffffffffffffffffffffffffffffffffffff8716808552925280832085905551919290917f8c5be1e5ebec7d5bd14f71427d1e84f3dd0314c0f7b2291e5b200ac8c7c3b925906103349086815260200190565b60405180910390a35060015b92915050565b73ffffffffffffffffffffffffffffffffffffffff831660009081526004602090815260408083203384529091528120547fffffffffffffffffffffffffffffffffffffffffffffffffffffffffffffffff81146103da576103a88382610c07565b73ffffffffffffffffffffffffffffffffffffffff861660009081526004602090815260408083203384529091529020555b73ffffffffffffffffffffffffffffffffffffffff85166000908152600360205260408120805485929061040f908490610c07565b909155505073ffffffffffffffffffffffffffffffffffffffff808516600081815260036020526040908190208054870190555190918716907fddf252ad1be2c89b69c2b068fc378daa952ba7f163c4a11628f55a4df523b3ef906104779087815260200190565b60405180910390a3506001949350505050565b60007f000000000000000000000000000000000000000000000000000000000000000046146104c0576104bb6108a8565b905090565b507f000000000000000000000000000000000000000000000000000000000000000090565b6104ef3382610942565b50565b6001805461024b90610bb4565b33600090815260036020526040812080548391908390610520908490610c07565b909155505073ffffffffffffffffffffffffffffffffffffffff8316600081815260036020526040908190208054850190555133907fddf252ad1be2c89b69c2b068fc378daa952ba7f163c4a11628f55a4df523b3ef906103349086815260200190565b428410156105f3576040517f08c379a000000000000000000000000000000000000000000000000000000000815260206004820152601760248201527f5045524d49545f444541444c494e455f4558504952454400000000000000000060448201526064015b60405180910390fd5b600060016105ff61048a565b73ffffffffffffffffffffffffffffffffffffffff8a811660008181526005602090815260409182902080546001810190915582517f6e71edae12b1b97f4d1f60370fef10105fa2faae0126114a169c64845d6126c98184015280840194909452938d166060840152608083018c905260a083019390935260c08083018b90528151808403909101815260e0830190915280519201919091207f190100000000000000000000000000000000000000000000000000000000000061010083015261010282019290925261012281019190915261014201604080517fffffffffffffffffffffffffffffffffffffffffffffffffffffffffffffffe08184030181528282528051602091820120600084529083018083525260ff871690820152606081018590526080810184905260a0016020604051602081039080840390855afa158015610751573d6000803e3d6000fd5b50506040517fffffffffffffffffffffffffffffffffffffffffffffffffffffffffffffffe0015191505073ffffffffffffffffffffffffffffffffffffffff8116158015906107cc57508773ffffffffffffffffffffffffffffffffffffffff168173ffffffffffffffffffffffffffffffffffffffff16145b610832576040517f08c379a000000000000000000000000000000000000000000000000000000000815260206004820152600e60248201527f494e56414c49445f5349474e455200000000000000000000000000000000000060448201526064016105ea565b73ffffffffffffffffffffffffffffffffffffffff90811660009081526004602090815260408083208a8516808552908352928190208990555188815291928a16917f8c5be1e5ebec7d5bd14f71427d1e84f3dd0314c0f7b2291e5b200ac8c7c3b925910160405180910390a350505050505050565b60007f8b73c3c69bb8fe3d512ecc4cf759cc79239f7b179b0ffacaa9a75d522b39400f60006040516108da9190610c41565b6040805191829003822060208301939093528101919091527fc89efdaa54c0f20c7adf612882df0950f5a951637e0307cdcb4c672f298b8bc660608201524660808201523060a082015260c00160405160208183030381529060405280519060200120905090565b73ffffffffffffffffffffffffffffffffffffffff821660009081526003602052604081208054839290610977908490610c07565b909155505060028054829003905560405181815260009073ffffffffffffffffffffffffffffffffffffffff8416907fddf252ad1be2c89b69c2b068fc378daa952ba7f163c4a11628f55a4df523b3ef9060200160405180910390a35050565b602081526000825180602084015260005b81811015610a0557602081860181015160408684010152016109e8565b5060006040828501015260407fffffffffffffffffffffffffffffffffffffffffffffffffffffffffffffffe0601f83011684010191505092915050565b803573ffffffffffffffffffffffffffffffffffffffff81168114610a6757600080fd5b919050565b60008060408385031215610a7f57600080fd5b610a8883610a43565b946020939093013593505050565b600080600060608486031215610aab57600080fd5b610ab484610a43565b9250610ac260208501610a43565b929592945050506040919091013590565b600060208284031215610ae557600080fd5b5035919050565b600060208284031215610afe57600080fd5b610b0782610a43565b9392505050565b600080600080600080600060e0888a031215610b2957600080fd5b610b3288610a43565b9650610b4060208901610a43565b95506040880135945060608801359350608088013560ff81168114610b6457600080fd5b9699959850939692959460a0840135945060c09093013592915050565b60008060408385031215610b9457600080fd5b610b9d83610a43565b9150610bab60208401610a43565b90509250929050565b600181811c90821680610bc857607f821691505b602082108103610c01577f4e487b7100000000000000000000000000000000000000000000000000000000600052602260045260246000fd5b50919050565b81810381811115610340577f4e487b7100000000000000000000000000000000000000000000000000000000600052601160045260246000fd5b6000808354818160011c90506001821680610c5d57607f821691505b602082108103610c94577f4e487b710000000000000000000000000000000000000000000000000000000084526022600452602484fd5b808015610ca85760018114610cdb57610d0b565b7fffffffffffffffffffffffffffffffffffffffffffffffffffffffffffffff0084168752821515830287019450610d0b565b60008881526020902060005b84811015610d0357815489820152600190910190602001610ce7565b505082870194505b5092969550505050505056fea26469706673582212203b134facc9dcc6995fc2e3d1fc78c6d13107692c1f18cfe3450a552767346f3e64736f6c634300081c0033a26469706673582212207530c377070b1b8345ae0f8659c2afb607f620bd1f3ad3b6c77417a659737dec64736f6c634300081c0033",
  "linkReferences": {},
  "deployedLinkReferences": {}
}