{
  "_format": "hh-sol-artifact-1",
  "contractName": "MemeCelo",
  "sourceName": "contracts/MemeCelo.sol",
  "abi": [
    {
      "inputs": [
        {
          "internalType": "address",
          "name": "_olas",
          "type": "address"
        },
        {
          "internalType": "address",
          "name": "_referenceToken",
          "type": "address"
        },
        {
          "internalType": "address",
          "name": "_router",
          "type": "address"
        },
        {
          "internalType": "address",
          "name": "_factory",
          "type": "address"
        },
        {
          "internalType": "uint256",
          "name": "_minNativeTokenValue",
          "type": "uint256"
        },
        {
          "internalType": "address",
          "name": "_celo",
          "type": "address"
        },
        {
          "internalType": "address",
          "name": "_l2TokenRelayer",
          "type": "address"
        },
        {
          "internalType": "address",
          "name": "_oracle",
          "type": "address"
        }
      ],
      "stateMutability": "nonpayable",
      "type": "constructor"
    },
    {
      "anonymous": false,
      "inputs": [
        {
          "indexed": true,
          "internalType": "address",
          "name": "hearter",
          "type": "address"
        },
        {
          "indexed": true,
          "internalType": "address",
          "name": "memeToken",
          "type": "address"
        },
        {
          "indexed": false,
          "internalType": "uint256",
          "name": "allocation",
          "type": "uint256"
        }
      ],
      "name": "Collected",
      "type": "event"
    },
    {
      "anonymous": false,
      "inputs": [
        {
          "indexed": true,
          "internalType": "address",
          "name": "hearter",
          "type": "address"
        },
        {
          "indexed": true,
          "internalType": "address",
          "name": "memeToken",
          "type": "address"
        },
        {
          "indexed": false,
          "internalType": "uint256",
          "name": "amount",
          "type": "uint256"
        }
      ],
      "name": "Hearted",
      "type": "event"
    },
    {
      "anonymous": false,
      "inputs": [
        {
          "indexed": true,
          "internalType": "address",
          "name": "olas",
          "type": "address"
        },
        {
          "indexed": false,
          "internalType": "uint256",
          "name": "amount",
          "type": "uint256"
        }
      ],
      "name": "OLASJourneyToAscendance",
      "type": "event"
    },
    {
      "anonymous": false,
      "inputs": [
        {
          "indexed": true,
          "internalType": "address",
          "name": "memeToken",
          "type": "address"
        },
        {
          "indexed": false,
          "internalType": "uint256",
          "name": "remainingAmount",
          "type": "uint256"
        }
      ],
      "name": "Purged",
      "type": "event"
    },
    {
      "anonymous": false,
      "inputs": [
        {
          "indexed": true,
          "internalType": "address",
          "name": "summoner",
          "type": "address"
        },
        {
          "indexed": true,
          "internalType": "address",
          "name": "memeToken",
          "type": "address"
        },
        {
          "indexed": false,
          "internalType": "uint256",
          "name": "nativeTokenContributed",
          "type": "uint256"
        }
      ],
      "name": "Summoned",
      "type": "event"
    },
    {
      "anonymous": false,
      "inputs": [
        {
          "indexed": true,
          "internalType": "address",
          "name": "unleasher",
          "type": "address"
        },
        {
          "indexed": true,
          "internalType": "address",
          "name": "memeToken",
          "type": "address"
        },
        {
          "indexed": true,
          "internalType": "address",
          "name": "lpPairAddress",
          "type": "address"
        },
        {
          "indexed": false,
          "internalType": "uint256",
          "name": "liquidity",
          "type": "uint256"
        },
        {
          "indexed": false,
          "internalType": "uint256",
          "name": "burnPercentageOfStable",
          "type": "uint256"
        }
      ],
      "name": "Unleashed",
      "type": "event"
    },
    {
      "inputs": [],
      "name": "COLLECT_DEADLINE",
      "outputs": [
        {
          "internalType": "uint256",
          "name": "",
          "type": "uint256"
        }
      ],
      "stateMutability": "view",
      "type": "function"
    },
    {
      "inputs": [],
      "name": "DECIMALS",
      "outputs": [
        {
          "internalType": "uint8",
          "name": "",
          "type": "uint8"
        }
      ],
      "stateMutability": "view",
      "type": "function"
    },
    {
      "inputs": [],
      "name": "LP_PERCENTAGE",
      "outputs": [
        {
          "internalType": "uint256",
          "name": "",
          "type": "uint256"
        }
      ],
      "stateMutability": "view",
      "type": "function"
    },
    {
      "inputs": [],
      "name": "MIN_TOTAL_SUPPLY",
      "outputs": [
        {
          "internalType": "uint256",
          "name": "",
          "type": "uint256"
        }
      ],
      "stateMutability": "view",
      "type": "function"
    },
    {
      "inputs": [],
      "name": "OLAS_BURNER",
      "outputs": [
        {
          "internalType": "address",
          "name": "",
          "type": "address"
        }
      ],
      "stateMutability": "view",
      "type": "function"
    },
    {
      "inputs": [],
      "name": "OLAS_BURN_PERCENTAGE",
      "outputs": [
        {
          "internalType": "uint256",
          "name": "",
          "type": "uint256"
        }
      ],
      "stateMutability": "view",
      "type": "function"
    },
    {
      "inputs": [],
      "name": "SLIPPAGE",
      "outputs": [
        {
          "internalType": "uint256",
          "name": "",
          "type": "uint256"
        }
      ],
      "stateMutability": "view",
      "type": "function"
    },
    {
      "inputs": [],
      "name": "UNLEASH_DELAY",
      "outputs": [
        {
          "internalType": "uint256",
          "name": "",
          "type": "uint256"
        }
      ],
      "stateMutability": "view",
      "type": "function"
    },
    {
      "inputs": [],
      "name": "VERSION",
      "outputs": [
        {
          "internalType": "string",
          "name": "",
          "type": "string"
        }
      ],
      "stateMutability": "view",
      "type": "function"
    },
    {
      "inputs": [],
      "name": "WORMHOLE_BRIDGING_CUTOFF",
      "outputs": [
        {
          "internalType": "uint256",
          "name": "",
          "type": "uint256"
        }
      ],
      "stateMutability": "view",
      "type": "function"
    },
    {
      "inputs": [],
      "name": "WORMHOLE_ETH_CHAIN_ID",
      "outputs": [
        {
          "internalType": "uint16",
          "name": "",
          "type": "uint16"
        }
      ],
      "stateMutability": "view",
      "type": "function"
    },
    {
      "inputs": [],
      "name": "celo",
      "outputs": [
        {
          "internalType": "address",
          "name": "",
          "type": "address"
        }
      ],
      "stateMutability": "view",
      "type": "function"
    },
    {
      "inputs": [
        {
          "internalType": "address",
          "name": "memeToken",
          "type": "address"
        }
      ],
      "name": "collectThisMeme",
      "outputs": [],
      "stateMutability": "nonpayable",
      "type": "function"
    },
    {
      "inputs": [],
      "name": "factory",
      "outputs": [
        {
          "internalType": "address",
          "name": "",
          "type": "address"
        }
      ],
      "stateMutability": "view",
      "type": "function"
    },
    {
      "inputs": [
        {
          "internalType": "address",
          "name": "memeToken",
          "type": "address"
        }
      ],
      "name": "heartThisMeme",
      "outputs": [],
      "stateMutability": "payable",
      "type": "function"
    },
    {
      "inputs": [],
      "name": "l2TokenRelayer",
      "outputs": [
        {
          "internalType": "address",
          "name": "",
          "type": "address"
        }
      ],
      "stateMutability": "view",
      "type": "function"
    },
    {
      "inputs": [
        {
          "internalType": "address",
          "name": "",
          "type": "address"
        }
      ],
      "name": "mapAccountActivities",
      "outputs": [
        {
          "internalType": "uint256",
          "name": "",
          "type": "uint256"
        }
      ],
      "stateMutability": "view",
      "type": "function"
    },
    {
      "inputs": [
        {
          "internalType": "address",
          "name": "",
          "type": "address"
        },
        {
          "internalType": "address",
          "name": "",
          "type": "address"
        }
      ],
      "name": "memeHearters",
      "outputs": [
        {
          "internalType": "uint256",
          "name": "",
          "type": "uint256"
        }
      ],
      "stateMutability": "view",
      "type": "function"
    },
    {
      "inputs": [
        {
          "internalType": "address",
          "name": "",
          "type": "address"
        }
      ],
      "name": "memeSummons",
      "outputs": [
        {
          "internalType": "uint256",
          "name": "nativeTokenContributed",
          "type": "uint256"
        },
        {
          "internalType": "uint256",
          "name": "summonTime",
          "type": "uint256"
        },
        {
          "internalType": "uint256",
          "name": "unleashTime",
          "type": "uint256"
        },
        {
          "internalType": "uint256",
          "name": "heartersAmount",
          "type": "uint256"
        }
      ],
      "stateMutability": "view",
      "type": "function"
    },
    {
      "inputs": [
        {
          "internalType": "uint256",
          "name": "",
          "type": "uint256"
        }
      ],
      "name": "memeTokens",
      "outputs": [
        {
          "internalType": "address",
          "name": "",
          "type": "address"
        }
      ],
      "stateMutability": "view",
      "type": "function"
    },
    {
      "inputs": [],
      "name": "minNativeTokenValue",
      "outputs": [
        {
          "internalType": "uint256",
          "name": "",
          "type": "uint256"
        }
      ],
      "stateMutability": "view",
      "type": "function"
    },
    {
      "inputs": [],
      "name": "nonce",
      "outputs": [
        {
          "internalType": "uint256",
          "name": "",
          "type": "uint256"
        }
      ],
      "stateMutability": "view",
      "type": "function"
    },
    {
      "inputs": [],
      "name": "numTokens",
      "outputs": [
        {
          "internalType": "uint256",
          "name": "",
          "type": "uint256"
        }
      ],
      "stateMutability": "view",
      "type": "function"
    },
    {
      "inputs": [],
      "name": "olas",
      "outputs": [
        {
          "internalType": "address",
          "name": "",
          "type": "address"
        }
      ],
      "stateMutability": "view",
      "type": "function"
    },
    {
      "inputs": [],
      "name": "olasLeftovers",
      "outputs": [
        {
          "internalType": "uint256",
          "name": "",
          "type": "uint256"
        }
      ],
      "stateMutability": "view",
      "type": "function"
    },
    {
      "inputs": [],
      "name": "oracle",
      "outputs": [
        {
          "internalType": "address",
          "name": "",
          "type": "address"
        }
      ],
      "stateMutability": "view",
      "type": "function"
    },
    {
      "inputs": [
        {
          "internalType": "address",
          "name": "memeToken",
          "type": "address"
        }
      ],
      "name": "purgeThisMeme",
      "outputs": [],
      "stateMutability": "nonpayable",
      "type": "function"
    },
    {
      "inputs": [],
      "name": "referenceToken",
      "outputs": [
        {
          "internalType": "address",
          "name": "",
          "type": "address"
        }
      ],
      "stateMutability": "view",
      "type": "function"
    },
    {
      "inputs": [],
      "name": "router",
      "outputs": [
        {
          "internalType": "address",
          "name": "",
          "type": "address"
        }
      ],
      "stateMutability": "view",
      "type": "function"
    },
    {
      "inputs": [
        {
          "internalType": "uint256",
          "name": "limit",
          "type": "uint256"
        },
        {
          "internalType": "uint256",
          "name": "tokenGasLimit",
          "type": "uint256"
        },
        {
          "internalType": "bytes",
          "name": "bridgePayload",
          "type": "bytes"
        }
      ],
      "name": "scheduleOLASForAscendance",
      "outputs": [],
      "stateMutability": "payable",
      "type": "function"
    },
    {
      "inputs": [],
      "name": "scheduledForAscendance",
      "outputs": [
        {
          "internalType": "uint256",
          "name": "",
          "type": "uint256"
        }
      ],
      "stateMutability": "view",
      "type": "function"
    },
    {
      "inputs": [
        {
          "internalType": "string",
          "name": "name",
          "type": "string"
        },
        {
          "internalType": "string",
          "name": "symbol",
          "type": "string"
        },
        {
          "internalType": "uint256",
          "name": "totalSupply",
          "type": "uint256"
        }
      ],
      "name": "summonThisMeme",
      "outputs": [],
      "stateMutability": "payable",
      "type": "function"
    },
    {
      "inputs": [
        {
          "internalType": "address",
          "name": "memeToken",
          "type": "address"
        },
        {
          "internalType": "uint256",
          "name": "limit",
          "type": "uint256"
        }
      ],
      "name": "unleashThisMeme",
      "outputs": [],
      "stateMutability": "nonpayable",
      "type": "function"
    },
    {
      "stateMutability": "payable",
      "type": "receive"
    }
  ],
  "bytecode": "0x610180604052600160025534801561001657600080fd5b506040516142af3803806142af8339810160408190526100359161008b565b6001600160a01b0397881660a05295871660c05293861660e05291851661010052608052831661012052821661014052166101605261011b565b80516001600160a01b038116811461008657600080fd5b919050565b600080600080600080600080610100898b0312156100a857600080fd5b6100b18961006f565b97506100bf60208a0161006f565b96506100cd60408a0161006f565b95506100db60608a0161006f565b9450608089015193506100f060a08a0161006f565b92506100fe60c08a0161006f565b915061010c60e08a0161006f565b90509295985092959890939650565b60805160a05160c05160e0516101005161012051610140516101605161408061022f600039600081816104b20152611f8501526000818161056b01528181611c410152611d8a01526000818161027d015281816118ca01528181611ea7015261211b0152600081816105de01526123080152600081816106b6015281816119b501528181611a94015281816120e9015281816121cb015281816123b20152818161249101526125a30152600081816102d60152818161185c015281816119e401528181611f15015281816122d3015281816123e4015261254b01526000818161021f0152818161193801528181611c7301528181611d230152611e100152600081816105370152610f1a01526140806000f3fe6080604052600436106102015760003560e01c80637dc0d1d01161011d578063be399e2b116100b0578063dab346ff1161007f578063f76c603711610064578063f76c60371461066c578063f887ea40146106a4578063ffa1ad74146106d857600080fd5b8063dab346ff14610637578063f74e481b1461064c57600080fd5b8063be399e2b146105b6578063c45a0155146105cc578063cf4ffb7e14610600578063d1b0c2881461062057600080fd5b8063a5ae390c116100ec578063a5ae390c14610525578063a7be1b5014610559578063affed0e01461058d578063b1bd3c95146105a357600080fd5b80637dc0d1d0146104a05780638b9ee610146104d45780638e499bcf146104fc5780639823bb131461051257600080fd5b806336b4134a116101955780635122c409116101645780635122c409146104325780635eb76db2146104505780636be6af9814610478578063709a5c9c1461048d57600080fd5b806336b4134a146103ae5780633d0cc375146103c357806340b67a9b146103e5578063466ffbce1461041257600080fd5b806314c7312b116101d157806314c7312b146102f85780632e0f26251461035c578063323ebe581461038357806335f9f8d91461039957600080fd5b806231d1151461020d578063051ed8ef1461026b5780630a42f8bd1461029f5780631265b651146102c457600080fd5b3661020857005b600080fd5b34801561021957600080fd5b506102417f000000000000000000000000000000000000000000000000000000000000000081565b60405173ffffffffffffffffffffffffffffffffffffffff90911681526020015b60405180910390f35b34801561027757600080fd5b506102417f000000000000000000000000000000000000000000000000000000000000000081565b3480156102ab57600080fd5b506102b66202a30081565b604051908152602001610262565b3480156102d057600080fd5b506102417f000000000000000000000000000000000000000000000000000000000000000081565b34801561030457600080fd5b5061033c61031336600461277a565b600360208190526000918252604090912080546001820154600283015492909301549092919084565b604080519485526020850193909352918301526060820152608001610262565b34801561036857600080fd5b50610371601281565b60405160ff9091168152602001610262565b34801561038f57600080fd5b506102b660085481565b3480156103a557600080fd5b506102b6603281565b3480156103ba57600080fd5b506102b6606181565b3480156103cf57600080fd5b506103e36103de36600461277a565b61072e565b005b3480156103f157600080fd5b506102b661040036600461277a565b60056020526000908152604090205481565b34801561041e57600080fd5b5061024161042d36600461279e565b610b1b565b34801561043e57600080fd5b506102b669d3c21bcecceda100000081565b34801561045c57600080fd5b50610465600281565b60405161ffff9091168152602001610262565b34801561048457600080fd5b506102b6600081565b6103e361049b3660046128af565b610b52565b3480156104ac57600080fd5b506102417f000000000000000000000000000000000000000000000000000000000000000081565b3480156104e057600080fd5b506102417351eb65012ca5ceb07320c497f4151ac207fea4e081565b34801561050857600080fd5b506102b660005481565b6103e361052036600461277a565b610cc5565b34801561053157600080fd5b506102b67f000000000000000000000000000000000000000000000000000000000000000081565b34801561056557600080fd5b506102417f000000000000000000000000000000000000000000000000000000000000000081565b34801561059957600080fd5b506102b660075481565b6103e36105b1366004612933565b610f18565b3480156105c257600080fd5b506102b660015481565b3480156105d857600080fd5b506102417f000000000000000000000000000000000000000000000000000000000000000081565b34801561060c57600080fd5b506103e361061b3660046129a6565b61120e565b34801561062c57600080fd5b506102b66201518081565b34801561064357600080fd5b506102b6600a81565b34801561065857600080fd5b506103e361066736600461277a565b611594565b34801561067857600080fd5b506102b66106873660046129d2565b600460209081526000928352604080842090915290825290205481565b3480156106b057600080fd5b506102417f000000000000000000000000000000000000000000000000000000000000000081565b3480156106e457600080fd5b506107216040518060400160405280600581526020017f302e312e3000000000000000000000000000000000000000000000000000000081525081565b6040516102629190612a6f565b60025460011461079f576040517f08c379a000000000000000000000000000000000000000000000000000000000815260206004820152601060248201527f5265656e7472616e63792067756172640000000000000000000000000000000060448201526064015b60405180910390fd5b73ffffffffffffffffffffffffffffffffffffffff8116600090815260036020818152604092839020835160808101855281548152600182015492810183905260028201549481019490945290910154606083015261085a576040517f08c379a000000000000000000000000000000000000000000000000000000000815260206004820152601160248201527f4d656d65206e6f742073756d6d6f6e65640000000000000000000000000000006044820152606401610796565b6202a300816020015161086d9190612ab1565b42116108fb576040517f08c379a000000000000000000000000000000000000000000000000000000000815260206004820152602d60248201527f5075726765206f6e6c7920616c6c6f7765642066726f6d20343820686f75727360448201527f2061667465722073756d6d6f6e000000000000000000000000000000000000006064820152608401610796565b33600090815260056020526040812080549161091683612ac4565b90915550506040517f70a08231000000000000000000000000000000000000000000000000000000008152306004820152829060009073ffffffffffffffffffffffffffffffffffffffff8316906370a0823190602401602060405180830381865afa15801561098a573d6000803e3d6000fd5b505050506040513d601f19601f820116820180604052508101906109ae9190612afc565b905060008111610a40576040517f08c379a000000000000000000000000000000000000000000000000000000000815260206004820152602360248201527f486173206265656e20707572676564206f72206e6f7468696e6720746f20707560448201527f72676500000000000000000000000000000000000000000000000000000000006064820152608401610796565b6040517f42966c680000000000000000000000000000000000000000000000000000000081526004810182905273ffffffffffffffffffffffffffffffffffffffff8316906342966c6890602401600060405180830381600087803b158015610aa857600080fd5b505af1158015610abc573d6000803e3d6000fd5b505050508373ffffffffffffffffffffffffffffffffffffffff167f265db6c9c62cb962adbcf4398a54e4b02b2d87b28ab5b7538850150465a5f43c82604051610b0891815260200190565b60405180910390a2505060016002555050565b60068181548110610b2b57600080fd5b60009182526020909120015473ffffffffffffffffffffffffffffffffffffffff16905081565b600254600114610bbe576040517f08c379a000000000000000000000000000000000000000000000000000000000815260206004820152601060248201527f5265656e7472616e6379206775617264000000000000000000000000000000006044820152606401610796565b600060015411610c2a576040517f08c379a000000000000000000000000000000000000000000000000000000000815260206004820152600f60248201527f4e6f7468696e6720746f206275726e00000000000000000000000000000000006044820152606401610796565b336000908152600560205260408120805491610c4583612ac4565b91905055506000610c5860015485611834565b60006001819055909150610c6d828585611b5e565b90508015610cbe5760405132908290600081818185875af1925050503d8060008114610cb5576040519150601f19603f3d011682016040523d82523d6000602084013e610cba565b606091505b5050505b5050505050565b60003411610d55576040517f08c379a000000000000000000000000000000000000000000000000000000000815260206004820152602d60248201527f4e617469766520746f6b656e20616d6f756e74206d757374206265206772656160448201527f746572207468616e207a65726f000000000000000000000000000000000000006064820152608401610796565b73ffffffffffffffffffffffffffffffffffffffff81166000908152600360205260409020805480610de3576040517f08c379a000000000000000000000000000000000000000000000000000000000815260206004820152601560248201527f4d656d65206e6f74207965742073756d6d6f6e656400000000000000000000006044820152606401610796565b600282015415610e4f576040517f08c379a000000000000000000000000000000000000000000000000000000000815260206004820152601660248201527f4d656d6520616c726561647920756e6c656173686564000000000000000000006044820152606401610796565b610e593482612ab1565b80835573ffffffffffffffffffffffffffffffffffffffff84166000908152600460209081526040808320338452909152812080549293503492909190610ea1908490612ab1565b9091555050336000908152600560205260408120805491610ec183612ac4565b909155505060405134815273ffffffffffffffffffffffffffffffffffffffff84169033907fb4dec46ff7703ee80325aa5ed4df0691d6d8791df96b50240552403cec1c9eda9060200160405180910390a3505050565b7f0000000000000000000000000000000000000000000000000000000000000000341015610fc8576040517f08c379a000000000000000000000000000000000000000000000000000000000815260206004820152603060248201527f4d696e696d756d206e617469766520746f6b656e2076616c756520697320726560448201527f71756972656420746f2073756d6d6f6e000000000000000000000000000000006064820152608401610796565b69d3c21bcecceda100000081101561103c576040517f08c379a000000000000000000000000000000000000000000000000000000000815260206004820152601f60248201527f4d696e696d756d20746f74616c20737570706c79206973206e6f74206d6574006044820152606401610796565b6000838360128460405161104f90612748565b61105c9493929190612b15565b604051809103906000f080158015611078573d6000803e3d6000fd5b50604080516080810182523480825242602080840191825260008486018181526060860182815273ffffffffffffffffffffffffffffffffffffffff891680845260038086528985209851895595516001808a01919091559251600289015590519690940195909555600482528581203382528252858120939093556006805494850181557ff652222313e28459528d920b65115c16c04f3efc82aaedc97be59f3f377c0d3f90940180547fffffffffffffffffffffffff000000000000000000000000000000000000000016909217909155915481556005909152908120805492935083929161116883612ac4565b909155505060405134815273ffffffffffffffffffffffffffffffffffffffff82169033907f109fe5b1a043e1fc6e8b6f4905613c0a5b82de0d8798558c67f0243106b2d7ad9060200160405180910390a360405134815273ffffffffffffffffffffffffffffffffffffffff82169033907fb4dec46ff7703ee80325aa5ed4df0691d6d8791df96b50240552403cec1c9eda9060200160405180910390a35050505050565b60025460011461127a576040517f08c379a000000000000000000000000000000000000000000000000000000000815260206004820152601060248201527f5265656e7472616e6379206775617264000000000000000000000000000000006044820152606401610796565b73ffffffffffffffffffffffffffffffffffffffff821660009081526003602052604090208054600182015461130c576040517f08c379a000000000000000000000000000000000000000000000000000000000815260206004820152601160248201527f4d656d65206e6f742073756d6d6f6e65640000000000000000000000000000006044820152606401610796565b62015180826001015461131f9190612ab1565b421015611388576040517f08c379a000000000000000000000000000000000000000000000000000000000815260206004820152601260248201527f43616e6e6f7420756e6c656173682079657400000000000000000000000000006044820152606401610796565b60006113948285611e80565b9050600060646113a5600a84612b51565b6113af9190612b68565b905080600160008282546113c39190612ab1565b909155506113d390508183612ba3565b9150600086905060008173ffffffffffffffffffffffffffffffffffffffff166318160ddd6040518163ffffffff1660e01b8152600401602060405180830381865afa158015611427573d6000803e3d6000fd5b505050506040513d601f19601f8201168201806040525081019061144b9190612afc565b90506000606461145c603284612b51565b6114669190612b68565b905060006114748284612ba3565b90506000806114848c8986612296565b4260028d015560038c0185905533600090815260056020526040812080549395509193506114b183612ac4565b909155505073ffffffffffffffffffffffffffffffffffffffff8c16600090815260046020908152604080832033845290915290205480156114f9576114f98d82868d61261f565b8273ffffffffffffffffffffffffffffffffffffffff168d73ffffffffffffffffffffffffffffffffffffffff163373ffffffffffffffffffffffffffffffffffffffff167fcef3279530e487be6d2c4583c847d17d5a328a9b6ab1e27ad458690257ba7768858c604051611578929190918252602082015260400190565b60405180910390a4505060016002555050505050505050505050565b600254600114611600576040517f08c379a000000000000000000000000000000000000000000000000000000000815260206004820152601060248201527f5265656e7472616e6379206775617264000000000000000000000000000000006044820152606401610796565b73ffffffffffffffffffffffffffffffffffffffff81166000908152600360208181526040928390208351608081018552815481526001820154928101929092526002810154938201849052909101546060820152906116bc576040517f08c379a000000000000000000000000000000000000000000000000000000000815260206004820152601260248201527f4d656d65206e6f7420756e6c65617368656400000000000000000000000000006044820152606401610796565b6202a30081602001516116cf9190612ab1565b42111561175e576040517f08c379a000000000000000000000000000000000000000000000000000000000815260206004820152603060248201527f436f6c6c656374206f6e6c7920616c6c6f77656420756e74696c20343820686f60448201527f7572732061667465722073756d6d6f6e000000000000000000000000000000006064820152608401610796565b73ffffffffffffffffffffffffffffffffffffffff82166000908152600460209081526040808320338452909152902054806117f6576040517f08c379a000000000000000000000000000000000000000000000000000000000815260206004820152601360248201527f4e6f20746f6b656e20616c6c6f636174696f6e000000000000000000000000006044820152606401610796565b33600090815260056020526040812080549161181183612ac4565b919050555061182a83828460600151856000015161261f565b5050600160025550565b60408051600380825260808201909252600091829190602082016060803683370190505090507f00000000000000000000000000000000000000000000000000000000000000008160008151811061188e5761188e612bb6565b602002602001019073ffffffffffffffffffffffffffffffffffffffff16908173ffffffffffffffffffffffffffffffffffffffff16815250507f0000000000000000000000000000000000000000000000000000000000000000816001815181106118fc576118fc612bb6565b602002602001019073ffffffffffffffffffffffffffffffffffffffff16908173ffffffffffffffffffffffffffffffffffffffff16815250507f00000000000000000000000000000000000000000000000000000000000000008160028151811061196a5761196a612bb6565b73ffffffffffffffffffffffffffffffffffffffff92831660209182029290920101526040517f095ea7b30000000000000000000000000000000000000000000000000000000081527f000000000000000000000000000000000000000000000000000000000000000082166004820152602481018690527f00000000000000000000000000000000000000000000000000000000000000009091169063095ea7b3906044016020604051808303816000875af1158015611a2f573d6000803e3d6000fd5b505050506040513d601f19601f82011682018060405250810190611a539190612be5565b506040517f38ed173900000000000000000000000000000000000000000000000000000000815260009073ffffffffffffffffffffffffffffffffffffffff7f000000000000000000000000000000000000000000000000000000000000000016906338ed173990611ad19088908890879030904290600401612c07565b6000604051808303816000875af1158015611af0573d6000803e3d6000fd5b505050506040513d6000823e601f3d9081017fffffffffffffffffffffffffffffffffffffffffffffffffffffffffffffffe0168201604052611b369190810190612c93565b905080600181518110611b4b57611b4b612bb6565b6020026020010151925050505b92915050565b600854600090611b6e8186612ab1565b94506000611b7c8187612b68565b9050611b89600082612b51565b905060008111611bf5576040517f08c379a000000000000000000000000000000000000000000000000000000000815260206004820181905260248201527f416d6f756e7420697320746f6f20736d616c6c20666f72206272696467696e676044820152606401610796565b611bff8187612ba3565b60088190556040517f095ea7b300000000000000000000000000000000000000000000000000000000815273ffffffffffffffffffffffffffffffffffffffff7f000000000000000000000000000000000000000000000000000000000000000081166004830152602482018490529193507f00000000000000000000000000000000000000000000000000000000000000009091169063095ea7b3906044016020604051808303816000875af1158015611cbe573d6000803e3d6000fd5b505050506040513d601f19601f82011682018060405250810190611ce29190612be5565b506007546040517f0f5287b000000000000000000000000000000000000000000000000000000000815273ffffffffffffffffffffffffffffffffffffffff7f00000000000000000000000000000000000000000000000000000000000000008116600483015260248201849052600260448301527351eb65012ca5ceb07320c497f4151ac207fea4e0606483018190526000608484015263ffffffff841660a484015292917f000000000000000000000000000000000000000000000000000000000000000090911690630f5287b09060c4016020604051808303816000875af1158015611dd5573d6000803e3d6000fd5b505050506040513d601f19601f82011682018060405250810190611df99190612d44565b50611e05816001612ab1565b6007556040518381527f000000000000000000000000000000000000000000000000000000000000000073ffffffffffffffffffffffffffffffffffffffff16907f40a3e75fd2efcf074c9c0520c5367ccb3093ded646970bdc8c3108748e5d3f0e9060200160405180910390a25034979650505050505050565b604080516002808252606082018352600092839291906020830190803683370190505090507f000000000000000000000000000000000000000000000000000000000000000081600081518110611ed957611ed9612bb6565b602002602001019073ffffffffffffffffffffffffffffffffffffffff16908173ffffffffffffffffffffffffffffffffffffffff16815250507f000000000000000000000000000000000000000000000000000000000000000081600181518110611f4757611f47612bb6565b602002602001019073ffffffffffffffffffffffffffffffffffffffff16908173ffffffffffffffffffffffffffffffffffffffff168152505060007f000000000000000000000000000000000000000000000000000000000000000073ffffffffffffffffffffffffffffffffffffffff1663feaf968c6040518163ffffffff1660e01b815260040160a0604051808303816000875af1158015611ff0573d6000803e3d6000fd5b505050506040513d601f19601f820116820180604052508101906120149190612d8d565b50505091505060008113612084576040517f08c379a000000000000000000000000000000000000000000000000000000000815260206004820152601960248201527f4f7261636c6520707269636520697320696e636f7272656374000000000000006044820152606401610796565b60006402540be40060616120988885612b51565b6120a29190612b51565b6120ac9190612b68565b6040517f095ea7b300000000000000000000000000000000000000000000000000000000815273ffffffffffffffffffffffffffffffffffffffff7f000000000000000000000000000000000000000000000000000000000000000081166004830152602482018990529192507f00000000000000000000000000000000000000000000000000000000000000009091169063095ea7b3906044016020604051808303816000875af1158015612166573d6000803e3d6000fd5b505050506040513d601f19601f8201168201806040525081019061218a9190612be5565b506040517f38ed173900000000000000000000000000000000000000000000000000000000815260009073ffffffffffffffffffffffffffffffffffffffff7f000000000000000000000000000000000000000000000000000000000000000016906338ed173990612208908a908690899030904290600401612c07565b6000604051808303816000875af1158015612227573d6000803e3d6000fd5b505050506040513d6000823e601f3d9081017fffffffffffffffffffffffffffffffffffffffffffffffffffffffffffffffe016820160405261226d9190810190612c93565b90508060018151811061228257612282612bb6565b602002602001015194505050505092915050565b6040517fc9c6539600000000000000000000000000000000000000000000000000000000815273ffffffffffffffffffffffffffffffffffffffff7f000000000000000000000000000000000000000000000000000000000000000081166004830152848116602483015260009182917f0000000000000000000000000000000000000000000000000000000000000000169063c9c65396906044016020604051808303816000875af1158015612351573d6000803e3d6000fd5b505050506040513d601f19601f820116820180604052508101906123759190612ddf565b6040517f095ea7b300000000000000000000000000000000000000000000000000000000815273ffffffffffffffffffffffffffffffffffffffff7f000000000000000000000000000000000000000000000000000000000000000081166004830152602482018790529193507f00000000000000000000000000000000000000000000000000000000000000009091169063095ea7b3906044016020604051808303816000875af115801561242f573d6000803e3d6000fd5b505050506040513d601f19601f820116820180604052508101906124539190612be5565b506040517f095ea7b300000000000000000000000000000000000000000000000000000000815273ffffffffffffffffffffffffffffffffffffffff7f0000000000000000000000000000000000000000000000000000000000000000811660048301526024820185905286169063095ea7b3906044016020604051808303816000875af11580156124e9573d6000803e3d6000fd5b505050506040513d601f19601f8201168201806040525081019061250d9190612be5565b506040517fe8e3370000000000000000000000000000000000000000000000000000000000815273ffffffffffffffffffffffffffffffffffffffff7f0000000000000000000000000000000000000000000000000000000000000000811660048301528681166024830152604482018690526064820185905260006084830181905260a48301523060c48301524260e48301527f0000000000000000000000000000000000000000000000000000000000000000169063e8e3370090610104016060604051808303816000875af11580156125ed573d6000803e3d6000fd5b505050506040513d601f19601f820116820180604052508101906126119190612dfc565b939793965092945050505050565b8360008261262d8587612b51565b6126379190612b68565b73ffffffffffffffffffffffffffffffffffffffff87811660009081526004602081815260408084203380865292528084209390935591517fa9059cbb000000000000000000000000000000000000000000000000000000008152908101919091526024810183905291925083169063a9059cbb906044016020604051808303816000875af11580156126ce573d6000803e3d6000fd5b505050506040513d601f19601f820116820180604052508101906126f29190612be5565b5060405181815273ffffffffffffffffffffffffffffffffffffffff87169033907f484decdc1e9549e1866295f6f86c889ded3f7de410e7488a7a415978589dc8fd9060200160405180910390a3505050505050565b61122080612e2b83390190565b73ffffffffffffffffffffffffffffffffffffffff8116811461277757600080fd5b50565b60006020828403121561278c57600080fd5b813561279781612755565b9392505050565b6000602082840312156127b057600080fd5b5035919050565b7f4e487b7100000000000000000000000000000000000000000000000000000000600052604160045260246000fd5b604051601f82017fffffffffffffffffffffffffffffffffffffffffffffffffffffffffffffffe016810167ffffffffffffffff8111828210171561282d5761282d6127b7565b604052919050565b60008067ffffffffffffffff841115612850576128506127b7565b50601f83017fffffffffffffffffffffffffffffffffffffffffffffffffffffffffffffffe016602001612883816127e6565b91505082815283838301111561289857600080fd5b828260208301376000602084830101529392505050565b6000806000606084860312156128c457600080fd5b8335925060208401359150604084013567ffffffffffffffff8111156128e957600080fd5b8401601f810186136128fa57600080fd5b61290986823560208401612835565b9150509250925092565b600082601f83011261292457600080fd5b61279783833560208501612835565b60008060006060848603121561294857600080fd5b833567ffffffffffffffff81111561295f57600080fd5b61296b86828701612913565b935050602084013567ffffffffffffffff81111561298857600080fd5b61299486828701612913565b93969395505050506040919091013590565b600080604083850312156129b957600080fd5b82356129c481612755565b946020939093013593505050565b600080604083850312156129e557600080fd5b82356129f081612755565b91506020830135612a0081612755565b809150509250929050565b6000815180845260005b81811015612a3157602081850181015186830182015201612a15565b5060006020828601015260207fffffffffffffffffffffffffffffffffffffffffffffffffffffffffffffffe0601f83011685010191505092915050565b6020815260006127976020830184612a0b565b7f4e487b7100000000000000000000000000000000000000000000000000000000600052601160045260246000fd5b80820180821115611b5857611b58612a82565b60007fffffffffffffffffffffffffffffffffffffffffffffffffffffffffffffffff8203612af557612af5612a82565b5060010190565b600060208284031215612b0e57600080fd5b5051919050565b608081526000612b286080830187612a0b565b8281036020840152612b3a8187612a0b565b60ff95909516604084015250506060015292915050565b8082028115828204841417611b5857611b58612a82565b600082612b9e577f4e487b7100000000000000000000000000000000000000000000000000000000600052601260045260246000fd5b500490565b81810381811115611b5857611b58612a82565b7f4e487b7100000000000000000000000000000000000000000000000000000000600052603260045260246000fd5b600060208284031215612bf757600080fd5b8151801515811461279757600080fd5b600060a0820187835286602084015260a0604084015280865180835260c08501915060208801925060005b81811015612c6657835173ffffffffffffffffffffffffffffffffffffffff16835260209384019390920191600101612c32565b505073ffffffffffffffffffffffffffffffffffffffff9590951660608401525050608001529392505050565b600060208284031215612ca557600080fd5b815167ffffffffffffffff811115612cbc57600080fd5b8201601f81018413612ccd57600080fd5b805167ffffffffffffffff811115612ce757612ce76127b7565b8060051b612cf7602082016127e6565b91825260208184018101929081019087841115612d1357600080fd5b6020850194505b83851015612d3957845180835260209586019590935090910190612d1a565b979650505050505050565b600060208284031215612d5657600080fd5b815167ffffffffffffffff8116811461279757600080fd5b805169ffffffffffffffffffff81168114612d8857600080fd5b919050565b600080600080600060a08688031215612da557600080fd5b612dae86612d6e565b60208701516040880151606089015192975090955093509150612dd360808701612d6e565b90509295509295909350565b600060208284031215612df157600080fd5b815161279781612755565b600080600060608486031215612e1157600080fd5b505081516020830151604090930151909492935091905056fe60e060405234801561001057600080fd5b5060405161122038038061122083398101604081905261002f91610238565b838383600061003e848261034a565b50600161004b838261034a565b5060ff81166080524660a05261005f61007a565b60c05250610071915033905082610114565b505050506104a4565b60007f8b73c3c69bb8fe3d512ecc4cf759cc79239f7b179b0ffacaa9a75d522b39400f60006040516100ac9190610408565b6040805191829003822060208301939093528101919091527fc89efdaa54c0f20c7adf612882df0950f5a951637e0307cdcb4c672f298b8bc660608201524660808201523060a082015260c00160405160208183030381529060405280519060200120905090565b8060026000828254610126919061047d565b90915550506001600160a01b0382166000818152600360209081526040808320805486019055518481527fddf252ad1be2c89b69c2b068fc378daa952ba7f163c4a11628f55a4df523b3ef910160405180910390a35050565b634e487b7160e01b600052604160045260246000fd5b600082601f8301126101a657600080fd5b81516001600160401b038111156101bf576101bf61017f565b604051601f8201601f19908116603f011681016001600160401b03811182821017156101ed576101ed61017f565b60405281815283820160200185101561020557600080fd5b60005b8281101561022457602081860181015183830182015201610208565b506000918101602001919091529392505050565b6000806000806080858703121561024e57600080fd5b84516001600160401b0381111561026457600080fd5b61027087828801610195565b602087015190955090506001600160401b0381111561028e57600080fd5b61029a87828801610195565b935050604085015160ff811681146102b157600080fd5b6060959095015193969295505050565b600181811c908216806102d557607f821691505b6020821081036102f557634e487b7160e01b600052602260045260246000fd5b50919050565b601f82111561034557806000526020600020601f840160051c810160208510156103225750805b601f840160051c820191505b81811015610342576000815560010161032e565b50505b505050565b81516001600160401b038111156103635761036361017f565b6103778161037184546102c1565b846102fb565b6020601f8211600181146103ab57600083156103935750848201515b600019600385901b1c1916600184901b178455610342565b600084815260208120601f198516915b828110156103db57878501518255602094850194600190920191016103bb565b50848210156103f95786840151600019600387901b60f8161c191681555b50505050600190811b01905550565b6000808354610416816102c1565b60018216801561042d576001811461044257610472565b60ff1983168652811515820286019350610472565b86600052602060002060005b8381101561046a5781548882015260019091019060200161044e565b505081860193505b509195945050505050565b8082018082111561049e57634e487b7160e01b600052601160045260246000fd5b92915050565b60805160a05160c051610d4d6104d360003960006104c30152600061048e015260006101540152610d4d6000f3fe608060405234801561001057600080fd5b50600436106100df5760003560e01c806342966c681161008c57806395d89b411161006657806395d89b41146101e5578063a9059cbb146101ed578063d505accf14610200578063dd62ed3e1461021357600080fd5b806342966c681461019057806370a08231146101a55780637ecebe00146101c557600080fd5b806323b872dd116100bd57806323b872dd1461013c578063313ce5671461014f5780633644e5151461018857600080fd5b806306fdde03146100e4578063095ea7b31461010257806318160ddd14610125575b600080fd5b6100ec61023e565b6040516100f991906109d7565b60405180910390f35b610115610110366004610a6c565b6102cc565b60405190151581526020016100f9565b61012e60025481565b6040519081526020016100f9565b61011561014a366004610a96565b610346565b6101767f000000000000000000000000000000000000000000000000000000000000000081565b60405160ff90911681526020016100f9565b61012e61048a565b6101a361019e366004610ad3565b6104e5565b005b61012e6101b3366004610aec565b60036020526000908152604090205481565b61012e6101d3366004610aec565b60056020526000908152604090205481565b6100ec6104f2565b6101156101fb366004610a6c565b6104ff565b6101a361020e366004610b0e565b610584565b61012e610221366004610b81565b600460209081526000928352604080842090915290825290205481565b6000805461024b90610bb4565b80601f016020809104026020016040519081016040528092919081815260200182805461027790610bb4565b80156102c45780601f10610299576101008083540402835291602001916102c4565b820191906000526020600020905b8154815290600101906020018083116102a757829003601f168201915b505050505081565b33600081815260046020908152604080832073ffffffffffffffffffffffffffffffffffffffff8716808552925280832085905551919290917f8c5be1e5ebec7d5bd14f71427d1e84f3dd0314c0f7b2291e5b200ac8c7c3b925906103349086815260200190565b60405180910390a35060015b92915050565b73ffffffffffffffffffffffffffffffffffffffff831660009081526004602090815260408083203384529091528120547fffffffffffffffffffffffffffffffffffffffffffffffffffffffffffffffff81146103da576103a88382610c07565b73ffffffffffffffffffffffffffffffffffffffff861660009081526004602090815260408083203384529091529020555b73ffffffffffffffffffffffffffffffffffffffff85166000908152600360205260408120805485929061040f908490610c07565b909155505073ffffffffffffffffffffffffffffffffffffffff808516600081815260036020526040908190208054870190555190918716907fddf252ad1be2c89b69c2b068fc378daa952ba7f163c4a11628f55a4df523b3ef906104779087815260200190565b60405180910390a3506001949350505050565b60007f000000000000000000000000000000000000000000000000000000000000000046146104c0576104bb6108a8565b905090565b507f000000000000000000000000000000000000000000000000000000000000000090565b6104ef3382610942565b50565b6001805461024b90610bb4565b33600090815260036020526040812080548391908390610520908490610c07565b909155505073ffffffffffffffffffffffffffffffffffffffff8316600081815260036020526040908190208054850190555133907fddf252ad1be2c89b69c2b068fc378daa952ba7f163c4a11628f55a4df523b3ef906103349086815260200190565b428410156105f3576040517f08c379a000000000000000000000000000000000000000000000000000000000815260206004820152601760248201527f5045524d49545f444541444c494e455f4558504952454400000000000000000060448201526064015b60405180910390fd5b600060016105ff61048a565b73ffffffffffffffffffffffffffffffffffffffff8a811660008181526005602090815260409182902080546001810190915582517f6e71edae12b1b97f4d1f60370fef10105fa2faae0126114a169c64845d6126c98184015280840194909452938d166060840152608083018c905260a083019390935260c08083018b90528151808403909101815260e0830190915280519201919091207f190100000000000000000000000000000000000000000000000000000000000061010083015261010282019290925261012281019190915261014201604080517fffffffffffffffffffffffffffffffffffffffffffffffffffffffffffffffe08184030181528282528051602091820120600084529083018083525260ff871690820152606081018590526080810184905260a0016020604051602081039080840390855afa158015610751573d6000803e3d6000fd5b50506040517fffffffffffffffffffffffffffffffffffffffffffffffffffffffffffffffe0015191505073ffffffffffffffffffffffffffffffffffffffff8116158015906107cc57508773ffffffffffffffffffffffffffffffffffffffff168173ffffffffffffffffffffffffffffffffffffffff16145b610832576040517f08c379a000000000000000000000000000000000000000000000000000000000815260206004820152600e60248201527f494e56414c49445f5349474e455200000000000000000000000000000000000060448201526064016105ea565b73ffffffffffffffffffffffffffffffffffffffff90811660009081526004602090815260408083208a8516808552908352928190208990555188815291928a16917f8c5be1e5ebec7d5bd14f71427d1e84f3dd0314c0f7b2291e5b200ac8c7c3b925910160405180910390a350505050505050565b60007f8b73c3c69bb8fe3d512ecc4cf759cc79239f7b179b0ffacaa9a75d522b39400f60006040516108da9190610c41565b6040805191829003822060208301939093528101919091527fc89efdaa54c0f20c7adf612882df0950f5a951637e0307cdcb4c672f298b8bc660608201524660808201523060a082015260c00160405160208183030381529060405280519060200120905090565b73ffffffffffffffffffffffffffffffffffffffff821660009081526003602052604081208054839290610977908490610c07565b909155505060028054829003905560405181815260009073ffffffffffffffffffffffffffffffffffffffff8416907fddf252ad1be2c89b69c2b068fc378daa952ba7f163c4a11628f55a4df523b3ef9060200160405180910390a35050565b602081526000825180602084015260005b81811015610a0557602081860181015160408684010152016109e8565b5060006040828501015260407fffffffffffffffffffffffffffffffffffffffffffffffffffffffffffffffe0601f83011684010191505092915050565b803573ffffffffffffffffffffffffffffffffffffffff81168114610a6757600080fd5b919050565b60008060408385031215610a7f57600080fd5b610a8883610a43565b946020939093013593505050565b600080600060608486031215610aab57600080fd5b610ab484610a43565b9250610ac260208501610a43565b929592945050506040919091013590565b600060208284031215610ae557600080fd5b5035919050565b600060208284031215610afe57600080fd5b610b0782610a43565b9392505050565b600080600080600080600060e0888a031215610b2957600080fd5b610b3288610a43565b9650610b4060208901610a43565b95506040880135945060608801359350608088013560ff81168114610b6457600080fd5b9699959850939692959460a0840135945060c09093013592915050565b60008060408385031215610b9457600080fd5b610b9d83610a43565b9150610bab60208401610a43565b90509250929050565b600181811c90821680610bc857607f821691505b602082108103610c01577f4e487b7100000000000000000000000000000000000000000000000000000000600052602260045260246000fd5b50919050565b81810381811115610340577f4e487b7100000000000000000000000000000000000000000000000000000000600052601160045260246000fd5b6000808354818160011c90506001821680610c5d57607f821691505b602082108103610c94577f4e487b710000000000000000000000000000000000000000000000000000000084526022600452602484fd5b808015610ca85760018114610cdb57610d0b565b7fffffffffffffffffffffffffffffffffffffffffffffffffffffffffffffff0084168752821515830287019450610d0b565b60008881526020902060005b84811015610d0357815489820152600190910190602001610ce7565b505082870194505b5092969550505050505056fea26469706673582212203b134facc9dcc6995fc2e3d1fc78c6d13107692c1f18cfe3450a552767346f3e64736f6c634300081c0033a264697066735822122037feedabb7a4846738a94f2a2faa5d46c4fe0e62a08a9be12838f39ae3ee648e64736f6c634300081c0033",
  "linkReferences": {},
  "deployedLinkReferences": {}
}