{
  "_format": "hh-sol-artifact-1",
  "contractName": "MemeBase",
  "sourceName": "contracts/MemeBase.sol",
  "abi": [
    {
      "inputs": [
        {
          "internalType": "address",
          "name": "_olas",
          "type": "address"
        },
        {
          "internalType": "address",
          "name": "_usdc",
          "type": "address"
        },
        {
          "internalType": "address",
          "name": "_weth",
          "type": "address"
        },
        {
          "internalType": "address",
          "name": "_router",
          "type": "address"
        },
        {
          "internalType": "address",
          "name": "_factory",
          "type": "address"
        },
        {
          "internalType": "address",
          "name": "_l2TokenRelayer",
          "type": "address"
        },
        {
          "internalType": "address",
          "name": "_oracle",
          "type": "address"
        },
        {
          "internalType": "address",
          "name": "_balancerVault",
          "type": "address"
        },
        {
          "internalType": "bytes32",
          "name": "_balancerPoolId",
          "type": "bytes32"
        }
      ],
      "stateMutability": "nonpayable",
      "type": "constructor"
    },
    {
      "anonymous": false,
      "inputs": [
        {
          "indexed": true,
          "internalType": "address",
          "name": "hearter",
          "type": "address"
        },
        {
          "indexed": true,
          "internalType": "address",
          "name": "memeToken",
          "type": "address"
        },
        {
          "indexed": false,
          "internalType": "uint256",
          "name": "allocation",
          "type": "uint256"
        }
      ],
      "name": "Collected",
      "type": "event"
    },
    {
      "anonymous": false,
      "inputs": [
        {
          "indexed": true,
          "internalType": "address",
          "name": "hearter",
          "type": "address"
        },
        {
          "indexed": true,
          "internalType": "address",
          "name": "memeToken",
          "type": "address"
        },
        {
          "indexed": false,
          "internalType": "uint256",
          "name": "amount",
          "type": "uint256"
        }
      ],
      "name": "Hearted",
      "type": "event"
    },
    {
      "anonymous": false,
      "inputs": [
        {
          "indexed": true,
          "internalType": "address",
          "name": "olas",
          "type": "address"
        },
        {
          "indexed": false,
          "internalType": "uint256",
          "name": "amount",
          "type": "uint256"
        }
      ],
      "name": "OLASJourneyToAscendance",
      "type": "event"
    },
    {
      "anonymous": false,
      "inputs": [
        {
          "indexed": true,
          "internalType": "address",
          "name": "memeToken",
          "type": "address"
        },
        {
          "indexed": false,
          "internalType": "uint256",
          "name": "remainingAmount",
          "type": "uint256"
        }
      ],
      "name": "Purged",
      "type": "event"
    },
    {
      "anonymous": false,
      "inputs": [
        {
          "indexed": true,
          "internalType": "address",
          "name": "summoner",
          "type": "address"
        },
        {
          "indexed": true,
          "internalType": "address",
          "name": "memeToken",
          "type": "address"
        },
        {
          "indexed": false,
          "internalType": "uint256",
          "name": "ethContributed",
          "type": "uint256"
        }
      ],
      "name": "Summoned",
      "type": "event"
    },
    {
      "anonymous": false,
      "inputs": [
        {
          "indexed": true,
          "internalType": "address",
          "name": "unleasher",
          "type": "address"
        },
        {
          "indexed": true,
          "internalType": "address",
          "name": "memeToken",
          "type": "address"
        },
        {
          "indexed": true,
          "internalType": "address",
          "name": "lpPairAddress",
          "type": "address"
        },
        {
          "indexed": false,
          "internalType": "uint256",
          "name": "liquidity",
          "type": "uint256"
        }
      ],
      "name": "Unleashed",
      "type": "event"
    },
    {
      "inputs": [],
      "name": "COLLECT_DEADLINE",
      "outputs": [
        {
          "internalType": "uint256",
          "name": "",
          "type": "uint256"
        }
      ],
      "stateMutability": "view",
      "type": "function"
    },
    {
      "inputs": [],
      "name": "DECIMALS",
      "outputs": [
        {
          "internalType": "uint8",
          "name": "",
          "type": "uint8"
        }
      ],
      "stateMutability": "view",
      "type": "function"
    },
    {
      "inputs": [],
      "name": "LP_PERCENTAGE",
      "outputs": [
        {
          "internalType": "uint256",
          "name": "",
          "type": "uint256"
        }
      ],
      "stateMutability": "view",
      "type": "function"
    },
    {
      "inputs": [],
      "name": "MIN_ETH_VALUE",
      "outputs": [
        {
          "internalType": "uint256",
          "name": "",
          "type": "uint256"
        }
      ],
      "stateMutability": "view",
      "type": "function"
    },
    {
      "inputs": [],
      "name": "MIN_TOTAL_SUPPLY",
      "outputs": [
        {
          "internalType": "uint256",
          "name": "",
          "type": "uint256"
        }
      ],
      "stateMutability": "view",
      "type": "function"
    },
    {
      "inputs": [],
      "name": "OLAS_BURNER",
      "outputs": [
        {
          "internalType": "address",
          "name": "",
          "type": "address"
        }
      ],
      "stateMutability": "view",
      "type": "function"
    },
    {
      "inputs": [],
      "name": "OLAS_BURN_PERCENTAGE",
      "outputs": [
        {
          "internalType": "uint256",
          "name": "",
          "type": "uint256"
        }
      ],
      "stateMutability": "view",
      "type": "function"
    },
    {
      "inputs": [],
      "name": "SLIPPAGE",
      "outputs": [
        {
          "internalType": "uint256",
          "name": "",
          "type": "uint256"
        }
      ],
      "stateMutability": "view",
      "type": "function"
    },
    {
      "inputs": [],
      "name": "TOKEN_GAS_LIMIT",
      "outputs": [
        {
          "internalType": "uint32",
          "name": "",
          "type": "uint32"
        }
      ],
      "stateMutability": "view",
      "type": "function"
    },
    {
      "inputs": [],
      "name": "UNLEASH_DELAY",
      "outputs": [
        {
          "internalType": "uint256",
          "name": "",
          "type": "uint256"
        }
      ],
      "stateMutability": "view",
      "type": "function"
    },
    {
      "inputs": [],
      "name": "VERSION",
      "outputs": [
        {
          "internalType": "string",
          "name": "",
          "type": "string"
        }
      ],
      "stateMutability": "view",
      "type": "function"
    },
    {
      "inputs": [],
      "name": "balancerPoolId",
      "outputs": [
        {
          "internalType": "bytes32",
          "name": "",
          "type": "bytes32"
        }
      ],
      "stateMutability": "view",
      "type": "function"
    },
    {
      "inputs": [],
      "name": "balancerVault",
      "outputs": [
        {
          "internalType": "address",
          "name": "",
          "type": "address"
        }
      ],
      "stateMutability": "view",
      "type": "function"
    },
    {
      "inputs": [
        {
          "internalType": "address",
          "name": "memeToken",
          "type": "address"
        }
      ],
      "name": "collectThisMeme",
      "outputs": [],
      "stateMutability": "nonpayable",
      "type": "function"
    },
    {
      "inputs": [],
      "name": "factory",
      "outputs": [
        {
          "internalType": "address",
          "name": "",
          "type": "address"
        }
      ],
      "stateMutability": "view",
      "type": "function"
    },
    {
      "inputs": [
        {
          "internalType": "address",
          "name": "memeToken",
          "type": "address"
        }
      ],
      "name": "heartThisMeme",
      "outputs": [],
      "stateMutability": "payable",
      "type": "function"
    },
    {
      "inputs": [],
      "name": "l2TokenRelayer",
      "outputs": [
        {
          "internalType": "address",
          "name": "",
          "type": "address"
        }
      ],
      "stateMutability": "view",
      "type": "function"
    },
    {
      "inputs": [
        {
          "internalType": "address",
          "name": "",
          "type": "address"
        },
        {
          "internalType": "address",
          "name": "",
          "type": "address"
        }
      ],
      "name": "memeHearters",
      "outputs": [
        {
          "internalType": "uint256",
          "name": "",
          "type": "uint256"
        }
      ],
      "stateMutability": "view",
      "type": "function"
    },
    {
      "inputs": [
        {
          "internalType": "address",
          "name": "",
          "type": "address"
        }
      ],
      "name": "memeSummons",
      "outputs": [
        {
          "internalType": "uint256",
          "name": "ethContributed",
          "type": "uint256"
        },
        {
          "internalType": "uint256",
          "name": "summonTime",
          "type": "uint256"
        },
        {
          "internalType": "uint256",
          "name": "unleashTime",
          "type": "uint256"
        },
        {
          "internalType": "uint256",
          "name": "heartersAmount",
          "type": "uint256"
        }
      ],
      "stateMutability": "view",
      "type": "function"
    },
    {
      "inputs": [
        {
          "internalType": "uint256",
          "name": "",
          "type": "uint256"
        }
      ],
      "name": "memeTokens",
      "outputs": [
        {
          "internalType": "address",
          "name": "",
          "type": "address"
        }
      ],
      "stateMutability": "view",
      "type": "function"
    },
    {
      "inputs": [],
      "name": "numTokens",
      "outputs": [
        {
          "internalType": "uint256",
          "name": "",
          "type": "uint256"
        }
      ],
      "stateMutability": "view",
      "type": "function"
    },
    {
      "inputs": [],
      "name": "olas",
      "outputs": [
        {
          "internalType": "address",
          "name": "",
          "type": "address"
        }
      ],
      "stateMutability": "view",
      "type": "function"
    },
    {
      "inputs": [],
      "name": "oracle",
      "outputs": [
        {
          "internalType": "address",
          "name": "",
          "type": "address"
        }
      ],
      "stateMutability": "view",
      "type": "function"
    },
    {
      "inputs": [
        {
          "internalType": "address",
          "name": "memeToken",
          "type": "address"
        }
      ],
      "name": "purgeThisMeme",
      "outputs": [],
      "stateMutability": "nonpayable",
      "type": "function"
    },
    {
      "inputs": [],
      "name": "router",
      "outputs": [
        {
          "internalType": "address",
          "name": "",
          "type": "address"
        }
      ],
      "stateMutability": "view",
      "type": "function"
    },
    {
      "inputs": [
        {
          "internalType": "uint256",
          "name": "olasSpotPrice",
          "type": "uint256"
        }
      ],
      "name": "scheduleOLASForAscendance",
      "outputs": [],
      "stateMutability": "nonpayable",
      "type": "function"
    },
    {
      "inputs": [],
      "name": "scheduledForAscendance",
      "outputs": [
        {
          "internalType": "uint256",
          "name": "",
          "type": "uint256"
        }
      ],
      "stateMutability": "view",
      "type": "function"
    },
    {
      "inputs": [
        {
          "internalType": "string",
          "name": "name",
          "type": "string"
        },
        {
          "internalType": "string",
          "name": "symbol",
          "type": "string"
        },
        {
          "internalType": "uint256",
          "name": "totalSupply",
          "type": "uint256"
        }
      ],
      "name": "summonThisMeme",
      "outputs": [],
      "stateMutability": "payable",
      "type": "function"
    },
    {
      "inputs": [
        {
          "internalType": "address",
          "name": "memeToken",
          "type": "address"
        }
      ],
      "name": "unleashThisMeme",
      "outputs": [],
      "stateMutability": "nonpayable",
      "type": "function"
    },
    {
      "inputs": [],
      "name": "usdc",
      "outputs": [
        {
          "internalType": "address",
          "name": "",
          "type": "address"
        }
      ],
      "stateMutability": "view",
      "type": "function"
    },
    {
      "inputs": [],
      "name": "weth",
      "outputs": [
        {
          "internalType": "address",
          "name": "",
          "type": "address"
        }
      ],
      "stateMutability": "view",
      "type": "function"
    },
    {
      "stateMutability": "payable",
      "type": "receive"
    }
  ],
  "bytecode": "0x6101a0604052348015610010575f5ffd5b50604051613c79380380613c7983398101604081905261002f9161008d565b6001600160a01b0398891660a05296881660c05294871660e052928616610100529085166101205284166101405283166101605290911661018052608052610128565b80516001600160a01b0381168114610088575f5ffd5b919050565b5f5f5f5f5f5f5f5f5f6101208a8c0312156100a6575f5ffd5b6100af8a610072565b98506100bd60208b01610072565b97506100cb60408b01610072565b96506100d960608b01610072565b95506100e760808b01610072565b94506100f560a08b01610072565b935061010360c08b01610072565b925061011160e08b01610072565b91506101008a015190509295985092959850929598565b60805160a05160c05160e0516101005161012051610140516101605161018051613a526102275f395f81816102f1015281816114ab015261168d01525f81816104780152611ab601525f81816104e50152818161175101526118b301525f81816105400152611d3a01525f818161064401528181611be201528181611de101528181611ebd0152611fcb01525f81816103c401526119da01525f8181610391015281816114dc0152818161159601528181611a4701528181611d0601528181611e130152611f7401525f81816101ee015281816115bd01528181611780015281816118e0015261194201525f81816105bc01526115550152613a525ff3fe6080604052600436106101d2575f3560e01c80637dc0d1d0116100fd578063c694067211610092578063f74e481b11610062578063f74e481b146105de578063f76c6037146105fd578063f887ea4014610633578063ffa1ad7414610666575f5ffd5b8063c694067214610562578063d1b0c28814610581578063dab346ff14610597578063dbbb64b9146105ab575f5ffd5b8063a7be1b50116100cd578063a7be1b50146104d4578063b1bd3c9514610507578063be399e2b1461051a578063c45a01551461052f575f5ffd5b80637dc0d1d0146104675780638b9ee6101461049a5780638e499bcf146104ad5780639823bb13146104c1575f5ffd5b806336b4134a11610173578063466ffbce11610143578063466ffbce146103e65780634c1c6cbf146104055780635122c409146104305780636c00857b1461044d575f5ffd5b806336b4134a1461034d5780633d0cc375146103615780633e413bee146103805780633fc8cef3146103b3575f5ffd5b806314c7312b116101ae57806314c7312b1461027f578063158274a5146102e05780632e0f26251461031357806335f9f8d914610339575f5ffd5b806231d115146101dd57806308f392781461023a5780630a42f8bd1461025b575f5ffd5b366101d957005b5f5ffd5b3480156101e8575f5ffd5b506102107f000000000000000000000000000000000000000000000000000000000000000081565b60405173ffffffffffffffffffffffffffffffffffffffff90911681526020015b60405180910390f35b348015610245575f5ffd5b50610259610254366004612176565b6106bb565b005b348015610266575f5ffd5b506102716202a30081565b604051908152602001610231565b34801561028a575f5ffd5b506102c06102993660046121b1565b600160208190525f9182526040909120805491810154600282015460039092015490919084565b604080519485526020850193909352918301526060820152608001610231565b3480156102eb575f5ffd5b506102107f000000000000000000000000000000000000000000000000000000000000000081565b34801561031e575f5ffd5b50610327601281565b60405160ff9091168152602001610231565b348015610344575f5ffd5b50610271603281565b348015610358575f5ffd5b50610271606181565b34801561036c575f5ffd5b5061025961037b3660046121b1565b61074b565b34801561038b575f5ffd5b506102107f000000000000000000000000000000000000000000000000000000000000000081565b3480156103be575f5ffd5b506102107f000000000000000000000000000000000000000000000000000000000000000081565b3480156103f1575f5ffd5b50610210610400366004612176565b610a9a565b348015610410575f5ffd5b5061041b620493e081565b60405163ffffffff9091168152602001610231565b34801561043b575f5ffd5b5061027169d3c21bcecceda100000081565b348015610458575f5ffd5b50610271662386f26fc1000081565b348015610472575f5ffd5b506102107f000000000000000000000000000000000000000000000000000000000000000081565b3480156104a5575f5ffd5b506102105f81565b3480156104b8575f5ffd5b506102715f5481565b6102596104cf3660046121b1565b610acf565b3480156104df575f5ffd5b506102107f000000000000000000000000000000000000000000000000000000000000000081565b6102596105153660046122d9565b610cfe565b348015610525575f5ffd5b5061027160045481565b34801561053a575f5ffd5b506102107f000000000000000000000000000000000000000000000000000000000000000081565b34801561056d575f5ffd5b5061025961057c3660046121b1565b610f50565b34801561058c575f5ffd5b506102716201518081565b3480156105a2575f5ffd5b50610271600a81565b3480156105b6575f5ffd5b506102717f000000000000000000000000000000000000000000000000000000000000000081565b3480156105e9575f5ffd5b506102596105f83660046121b1565b611263565b348015610608575f5ffd5b50610271610617366004612347565b600260209081525f928352604080842090915290825290205481565b34801561063e575f5ffd5b506102107f000000000000000000000000000000000000000000000000000000000000000081565b348015610671575f5ffd5b506106ae6040518060400160405280600581526020017f302e312e3000000000000000000000000000000000000000000000000000000081525081565b60405161023191906123ca565b5f6004541161072b576040517f08c379a000000000000000000000000000000000000000000000000000000000815260206004820152600f60248201527f4e6f7468696e6720746f206275726e000000000000000000000000000000000060448201526064015b60405180910390fd5b5f6107386004548361146e565b5f600455905061074781611714565b5050565b73ffffffffffffffffffffffffffffffffffffffff81165f9081526001602081815260409283902083516080810185528154815292810154918301829052600281015493830193909352600390920154606082015290610807576040517f08c379a000000000000000000000000000000000000000000000000000000000815260206004820152601160248201527f4d656d65206e6f742073756d6d6f6e65640000000000000000000000000000006044820152606401610722565b6202a300816020015161081a9190612409565b42116108a8576040517f08c379a000000000000000000000000000000000000000000000000000000000815260206004820152602d60248201527f5075726765206f6e6c7920616c6c6f7765642066726f6d20343820686f75727360448201527f2061667465722073756d6d6f6e000000000000000000000000000000000000006064820152608401610722565b6040517f70a0823100000000000000000000000000000000000000000000000000000000815230600482015282905f9073ffffffffffffffffffffffffffffffffffffffff8316906370a0823190602401602060405180830381865afa158015610914573d5f5f3e3d5ffd5b505050506040513d601f19601f82011682018060405250810190610938919061241c565b90505f81116109c9576040517f08c379a000000000000000000000000000000000000000000000000000000000815260206004820152602360248201527f486173206265656e20707572676564206f72206e6f7468696e6720746f20707560448201527f72676500000000000000000000000000000000000000000000000000000000006064820152608401610722565b6040517f42966c680000000000000000000000000000000000000000000000000000000081526004810182905273ffffffffffffffffffffffffffffffffffffffff8316906342966c68906024015f604051808303815f87803b158015610a2e575f5ffd5b505af1158015610a40573d5f5f3e3d5ffd5b505050508373ffffffffffffffffffffffffffffffffffffffff167f265db6c9c62cb962adbcf4398a54e4b02b2d87b28ab5b7538850150465a5f43c82604051610a8c91815260200190565b60405180910390a250505050565b60038181548110610aa9575f80fd5b5f9182526020909120015473ffffffffffffffffffffffffffffffffffffffff16905081565b5f3411610b5d576040517f08c379a0000000000000000000000000000000000000000000000000000000008152602060048201526024808201527f45544820616d6f756e74206d7573742062652067726561746572207468616e2060448201527f7a65726f000000000000000000000000000000000000000000000000000000006064820152608401610722565b73ffffffffffffffffffffffffffffffffffffffff81165f908152600160205260409020805480610bea576040517f08c379a000000000000000000000000000000000000000000000000000000000815260206004820152601560248201527f4d656d65206e6f74207965742073756d6d6f6e656400000000000000000000006044820152606401610722565b600282015415610c56576040517f08c379a000000000000000000000000000000000000000000000000000000000815260206004820152601660248201527f4d656d6520616c726561647920756e6c656173686564000000000000000000006044820152606401610722565b610c603482612409565b80835573ffffffffffffffffffffffffffffffffffffffff84165f908152600260209081526040808320338452909152812080549293503492909190610ca7908490612409565b909155505060405134815273ffffffffffffffffffffffffffffffffffffffff84169033907fb4dec46ff7703ee80325aa5ed4df0691d6d8791df96b50240552403cec1c9eda9060200160405180910390a3505050565b662386f26fc10000341015610d95576040517f08c379a000000000000000000000000000000000000000000000000000000000815260206004820152602760248201527f4d696e696d756d204554482076616c756520697320726571756972656420746f60448201527f2073756d6d6f6e000000000000000000000000000000000000000000000000006064820152608401610722565b69d3c21bcecceda1000000811015610e09576040517f08c379a000000000000000000000000000000000000000000000000000000000815260206004820152601f60248201527f4d696e696d756d20746f74616c20737570706c79206973206e6f74206d6574006044820152606401610722565b5f8383601284604051610e1b90612169565b610e289493929190612433565b604051809103905ff080158015610e41573d5f5f3e3d5ffd5b5060408051608081018252348082524260208084019182525f8486018181526060860182815273ffffffffffffffffffffffffffffffffffffffff891680845260018086528985209851895595518887015591516002808901919091559051600397880155835286822033808452908452878320869055865494850187558683527fc2575a0e9e593c00f959f8c92f12db2869c3395a3b0502d05e2516446f71f85b90940180547fffffffffffffffffffffffff00000000000000000000000000000000000000001682179055945490559351918252939450849391927f109fe5b1a043e1fc6e8b6f4905613c0a5b82de0d8798558c67f0243106b2d7ad910160405180910390a35050505050565b73ffffffffffffffffffffffffffffffffffffffff81165f908152600160208190526040909120805491810154909190610fe6576040517f08c379a000000000000000000000000000000000000000000000000000000000815260206004820152601160248201527f4d656d65206e6f742073756d6d6f6e65640000000000000000000000000000006044820152606401610722565b620151808260010154610ff99190612409565b421015611062576040517f08c379a000000000000000000000000000000000000000000000000000000000815260206004820152601260248201527f43616e6e6f7420756e6c656173682079657400000000000000000000000000006044820152606401610722565b5f61106c826119b4565b90505f606461107c600a8461246e565b6110869190612485565b90508060045f8282546110999190612409565b909155506110a9905081836124bd565b91505f8590505f8173ffffffffffffffffffffffffffffffffffffffff166318160ddd6040518163ffffffff1660e01b8152600401602060405180830381865afa1580156110f9573d5f5f3e3d5ffd5b505050506040513d601f19601f8201168201806040525081019061111d919061241c565b90505f606461112d60328461246e565b6111379190612485565b90505f61114482846124bd565b90505f5f6111538b8986611cc9565b426002808e019190915560038d0186905573ffffffffffffffffffffffffffffffffffffffff8e165f9081526020918252604080822033835290925220549193509150156111d85773ffffffffffffffffffffffffffffffffffffffff8b165f9081526002602090815260408083203384529091529020546111d8908c90858c612044565b8173ffffffffffffffffffffffffffffffffffffffff168b73ffffffffffffffffffffffffffffffffffffffff163373ffffffffffffffffffffffffffffffffffffffff167fcaeb7f76e7446747e5e9f0836b17f463bfe281895f20e99189de6d2b418adb988460405161124e91815260200190565b60405180910390a45050505050505050505050565b73ffffffffffffffffffffffffffffffffffffffff81165f90815260016020818152604092839020835160808101855281548152928101549183019190915260028101549282018390526003015460608201529061131d576040517f08c379a000000000000000000000000000000000000000000000000000000000815260206004820152601260248201527f4d656d65206e6f7420756e6c65617368656400000000000000000000000000006044820152606401610722565b6202a30081602001516113309190612409565b4211156113bf576040517f08c379a000000000000000000000000000000000000000000000000000000000815260206004820152603060248201527f436f6c6c656374206f6e6c7920616c6c6f77656420756e74696c20343820686f60448201527f7572732061667465722073756d6d6f6e000000000000000000000000000000006064820152608401610722565b73ffffffffffffffffffffffffffffffffffffffff82165f90815260026020908152604080832033845290915290205480611456576040517f08c379a000000000000000000000000000000000000000000000000000000000815260206004820152601360248201527f4e6f20746f6b656e20616c6c6f636174696f6e000000000000000000000000006044820152606401610722565b61146983828460600151855f0151612044565b505050565b6040517f095ea7b300000000000000000000000000000000000000000000000000000000815273ffffffffffffffffffffffffffffffffffffffff7f000000000000000000000000000000000000000000000000000000000000000081166004830152602482018490525f917f00000000000000000000000000000000000000000000000000000000000000009091169063095ea7b3906044016020604051808303815f875af1158015611524573d5f5f3e3d5ffd5b505050506040513d601f19601f8201168201806040525081019061154891906124d0565b506040805160c0810182527f000000000000000000000000000000000000000000000000000000000000000081525f602080830182905273ffffffffffffffffffffffffffffffffffffffff7f00000000000000000000000000000000000000000000000000000000000000008116848601527f000000000000000000000000000000000000000000000000000000000000000016606080850191909152608080850189905285518087018752600281527f30780000000000000000000000000000000000000000000000000000000000008185015260a0860152855190810186523080825292810184905294850191909152830181905290919061164d858761246e565b6040517f52bbbe2900000000000000000000000000000000000000000000000000000000815290915073ffffffffffffffffffffffffffffffffffffffff7f000000000000000000000000000000000000000000000000000000000000000016906352bbbe29906116c89086908690869042906004016124ef565b6020604051808303815f875af11580156116e4573d5f5f3e3d5ffd5b505050506040513d601f19601f82011682018060405250810190611708919061241c565b93505050505b92915050565b6040517f095ea7b300000000000000000000000000000000000000000000000000000000815273ffffffffffffffffffffffffffffffffffffffff7f000000000000000000000000000000000000000000000000000000000000000081166004830152602482018390527f0000000000000000000000000000000000000000000000000000000000000000169063095ea7b3906044016020604051808303815f875af11580156117c6573d5f5f3e3d5ffd5b505050506040513d601f19601f820116820180604052508101906117ea91906124d0565b505f816040516024016117ff91815260200190565b604080517fffffffffffffffffffffffffffffffffffffffffffffffffffffffffffffffe08184030181529181526020820180517bffffffffffffffffffffffffffffffffffffffffffffffffffffffff167f42966c6800000000000000000000000000000000000000000000000000000000179052517fa3a7954800000000000000000000000000000000000000000000000000000000815290915073ffffffffffffffffffffffffffffffffffffffff7f0000000000000000000000000000000000000000000000000000000000000000169063a3a7954890611913907f0000000000000000000000000000000000000000000000000000000000000000905f908790620493e090889060040161261e565b5f604051808303815f87803b15801561192a575f5ffd5b505af115801561193c573d5f5f3e3d5ffd5b505050507f000000000000000000000000000000000000000000000000000000000000000073ffffffffffffffffffffffffffffffffffffffff167f40a3e75fd2efcf074c9c0520c5367ccb3093ded646970bdc8c3108748e5d3f0e836040516119a891815260200190565b60405180910390a25050565b6040805160028082526060820183525f92839291906020830190803683370190505090507f0000000000000000000000000000000000000000000000000000000000000000815f81518110611a0b57611a0b612685565b602002602001019073ffffffffffffffffffffffffffffffffffffffff16908173ffffffffffffffffffffffffffffffffffffffff16815250507f000000000000000000000000000000000000000000000000000000000000000081600181518110611a7957611a79612685565b602002602001019073ffffffffffffffffffffffffffffffffffffffff16908173ffffffffffffffffffffffffffffffffffffffff16815250505f7f000000000000000000000000000000000000000000000000000000000000000073ffffffffffffffffffffffffffffffffffffffff1663feaf968c6040518163ffffffff1660e01b815260040160a0604051808303815f875af1158015611b1e573d5f5f3e3d5ffd5b505050506040513d601f19601f82011682018060405250810190611b4291906126d0565b5050509150505f8113611bb1576040517f08c379a000000000000000000000000000000000000000000000000000000000815260206004820152601960248201527f4f7261636c6520707269636520697320696e636f7272656374000000000000006044820152606401610722565b5f69021e19e0c9bab24000006061611bc9878561246e565b611bd3919061246e565b611bdd9190612485565b90505f7f000000000000000000000000000000000000000000000000000000000000000073ffffffffffffffffffffffffffffffffffffffff16637ff36ab587848730426040518663ffffffff1660e01b8152600401611c40949392919061271e565b5f6040518083038185885af1158015611c5b573d5f5f3e3d5ffd5b50505050506040513d5f823e601f3d9081017fffffffffffffffffffffffffffffffffffffffffffffffffffffffffffffffe0168201604052611ca191908101906127a1565b905080600181518110611cb657611cb6612685565b6020026020010151945050505050919050565b6040517fc9c6539600000000000000000000000000000000000000000000000000000000815273ffffffffffffffffffffffffffffffffffffffff7f00000000000000000000000000000000000000000000000000000000000000008116600483015284811660248301525f9182917f0000000000000000000000000000000000000000000000000000000000000000169063c9c65396906044016020604051808303815f875af1158015611d80573d5f5f3e3d5ffd5b505050506040513d601f19601f82011682018060405250810190611da49190612842565b6040517f095ea7b300000000000000000000000000000000000000000000000000000000815273ffffffffffffffffffffffffffffffffffffffff7f000000000000000000000000000000000000000000000000000000000000000081166004830152602482018790529193507f00000000000000000000000000000000000000000000000000000000000000009091169063095ea7b3906044016020604051808303815f875af1158015611e5b573d5f5f3e3d5ffd5b505050506040513d601f19601f82011682018060405250810190611e7f91906124d0565b506040517f095ea7b300000000000000000000000000000000000000000000000000000000815273ffffffffffffffffffffffffffffffffffffffff7f0000000000000000000000000000000000000000000000000000000000000000811660048301526024820185905286169063095ea7b3906044016020604051808303815f875af1158015611f12573d5f5f3e3d5ffd5b505050506040513d601f19601f82011682018060405250810190611f3691906124d0565b506040517fe8e3370000000000000000000000000000000000000000000000000000000000815273ffffffffffffffffffffffffffffffffffffffff7f000000000000000000000000000000000000000000000000000000000000000081166004830152868116602483015260448201869052606482018590525f6084830181905260a48301523060c48301524260e48301527f0000000000000000000000000000000000000000000000000000000000000000169063e8e3370090610104016060604051808303815f875af1158015612012573d5f5f3e3d5ffd5b505050506040513d601f19601f82011682018060405250810190612036919061285d565b939793965092945050505050565b835f82612051858761246e565b61205b9190612485565b73ffffffffffffffffffffffffffffffffffffffff8781165f9081526002602090815260408083203380855292528083209290925590517fa9059cbb00000000000000000000000000000000000000000000000000000000815260048101919091526024810183905291925083169063a9059cbb906044016020604051808303815f875af11580156120ef573d5f5f3e3d5ffd5b505050506040513d601f19601f8201168201806040525081019061211391906124d0565b5060405181815273ffffffffffffffffffffffffffffffffffffffff87169033907f484decdc1e9549e1866295f6f86c889ded3f7de410e7488a7a415978589dc8fd9060200160405180910390a3505050505050565b6111948061288983390190565b5f60208284031215612186575f5ffd5b5035919050565b73ffffffffffffffffffffffffffffffffffffffff811681146121ae575f5ffd5b50565b5f602082840312156121c1575f5ffd5b81356121cc8161218d565b9392505050565b7f4e487b71000000000000000000000000000000000000000000000000000000005f52604160045260245ffd5b604051601f82017fffffffffffffffffffffffffffffffffffffffffffffffffffffffffffffffe016810167ffffffffffffffff81118282101715612247576122476121d3565b604052919050565b5f82601f83011261225e575f5ffd5b813567ffffffffffffffff811115612278576122786121d3565b6122a960207fffffffffffffffffffffffffffffffffffffffffffffffffffffffffffffffe0601f84011601612200565b8181528460208386010111156122bd575f5ffd5b816020850160208301375f918101602001919091529392505050565b5f5f5f606084860312156122eb575f5ffd5b833567ffffffffffffffff811115612301575f5ffd5b61230d8682870161224f565b935050602084013567ffffffffffffffff811115612329575f5ffd5b6123358682870161224f565b93969395505050506040919091013590565b5f5f60408385031215612358575f5ffd5b82356123638161218d565b915060208301356123738161218d565b809150509250929050565b5f81518084528060208401602086015e5f6020828601015260207fffffffffffffffffffffffffffffffffffffffffffffffffffffffffffffffe0601f83011685010191505092915050565b602081525f6121cc602083018461237e565b7f4e487b71000000000000000000000000000000000000000000000000000000005f52601160045260245ffd5b8082018082111561170e5761170e6123dc565b5f6020828403121561242c575f5ffd5b5051919050565b608081525f612445608083018761237e565b8281036020840152612457818761237e565b60ff95909516604084015250506060015292915050565b808202811582820484141761170e5761170e6123dc565b5f826124b8577f4e487b71000000000000000000000000000000000000000000000000000000005f52601260045260245ffd5b500490565b8181038181111561170e5761170e6123dc565b5f602082840312156124e0575f5ffd5b815180151581146121cc575f5ffd5b60e08152845160e08201525f602086015160028110612535577f4e487b71000000000000000000000000000000000000000000000000000000005f52602160045260245ffd5b610100830152604086015173ffffffffffffffffffffffffffffffffffffffff16610120830152606086015161258461014084018273ffffffffffffffffffffffffffffffffffffffff169052565b50608086015161016083015260a086015160c06101808401526125ab6101a084018261237e565b91505061260c602083018673ffffffffffffffffffffffffffffffffffffffff815116825260208101511515602083015273ffffffffffffffffffffffffffffffffffffffff60408201511660408301526060810151151560608301525050565b60a082019390935260c0015292915050565b73ffffffffffffffffffffffffffffffffffffffff8616815273ffffffffffffffffffffffffffffffffffffffff8516602082015283604082015263ffffffff8316606082015260a060808201525f61267a60a083018461237e565b979650505050505050565b7f4e487b71000000000000000000000000000000000000000000000000000000005f52603260045260245ffd5b805169ffffffffffffffffffff811681146126cb575f5ffd5b919050565b5f5f5f5f5f60a086880312156126e4575f5ffd5b6126ed866126b2565b60208701516040880151606089015192975090955093509150612712608087016126b2565b90509295509295909350565b5f608082018683526080602084015280865180835260a0850191506020880192505f5b8181101561277557835173ffffffffffffffffffffffffffffffffffffffff16835260209384019390920191600101612741565b505073ffffffffffffffffffffffffffffffffffffffff95909516604084015250506060015292915050565b5f602082840312156127b1575f5ffd5b815167ffffffffffffffff8111156127c7575f5ffd5b8201601f810184136127d7575f5ffd5b805167ffffffffffffffff8111156127f1576127f16121d3565b8060051b61280160208201612200565b9182526020818401810192908101908784111561281c575f5ffd5b6020850194505b8385101561267a57845180835260209586019590935090910190612823565b5f60208284031215612852575f5ffd5b81516121cc8161218d565b5f5f5f6060848603121561286f575f5ffd5b505081516020830151604090930151909492935091905056fe60e060405234801561000f575f5ffd5b5060405161119438038061119483398101604081905261002e91610216565b8383835f61003c848261031d565b506001610049838261031d565b5060ff81166080524660a05261005d610078565b60c0525061006f915033905082610110565b5050505061046d565b5f7f8b73c3c69bb8fe3d512ecc4cf759cc79239f7b179b0ffacaa9a75d522b39400f5f6040516100a891906103d7565b6040805191829003822060208301939093528101919091527fc89efdaa54c0f20c7adf612882df0950f5a951637e0307cdcb4c672f298b8bc660608201524660808201523060a082015260c00160405160208183030381529060405280519060200120905090565b8060025f8282546101219190610448565b90915550506001600160a01b0382165f818152600360209081526040808320805486019055518481527fddf252ad1be2c89b69c2b068fc378daa952ba7f163c4a11628f55a4df523b3ef910160405180910390a35050565b634e487b7160e01b5f52604160045260245ffd5b5f82601f83011261019c575f5ffd5b81516001600160401b038111156101b5576101b5610179565b604051601f8201601f19908116603f011681016001600160401b03811182821017156101e3576101e3610179565b6040528181528382016020018510156101fa575f5ffd5b8160208501602083015e5f918101602001919091529392505050565b5f5f5f5f60808587031215610229575f5ffd5b84516001600160401b0381111561023e575f5ffd5b61024a8782880161018d565b602087015190955090506001600160401b03811115610267575f5ffd5b6102738782880161018d565b935050604085015160ff81168114610289575f5ffd5b6060959095015193969295505050565b600181811c908216806102ad57607f821691505b6020821081036102cb57634e487b7160e01b5f52602260045260245ffd5b50919050565b601f82111561031857805f5260205f20601f840160051c810160208510156102f65750805b601f840160051c820191505b81811015610315575f8155600101610302565b50505b505050565b81516001600160401b0381111561033657610336610179565b61034a816103448454610299565b846102d1565b6020601f82116001811461037c575f83156103655750848201515b5f19600385901b1c1916600184901b178455610315565b5f84815260208120601f198516915b828110156103ab578785015182556020948501946001909201910161038b565b50848210156103c857868401515f19600387901b60f8161c191681555b50505050600190811b01905550565b5f5f83546103e481610299565b6001821680156103fb57600181146104105761043d565b60ff198316865281151582028601935061043d565b865f5260205f205f5b8381101561043557815488820152600190910190602001610419565b505081860193505b509195945050505050565b8082018082111561046757634e487b7160e01b5f52601160045260245ffd5b92915050565b60805160a05160c051610cfd6104975f395f6104b101525f61047c01525f61014e0152610cfd5ff3fe608060405234801561000f575f5ffd5b50600436106100da575f3560e01c806342966c681161008857806395d89b411161006357806395d89b41146101dd578063a9059cbb146101e5578063d505accf146101f8578063dd62ed3e1461020b575f5ffd5b806342966c681461018a57806370a082311461019f5780637ecebe00146101be575f5ffd5b806323b872dd116100b857806323b872dd14610136578063313ce567146101495780633644e51514610182575f5ffd5b806306fdde03146100de578063095ea7b3146100fc57806318160ddd1461011f575b5f5ffd5b6100e6610235565b6040516100f391906109b9565b60405180910390f35b61010f61010a366004610a34565b6102c0565b60405190151581526020016100f3565b61012860025481565b6040519081526020016100f3565b61010f610144366004610a5c565b610339565b6101707f000000000000000000000000000000000000000000000000000000000000000081565b60405160ff90911681526020016100f3565b610128610479565b61019d610198366004610a96565b6104d3565b005b6101286101ad366004610aad565b60036020525f908152604090205481565b6101286101cc366004610aad565b60056020525f908152604090205481565b6100e66104e0565b61010f6101f3366004610a34565b6104ed565b61019d610206366004610acd565b610570565b610128610219366004610b3a565b600460209081525f928352604080842090915290825290205481565b5f805461024190610b6b565b80601f016020809104026020016040519081016040528092919081815260200182805461026d90610b6b565b80156102b85780601f1061028f576101008083540402835291602001916102b8565b820191905f5260205f20905b81548152906001019060200180831161029b57829003601f168201915b505050505081565b335f81815260046020908152604080832073ffffffffffffffffffffffffffffffffffffffff8716808552925280832085905551919290917f8c5be1e5ebec7d5bd14f71427d1e84f3dd0314c0f7b2291e5b200ac8c7c3b925906103279086815260200190565b60405180910390a35060015b92915050565b73ffffffffffffffffffffffffffffffffffffffff83165f9081526004602090815260408083203384529091528120547fffffffffffffffffffffffffffffffffffffffffffffffffffffffffffffffff81146103cb5761039a8382610bbc565b73ffffffffffffffffffffffffffffffffffffffff86165f9081526004602090815260408083203384529091529020555b73ffffffffffffffffffffffffffffffffffffffff85165f90815260036020526040812080548592906103ff908490610bbc565b909155505073ffffffffffffffffffffffffffffffffffffffff8085165f81815260036020526040908190208054870190555190918716907fddf252ad1be2c89b69c2b068fc378daa952ba7f163c4a11628f55a4df523b3ef906104669087815260200190565b60405180910390a3506001949350505050565b5f7f000000000000000000000000000000000000000000000000000000000000000046146104ae576104a961088e565b905090565b507f000000000000000000000000000000000000000000000000000000000000000090565b6104dd3382610926565b50565b6001805461024190610b6b565b335f9081526003602052604081208054839190839061050d908490610bbc565b909155505073ffffffffffffffffffffffffffffffffffffffff83165f81815260036020526040908190208054850190555133907fddf252ad1be2c89b69c2b068fc378daa952ba7f163c4a11628f55a4df523b3ef906103279086815260200190565b428410156105df576040517f08c379a000000000000000000000000000000000000000000000000000000000815260206004820152601760248201527f5045524d49545f444541444c494e455f4558504952454400000000000000000060448201526064015b60405180910390fd5b5f60016105ea610479565b73ffffffffffffffffffffffffffffffffffffffff8a81165f8181526005602090815260409182902080546001810190915582517f6e71edae12b1b97f4d1f60370fef10105fa2faae0126114a169c64845d6126c98184015280840194909452938d166060840152608083018c905260a083019390935260c08083018b90528151808403909101815260e0830190915280519201919091207f190100000000000000000000000000000000000000000000000000000000000061010083015261010282019290925261012281019190915261014201604080517fffffffffffffffffffffffffffffffffffffffffffffffffffffffffffffffe081840301815282825280516020918201205f84529083018083525260ff871690820152606081018590526080810184905260a0016020604051602081039080840390855afa158015610738573d5f5f3e3d5ffd5b50506040517fffffffffffffffffffffffffffffffffffffffffffffffffffffffffffffffe0015191505073ffffffffffffffffffffffffffffffffffffffff8116158015906107b357508773ffffffffffffffffffffffffffffffffffffffff168173ffffffffffffffffffffffffffffffffffffffff16145b610819576040517f08c379a000000000000000000000000000000000000000000000000000000000815260206004820152600e60248201527f494e56414c49445f5349474e455200000000000000000000000000000000000060448201526064016105d6565b73ffffffffffffffffffffffffffffffffffffffff9081165f9081526004602090815260408083208a8516808552908352928190208990555188815291928a16917f8c5be1e5ebec7d5bd14f71427d1e84f3dd0314c0f7b2291e5b200ac8c7c3b925910160405180910390a350505050505050565b5f7f8b73c3c69bb8fe3d512ecc4cf759cc79239f7b179b0ffacaa9a75d522b39400f5f6040516108be9190610bf4565b6040805191829003822060208301939093528101919091527fc89efdaa54c0f20c7adf612882df0950f5a951637e0307cdcb4c672f298b8bc660608201524660808201523060a082015260c00160405160208183030381529060405280519060200120905090565b73ffffffffffffffffffffffffffffffffffffffff82165f908152600360205260408120805483929061095a908490610bbc565b90915550506002805482900390556040518181525f9073ffffffffffffffffffffffffffffffffffffffff8416907fddf252ad1be2c89b69c2b068fc378daa952ba7f163c4a11628f55a4df523b3ef9060200160405180910390a35050565b602081525f82518060208401528060208501604085015e5f6040828501015260407fffffffffffffffffffffffffffffffffffffffffffffffffffffffffffffffe0601f83011684010191505092915050565b803573ffffffffffffffffffffffffffffffffffffffff81168114610a2f575f5ffd5b919050565b5f5f60408385031215610a45575f5ffd5b610a4e83610a0c565b946020939093013593505050565b5f5f5f60608486031215610a6e575f5ffd5b610a7784610a0c565b9250610a8560208501610a0c565b929592945050506040919091013590565b5f60208284031215610aa6575f5ffd5b5035919050565b5f60208284031215610abd575f5ffd5b610ac682610a0c565b9392505050565b5f5f5f5f5f5f5f60e0888a031215610ae3575f5ffd5b610aec88610a0c565b9650610afa60208901610a0c565b95506040880135945060608801359350608088013560ff81168114610b1d575f5ffd5b9699959850939692959460a0840135945060c09093013592915050565b5f5f60408385031215610b4b575f5ffd5b610b5483610a0c565b9150610b6260208401610a0c565b90509250929050565b600181811c90821680610b7f57607f821691505b602082108103610bb6577f4e487b71000000000000000000000000000000000000000000000000000000005f52602260045260245ffd5b50919050565b81810381811115610333577f4e487b71000000000000000000000000000000000000000000000000000000005f52601160045260245ffd5b5f5f83545f8160011c90506001821680610c0f57607f821691505b602082108103610c46577f4e487b71000000000000000000000000000000000000000000000000000000005f52602260045260245ffd5b808015610c5a5760018114610c8d57610cbb565b7fffffffffffffffffffffffffffffffffffffffffffffffffffffffffffffff0084168752821515830287019450610cbb565b5f888152602090205f5b84811015610cb357815489820152600190910190602001610c97565b505082870194505b5092969550505050505056fea26469706673582212205df7019458ddc6a358585d679221b07a9e24fb31dbf8c630fcd1d119dc2aee2864736f6c634300081c0033a264697066735822122022c5cc3e88f69cf8460a4b10ce339b96b5f3e5330cec6dca37fd5170b3ffbb4b64736f6c634300081c0033",
  "linkReferences": {},
  "deployedLinkReferences": {}
}