{
  "_format": "hh-sol-artifact-1",
  "contractName": "MemeActivityChecker",
  "sourceName": "contracts/MemeActivityChecker.sol",
  "abi": [
    {
      "inputs": [
        {
          "internalType": "address",
          "name": "_memeFactory",
          "type": "address"
        },
        {
          "internalType": "uint256",
          "name": "_livenessRatio",
          "type": "uint256"
        }
      ],
      "stateMutability": "nonpayable",
      "type": "constructor"
    },
    {
      "inputs": [],
      "name": "ZeroAddress",
      "type": "error"
    },
    {
      "inputs": [],
      "name": "ZeroValue",
      "type": "error"
    },
    {
      "inputs": [
        {
          "internalType": "address",
          "name": "multisig",
          "type": "address"
        }
      ],
      "name": "getMultisigNonces",
      "outputs": [
        {
          "internalType": "uint256[]",
          "name": "nonces",
          "type": "uint256[]"
        }
      ],
      "stateMutability": "view",
      "type": "function"
    },
    {
      "inputs": [
        {
          "internalType": "uint256[]",
          "name": "curNonces",
          "type": "uint256[]"
        },
        {
          "internalType": "uint256[]",
          "name": "lastNonces",
          "type": "uint256[]"
        },
        {
          "internalType": "uint256",
          "name": "ts",
          "type": "uint256"
        }
      ],
      "name": "isRatioPass",
      "outputs": [
        {
          "internalType": "bool",
          "name": "ratioPass",
          "type": "bool"
        }
      ],
      "stateMutability": "view",
      "type": "function"
    },
    {
      "inputs": [],
      "name": "livenessRatio",
      "outputs": [
        {
          "internalType": "uint256",
          "name": "",
          "type": "uint256"
        }
      ],
      "stateMutability": "view",
      "type": "function"
    },
    {
      "inputs": [],
      "name": "memeFactory",
      "outputs": [
        {
          "internalType": "address",
          "name": "",
          "type": "address"
        }
      ],
      "stateMutability": "view",
      "type": "function"
    }
  ],
  "bytecode": "0x60c060405234801561000f575f5ffd5b506040516106a53803806106a583398101604081905261002e9161008b565b6001600160a01b0382166100555760405163d92e233d60e01b815260040160405180910390fd5b805f0361007557604051637c946ed760e01b815260040160405180910390fd5b6001600160a01b0390911660a0526080526100c2565b5f5f6040838503121561009c575f5ffd5b82516001600160a01b03811681146100b2575f5ffd5b6020939093015192949293505050565b60805160a0516105b66100ef5f395f8181607b015261024f01525f818160c701526101bb01526105b65ff3fe608060405234801561000f575f5ffd5b506004361061004a575f3560e01c8063184023a51461004e5780633a1e202914610076578063592cf3fb146100c2578063d564c4bf146100f7575b5f5ffd5b61006161005c3660046103c4565b610117565b60405190151581526020015b60405180910390f35b61009d7f000000000000000000000000000000000000000000000000000000000000000081565b60405173ffffffffffffffffffffffffffffffffffffffff909116815260200161006d565b6100e97f000000000000000000000000000000000000000000000000000000000000000081565b60405190815260200161006d565b61010a610105366004610432565b6101e7565b60405161006d9190610465565b5f5f821180156101585750825f81518110610134576101346104a7565b6020026020010151845f8151811061014e5761014e6104a7565b6020026020010151115b156101e0575f82845f81518110610171576101716104a7565b6020026020010151865f8151811061018b5761018b6104a7565b602002602001015161019d9190610501565b6101af90670de0b6b3a764000061051a565b6101b99190610531565b7f000000000000000000000000000000000000000000000000000000000000000011159150505b9392505050565b60408051600180825281830190925260609160208083019080368337019050506040517f40b67a9b00000000000000000000000000000000000000000000000000000000815273ffffffffffffffffffffffffffffffffffffffff84811660048301529192507f0000000000000000000000000000000000000000000000000000000000000000909116906340b67a9b90602401602060405180830381865afa158015610296573d5f5f3e3d5ffd5b505050506040513d601f19601f820116820180604052508101906102ba9190610569565b815f815181106102cc576102cc6104a7565b602002602001018181525050919050565b7f4e487b71000000000000000000000000000000000000000000000000000000005f52604160045260245ffd5b5f82601f830112610319575f5ffd5b813567ffffffffffffffff811115610333576103336102dd565b8060051b6040517fffffffffffffffffffffffffffffffffffffffffffffffffffffffffffffffe0603f830116810181811067ffffffffffffffff8211171561037e5761037e6102dd565b60405291825260208185018101929081018684111561039b575f5ffd5b6020860192505b838310156103ba5782358152602092830192016103a2565b5095945050505050565b5f5f5f606084860312156103d6575f5ffd5b833567ffffffffffffffff8111156103ec575f5ffd5b6103f88682870161030a565b935050602084013567ffffffffffffffff811115610414575f5ffd5b6104208682870161030a565b93969395505050506040919091013590565b5f60208284031215610442575f5ffd5b813573ffffffffffffffffffffffffffffffffffffffff811681146101e0575f5ffd5b602080825282518282018190525f918401906040840190835b8181101561049c57835183526020938401939092019160010161047e565b509095945050505050565b7f4e487b71000000000000000000000000000000000000000000000000000000005f52603260045260245ffd5b7f4e487b71000000000000000000000000000000000000000000000000000000005f52601160045260245ffd5b81810381811115610514576105146104d4565b92915050565b8082028115828204841417610514576105146104d4565b5f82610564577f4e487b71000000000000000000000000000000000000000000000000000000005f52601260045260245ffd5b500490565b5f60208284031215610579575f5ffd5b505191905056fea26469706673582212200237ce05a270515db95c1f6b2b17768afe7f4860920d5c1920a1c9085ed8908564736f6c634300081c0033",
  "linkReferences": {},
  "deployedLinkReferences": {}
}