{
  "_format": "hh-sol-artifact-1",
  "contractName": "MemeCelo",
  "sourceName": "contracts/MemeCelo.sol",
  "abi": [
    {
      "inputs": [
        {
          "internalType": "address",
          "name": "_olas",
          "type": "address"
        },
        {
          "internalType": "address",
          "name": "_referenceToken",
          "type": "address"
        },
        {
          "internalType": "address",
          "name": "_router",
          "type": "address"
        },
        {
          "internalType": "address",
          "name": "_factory",
          "type": "address"
        },
        {
          "internalType": "uint256",
          "name": "_minNativeTokenValue",
          "type": "uint256"
        },
        {
          "internalType": "address",
          "name": "_celo",
          "type": "address"
        },
        {
          "internalType": "address",
          "name": "_l2TokenRelayer",
          "type": "address"
        },
        {
          "internalType": "address",
          "name": "_oracle",
          "type": "address"
        }
      ],
      "stateMutability": "nonpayable",
      "type": "constructor"
    },
    {
      "anonymous": false,
      "inputs": [
        {
          "indexed": true,
          "internalType": "address",
          "name": "hearter",
          "type": "address"
        },
        {
          "indexed": true,
          "internalType": "address",
          "name": "memeToken",
          "type": "address"
        },
        {
          "indexed": false,
          "internalType": "uint256",
          "name": "allocation",
          "type": "uint256"
        }
      ],
      "name": "Collected",
      "type": "event"
    },
    {
      "anonymous": false,
      "inputs": [
        {
          "indexed": true,
          "internalType": "address",
          "name": "hearter",
          "type": "address"
        },
        {
          "indexed": true,
          "internalType": "address",
          "name": "memeToken",
          "type": "address"
        },
        {
          "indexed": false,
          "internalType": "uint256",
          "name": "amount",
          "type": "uint256"
        }
      ],
      "name": "Hearted",
      "type": "event"
    },
    {
      "anonymous": false,
      "inputs": [
        {
          "indexed": true,
          "internalType": "address",
          "name": "olas",
          "type": "address"
        },
        {
          "indexed": false,
          "internalType": "uint256",
          "name": "amount",
          "type": "uint256"
        }
      ],
      "name": "OLASJourneyToAscendance",
      "type": "event"
    },
    {
      "anonymous": false,
      "inputs": [
        {
          "indexed": true,
          "internalType": "address",
          "name": "memeToken",
          "type": "address"
        },
        {
          "indexed": false,
          "internalType": "uint256",
          "name": "remainingAmount",
          "type": "uint256"
        }
      ],
      "name": "Purged",
      "type": "event"
    },
    {
      "anonymous": false,
      "inputs": [
        {
          "indexed": true,
          "internalType": "address",
          "name": "summoner",
          "type": "address"
        },
        {
          "indexed": true,
          "internalType": "address",
          "name": "memeToken",
          "type": "address"
        },
        {
          "indexed": false,
          "internalType": "uint256",
          "name": "nativeTokenContributed",
          "type": "uint256"
        }
      ],
      "name": "Summoned",
      "type": "event"
    },
    {
      "anonymous": false,
      "inputs": [
        {
          "indexed": true,
          "internalType": "address",
          "name": "unleasher",
          "type": "address"
        },
        {
          "indexed": true,
          "internalType": "address",
          "name": "memeToken",
          "type": "address"
        },
        {
          "indexed": true,
          "internalType": "address",
          "name": "lpPairAddress",
          "type": "address"
        },
        {
          "indexed": false,
          "internalType": "uint256",
          "name": "liquidity",
          "type": "uint256"
        },
        {
          "indexed": false,
          "internalType": "uint256",
          "name": "burnPercentageOfStable",
          "type": "uint256"
        }
      ],
      "name": "Unleashed",
      "type": "event"
    },
    {
      "inputs": [],
      "name": "COLLECT_DEADLINE",
      "outputs": [
        {
          "internalType": "uint256",
          "name": "",
          "type": "uint256"
        }
      ],
      "stateMutability": "view",
      "type": "function"
    },
    {
      "inputs": [],
      "name": "DECIMALS",
      "outputs": [
        {
          "internalType": "uint8",
          "name": "",
          "type": "uint8"
        }
      ],
      "stateMutability": "view",
      "type": "function"
    },
    {
      "inputs": [],
      "name": "LP_PERCENTAGE",
      "outputs": [
        {
          "internalType": "uint256",
          "name": "",
          "type": "uint256"
        }
      ],
      "stateMutability": "view",
      "type": "function"
    },
    {
      "inputs": [],
      "name": "MIN_TOTAL_SUPPLY",
      "outputs": [
        {
          "internalType": "uint256",
          "name": "",
          "type": "uint256"
        }
      ],
      "stateMutability": "view",
      "type": "function"
    },
    {
      "inputs": [],
      "name": "OLAS_BURNER",
      "outputs": [
        {
          "internalType": "address",
          "name": "",
          "type": "address"
        }
      ],
      "stateMutability": "view",
      "type": "function"
    },
    {
      "inputs": [],
      "name": "OLAS_BURN_PERCENTAGE",
      "outputs": [
        {
          "internalType": "uint256",
          "name": "",
          "type": "uint256"
        }
      ],
      "stateMutability": "view",
      "type": "function"
    },
    {
      "inputs": [],
      "name": "SLIPPAGE",
      "outputs": [
        {
          "internalType": "uint256",
          "name": "",
          "type": "uint256"
        }
      ],
      "stateMutability": "view",
      "type": "function"
    },
    {
      "inputs": [],
      "name": "UNLEASH_DELAY",
      "outputs": [
        {
          "internalType": "uint256",
          "name": "",
          "type": "uint256"
        }
      ],
      "stateMutability": "view",
      "type": "function"
    },
    {
      "inputs": [],
      "name": "VERSION",
      "outputs": [
        {
          "internalType": "string",
          "name": "",
          "type": "string"
        }
      ],
      "stateMutability": "view",
      "type": "function"
    },
    {
      "inputs": [],
      "name": "WORMHOLE_ETH_CHAIN_ID",
      "outputs": [
        {
          "internalType": "uint16",
          "name": "",
          "type": "uint16"
        }
      ],
      "stateMutability": "view",
      "type": "function"
    },
    {
      "inputs": [],
      "name": "celo",
      "outputs": [
        {
          "internalType": "address",
          "name": "",
          "type": "address"
        }
      ],
      "stateMutability": "view",
      "type": "function"
    },
    {
      "inputs": [
        {
          "internalType": "address",
          "name": "memeToken",
          "type": "address"
        }
      ],
      "name": "collectThisMeme",
      "outputs": [],
      "stateMutability": "nonpayable",
      "type": "function"
    },
    {
      "inputs": [],
      "name": "factory",
      "outputs": [
        {
          "internalType": "address",
          "name": "",
          "type": "address"
        }
      ],
      "stateMutability": "view",
      "type": "function"
    },
    {
      "inputs": [
        {
          "internalType": "address",
          "name": "memeToken",
          "type": "address"
        }
      ],
      "name": "heartThisMeme",
      "outputs": [],
      "stateMutability": "payable",
      "type": "function"
    },
    {
      "inputs": [],
      "name": "l2TokenRelayer",
      "outputs": [
        {
          "internalType": "address",
          "name": "",
          "type": "address"
        }
      ],
      "stateMutability": "view",
      "type": "function"
    },
    {
      "inputs": [
        {
          "internalType": "address",
          "name": "",
          "type": "address"
        }
      ],
      "name": "mapAccountActivities",
      "outputs": [
        {
          "internalType": "uint256",
          "name": "",
          "type": "uint256"
        }
      ],
      "stateMutability": "view",
      "type": "function"
    },
    {
      "inputs": [
        {
          "internalType": "address",
          "name": "",
          "type": "address"
        },
        {
          "internalType": "address",
          "name": "",
          "type": "address"
        }
      ],
      "name": "memeHearters",
      "outputs": [
        {
          "internalType": "uint256",
          "name": "",
          "type": "uint256"
        }
      ],
      "stateMutability": "view",
      "type": "function"
    },
    {
      "inputs": [
        {
          "internalType": "address",
          "name": "",
          "type": "address"
        }
      ],
      "name": "memeSummons",
      "outputs": [
        {
          "internalType": "uint256",
          "name": "nativeTokenContributed",
          "type": "uint256"
        },
        {
          "internalType": "uint256",
          "name": "summonTime",
          "type": "uint256"
        },
        {
          "internalType": "uint256",
          "name": "unleashTime",
          "type": "uint256"
        },
        {
          "internalType": "uint256",
          "name": "heartersAmount",
          "type": "uint256"
        }
      ],
      "stateMutability": "view",
      "type": "function"
    },
    {
      "inputs": [
        {
          "internalType": "uint256",
          "name": "",
          "type": "uint256"
        }
      ],
      "name": "memeTokens",
      "outputs": [
        {
          "internalType": "address",
          "name": "",
          "type": "address"
        }
      ],
      "stateMutability": "view",
      "type": "function"
    },
    {
      "inputs": [],
      "name": "minNativeTokenValue",
      "outputs": [
        {
          "internalType": "uint256",
          "name": "",
          "type": "uint256"
        }
      ],
      "stateMutability": "view",
      "type": "function"
    },
    {
      "inputs": [],
      "name": "nonce",
      "outputs": [
        {
          "internalType": "uint256",
          "name": "",
          "type": "uint256"
        }
      ],
      "stateMutability": "view",
      "type": "function"
    },
    {
      "inputs": [],
      "name": "numTokens",
      "outputs": [
        {
          "internalType": "uint256",
          "name": "",
          "type": "uint256"
        }
      ],
      "stateMutability": "view",
      "type": "function"
    },
    {
      "inputs": [],
      "name": "olas",
      "outputs": [
        {
          "internalType": "address",
          "name": "",
          "type": "address"
        }
      ],
      "stateMutability": "view",
      "type": "function"
    },
    {
      "inputs": [],
      "name": "oracle",
      "outputs": [
        {
          "internalType": "address",
          "name": "",
          "type": "address"
        }
      ],
      "stateMutability": "view",
      "type": "function"
    },
    {
      "inputs": [
        {
          "internalType": "address",
          "name": "memeToken",
          "type": "address"
        }
      ],
      "name": "purgeThisMeme",
      "outputs": [],
      "stateMutability": "nonpayable",
      "type": "function"
    },
    {
      "inputs": [],
      "name": "referenceToken",
      "outputs": [
        {
          "internalType": "address",
          "name": "",
          "type": "address"
        }
      ],
      "stateMutability": "view",
      "type": "function"
    },
    {
      "inputs": [],
      "name": "router",
      "outputs": [
        {
          "internalType": "address",
          "name": "",
          "type": "address"
        }
      ],
      "stateMutability": "view",
      "type": "function"
    },
    {
      "inputs": [
        {
          "internalType": "uint256",
          "name": "limit",
          "type": "uint256"
        },
        {
          "internalType": "uint256",
          "name": "tokenGasLimit",
          "type": "uint256"
        },
        {
          "internalType": "bytes",
          "name": "bridgePayload",
          "type": "bytes"
        }
      ],
      "name": "scheduleOLASForAscendance",
      "outputs": [],
      "stateMutability": "payable",
      "type": "function"
    },
    {
      "inputs": [],
      "name": "scheduledForAscendance",
      "outputs": [
        {
          "internalType": "uint256",
          "name": "",
          "type": "uint256"
        }
      ],
      "stateMutability": "view",
      "type": "function"
    },
    {
      "inputs": [
        {
          "internalType": "string",
          "name": "name",
          "type": "string"
        },
        {
          "internalType": "string",
          "name": "symbol",
          "type": "string"
        },
        {
          "internalType": "uint256",
          "name": "totalSupply",
          "type": "uint256"
        }
      ],
      "name": "summonThisMeme",
      "outputs": [],
      "stateMutability": "payable",
      "type": "function"
    },
    {
      "inputs": [
        {
          "internalType": "address",
          "name": "memeToken",
          "type": "address"
        },
        {
          "internalType": "uint256",
          "name": "limit",
          "type": "uint256"
        }
      ],
      "name": "unleashThisMeme",
      "outputs": [],
      "stateMutability": "nonpayable",
      "type": "function"
    },
    {
      "stateMutability": "payable",
      "type": "receive"
    }
  ],
  "bytecode": "0x6101806040526001600255348015610015575f5ffd5b5060405161403538038061403583398101604081905261003491610089565b6001600160a01b0397881660a05295871660c05293861660e052918516610100526080528316610120528216610140521661016052610114565b80516001600160a01b0381168114610084575f5ffd5b919050565b5f5f5f5f5f5f5f5f610100898b0312156100a1575f5ffd5b6100aa8961006e565b97506100b860208a0161006e565b96506100c660408a0161006e565b95506100d460608a0161006e565b9450608089015193506100e960a08a0161006e565b92506100f760c08a0161006e565b915061010560e08a0161006e565b90509295985092959890939650565b60805160a05160c05160e05161010051610120516101405161016051613e1761021e5f395f81816104470152611e1e01525f81816104fb01528181611ae70152611c2b01525f818161024b0152818161181f01528181611d420152611faf01525f818161056b015261219201525f818161063c0152818161190a015281816119e501528181611f7d0152818161205b0152818161223901528181612315015261242301525f81816102a2015281816117b20152818161193901528181611daf0152818161215e0152818161226b01526123cc01525f81816101ee0152818161188d01528181611b1801528181611bc50152611cae01525f81816104c80152610e870152613e175ff3fe6080604052600436106101d2575f3560e01c80638b9ee610116100fd578063c45a015511610092578063f74e481b11610062578063f74e481b146105d6578063f76c6037146105f5578063f887ea401461062b578063ffa1ad741461065e575f5ffd5b8063c45a01551461055a578063cf4ffb7e1461058d578063d1b0c288146105ac578063dab346ff146105c2575f5ffd5b8063a7be1b50116100cd578063a7be1b50146104ea578063affed0e01461051d578063b1bd3c9514610532578063be399e2b14610545575f5ffd5b80638b9ee610146104695780638e499bcf146104905780639823bb13146104a4578063a5ae390c146104b7575f5ffd5b806336b4134a116101735780635122c409116101435780635122c409146103df5780635eb76db2146103fc578063709a5c9c146104235780637dc0d1d014610436575f5ffd5b806336b4134a146103605780633d0cc3751461037457806340b67a9b14610395578063466ffbce146103c0575f5ffd5b80631265b651116101ae5780631265b6511461029157806314c7312b146102c45780632e0f26251461032657806335f9f8d91461034c575f5ffd5b806231d115146101dd578063051ed8ef1461023a5780630a42f8bd1461026d575f5ffd5b366101d957005b5f5ffd5b3480156101e8575f5ffd5b506102107f000000000000000000000000000000000000000000000000000000000000000081565b60405173ffffffffffffffffffffffffffffffffffffffff90911681526020015b60405180910390f35b348015610245575f5ffd5b506102107f000000000000000000000000000000000000000000000000000000000000000081565b348015610278575f5ffd5b506102836202a30081565b604051908152602001610231565b34801561029c575f5ffd5b506102107f000000000000000000000000000000000000000000000000000000000000000081565b3480156102cf575f5ffd5b506103066102de3660046125f1565b600360208190525f918252604090912080546001820154600283015492909301549092919084565b604080519485526020850193909352918301526060820152608001610231565b348015610331575f5ffd5b5061033a601281565b60405160ff9091168152602001610231565b348015610357575f5ffd5b50610283603281565b34801561036b575f5ffd5b50610283606181565b34801561037f575f5ffd5b5061039361038e3660046125f1565b6106b3565b005b3480156103a0575f5ffd5b506102836103af3660046125f1565b60056020525f908152604090205481565b3480156103cb575f5ffd5b506102106103da366004612613565b610a95565b3480156103ea575f5ffd5b5061028369d3c21bcecceda100000081565b348015610407575f5ffd5b50610410600281565b60405161ffff9091168152602001610231565b61039361043136600461271d565b610aca565b348015610441575f5ffd5b506102107f000000000000000000000000000000000000000000000000000000000000000081565b348015610474575f5ffd5b506102107351eb65012ca5ceb07320c497f4151ac207fea4e081565b34801561049b575f5ffd5b506102835f5481565b6103936104b23660046125f1565b610c36565b3480156104c2575f5ffd5b506102837f000000000000000000000000000000000000000000000000000000000000000081565b3480156104f5575f5ffd5b506102107f000000000000000000000000000000000000000000000000000000000000000081565b348015610528575f5ffd5b5061028360075481565b61039361054036600461279a565b610e85565b348015610550575f5ffd5b5061028360015481565b348015610565575f5ffd5b506102107f000000000000000000000000000000000000000000000000000000000000000081565b348015610598575f5ffd5b506103936105a7366004612808565b611176565b3480156105b7575f5ffd5b506102836201518081565b3480156105cd575f5ffd5b50610283600a81565b3480156105e1575f5ffd5b506103936105f03660046125f1565b6114ef565b348015610600575f5ffd5b5061028361060f366004612832565b600460209081525f928352604080842090915290825290205481565b348015610636575f5ffd5b506102107f000000000000000000000000000000000000000000000000000000000000000081565b348015610669575f5ffd5b506106a66040518060400160405280600581526020017f302e312e3000000000000000000000000000000000000000000000000000000081525081565b60405161023191906128b5565b600254600114610724576040517f08c379a000000000000000000000000000000000000000000000000000000000815260206004820152601060248201527f5265656e7472616e63792067756172640000000000000000000000000000000060448201526064015b60405180910390fd5b73ffffffffffffffffffffffffffffffffffffffff81165f9081526003602081815260409283902083516080810185528154815260018201549281018390526002820154948101949094529091015460608301526107de576040517f08c379a000000000000000000000000000000000000000000000000000000000815260206004820152601160248201527f4d656d65206e6f742073756d6d6f6e6564000000000000000000000000000000604482015260640161071b565b6202a30081602001516107f191906128f4565b421161087f576040517f08c379a000000000000000000000000000000000000000000000000000000000815260206004820152602d60248201527f5075726765206f6e6c7920616c6c6f7765642066726f6d20343820686f75727360448201527f2061667465722073756d6d6f6e00000000000000000000000000000000000000606482015260840161071b565b335f90815260056020526040812080549161089983612907565b90915550506040517f70a0823100000000000000000000000000000000000000000000000000000000815230600482015282905f9073ffffffffffffffffffffffffffffffffffffffff8316906370a0823190602401602060405180830381865afa15801561090a573d5f5f3e3d5ffd5b505050506040513d601f19601f8201168201806040525081019061092e919061293e565b90505f81116109bf576040517f08c379a000000000000000000000000000000000000000000000000000000000815260206004820152602360248201527f486173206265656e20707572676564206f72206e6f7468696e6720746f20707560448201527f7267650000000000000000000000000000000000000000000000000000000000606482015260840161071b565b6040517f42966c680000000000000000000000000000000000000000000000000000000081526004810182905273ffffffffffffffffffffffffffffffffffffffff8316906342966c68906024015f604051808303815f87803b158015610a24575f5ffd5b505af1158015610a36573d5f5f3e3d5ffd5b505050508373ffffffffffffffffffffffffffffffffffffffff167f265db6c9c62cb962adbcf4398a54e4b02b2d87b28ab5b7538850150465a5f43c82604051610a8291815260200190565b60405180910390a2505060016002555050565b60068181548110610aa4575f80fd5b5f9182526020909120015473ffffffffffffffffffffffffffffffffffffffff16905081565b600254600114610b36576040517f08c379a000000000000000000000000000000000000000000000000000000000815260206004820152601060248201527f5265656e7472616e637920677561726400000000000000000000000000000000604482015260640161071b565b5f60015411610ba1576040517f08c379a000000000000000000000000000000000000000000000000000000000815260206004820152600f60248201527f4e6f7468696e6720746f206275726e0000000000000000000000000000000000604482015260640161071b565b335f908152600560205260408120805491610bbb83612907565b91905055505f610bcd6001548561178b565b5f6001819055909150610be1828585611aaa565b90508015610c2f57604051329082905f81818185875af1925050503d805f8114610c26576040519150601f19603f3d011682016040523d82523d5f602084013e610c2b565b606091505b5050505b5050505050565b5f3411610cc5576040517f08c379a000000000000000000000000000000000000000000000000000000000815260206004820152602d60248201527f4e617469766520746f6b656e20616d6f756e74206d757374206265206772656160448201527f746572207468616e207a65726f00000000000000000000000000000000000000606482015260840161071b565b73ffffffffffffffffffffffffffffffffffffffff81165f908152600360205260409020805480610d52576040517f08c379a000000000000000000000000000000000000000000000000000000000815260206004820152601560248201527f4d656d65206e6f74207965742073756d6d6f6e65640000000000000000000000604482015260640161071b565b600282015415610dbe576040517f08c379a000000000000000000000000000000000000000000000000000000000815260206004820152601660248201527f4d656d6520616c726561647920756e6c65617368656400000000000000000000604482015260640161071b565b610dc834826128f4565b80835573ffffffffffffffffffffffffffffffffffffffff84165f908152600460209081526040808320338452909152812080549293503492909190610e0f9084906128f4565b9091555050335f908152600560205260408120805491610e2e83612907565b909155505060405134815273ffffffffffffffffffffffffffffffffffffffff84169033907fb4dec46ff7703ee80325aa5ed4df0691d6d8791df96b50240552403cec1c9eda9060200160405180910390a3505050565b7f0000000000000000000000000000000000000000000000000000000000000000341015610f35576040517f08c379a000000000000000000000000000000000000000000000000000000000815260206004820152603060248201527f4d696e696d756d206e617469766520746f6b656e2076616c756520697320726560448201527f71756972656420746f2073756d6d6f6e00000000000000000000000000000000606482015260840161071b565b69d3c21bcecceda1000000811015610fa9576040517f08c379a000000000000000000000000000000000000000000000000000000000815260206004820152601f60248201527f4d696e696d756d20746f74616c20737570706c79206973206e6f74206d657400604482015260640161071b565b5f8383601284604051610fbb906125c0565b610fc89493929190612955565b604051809103905ff080158015610fe1573d5f5f3e3d5ffd5b5060408051608081018252348082524260208084019182525f8486018181526060860182815273ffffffffffffffffffffffffffffffffffffffff891680845260038086528985209851895595516001808a01919091559251600289015590519690940195909555600482528581203382528252858120939093556006805494850181557ff652222313e28459528d920b65115c16c04f3efc82aaedc97be59f3f377c0d3f90940180547fffffffffffffffffffffffff00000000000000000000000000000000000000001690921790915591548155600590915290812080549293508392916110d083612907565b909155505060405134815273ffffffffffffffffffffffffffffffffffffffff82169033907f109fe5b1a043e1fc6e8b6f4905613c0a5b82de0d8798558c67f0243106b2d7ad9060200160405180910390a360405134815273ffffffffffffffffffffffffffffffffffffffff82169033907fb4dec46ff7703ee80325aa5ed4df0691d6d8791df96b50240552403cec1c9eda9060200160405180910390a35050505050565b6002546001146111e2576040517f08c379a000000000000000000000000000000000000000000000000000000000815260206004820152601060248201527f5265656e7472616e637920677561726400000000000000000000000000000000604482015260640161071b565b73ffffffffffffffffffffffffffffffffffffffff82165f90815260036020526040902080546001820154611273576040517f08c379a000000000000000000000000000000000000000000000000000000000815260206004820152601160248201527f4d656d65206e6f742073756d6d6f6e6564000000000000000000000000000000604482015260640161071b565b62015180826001015461128691906128f4565b4210156112ef576040517f08c379a000000000000000000000000000000000000000000000000000000000815260206004820152601260248201527f43616e6e6f7420756e6c65617368207965740000000000000000000000000000604482015260640161071b565b5f6112fa8285611d1c565b90505f606461130a600a84612990565b61131491906129a7565b90508060015f82825461132791906128f4565b90915550611337905081836129df565b91505f8690505f8173ffffffffffffffffffffffffffffffffffffffff166318160ddd6040518163ffffffff1660e01b8152600401602060405180830381865afa158015611387573d5f5f3e3d5ffd5b505050506040513d601f19601f820116820180604052508101906113ab919061293e565b90505f60646113bb603284612990565b6113c591906129a7565b90505f6113d282846129df565b90505f5f6113e18c8986612121565b4260028d015560038c01859055335f908152600560205260408120805493955091935061140d83612907565b909155505073ffffffffffffffffffffffffffffffffffffffff8c165f9081526004602090815260408083203384529091529020548015611454576114548d82868d61249c565b8273ffffffffffffffffffffffffffffffffffffffff168d73ffffffffffffffffffffffffffffffffffffffff163373ffffffffffffffffffffffffffffffffffffffff167fcef3279530e487be6d2c4583c847d17d5a328a9b6ab1e27ad458690257ba7768858c6040516114d3929190918252602082015260400190565b60405180910390a4505060016002555050505050505050505050565b60025460011461155b576040517f08c379a000000000000000000000000000000000000000000000000000000000815260206004820152601060248201527f5265656e7472616e637920677561726400000000000000000000000000000000604482015260640161071b565b73ffffffffffffffffffffffffffffffffffffffff81165f90815260036020818152604092839020835160808101855281548152600182015492810192909252600281015493820184905290910154606082015290611616576040517f08c379a000000000000000000000000000000000000000000000000000000000815260206004820152601260248201527f4d656d65206e6f7420756e6c6561736865640000000000000000000000000000604482015260640161071b565b6202a300816020015161162991906128f4565b4211156116b8576040517f08c379a000000000000000000000000000000000000000000000000000000000815260206004820152603060248201527f436f6c6c656374206f6e6c7920616c6c6f77656420756e74696c20343820686f60448201527f7572732061667465722073756d6d6f6e00000000000000000000000000000000606482015260840161071b565b73ffffffffffffffffffffffffffffffffffffffff82165f9081526004602090815260408083203384529091529020548061174f576040517f08c379a000000000000000000000000000000000000000000000000000000000815260206004820152601360248201527f4e6f20746f6b656e20616c6c6f636174696f6e00000000000000000000000000604482015260640161071b565b335f90815260056020526040812080549161176983612907565b919050555061178183828460600151855f015161249c565b5050600160025550565b604080516003808252608082019092525f91829190602082016060803683370190505090507f0000000000000000000000000000000000000000000000000000000000000000815f815181106117e3576117e36129f2565b602002602001019073ffffffffffffffffffffffffffffffffffffffff16908173ffffffffffffffffffffffffffffffffffffffff16815250507f000000000000000000000000000000000000000000000000000000000000000081600181518110611851576118516129f2565b602002602001019073ffffffffffffffffffffffffffffffffffffffff16908173ffffffffffffffffffffffffffffffffffffffff16815250507f0000000000000000000000000000000000000000000000000000000000000000816002815181106118bf576118bf6129f2565b73ffffffffffffffffffffffffffffffffffffffff92831660209182029290920101526040517f095ea7b30000000000000000000000000000000000000000000000000000000081527f000000000000000000000000000000000000000000000000000000000000000082166004820152602481018690527f00000000000000000000000000000000000000000000000000000000000000009091169063095ea7b3906044016020604051808303815f875af1158015611981573d5f5f3e3d5ffd5b505050506040513d601f19601f820116820180604052508101906119a59190612a1f565b506040517f38ed17390000000000000000000000000000000000000000000000000000000081525f9073ffffffffffffffffffffffffffffffffffffffff7f000000000000000000000000000000000000000000000000000000000000000016906338ed173990611a229088908890879030904290600401612a3e565b5f604051808303815f875af1158015611a3d573d5f5f3e3d5ffd5b505050506040513d5f823e601f3d9081017fffffffffffffffffffffffffffffffffffffffffffffffffffffffffffffffe0168201604052611a829190810190612ac8565b905080600181518110611a9757611a976129f2565b6020026020010151925050505b92915050565b6040517f095ea7b300000000000000000000000000000000000000000000000000000000815273ffffffffffffffffffffffffffffffffffffffff7f000000000000000000000000000000000000000000000000000000000000000081166004830152602482018590525f917f00000000000000000000000000000000000000000000000000000000000000009091169063095ea7b3906044016020604051808303815f875af1158015611b60573d5f5f3e3d5ffd5b505050506040513d601f19601f82011682018060405250810190611b849190612a1f565b506007546040517f0f5287b000000000000000000000000000000000000000000000000000000000815273ffffffffffffffffffffffffffffffffffffffff7f00000000000000000000000000000000000000000000000000000000000000008116600483015260248201879052600260448301527351eb65012ca5ceb07320c497f4151ac207fea4e0606483018190525f608484015263ffffffff841660a484015292917f000000000000000000000000000000000000000000000000000000000000000090911690630f5287b09060c4016020604051808303815f875af1158015611c73573d5f5f3e3d5ffd5b505050506040513d601f19601f82011682018060405250810190611c979190612b74565b50611ca38160016128f4565b6007556040518681527f000000000000000000000000000000000000000000000000000000000000000073ffffffffffffffffffffffffffffffffffffffff16907f40a3e75fd2efcf074c9c0520c5367ccb3093ded646970bdc8c3108748e5d3f0e9060200160405180910390a2503495945050505050565b6040805160028082526060820183525f92839291906020830190803683370190505090507f0000000000000000000000000000000000000000000000000000000000000000815f81518110611d7357611d736129f2565b602002602001019073ffffffffffffffffffffffffffffffffffffffff16908173ffffffffffffffffffffffffffffffffffffffff16815250507f000000000000000000000000000000000000000000000000000000000000000081600181518110611de157611de16129f2565b602002602001019073ffffffffffffffffffffffffffffffffffffffff16908173ffffffffffffffffffffffffffffffffffffffff16815250505f7f000000000000000000000000000000000000000000000000000000000000000073ffffffffffffffffffffffffffffffffffffffff1663feaf968c6040518163ffffffff1660e01b815260040160a0604051808303815f875af1158015611e86573d5f5f3e3d5ffd5b505050506040513d601f19601f82011682018060405250810190611eaa9190612bb9565b5050509150505f8113611f19576040517f08c379a000000000000000000000000000000000000000000000000000000000815260206004820152601960248201527f4f7261636c6520707269636520697320696e636f727265637400000000000000604482015260640161071b565b5f6402540be4006061611f2c8885612990565b611f369190612990565b611f4091906129a7565b6040517f095ea7b300000000000000000000000000000000000000000000000000000000815273ffffffffffffffffffffffffffffffffffffffff7f000000000000000000000000000000000000000000000000000000000000000081166004830152602482018990529192507f00000000000000000000000000000000000000000000000000000000000000009091169063095ea7b3906044016020604051808303815f875af1158015611ff7573d5f5f3e3d5ffd5b505050506040513d601f19601f8201168201806040525081019061201b9190612a1f565b506040517f38ed17390000000000000000000000000000000000000000000000000000000081525f9073ffffffffffffffffffffffffffffffffffffffff7f000000000000000000000000000000000000000000000000000000000000000016906338ed173990612098908a908690899030904290600401612a3e565b5f604051808303815f875af11580156120b3573d5f5f3e3d5ffd5b505050506040513d5f823e601f3d9081017fffffffffffffffffffffffffffffffffffffffffffffffffffffffffffffffe01682016040526120f89190810190612ac8565b90508060018151811061210d5761210d6129f2565b602002602001015194505050505092915050565b6040517fc9c6539600000000000000000000000000000000000000000000000000000000815273ffffffffffffffffffffffffffffffffffffffff7f00000000000000000000000000000000000000000000000000000000000000008116600483015284811660248301525f9182917f0000000000000000000000000000000000000000000000000000000000000000169063c9c65396906044016020604051808303815f875af11580156121d8573d5f5f3e3d5ffd5b505050506040513d601f19601f820116820180604052508101906121fc9190612c07565b6040517f095ea7b300000000000000000000000000000000000000000000000000000000815273ffffffffffffffffffffffffffffffffffffffff7f000000000000000000000000000000000000000000000000000000000000000081166004830152602482018790529193507f00000000000000000000000000000000000000000000000000000000000000009091169063095ea7b3906044016020604051808303815f875af11580156122b3573d5f5f3e3d5ffd5b505050506040513d601f19601f820116820180604052508101906122d79190612a1f565b506040517f095ea7b300000000000000000000000000000000000000000000000000000000815273ffffffffffffffffffffffffffffffffffffffff7f0000000000000000000000000000000000000000000000000000000000000000811660048301526024820185905286169063095ea7b3906044016020604051808303815f875af115801561236a573d5f5f3e3d5ffd5b505050506040513d601f19601f8201168201806040525081019061238e9190612a1f565b506040517fe8e3370000000000000000000000000000000000000000000000000000000000815273ffffffffffffffffffffffffffffffffffffffff7f000000000000000000000000000000000000000000000000000000000000000081166004830152868116602483015260448201869052606482018590525f6084830181905260a48301523060c48301524260e48301527f0000000000000000000000000000000000000000000000000000000000000000169063e8e3370090610104016060604051808303815f875af115801561246a573d5f5f3e3d5ffd5b505050506040513d601f19601f8201168201806040525081019061248e9190612c22565b939793965092945050505050565b835f826124a98587612990565b6124b391906129a7565b73ffffffffffffffffffffffffffffffffffffffff8781165f9081526004602081815260408084203380865292528084209390935591517fa9059cbb000000000000000000000000000000000000000000000000000000008152908101919091526024810183905291925083169063a9059cbb906044016020604051808303815f875af1158015612546573d5f5f3e3d5ffd5b505050506040513d601f19601f8201168201806040525081019061256a9190612a1f565b5060405181815273ffffffffffffffffffffffffffffffffffffffff87169033907f484decdc1e9549e1866295f6f86c889ded3f7de410e7488a7a415978589dc8fd9060200160405180910390a3505050505050565b61119480612c4e83390190565b73ffffffffffffffffffffffffffffffffffffffff811681146125ee575f5ffd5b50565b5f60208284031215612601575f5ffd5b813561260c816125cd565b9392505050565b5f60208284031215612623575f5ffd5b5035919050565b7f4e487b71000000000000000000000000000000000000000000000000000000005f52604160045260245ffd5b604051601f82017fffffffffffffffffffffffffffffffffffffffffffffffffffffffffffffffe016810167ffffffffffffffff8111828210171561269e5761269e61262a565b604052919050565b5f5f67ffffffffffffffff8411156126c0576126c061262a565b50601f83017fffffffffffffffffffffffffffffffffffffffffffffffffffffffffffffffe0166020016126f381612657565b915050828152838383011115612707575f5ffd5b828260208301375f602084830101529392505050565b5f5f5f6060848603121561272f575f5ffd5b8335925060208401359150604084013567ffffffffffffffff811115612753575f5ffd5b8401601f81018613612763575f5ffd5b612772868235602084016126a6565b9150509250925092565b5f82601f83011261278b575f5ffd5b61260c838335602085016126a6565b5f5f5f606084860312156127ac575f5ffd5b833567ffffffffffffffff8111156127c2575f5ffd5b6127ce8682870161277c565b935050602084013567ffffffffffffffff8111156127ea575f5ffd5b6127f68682870161277c565b93969395505050506040919091013590565b5f5f60408385031215612819575f5ffd5b8235612824816125cd565b946020939093013593505050565b5f5f60408385031215612843575f5ffd5b823561284e816125cd565b9150602083013561285e816125cd565b809150509250929050565b5f81518084528060208401602086015e5f6020828601015260207fffffffffffffffffffffffffffffffffffffffffffffffffffffffffffffffe0601f83011685010191505092915050565b602081525f61260c6020830184612869565b7f4e487b71000000000000000000000000000000000000000000000000000000005f52601160045260245ffd5b80820180821115611aa457611aa46128c7565b5f7fffffffffffffffffffffffffffffffffffffffffffffffffffffffffffffffff8203612937576129376128c7565b5060010190565b5f6020828403121561294e575f5ffd5b5051919050565b608081525f6129676080830187612869565b82810360208401526129798187612869565b60ff95909516604084015250506060015292915050565b8082028115828204841417611aa457611aa46128c7565b5f826129da577f4e487b71000000000000000000000000000000000000000000000000000000005f52601260045260245ffd5b500490565b81810381811115611aa457611aa46128c7565b7f4e487b71000000000000000000000000000000000000000000000000000000005f52603260045260245ffd5b5f60208284031215612a2f575f5ffd5b8151801515811461260c575f5ffd5b5f60a0820187835286602084015260a0604084015280865180835260c0850191506020880192505f5b81811015612a9b57835173ffffffffffffffffffffffffffffffffffffffff16835260209384019390920191600101612a67565b505073ffffffffffffffffffffffffffffffffffffffff9590951660608401525050608001529392505050565b5f60208284031215612ad8575f5ffd5b815167ffffffffffffffff811115612aee575f5ffd5b8201601f81018413612afe575f5ffd5b805167ffffffffffffffff811115612b1857612b1861262a565b8060051b612b2860208201612657565b91825260208184018101929081019087841115612b43575f5ffd5b6020850194505b83851015612b6957845180835260209586019590935090910190612b4a565b979650505050505050565b5f60208284031215612b84575f5ffd5b815167ffffffffffffffff8116811461260c575f5ffd5b805169ffffffffffffffffffff81168114612bb4575f5ffd5b919050565b5f5f5f5f5f60a08688031215612bcd575f5ffd5b612bd686612b9b565b60208701516040880151606089015192975090955093509150612bfb60808701612b9b565b90509295509295909350565b5f60208284031215612c17575f5ffd5b815161260c816125cd565b5f5f5f60608486031215612c34575f5ffd5b505081516020830151604090930151909492935091905056fe60e060405234801561000f575f5ffd5b5060405161119438038061119483398101604081905261002e91610216565b8383835f61003c848261031d565b506001610049838261031d565b5060ff81166080524660a05261005d610078565b60c0525061006f915033905082610110565b5050505061046d565b5f7f8b73c3c69bb8fe3d512ecc4cf759cc79239f7b179b0ffacaa9a75d522b39400f5f6040516100a891906103d7565b6040805191829003822060208301939093528101919091527fc89efdaa54c0f20c7adf612882df0950f5a951637e0307cdcb4c672f298b8bc660608201524660808201523060a082015260c00160405160208183030381529060405280519060200120905090565b8060025f8282546101219190610448565b90915550506001600160a01b0382165f818152600360209081526040808320805486019055518481527fddf252ad1be2c89b69c2b068fc378daa952ba7f163c4a11628f55a4df523b3ef910160405180910390a35050565b634e487b7160e01b5f52604160045260245ffd5b5f82601f83011261019c575f5ffd5b81516001600160401b038111156101b5576101b5610179565b604051601f8201601f19908116603f011681016001600160401b03811182821017156101e3576101e3610179565b6040528181528382016020018510156101fa575f5ffd5b8160208501602083015e5f918101602001919091529392505050565b5f5f5f5f60808587031215610229575f5ffd5b84516001600160401b0381111561023e575f5ffd5b61024a8782880161018d565b602087015190955090506001600160401b03811115610267575f5ffd5b6102738782880161018d565b935050604085015160ff81168114610289575f5ffd5b6060959095015193969295505050565b600181811c908216806102ad57607f821691505b6020821081036102cb57634e487b7160e01b5f52602260045260245ffd5b50919050565b601f82111561031857805f5260205f20601f840160051c810160208510156102f65750805b601f840160051c820191505b81811015610315575f8155600101610302565b50505b505050565b81516001600160401b0381111561033657610336610179565b61034a816103448454610299565b846102d1565b6020601f82116001811461037c575f83156103655750848201515b5f19600385901b1c1916600184901b178455610315565b5f84815260208120601f198516915b828110156103ab578785015182556020948501946001909201910161038b565b50848210156103c857868401515f19600387901b60f8161c191681555b50505050600190811b01905550565b5f5f83546103e481610299565b6001821680156103fb57600181146104105761043d565b60ff198316865281151582028601935061043d565b865f5260205f205f5b8381101561043557815488820152600190910190602001610419565b505081860193505b509195945050505050565b8082018082111561046757634e487b7160e01b5f52601160045260245ffd5b92915050565b60805160a05160c051610cfd6104975f395f6104b101525f61047c01525f61014e0152610cfd5ff3fe608060405234801561000f575f5ffd5b50600436106100da575f3560e01c806342966c681161008857806395d89b411161006357806395d89b41146101dd578063a9059cbb146101e5578063d505accf146101f8578063dd62ed3e1461020b575f5ffd5b806342966c681461018a57806370a082311461019f5780637ecebe00146101be575f5ffd5b806323b872dd116100b857806323b872dd14610136578063313ce567146101495780633644e51514610182575f5ffd5b806306fdde03146100de578063095ea7b3146100fc57806318160ddd1461011f575b5f5ffd5b6100e6610235565b6040516100f391906109b9565b60405180910390f35b61010f61010a366004610a34565b6102c0565b60405190151581526020016100f3565b61012860025481565b6040519081526020016100f3565b61010f610144366004610a5c565b610339565b6101707f000000000000000000000000000000000000000000000000000000000000000081565b60405160ff90911681526020016100f3565b610128610479565b61019d610198366004610a96565b6104d3565b005b6101286101ad366004610aad565b60036020525f908152604090205481565b6101286101cc366004610aad565b60056020525f908152604090205481565b6100e66104e0565b61010f6101f3366004610a34565b6104ed565b61019d610206366004610acd565b610570565b610128610219366004610b3a565b600460209081525f928352604080842090915290825290205481565b5f805461024190610b6b565b80601f016020809104026020016040519081016040528092919081815260200182805461026d90610b6b565b80156102b85780601f1061028f576101008083540402835291602001916102b8565b820191905f5260205f20905b81548152906001019060200180831161029b57829003601f168201915b505050505081565b335f81815260046020908152604080832073ffffffffffffffffffffffffffffffffffffffff8716808552925280832085905551919290917f8c5be1e5ebec7d5bd14f71427d1e84f3dd0314c0f7b2291e5b200ac8c7c3b925906103279086815260200190565b60405180910390a35060015b92915050565b73ffffffffffffffffffffffffffffffffffffffff83165f9081526004602090815260408083203384529091528120547fffffffffffffffffffffffffffffffffffffffffffffffffffffffffffffffff81146103cb5761039a8382610bbc565b73ffffffffffffffffffffffffffffffffffffffff86165f9081526004602090815260408083203384529091529020555b73ffffffffffffffffffffffffffffffffffffffff85165f90815260036020526040812080548592906103ff908490610bbc565b909155505073ffffffffffffffffffffffffffffffffffffffff8085165f81815260036020526040908190208054870190555190918716907fddf252ad1be2c89b69c2b068fc378daa952ba7f163c4a11628f55a4df523b3ef906104669087815260200190565b60405180910390a3506001949350505050565b5f7f000000000000000000000000000000000000000000000000000000000000000046146104ae576104a961088e565b905090565b507f000000000000000000000000000000000000000000000000000000000000000090565b6104dd3382610926565b50565b6001805461024190610b6b565b335f9081526003602052604081208054839190839061050d908490610bbc565b909155505073ffffffffffffffffffffffffffffffffffffffff83165f81815260036020526040908190208054850190555133907fddf252ad1be2c89b69c2b068fc378daa952ba7f163c4a11628f55a4df523b3ef906103279086815260200190565b428410156105df576040517f08c379a000000000000000000000000000000000000000000000000000000000815260206004820152601760248201527f5045524d49545f444541444c494e455f4558504952454400000000000000000060448201526064015b60405180910390fd5b5f60016105ea610479565b73ffffffffffffffffffffffffffffffffffffffff8a81165f8181526005602090815260409182902080546001810190915582517f6e71edae12b1b97f4d1f60370fef10105fa2faae0126114a169c64845d6126c98184015280840194909452938d166060840152608083018c905260a083019390935260c08083018b90528151808403909101815260e0830190915280519201919091207f190100000000000000000000000000000000000000000000000000000000000061010083015261010282019290925261012281019190915261014201604080517fffffffffffffffffffffffffffffffffffffffffffffffffffffffffffffffe081840301815282825280516020918201205f84529083018083525260ff871690820152606081018590526080810184905260a0016020604051602081039080840390855afa158015610738573d5f5f3e3d5ffd5b50506040517fffffffffffffffffffffffffffffffffffffffffffffffffffffffffffffffe0015191505073ffffffffffffffffffffffffffffffffffffffff8116158015906107b357508773ffffffffffffffffffffffffffffffffffffffff168173ffffffffffffffffffffffffffffffffffffffff16145b610819576040517f08c379a000000000000000000000000000000000000000000000000000000000815260206004820152600e60248201527f494e56414c49445f5349474e455200000000000000000000000000000000000060448201526064016105d6565b73ffffffffffffffffffffffffffffffffffffffff9081165f9081526004602090815260408083208a8516808552908352928190208990555188815291928a16917f8c5be1e5ebec7d5bd14f71427d1e84f3dd0314c0f7b2291e5b200ac8c7c3b925910160405180910390a350505050505050565b5f7f8b73c3c69bb8fe3d512ecc4cf759cc79239f7b179b0ffacaa9a75d522b39400f5f6040516108be9190610bf4565b6040805191829003822060208301939093528101919091527fc89efdaa54c0f20c7adf612882df0950f5a951637e0307cdcb4c672f298b8bc660608201524660808201523060a082015260c00160405160208183030381529060405280519060200120905090565b73ffffffffffffffffffffffffffffffffffffffff82165f908152600360205260408120805483929061095a908490610bbc565b90915550506002805482900390556040518181525f9073ffffffffffffffffffffffffffffffffffffffff8416907fddf252ad1be2c89b69c2b068fc378daa952ba7f163c4a11628f55a4df523b3ef9060200160405180910390a35050565b602081525f82518060208401528060208501604085015e5f6040828501015260407fffffffffffffffffffffffffffffffffffffffffffffffffffffffffffffffe0601f83011684010191505092915050565b803573ffffffffffffffffffffffffffffffffffffffff81168114610a2f575f5ffd5b919050565b5f5f60408385031215610a45575f5ffd5b610a4e83610a0c565b946020939093013593505050565b5f5f5f60608486031215610a6e575f5ffd5b610a7784610a0c565b9250610a8560208501610a0c565b929592945050506040919091013590565b5f60208284031215610aa6575f5ffd5b5035919050565b5f60208284031215610abd575f5ffd5b610ac682610a0c565b9392505050565b5f5f5f5f5f5f5f60e0888a031215610ae3575f5ffd5b610aec88610a0c565b9650610afa60208901610a0c565b95506040880135945060608801359350608088013560ff81168114610b1d575f5ffd5b9699959850939692959460a0840135945060c09093013592915050565b5f5f60408385031215610b4b575f5ffd5b610b5483610a0c565b9150610b6260208401610a0c565b90509250929050565b600181811c90821680610b7f57607f821691505b602082108103610bb6577f4e487b71000000000000000000000000000000000000000000000000000000005f52602260045260245ffd5b50919050565b81810381811115610333577f4e487b71000000000000000000000000000000000000000000000000000000005f52601160045260245ffd5b5f5f83545f8160011c90506001821680610c0f57607f821691505b602082108103610c46577f4e487b71000000000000000000000000000000000000000000000000000000005f52602260045260245ffd5b808015610c5a5760018114610c8d57610cbb565b7fffffffffffffffffffffffffffffffffffffffffffffffffffffffffffffff0084168752821515830287019450610cbb565b5f888152602090205f5b84811015610cb357815489820152600190910190602001610c97565b505082870194505b5092969550505050505056fea26469706673582212205df7019458ddc6a358585d679221b07a9e24fb31dbf8c630fcd1d119dc2aee2864736f6c634300081c0033a2646970667358221220ff430a9d2043196b4d385eb2ecb9267bc1c488c52f3f7db978b9aa8bb995ab7f64736f6c634300081c0033",
  "linkReferences": {},
  "deployedLinkReferences": {}
}