{
  "_format": "hh-sol-artifact-1",
  "contractName": "Meme",
  "sourceName": "contracts/Meme.sol",
  "abi": [
    {
      "inputs": [
        {
          "internalType": "string",
          "name": "_name",
          "type": "string"
        },
        {
          "internalType": "string",
          "name": "_symbol",
          "type": "string"
        },
        {
          "internalType": "uint8",
          "name": "_decimals",
          "type": "uint8"
        },
        {
          "internalType": "uint256",
          "name": "_totalSupply",
          "type": "uint256"
        }
      ],
      "stateMutability": "nonpayable",
      "type": "constructor"
    },
    {
      "anonymous": false,
      "inputs": [
        {
          "indexed": true,
          "internalType": "address",
          "name": "owner",
          "type": "address"
        },
        {
          "indexed": true,
          "internalType": "address",
          "name": "spender",
          "type": "address"
        },
        {
          "indexed": false,
          "internalType": "uint256",
          "name": "amount",
          "type": "uint256"
        }
      ],
      "name": "Approval",
      "type": "event"
    },
    {
      "anonymous": false,
      "inputs": [
        {
          "indexed": true,
          "internalType": "address",
          "name": "from",
          "type": "address"
        },
        {
          "indexed": true,
          "internalType": "address",
          "name": "to",
          "type": "address"
        },
        {
          "indexed": false,
          "internalType": "uint256",
          "name": "amount",
          "type": "uint256"
        }
      ],
      "name": "Transfer",
      "type": "event"
    },
    {
      "inputs": [],
      "name": "DOMAIN_SEPARATOR",
      "outputs": [
        {
          "internalType": "bytes32",
          "name": "",
          "type": "bytes32"
        }
      ],
      "stateMutability": "view",
      "type": "function"
    },
    {
      "inputs": [
        {
          "internalType": "address",
          "name": "",
          "type": "address"
        },
        {
          "internalType": "address",
          "name": "",
          "type": "address"
        }
      ],
      "name": "allowance",
      "outputs": [
        {
          "internalType": "uint256",
          "name": "",
          "type": "uint256"
        }
      ],
      "stateMutability": "view",
      "type": "function"
    },
    {
      "inputs": [
        {
          "internalType": "address",
          "name": "spender",
          "type": "address"
        },
        {
          "internalType": "uint256",
          "name": "amount",
          "type": "uint256"
        }
      ],
      "name": "approve",
      "outputs": [
        {
          "internalType": "bool",
          "name": "",
          "type": "bool"
        }
      ],
      "stateMutability": "nonpayable",
      "type": "function"
    },
    {
      "inputs": [
        {
          "internalType": "address",
          "name": "",
          "type": "address"
        }
      ],
      "name": "balanceOf",
      "outputs": [
        {
          "internalType": "uint256",
          "name": "",
          "type": "uint256"
        }
      ],
      "stateMutability": "view",
      "type": "function"
    },
    {
      "inputs": [
        {
          "internalType": "uint256",
          "name": "amount",
          "type": "uint256"
        }
      ],
      "name": "burn",
      "outputs": [],
      "stateMutability": "nonpayable",
      "type": "function"
    },
    {
      "inputs": [],
      "name": "decimals",
      "outputs": [
        {
          "internalType": "uint8",
          "name": "",
          "type": "uint8"
        }
      ],
      "stateMutability": "view",
      "type": "function"
    },
    {
      "inputs": [],
      "name": "name",
      "outputs": [
        {
          "internalType": "string",
          "name": "",
          "type": "string"
        }
      ],
      "stateMutability": "view",
      "type": "function"
    },
    {
      "inputs": [
        {
          "internalType": "address",
          "name": "",
          "type": "address"
        }
      ],
      "name": "nonces",
      "outputs": [
        {
          "internalType": "uint256",
          "name": "",
          "type": "uint256"
        }
      ],
      "stateMutability": "view",
      "type": "function"
    },
    {
      "inputs": [
        {
          "internalType": "address",
          "name": "owner",
          "type": "address"
        },
        {
          "internalType": "address",
          "name": "spender",
          "type": "address"
        },
        {
          "internalType": "uint256",
          "name": "value",
          "type": "uint256"
        },
        {
          "internalType": "uint256",
          "name": "deadline",
          "type": "uint256"
        },
        {
          "internalType": "uint8",
          "name": "v",
          "type": "uint8"
        },
        {
          "internalType": "bytes32",
          "name": "r",
          "type": "bytes32"
        },
        {
          "internalType": "bytes32",
          "name": "s",
          "type": "bytes32"
        }
      ],
      "name": "permit",
      "outputs": [],
      "stateMutability": "nonpayable",
      "type": "function"
    },
    {
      "inputs": [],
      "name": "symbol",
      "outputs": [
        {
          "internalType": "string",
          "name": "",
          "type": "string"
        }
      ],
      "stateMutability": "view",
      "type": "function"
    },
    {
      "inputs": [],
      "name": "totalSupply",
      "outputs": [
        {
          "internalType": "uint256",
          "name": "",
          "type": "uint256"
        }
      ],
      "stateMutability": "view",
      "type": "function"
    },
    {
      "inputs": [
        {
          "internalType": "address",
          "name": "to",
          "type": "address"
        },
        {
          "internalType": "uint256",
          "name": "amount",
          "type": "uint256"
        }
      ],
      "name": "transfer",
      "outputs": [
        {
          "internalType": "bool",
          "name": "",
          "type": "bool"
        }
      ],
      "stateMutability": "nonpayable",
      "type": "function"
    },
    {
      "inputs": [
        {
          "internalType": "address",
          "name": "from",
          "type": "address"
        },
        {
          "internalType": "address",
          "name": "to",
          "type": "address"
        },
        {
          "internalType": "uint256",
          "name": "amount",
          "type": "uint256"
        }
      ],
      "name": "transferFrom",
      "outputs": [
        {
          "internalType": "bool",
          "name": "",
          "type": "bool"
        }
      ],
      "stateMutability": "nonpayable",
      "type": "function"
    }
  ],
  "bytecode": "0x60e060405234801561000f575f5ffd5b5060405161119438038061119483398101604081905261002e91610216565b8383835f61003c848261031d565b506001610049838261031d565b5060ff81166080524660a05261005d610078565b60c0525061006f915033905082610110565b5050505061046d565b5f7f8b73c3c69bb8fe3d512ecc4cf759cc79239f7b179b0ffacaa9a75d522b39400f5f6040516100a891906103d7565b6040805191829003822060208301939093528101919091527fc89efdaa54c0f20c7adf612882df0950f5a951637e0307cdcb4c672f298b8bc660608201524660808201523060a082015260c00160405160208183030381529060405280519060200120905090565b8060025f8282546101219190610448565b90915550506001600160a01b0382165f818152600360209081526040808320805486019055518481527fddf252ad1be2c89b69c2b068fc378daa952ba7f163c4a11628f55a4df523b3ef910160405180910390a35050565b634e487b7160e01b5f52604160045260245ffd5b5f82601f83011261019c575f5ffd5b81516001600160401b038111156101b5576101b5610179565b604051601f8201601f19908116603f011681016001600160401b03811182821017156101e3576101e3610179565b6040528181528382016020018510156101fa575f5ffd5b8160208501602083015e5f918101602001919091529392505050565b5f5f5f5f60808587031215610229575f5ffd5b84516001600160401b0381111561023e575f5ffd5b61024a8782880161018d565b602087015190955090506001600160401b03811115610267575f5ffd5b6102738782880161018d565b935050604085015160ff81168114610289575f5ffd5b6060959095015193969295505050565b600181811c908216806102ad57607f821691505b6020821081036102cb57634e487b7160e01b5f52602260045260245ffd5b50919050565b601f82111561031857805f5260205f20601f840160051c810160208510156102f65750805b601f840160051c820191505b81811015610315575f8155600101610302565b50505b505050565b81516001600160401b0381111561033657610336610179565b61034a816103448454610299565b846102d1565b6020601f82116001811461037c575f83156103655750848201515b5f19600385901b1c1916600184901b178455610315565b5f84815260208120601f198516915b828110156103ab578785015182556020948501946001909201910161038b565b50848210156103c857868401515f19600387901b60f8161c191681555b50505050600190811b01905550565b5f5f83546103e481610299565b6001821680156103fb57600181146104105761043d565b60ff198316865281151582028601935061043d565b865f5260205f205f5b8381101561043557815488820152600190910190602001610419565b505081860193505b509195945050505050565b8082018082111561046757634e487b7160e01b5f52601160045260245ffd5b92915050565b60805160a05160c051610cfd6104975f395f6104b101525f61047c01525f61014e0152610cfd5ff3fe608060405234801561000f575f5ffd5b50600436106100da575f3560e01c806342966c681161008857806395d89b411161006357806395d89b41146101dd578063a9059cbb146101e5578063d505accf146101f8578063dd62ed3e1461020b575f5ffd5b806342966c681461018a57806370a082311461019f5780637ecebe00146101be575f5ffd5b806323b872dd116100b857806323b872dd14610136578063313ce567146101495780633644e51514610182575f5ffd5b806306fdde03146100de578063095ea7b3146100fc57806318160ddd1461011f575b5f5ffd5b6100e6610235565b6040516100f391906109b9565b60405180910390f35b61010f61010a366004610a34565b6102c0565b60405190151581526020016100f3565b61012860025481565b6040519081526020016100f3565b61010f610144366004610a5c565b610339565b6101707f000000000000000000000000000000000000000000000000000000000000000081565b60405160ff90911681526020016100f3565b610128610479565b61019d610198366004610a96565b6104d3565b005b6101286101ad366004610aad565b60036020525f908152604090205481565b6101286101cc366004610aad565b60056020525f908152604090205481565b6100e66104e0565b61010f6101f3366004610a34565b6104ed565b61019d610206366004610acd565b610570565b610128610219366004610b3a565b600460209081525f928352604080842090915290825290205481565b5f805461024190610b6b565b80601f016020809104026020016040519081016040528092919081815260200182805461026d90610b6b565b80156102b85780601f1061028f576101008083540402835291602001916102b8565b820191905f5260205f20905b81548152906001019060200180831161029b57829003601f168201915b505050505081565b335f81815260046020908152604080832073ffffffffffffffffffffffffffffffffffffffff8716808552925280832085905551919290917f8c5be1e5ebec7d5bd14f71427d1e84f3dd0314c0f7b2291e5b200ac8c7c3b925906103279086815260200190565b60405180910390a35060015b92915050565b73ffffffffffffffffffffffffffffffffffffffff83165f9081526004602090815260408083203384529091528120547fffffffffffffffffffffffffffffffffffffffffffffffffffffffffffffffff81146103cb5761039a8382610bbc565b73ffffffffffffffffffffffffffffffffffffffff86165f9081526004602090815260408083203384529091529020555b73ffffffffffffffffffffffffffffffffffffffff85165f90815260036020526040812080548592906103ff908490610bbc565b909155505073ffffffffffffffffffffffffffffffffffffffff8085165f81815260036020526040908190208054870190555190918716907fddf252ad1be2c89b69c2b068fc378daa952ba7f163c4a11628f55a4df523b3ef906104669087815260200190565b60405180910390a3506001949350505050565b5f7f000000000000000000000000000000000000000000000000000000000000000046146104ae576104a961088e565b905090565b507f000000000000000000000000000000000000000000000000000000000000000090565b6104dd3382610926565b50565b6001805461024190610b6b565b335f9081526003602052604081208054839190839061050d908490610bbc565b909155505073ffffffffffffffffffffffffffffffffffffffff83165f81815260036020526040908190208054850190555133907fddf252ad1be2c89b69c2b068fc378daa952ba7f163c4a11628f55a4df523b3ef906103279086815260200190565b428410156105df576040517f08c379a000000000000000000000000000000000000000000000000000000000815260206004820152601760248201527f5045524d49545f444541444c494e455f4558504952454400000000000000000060448201526064015b60405180910390fd5b5f60016105ea610479565b73ffffffffffffffffffffffffffffffffffffffff8a81165f8181526005602090815260409182902080546001810190915582517f6e71edae12b1b97f4d1f60370fef10105fa2faae0126114a169c64845d6126c98184015280840194909452938d166060840152608083018c905260a083019390935260c08083018b90528151808403909101815260e0830190915280519201919091207f190100000000000000000000000000000000000000000000000000000000000061010083015261010282019290925261012281019190915261014201604080517fffffffffffffffffffffffffffffffffffffffffffffffffffffffffffffffe081840301815282825280516020918201205f84529083018083525260ff871690820152606081018590526080810184905260a0016020604051602081039080840390855afa158015610738573d5f5f3e3d5ffd5b50506040517fffffffffffffffffffffffffffffffffffffffffffffffffffffffffffffffe0015191505073ffffffffffffffffffffffffffffffffffffffff8116158015906107b357508773ffffffffffffffffffffffffffffffffffffffff168173ffffffffffffffffffffffffffffffffffffffff16145b610819576040517f08c379a000000000000000000000000000000000000000000000000000000000815260206004820152600e60248201527f494e56414c49445f5349474e455200000000000000000000000000000000000060448201526064016105d6565b73ffffffffffffffffffffffffffffffffffffffff9081165f9081526004602090815260408083208a8516808552908352928190208990555188815291928a16917f8c5be1e5ebec7d5bd14f71427d1e84f3dd0314c0f7b2291e5b200ac8c7c3b925910160405180910390a350505050505050565b5f7f8b73c3c69bb8fe3d512ecc4cf759cc79239f7b179b0ffacaa9a75d522b39400f5f6040516108be9190610bf4565b6040805191829003822060208301939093528101919091527fc89efdaa54c0f20c7adf612882df0950f5a951637e0307cdcb4c672f298b8bc660608201524660808201523060a082015260c00160405160208183030381529060405280519060200120905090565b73ffffffffffffffffffffffffffffffffffffffff82165f908152600360205260408120805483929061095a908490610bbc565b90915550506002805482900390556040518181525f9073ffffffffffffffffffffffffffffffffffffffff8416907fddf252ad1be2c89b69c2b068fc378daa952ba7f163c4a11628f55a4df523b3ef9060200160405180910390a35050565b602081525f82518060208401528060208501604085015e5f6040828501015260407fffffffffffffffffffffffffffffffffffffffffffffffffffffffffffffffe0601f83011684010191505092915050565b803573ffffffffffffffffffffffffffffffffffffffff81168114610a2f575f5ffd5b919050565b5f5f60408385031215610a45575f5ffd5b610a4e83610a0c565b946020939093013593505050565b5f5f5f60608486031215610a6e575f5ffd5b610a7784610a0c565b9250610a8560208501610a0c565b929592945050506040919091013590565b5f60208284031215610aa6575f5ffd5b5035919050565b5f60208284031215610abd575f5ffd5b610ac682610a0c565b9392505050565b5f5f5f5f5f5f5f60e0888a031215610ae3575f5ffd5b610aec88610a0c565b9650610afa60208901610a0c565b95506040880135945060608801359350608088013560ff81168114610b1d575f5ffd5b9699959850939692959460a0840135945060c09093013592915050565b5f5f60408385031215610b4b575f5ffd5b610b5483610a0c565b9150610b6260208401610a0c565b90509250929050565b600181811c90821680610b7f57607f821691505b602082108103610bb6577f4e487b71000000000000000000000000000000000000000000000000000000005f52602260045260245ffd5b50919050565b81810381811115610333577f4e487b71000000000000000000000000000000000000000000000000000000005f52601160045260245ffd5b5f5f83545f8160011c90506001821680610c0f57607f821691505b602082108103610c46577f4e487b71000000000000000000000000000000000000000000000000000000005f52602260045260245ffd5b808015610c5a5760018114610c8d57610cbb565b7fffffffffffffffffffffffffffffffffffffffffffffffffffffffffffffff0084168752821515830287019450610cbb565b5f888152602090205f5b84811015610cb357815489820152600190910190602001610c97565b505082870194505b5092969550505050505056fea26469706673582212205df7019458ddc6a358585d679221b07a9e24fb31dbf8c630fcd1d119dc2aee2864736f6c634300081c0033",
  "linkReferences": {},
  "deployedLinkReferences": {}
}