{
  "_format": "hh-sol-artifact-1",
  "contractName": "MemeBase",
  "sourceName": "contracts/MemeBase.sol",
  "abi": [
    {
      "inputs": [
        {
          "internalType": "address",
          "name": "_olas",
          "type": "address"
        },
        {
          "internalType": "address",
          "name": "_usdc",
          "type": "address"
        },
        {
          "internalType": "address",
          "name": "_weth",
          "type": "address"
        },
        {
          "internalType": "address",
          "name": "_router",
          "type": "address"
        },
        {
          "internalType": "address",
          "name": "_factory",
          "type": "address"
        },
        {
          "internalType": "address",
          "name": "_l2TokenRelayer",
          "type": "address"
        },
        {
          "internalType": "address",
          "name": "_oracle",
          "type": "address"
        },
        {
          "internalType": "address",
          "name": "_balancerVault",
          "type": "address"
        },
        {
          "internalType": "bytes32",
          "name": "_balancerPoolId",
          "type": "bytes32"
        }
      ],
      "stateMutability": "nonpayable",
      "type": "constructor"
    },
    {
      "anonymous": false,
      "inputs": [
        {
          "indexed": true,
          "internalType": "address",
          "name": "hearter",
          "type": "address"
        },
        {
          "indexed": true,
          "internalType": "address",
          "name": "memeToken",
          "type": "address"
        },
        {
          "indexed": false,
          "internalType": "uint256",
          "name": "allocation",
          "type": "uint256"
        }
      ],
      "name": "Collected",
      "type": "event"
    },
    {
      "anonymous": false,
      "inputs": [
        {
          "indexed": true,
          "internalType": "address",
          "name": "hearter",
          "type": "address"
        },
        {
          "indexed": true,
          "internalType": "address",
          "name": "memeToken",
          "type": "address"
        },
        {
          "indexed": false,
          "internalType": "uint256",
          "name": "amount",
          "type": "uint256"
        }
      ],
      "name": "Hearted",
      "type": "event"
    },
    {
      "anonymous": false,
      "inputs": [
        {
          "indexed": true,
          "internalType": "address",
          "name": "olas",
          "type": "address"
        },
        {
          "indexed": false,
          "internalType": "uint256",
          "name": "amount",
          "type": "uint256"
        }
      ],
      "name": "OLASJourneyToAscendance",
      "type": "event"
    },
    {
      "anonymous": false,
      "inputs": [
        {
          "indexed": true,
          "internalType": "address",
          "name": "memeToken",
          "type": "address"
        },
        {
          "indexed": false,
          "internalType": "uint256",
          "name": "remainingAmount",
          "type": "uint256"
        }
      ],
      "name": "Purged",
      "type": "event"
    },
    {
      "anonymous": false,
      "inputs": [
        {
          "indexed": true,
          "internalType": "address",
          "name": "summoner",
          "type": "address"
        },
        {
          "indexed": true,
          "internalType": "address",
          "name": "memeToken",
          "type": "address"
        },
        {
          "indexed": false,
          "internalType": "uint256",
          "name": "ethContributed",
          "type": "uint256"
        }
      ],
      "name": "Summoned",
      "type": "event"
    },
    {
      "anonymous": false,
      "inputs": [
        {
          "indexed": true,
          "internalType": "address",
          "name": "unleasher",
          "type": "address"
        },
        {
          "indexed": true,
          "internalType": "address",
          "name": "memeToken",
          "type": "address"
        },
        {
          "indexed": true,
          "internalType": "address",
          "name": "lpPairAddress",
          "type": "address"
        },
        {
          "indexed": false,
          "internalType": "uint256",
          "name": "liquidity",
          "type": "uint256"
        }
      ],
      "name": "Unleashed",
      "type": "event"
    },
    {
      "inputs": [],
      "name": "COLLECT_DEADLINE",
      "outputs": [
        {
          "internalType": "uint256",
          "name": "",
          "type": "uint256"
        }
      ],
      "stateMutability": "view",
      "type": "function"
    },
    {
      "inputs": [],
      "name": "DECIMALS",
      "outputs": [
        {
          "internalType": "uint8",
          "name": "",
          "type": "uint8"
        }
      ],
      "stateMutability": "view",
      "type": "function"
    },
    {
      "inputs": [],
      "name": "LP_PERCENTAGE",
      "outputs": [
        {
          "internalType": "uint256",
          "name": "",
          "type": "uint256"
        }
      ],
      "stateMutability": "view",
      "type": "function"
    },
    {
      "inputs": [],
      "name": "MIN_ETH_VALUE",
      "outputs": [
        {
          "internalType": "uint256",
          "name": "",
          "type": "uint256"
        }
      ],
      "stateMutability": "view",
      "type": "function"
    },
    {
      "inputs": [],
      "name": "MIN_TOTAL_SUPPLY",
      "outputs": [
        {
          "internalType": "uint256",
          "name": "",
          "type": "uint256"
        }
      ],
      "stateMutability": "view",
      "type": "function"
    },
    {
      "inputs": [],
      "name": "OLAS_BURNER",
      "outputs": [
        {
          "internalType": "address",
          "name": "",
          "type": "address"
        }
      ],
      "stateMutability": "view",
      "type": "function"
    },
    {
      "inputs": [],
      "name": "OLAS_BURN_PERCENTAGE",
      "outputs": [
        {
          "internalType": "uint256",
          "name": "",
          "type": "uint256"
        }
      ],
      "stateMutability": "view",
      "type": "function"
    },
    {
      "inputs": [],
      "name": "SLIPPAGE",
      "outputs": [
        {
          "internalType": "uint256",
          "name": "",
          "type": "uint256"
        }
      ],
      "stateMutability": "view",
      "type": "function"
    },
    {
      "inputs": [],
      "name": "TOKEN_GAS_LIMIT",
      "outputs": [
        {
          "internalType": "uint32",
          "name": "",
          "type": "uint32"
        }
      ],
      "stateMutability": "view",
      "type": "function"
    },
    {
      "inputs": [],
      "name": "UNLEASH_DELAY",
      "outputs": [
        {
          "internalType": "uint256",
          "name": "",
          "type": "uint256"
        }
      ],
      "stateMutability": "view",
      "type": "function"
    },
    {
      "inputs": [],
      "name": "VERSION",
      "outputs": [
        {
          "internalType": "string",
          "name": "",
          "type": "string"
        }
      ],
      "stateMutability": "view",
      "type": "function"
    },
    {
      "inputs": [],
      "name": "balancerPoolId",
      "outputs": [
        {
          "internalType": "bytes32",
          "name": "",
          "type": "bytes32"
        }
      ],
      "stateMutability": "view",
      "type": "function"
    },
    {
      "inputs": [],
      "name": "balancerVault",
      "outputs": [
        {
          "internalType": "address",
          "name": "",
          "type": "address"
        }
      ],
      "stateMutability": "view",
      "type": "function"
    },
    {
      "inputs": [
        {
          "internalType": "address",
          "name": "memeToken",
          "type": "address"
        }
      ],
      "name": "collectThisMeme",
      "outputs": [],
      "stateMutability": "nonpayable",
      "type": "function"
    },
    {
      "inputs": [],
      "name": "factory",
      "outputs": [
        {
          "internalType": "address",
          "name": "",
          "type": "address"
        }
      ],
      "stateMutability": "view",
      "type": "function"
    },
    {
      "inputs": [
        {
          "internalType": "address",
          "name": "memeToken",
          "type": "address"
        }
      ],
      "name": "heartThisMeme",
      "outputs": [],
      "stateMutability": "payable",
      "type": "function"
    },
    {
      "inputs": [],
      "name": "l2TokenRelayer",
      "outputs": [
        {
          "internalType": "address",
          "name": "",
          "type": "address"
        }
      ],
      "stateMutability": "view",
      "type": "function"
    },
    {
      "inputs": [
        {
          "internalType": "address",
          "name": "",
          "type": "address"
        }
      ],
      "name": "mapAccountActivities",
      "outputs": [
        {
          "internalType": "uint256",
          "name": "",
          "type": "uint256"
        }
      ],
      "stateMutability": "view",
      "type": "function"
    },
    {
      "inputs": [
        {
          "internalType": "address",
          "name": "",
          "type": "address"
        },
        {
          "internalType": "address",
          "name": "",
          "type": "address"
        }
      ],
      "name": "memeHearters",
      "outputs": [
        {
          "internalType": "uint256",
          "name": "",
          "type": "uint256"
        }
      ],
      "stateMutability": "view",
      "type": "function"
    },
    {
      "inputs": [
        {
          "internalType": "address",
          "name": "",
          "type": "address"
        }
      ],
      "name": "memeSummons",
      "outputs": [
        {
          "internalType": "uint256",
          "name": "ethContributed",
          "type": "uint256"
        },
        {
          "internalType": "uint256",
          "name": "summonTime",
          "type": "uint256"
        },
        {
          "internalType": "uint256",
          "name": "unleashTime",
          "type": "uint256"
        },
        {
          "internalType": "uint256",
          "name": "heartersAmount",
          "type": "uint256"
        }
      ],
      "stateMutability": "view",
      "type": "function"
    },
    {
      "inputs": [
        {
          "internalType": "uint256",
          "name": "",
          "type": "uint256"
        }
      ],
      "name": "memeTokens",
      "outputs": [
        {
          "internalType": "address",
          "name": "",
          "type": "address"
        }
      ],
      "stateMutability": "view",
      "type": "function"
    },
    {
      "inputs": [],
      "name": "numTokens",
      "outputs": [
        {
          "internalType": "uint256",
          "name": "",
          "type": "uint256"
        }
      ],
      "stateMutability": "view",
      "type": "function"
    },
    {
      "inputs": [],
      "name": "olas",
      "outputs": [
        {
          "internalType": "address",
          "name": "",
          "type": "address"
        }
      ],
      "stateMutability": "view",
      "type": "function"
    },
    {
      "inputs": [],
      "name": "oracle",
      "outputs": [
        {
          "internalType": "address",
          "name": "",
          "type": "address"
        }
      ],
      "stateMutability": "view",
      "type": "function"
    },
    {
      "inputs": [
        {
          "internalType": "address",
          "name": "memeToken",
          "type": "address"
        }
      ],
      "name": "purgeThisMeme",
      "outputs": [],
      "stateMutability": "nonpayable",
      "type": "function"
    },
    {
      "inputs": [],
      "name": "router",
      "outputs": [
        {
          "internalType": "address",
          "name": "",
          "type": "address"
        }
      ],
      "stateMutability": "view",
      "type": "function"
    },
    {
      "inputs": [
        {
          "internalType": "uint256",
          "name": "olasSpotPrice",
          "type": "uint256"
        },
        {
          "internalType": "uint256",
          "name": "tokenGasLimit",
          "type": "uint256"
        }
      ],
      "name": "scheduleOLASForAscendance",
      "outputs": [],
      "stateMutability": "nonpayable",
      "type": "function"
    },
    {
      "inputs": [],
      "name": "scheduledForAscendance",
      "outputs": [
        {
          "internalType": "uint256",
          "name": "",
          "type": "uint256"
        }
      ],
      "stateMutability": "view",
      "type": "function"
    },
    {
      "inputs": [
        {
          "internalType": "string",
          "name": "name",
          "type": "string"
        },
        {
          "internalType": "string",
          "name": "symbol",
          "type": "string"
        },
        {
          "internalType": "uint256",
          "name": "totalSupply",
          "type": "uint256"
        }
      ],
      "name": "summonThisMeme",
      "outputs": [],
      "stateMutability": "payable",
      "type": "function"
    },
    {
      "inputs": [
        {
          "internalType": "address",
          "name": "memeToken",
          "type": "address"
        }
      ],
      "name": "unleashThisMeme",
      "outputs": [],
      "stateMutability": "nonpayable",
      "type": "function"
    },
    {
      "inputs": [],
      "name": "usdc",
      "outputs": [
        {
          "internalType": "address",
          "name": "",
          "type": "address"
        }
      ],
      "stateMutability": "view",
      "type": "function"
    },
    {
      "inputs": [],
      "name": "weth",
      "outputs": [
        {
          "internalType": "address",
          "name": "",
          "type": "address"
        }
      ],
      "stateMutability": "view",
      "type": "function"
    },
    {
      "stateMutability": "payable",
      "type": "receive"
    }
  ],
  "bytecode": "0x6101a0604052348015610010575f5ffd5b50604051613db2380380613db283398101604081905261002f9161008d565b6001600160a01b0398891660a05296881660c05294871660e052928616610100529085166101205284166101405283166101605290911661018052608052610128565b80516001600160a01b0381168114610088575f5ffd5b919050565b5f5f5f5f5f5f5f5f5f6101208a8c0312156100a6575f5ffd5b6100af8a610072565b98506100bd60208b01610072565b97506100cb60408b01610072565b96506100d960608b01610072565b95506100e760808b01610072565b94506100f560a08b01610072565b935061010360c08b01610072565b925061011160e08b01610072565b91506101008a015190509295985092959850929598565b60805160a05160c05160e0516101005161012051610140516101605161018051613b8b6102275f395f81816102dc0152818161157e015261176001525f81816104af0152611b9801525f818161051c01528181611824015261199701525f81816105770152611e1c01525f818161067b01528181611cc401528181611ec301528181611f9f01526120ad01525f81816103d00152611abc01525f818161039d015281816115af0152818161166901528181611b2901528181611de801528181611ef5015261205601525f81816101f90152818161169001528181611853015281816119c40152611a2301525f81816105f301526116280152613b8b5ff3fe6080604052600436106101dd575f3560e01c80637dc0d1d0116100fd578063c694067211610092578063f74e481b11610062578063f74e481b14610615578063f76c603714610634578063f887ea401461066a578063ffa1ad741461069d575f5ffd5b8063c694067214610599578063d1b0c288146105b8578063dab346ff146105ce578063dbbb64b9146105e2575f5ffd5b8063a7be1b50116100cd578063a7be1b501461050b578063b1bd3c951461053e578063be399e2b14610551578063c45a015514610566575f5ffd5b80637dc0d1d01461049e5780638b9ee610146104d15780638e499bcf146104e45780639823bb13146104f8575f5ffd5b80633d0cc37511610173578063466ffbce11610143578063466ffbce1461041d5780634c1c6cbf1461043c5780635122c409146104675780636c00857b14610484575f5ffd5b80633d0cc3751461036d5780633e413bee1461038c5780633fc8cef3146103bf57806340b67a9b146103f2575f5ffd5b80632e0f2625116101ae5780632e0f2625146102fe57806334e74a051461032457806335f9f8d91461034557806336b4134a14610359575f5ffd5b806231d115146101e85780630a42f8bd1461024557806314c7312b14610269578063158274a5146102cb575f5ffd5b366101e457005b5f5ffd5b3480156101f3575f5ffd5b5061021b7f000000000000000000000000000000000000000000000000000000000000000081565b60405173ffffffffffffffffffffffffffffffffffffffff90911681526020015b60405180910390f35b348015610250575f5ffd5b5061025b6202a30081565b60405190815260200161023c565b348015610274575f5ffd5b506102ab61028336600461227c565b600260208190525f918252604090912080546001820154928201546003909201549092919084565b60408051948552602085019390935291830152606082015260800161023c565b3480156102d6575f5ffd5b5061021b7f000000000000000000000000000000000000000000000000000000000000000081565b348015610309575f5ffd5b50610312601281565b60405160ff909116815260200161023c565b34801561032f575f5ffd5b5061034361033e36600461229e565b6106f2565b005b348015610350575f5ffd5b5061025b603281565b348015610364575f5ffd5b5061025b606181565b348015610378575f5ffd5b5061034361038736600461227c565b6107a3565b348015610397575f5ffd5b5061021b7f000000000000000000000000000000000000000000000000000000000000000081565b3480156103ca575f5ffd5b5061021b7f000000000000000000000000000000000000000000000000000000000000000081565b3480156103fd575f5ffd5b5061025b61040c36600461227c565b60046020525f908152604090205481565b348015610428575f5ffd5b5061021b6104373660046122be565b610b11565b348015610447575f5ffd5b50610452620493e081565b60405163ffffffff909116815260200161023c565b348015610472575f5ffd5b5061025b69d3c21bcecceda100000081565b34801561048f575f5ffd5b5061025b662386f26fc1000081565b3480156104a9575f5ffd5b5061021b7f000000000000000000000000000000000000000000000000000000000000000081565b3480156104dc575f5ffd5b5061021b5f81565b3480156104ef575f5ffd5b5061025b5f5481565b61034361050636600461227c565b610b46565b348015610516575f5ffd5b5061021b7f000000000000000000000000000000000000000000000000000000000000000081565b61034361054c3660046123db565b610d94565b34801561055c575f5ffd5b5061025b60015481565b348015610571575f5ffd5b5061021b7f000000000000000000000000000000000000000000000000000000000000000081565b3480156105a4575f5ffd5b506103436105b336600461227c565b61101d565b3480156105c3575f5ffd5b5061025b6201518081565b3480156105d9575f5ffd5b5061025b600a81565b3480156105ed575f5ffd5b5061025b7f000000000000000000000000000000000000000000000000000000000000000081565b348015610620575f5ffd5b5061034361062f36600461227c565b61131a565b34801561063f575f5ffd5b5061025b61064e366004612449565b600360209081525f928352604080842090915290825290205481565b348015610675575f5ffd5b5061021b7f000000000000000000000000000000000000000000000000000000000000000081565b3480156106a8575f5ffd5b506106e56040518060400160405280600581526020017f302e312e3000000000000000000000000000000000000000000000000000000081525081565b60405161023c91906124cc565b5f60015411610762576040517f08c379a000000000000000000000000000000000000000000000000000000000815260206004820152600f60248201527f4e6f7468696e6720746f206275726e000000000000000000000000000000000060448201526064015b60405180910390fd5b335f90815260046020526040812080549161077c8361250b565b91905055505f61078e60015484611541565b5f600155905061079e81836117e7565b505050565b73ffffffffffffffffffffffffffffffffffffffff81165f908152600260208181526040928390208351608081018552815481526001820154928101839052928101549383019390935260039092015460608201529061085f576040517f08c379a000000000000000000000000000000000000000000000000000000000815260206004820152601160248201527f4d656d65206e6f742073756d6d6f6e65640000000000000000000000000000006044820152606401610759565b6202a30081602001516108729190612542565b4211610900576040517f08c379a000000000000000000000000000000000000000000000000000000000815260206004820152602d60248201527f5075726765206f6e6c7920616c6c6f7765642066726f6d20343820686f75727360448201527f2061667465722073756d6d6f6e000000000000000000000000000000000000006064820152608401610759565b335f90815260046020526040812080549161091a8361250b565b90915550506040517f70a0823100000000000000000000000000000000000000000000000000000000815230600482015282905f9073ffffffffffffffffffffffffffffffffffffffff8316906370a0823190602401602060405180830381865afa15801561098b573d5f5f3e3d5ffd5b505050506040513d601f19601f820116820180604052508101906109af9190612555565b90505f8111610a40576040517f08c379a000000000000000000000000000000000000000000000000000000000815260206004820152602360248201527f486173206265656e20707572676564206f72206e6f7468696e6720746f20707560448201527f72676500000000000000000000000000000000000000000000000000000000006064820152608401610759565b6040517f42966c680000000000000000000000000000000000000000000000000000000081526004810182905273ffffffffffffffffffffffffffffffffffffffff8316906342966c68906024015f604051808303815f87803b158015610aa5575f5ffd5b505af1158015610ab7573d5f5f3e3d5ffd5b505050508373ffffffffffffffffffffffffffffffffffffffff167f265db6c9c62cb962adbcf4398a54e4b02b2d87b28ab5b7538850150465a5f43c82604051610b0391815260200190565b60405180910390a250505050565b60058181548110610b20575f80fd5b5f9182526020909120015473ffffffffffffffffffffffffffffffffffffffff16905081565b5f3411610bd4576040517f08c379a0000000000000000000000000000000000000000000000000000000008152602060048201526024808201527f45544820616d6f756e74206d7573742062652067726561746572207468616e2060448201527f7a65726f000000000000000000000000000000000000000000000000000000006064820152608401610759565b73ffffffffffffffffffffffffffffffffffffffff81165f908152600260205260409020805480610c61576040517f08c379a000000000000000000000000000000000000000000000000000000000815260206004820152601560248201527f4d656d65206e6f74207965742073756d6d6f6e656400000000000000000000006044820152606401610759565b600282015415610ccd576040517f08c379a000000000000000000000000000000000000000000000000000000000815260206004820152601660248201527f4d656d6520616c726561647920756e6c656173686564000000000000000000006044820152606401610759565b610cd73482612542565b80835573ffffffffffffffffffffffffffffffffffffffff84165f908152600360209081526040808320338452909152812080549293503492909190610d1e908490612542565b9091555050335f908152600460205260408120805491610d3d8361250b565b909155505060405134815273ffffffffffffffffffffffffffffffffffffffff84169033907fb4dec46ff7703ee80325aa5ed4df0691d6d8791df96b50240552403cec1c9eda9060200160405180910390a3505050565b662386f26fc10000341015610e2b576040517f08c379a000000000000000000000000000000000000000000000000000000000815260206004820152602760248201527f4d696e696d756d204554482076616c756520697320726571756972656420746f60448201527f2073756d6d6f6e000000000000000000000000000000000000000000000000006064820152608401610759565b69d3c21bcecceda1000000811015610e9f576040517f08c379a000000000000000000000000000000000000000000000000000000000815260206004820152601f60248201527f4d696e696d756d20746f74616c20737570706c79206973206e6f74206d6574006044820152606401610759565b5f8383601284604051610eb19061224b565b610ebe949392919061256c565b604051809103905ff080158015610ed7573d5f5f3e3d5ffd5b5060408051608081018252348082524260208084019182525f8486018181526060860182815273ffffffffffffffffffffffffffffffffffffffff891680845260028086528985209851895595516001808a0191909155925195880195909555516003968701559482528581203382528252858120939093556005805494850181557f036b6384b5eca791c62761152d0c79bb0604c104a5fb6f4eb0703f3154bb3db090940180547fffffffffffffffffffffffff0000000000000000000000000000000000000000169092179091559154815560049091529081208054929350839291610fc48361250b565b909155505060405134815273ffffffffffffffffffffffffffffffffffffffff82169033907f109fe5b1a043e1fc6e8b6f4905613c0a5b82de0d8798558c67f0243106b2d7ad9060200160405180910390a35050505050565b73ffffffffffffffffffffffffffffffffffffffff81165f908152600260205260409020805460018201546110ae576040517f08c379a000000000000000000000000000000000000000000000000000000000815260206004820152601160248201527f4d656d65206e6f742073756d6d6f6e65640000000000000000000000000000006044820152606401610759565b6201518082600101546110c19190612542565b42101561112a576040517f08c379a000000000000000000000000000000000000000000000000000000000815260206004820152601260248201527f43616e6e6f7420756e6c656173682079657400000000000000000000000000006044820152606401610759565b5f61113482611a96565b90505f6064611144600a846125a7565b61114e91906125be565b90508060015f8282546111619190612542565b90915550611171905081836125f6565b91505f8590505f8173ffffffffffffffffffffffffffffffffffffffff166318160ddd6040518163ffffffff1660e01b8152600401602060405180830381865afa1580156111c1573d5f5f3e3d5ffd5b505050506040513d601f19601f820116820180604052508101906111e59190612555565b90505f60646111f56032846125a7565b6111ff91906125be565b90505f61120c82846125f6565b90505f5f61121b8b8986611dab565b4260028d015560038c01859055335f90815260046020526040812080549395509193506112478361250b565b909155505073ffffffffffffffffffffffffffffffffffffffff8b165f908152600360209081526040808320338452909152902054801561128e5761128e8c82868d612126565b8273ffffffffffffffffffffffffffffffffffffffff168c73ffffffffffffffffffffffffffffffffffffffff163373ffffffffffffffffffffffffffffffffffffffff167fcaeb7f76e7446747e5e9f0836b17f463bfe281895f20e99189de6d2b418adb988560405161130491815260200190565b60405180910390a4505050505050505050505050565b73ffffffffffffffffffffffffffffffffffffffff81165f90815260026020818152604092839020835160808101855281548152600182015492810192909252918201549281018390526003909101546060820152906113d6576040517f08c379a000000000000000000000000000000000000000000000000000000000815260206004820152601260248201527f4d656d65206e6f7420756e6c65617368656400000000000000000000000000006044820152606401610759565b6202a30081602001516113e99190612542565b421115611478576040517f08c379a000000000000000000000000000000000000000000000000000000000815260206004820152603060248201527f436f6c6c656374206f6e6c7920616c6c6f77656420756e74696c20343820686f60448201527f7572732061667465722073756d6d6f6e000000000000000000000000000000006064820152608401610759565b73ffffffffffffffffffffffffffffffffffffffff82165f9081526003602090815260408083203384529091529020548061150f576040517f08c379a000000000000000000000000000000000000000000000000000000000815260206004820152601360248201527f4e6f20746f6b656e20616c6c6f636174696f6e000000000000000000000000006044820152606401610759565b335f9081526004602052604081208054916115298361250b565b919050555061079e83828460600151855f0151612126565b6040517f095ea7b300000000000000000000000000000000000000000000000000000000815273ffffffffffffffffffffffffffffffffffffffff7f000000000000000000000000000000000000000000000000000000000000000081166004830152602482018490525f917f00000000000000000000000000000000000000000000000000000000000000009091169063095ea7b3906044016020604051808303815f875af11580156115f7573d5f5f3e3d5ffd5b505050506040513d601f19601f8201168201806040525081019061161b9190612609565b506040805160c0810182527f000000000000000000000000000000000000000000000000000000000000000081525f602080830182905273ffffffffffffffffffffffffffffffffffffffff7f00000000000000000000000000000000000000000000000000000000000000008116848601527f000000000000000000000000000000000000000000000000000000000000000016606080850191909152608080850189905285518087018752600281527f30780000000000000000000000000000000000000000000000000000000000008185015260a0860152855190810186523080825292810184905294850191909152830181905290919061172085876125a7565b6040517f52bbbe2900000000000000000000000000000000000000000000000000000000815290915073ffffffffffffffffffffffffffffffffffffffff7f000000000000000000000000000000000000000000000000000000000000000016906352bbbe299061179b908690869086904290600401612628565b6020604051808303815f875af11580156117b7573d5f5f3e3d5ffd5b505050506040513d601f19601f820116820180604052508101906117db9190612555565b93505050505b92915050565b6040517f095ea7b300000000000000000000000000000000000000000000000000000000815273ffffffffffffffffffffffffffffffffffffffff7f000000000000000000000000000000000000000000000000000000000000000081166004830152602482018490527f0000000000000000000000000000000000000000000000000000000000000000169063095ea7b3906044016020604051808303815f875af1158015611899573d5f5f3e3d5ffd5b505050506040513d601f19601f820116820180604052508101906118bd9190612609565b50620493e08110156118cf5750620493e05b5f826040516024016118e391815260200190565b604080517fffffffffffffffffffffffffffffffffffffffffffffffffffffffffffffffe08184030181529181526020820180517bffffffffffffffffffffffffffffffffffffffffffffffffffffffff167f42966c6800000000000000000000000000000000000000000000000000000000179052517fa3a7954800000000000000000000000000000000000000000000000000000000815290915073ffffffffffffffffffffffffffffffffffffffff7f0000000000000000000000000000000000000000000000000000000000000000169063a3a79548906119f4907f0000000000000000000000000000000000000000000000000000000000000000905f90889088908890600401612757565b5f604051808303815f87803b158015611a0b575f5ffd5b505af1158015611a1d573d5f5f3e3d5ffd5b505050507f000000000000000000000000000000000000000000000000000000000000000073ffffffffffffffffffffffffffffffffffffffff167f40a3e75fd2efcf074c9c0520c5367ccb3093ded646970bdc8c3108748e5d3f0e84604051611a8991815260200190565b60405180910390a2505050565b6040805160028082526060820183525f92839291906020830190803683370190505090507f0000000000000000000000000000000000000000000000000000000000000000815f81518110611aed57611aed6127be565b602002602001019073ffffffffffffffffffffffffffffffffffffffff16908173ffffffffffffffffffffffffffffffffffffffff16815250507f000000000000000000000000000000000000000000000000000000000000000081600181518110611b5b57611b5b6127be565b602002602001019073ffffffffffffffffffffffffffffffffffffffff16908173ffffffffffffffffffffffffffffffffffffffff16815250505f7f000000000000000000000000000000000000000000000000000000000000000073ffffffffffffffffffffffffffffffffffffffff1663feaf968c6040518163ffffffff1660e01b815260040160a0604051808303815f875af1158015611c00573d5f5f3e3d5ffd5b505050506040513d601f19601f82011682018060405250810190611c249190612809565b5050509150505f8113611c93576040517f08c379a000000000000000000000000000000000000000000000000000000000815260206004820152601960248201527f4f7261636c6520707269636520697320696e636f7272656374000000000000006044820152606401610759565b5f69021e19e0c9bab24000006061611cab87856125a7565b611cb591906125a7565b611cbf91906125be565b90505f7f000000000000000000000000000000000000000000000000000000000000000073ffffffffffffffffffffffffffffffffffffffff16637ff36ab587848730426040518663ffffffff1660e01b8152600401611d229493929190612857565b5f6040518083038185885af1158015611d3d573d5f5f3e3d5ffd5b50505050506040513d5f823e601f3d9081017fffffffffffffffffffffffffffffffffffffffffffffffffffffffffffffffe0168201604052611d8391908101906128da565b905080600181518110611d9857611d986127be565b6020026020010151945050505050919050565b6040517fc9c6539600000000000000000000000000000000000000000000000000000000815273ffffffffffffffffffffffffffffffffffffffff7f00000000000000000000000000000000000000000000000000000000000000008116600483015284811660248301525f9182917f0000000000000000000000000000000000000000000000000000000000000000169063c9c65396906044016020604051808303815f875af1158015611e62573d5f5f3e3d5ffd5b505050506040513d601f19601f82011682018060405250810190611e86919061297b565b6040517f095ea7b300000000000000000000000000000000000000000000000000000000815273ffffffffffffffffffffffffffffffffffffffff7f000000000000000000000000000000000000000000000000000000000000000081166004830152602482018790529193507f00000000000000000000000000000000000000000000000000000000000000009091169063095ea7b3906044016020604051808303815f875af1158015611f3d573d5f5f3e3d5ffd5b505050506040513d601f19601f82011682018060405250810190611f619190612609565b506040517f095ea7b300000000000000000000000000000000000000000000000000000000815273ffffffffffffffffffffffffffffffffffffffff7f0000000000000000000000000000000000000000000000000000000000000000811660048301526024820185905286169063095ea7b3906044016020604051808303815f875af1158015611ff4573d5f5f3e3d5ffd5b505050506040513d601f19601f820116820180604052508101906120189190612609565b506040517fe8e3370000000000000000000000000000000000000000000000000000000000815273ffffffffffffffffffffffffffffffffffffffff7f000000000000000000000000000000000000000000000000000000000000000081166004830152868116602483015260448201869052606482018590525f6084830181905260a48301523060c48301524260e48301527f0000000000000000000000000000000000000000000000000000000000000000169063e8e3370090610104016060604051808303815f875af11580156120f4573d5f5f3e3d5ffd5b505050506040513d601f19601f820116820180604052508101906121189190612996565b939793965092945050505050565b835f8261213385876125a7565b61213d91906125be565b73ffffffffffffffffffffffffffffffffffffffff8781165f9081526003602090815260408083203380855292528083209290925590517fa9059cbb00000000000000000000000000000000000000000000000000000000815260048101919091526024810183905291925083169063a9059cbb906044016020604051808303815f875af11580156121d1573d5f5f3e3d5ffd5b505050506040513d601f19601f820116820180604052508101906121f59190612609565b5060405181815273ffffffffffffffffffffffffffffffffffffffff87169033907f484decdc1e9549e1866295f6f86c889ded3f7de410e7488a7a415978589dc8fd9060200160405180910390a3505050505050565b611194806129c283390190565b73ffffffffffffffffffffffffffffffffffffffff81168114612279575f5ffd5b50565b5f6020828403121561228c575f5ffd5b813561229781612258565b9392505050565b5f5f604083850312156122af575f5ffd5b50508035926020909101359150565b5f602082840312156122ce575f5ffd5b5035919050565b7f4e487b71000000000000000000000000000000000000000000000000000000005f52604160045260245ffd5b604051601f82017fffffffffffffffffffffffffffffffffffffffffffffffffffffffffffffffe016810167ffffffffffffffff81118282101715612349576123496122d5565b604052919050565b5f82601f830112612360575f5ffd5b813567ffffffffffffffff81111561237a5761237a6122d5565b6123ab60207fffffffffffffffffffffffffffffffffffffffffffffffffffffffffffffffe0601f84011601612302565b8181528460208386010111156123bf575f5ffd5b816020850160208301375f918101602001919091529392505050565b5f5f5f606084860312156123ed575f5ffd5b833567ffffffffffffffff811115612403575f5ffd5b61240f86828701612351565b935050602084013567ffffffffffffffff81111561242b575f5ffd5b61243786828701612351565b93969395505050506040919091013590565b5f5f6040838503121561245a575f5ffd5b823561246581612258565b9150602083013561247581612258565b809150509250929050565b5f81518084528060208401602086015e5f6020828601015260207fffffffffffffffffffffffffffffffffffffffffffffffffffffffffffffffe0601f83011685010191505092915050565b602081525f6122976020830184612480565b7f4e487b71000000000000000000000000000000000000000000000000000000005f52601160045260245ffd5b5f7fffffffffffffffffffffffffffffffffffffffffffffffffffffffffffffffff820361253b5761253b6124de565b5060010190565b808201808211156117e1576117e16124de565b5f60208284031215612565575f5ffd5b5051919050565b608081525f61257e6080830187612480565b82810360208401526125908187612480565b60ff95909516604084015250506060015292915050565b80820281158282048414176117e1576117e16124de565b5f826125f1577f4e487b71000000000000000000000000000000000000000000000000000000005f52601260045260245ffd5b500490565b818103818111156117e1576117e16124de565b5f60208284031215612619575f5ffd5b81518015158114612297575f5ffd5b60e08152845160e08201525f60208601516002811061266e577f4e487b71000000000000000000000000000000000000000000000000000000005f52602160045260245ffd5b610100830152604086015173ffffffffffffffffffffffffffffffffffffffff1661012083015260608601516126bd61014084018273ffffffffffffffffffffffffffffffffffffffff169052565b50608086015161016083015260a086015160c06101808401526126e46101a0840182612480565b915050612745602083018673ffffffffffffffffffffffffffffffffffffffff815116825260208101511515602083015273ffffffffffffffffffffffffffffffffffffffff60408201511660408301526060810151151560608301525050565b60a082019390935260c0015292915050565b73ffffffffffffffffffffffffffffffffffffffff8616815273ffffffffffffffffffffffffffffffffffffffff8516602082015283604082015263ffffffff8316606082015260a060808201525f6127b360a0830184612480565b979650505050505050565b7f4e487b71000000000000000000000000000000000000000000000000000000005f52603260045260245ffd5b805169ffffffffffffffffffff81168114612804575f5ffd5b919050565b5f5f5f5f5f60a0868803121561281d575f5ffd5b612826866127eb565b6020870151604088015160608901519297509095509350915061284b608087016127eb565b90509295509295909350565b5f608082018683526080602084015280865180835260a0850191506020880192505f5b818110156128ae57835173ffffffffffffffffffffffffffffffffffffffff1683526020938401939092019160010161287a565b505073ffffffffffffffffffffffffffffffffffffffff95909516604084015250506060015292915050565b5f602082840312156128ea575f5ffd5b815167ffffffffffffffff811115612900575f5ffd5b8201601f81018413612910575f5ffd5b805167ffffffffffffffff81111561292a5761292a6122d5565b8060051b61293a60208201612302565b91825260208184018101929081019087841115612955575f5ffd5b6020850194505b838510156127b35784518083526020958601959093509091019061295c565b5f6020828403121561298b575f5ffd5b815161229781612258565b5f5f5f606084860312156129a8575f5ffd5b505081516020830151604090930151909492935091905056fe60e060405234801561000f575f5ffd5b5060405161119438038061119483398101604081905261002e91610216565b8383835f61003c848261031d565b506001610049838261031d565b5060ff81166080524660a05261005d610078565b60c0525061006f915033905082610110565b5050505061046d565b5f7f8b73c3c69bb8fe3d512ecc4cf759cc79239f7b179b0ffacaa9a75d522b39400f5f6040516100a891906103d7565b6040805191829003822060208301939093528101919091527fc89efdaa54c0f20c7adf612882df0950f5a951637e0307cdcb4c672f298b8bc660608201524660808201523060a082015260c00160405160208183030381529060405280519060200120905090565b8060025f8282546101219190610448565b90915550506001600160a01b0382165f818152600360209081526040808320805486019055518481527fddf252ad1be2c89b69c2b068fc378daa952ba7f163c4a11628f55a4df523b3ef910160405180910390a35050565b634e487b7160e01b5f52604160045260245ffd5b5f82601f83011261019c575f5ffd5b81516001600160401b038111156101b5576101b5610179565b604051601f8201601f19908116603f011681016001600160401b03811182821017156101e3576101e3610179565b6040528181528382016020018510156101fa575f5ffd5b8160208501602083015e5f918101602001919091529392505050565b5f5f5f5f60808587031215610229575f5ffd5b84516001600160401b0381111561023e575f5ffd5b61024a8782880161018d565b602087015190955090506001600160401b03811115610267575f5ffd5b6102738782880161018d565b935050604085015160ff81168114610289575f5ffd5b6060959095015193969295505050565b600181811c908216806102ad57607f821691505b6020821081036102cb57634e487b7160e01b5f52602260045260245ffd5b50919050565b601f82111561031857805f5260205f20601f840160051c810160208510156102f65750805b601f840160051c820191505b81811015610315575f8155600101610302565b50505b505050565b81516001600160401b0381111561033657610336610179565b61034a816103448454610299565b846102d1565b6020601f82116001811461037c575f83156103655750848201515b5f19600385901b1c1916600184901b178455610315565b5f84815260208120601f198516915b828110156103ab578785015182556020948501946001909201910161038b565b50848210156103c857868401515f19600387901b60f8161c191681555b50505050600190811b01905550565b5f5f83546103e481610299565b6001821680156103fb57600181146104105761043d565b60ff198316865281151582028601935061043d565b865f5260205f205f5b8381101561043557815488820152600190910190602001610419565b505081860193505b509195945050505050565b8082018082111561046757634e487b7160e01b5f52601160045260245ffd5b92915050565b60805160a05160c051610cfd6104975f395f6104b101525f61047c01525f61014e0152610cfd5ff3fe608060405234801561000f575f5ffd5b50600436106100da575f3560e01c806342966c681161008857806395d89b411161006357806395d89b41146101dd578063a9059cbb146101e5578063d505accf146101f8578063dd62ed3e1461020b575f5ffd5b806342966c681461018a57806370a082311461019f5780637ecebe00146101be575f5ffd5b806323b872dd116100b857806323b872dd14610136578063313ce567146101495780633644e51514610182575f5ffd5b806306fdde03146100de578063095ea7b3146100fc57806318160ddd1461011f575b5f5ffd5b6100e6610235565b6040516100f391906109b9565b60405180910390f35b61010f61010a366004610a34565b6102c0565b60405190151581526020016100f3565b61012860025481565b6040519081526020016100f3565b61010f610144366004610a5c565b610339565b6101707f000000000000000000000000000000000000000000000000000000000000000081565b60405160ff90911681526020016100f3565b610128610479565b61019d610198366004610a96565b6104d3565b005b6101286101ad366004610aad565b60036020525f908152604090205481565b6101286101cc366004610aad565b60056020525f908152604090205481565b6100e66104e0565b61010f6101f3366004610a34565b6104ed565b61019d610206366004610acd565b610570565b610128610219366004610b3a565b600460209081525f928352604080842090915290825290205481565b5f805461024190610b6b565b80601f016020809104026020016040519081016040528092919081815260200182805461026d90610b6b565b80156102b85780601f1061028f576101008083540402835291602001916102b8565b820191905f5260205f20905b81548152906001019060200180831161029b57829003601f168201915b505050505081565b335f81815260046020908152604080832073ffffffffffffffffffffffffffffffffffffffff8716808552925280832085905551919290917f8c5be1e5ebec7d5bd14f71427d1e84f3dd0314c0f7b2291e5b200ac8c7c3b925906103279086815260200190565b60405180910390a35060015b92915050565b73ffffffffffffffffffffffffffffffffffffffff83165f9081526004602090815260408083203384529091528120547fffffffffffffffffffffffffffffffffffffffffffffffffffffffffffffffff81146103cb5761039a8382610bbc565b73ffffffffffffffffffffffffffffffffffffffff86165f9081526004602090815260408083203384529091529020555b73ffffffffffffffffffffffffffffffffffffffff85165f90815260036020526040812080548592906103ff908490610bbc565b909155505073ffffffffffffffffffffffffffffffffffffffff8085165f81815260036020526040908190208054870190555190918716907fddf252ad1be2c89b69c2b068fc378daa952ba7f163c4a11628f55a4df523b3ef906104669087815260200190565b60405180910390a3506001949350505050565b5f7f000000000000000000000000000000000000000000000000000000000000000046146104ae576104a961088e565b905090565b507f000000000000000000000000000000000000000000000000000000000000000090565b6104dd3382610926565b50565b6001805461024190610b6b565b335f9081526003602052604081208054839190839061050d908490610bbc565b909155505073ffffffffffffffffffffffffffffffffffffffff83165f81815260036020526040908190208054850190555133907fddf252ad1be2c89b69c2b068fc378daa952ba7f163c4a11628f55a4df523b3ef906103279086815260200190565b428410156105df576040517f08c379a000000000000000000000000000000000000000000000000000000000815260206004820152601760248201527f5045524d49545f444541444c494e455f4558504952454400000000000000000060448201526064015b60405180910390fd5b5f60016105ea610479565b73ffffffffffffffffffffffffffffffffffffffff8a81165f8181526005602090815260409182902080546001810190915582517f6e71edae12b1b97f4d1f60370fef10105fa2faae0126114a169c64845d6126c98184015280840194909452938d166060840152608083018c905260a083019390935260c08083018b90528151808403909101815260e0830190915280519201919091207f190100000000000000000000000000000000000000000000000000000000000061010083015261010282019290925261012281019190915261014201604080517fffffffffffffffffffffffffffffffffffffffffffffffffffffffffffffffe081840301815282825280516020918201205f84529083018083525260ff871690820152606081018590526080810184905260a0016020604051602081039080840390855afa158015610738573d5f5f3e3d5ffd5b50506040517fffffffffffffffffffffffffffffffffffffffffffffffffffffffffffffffe0015191505073ffffffffffffffffffffffffffffffffffffffff8116158015906107b357508773ffffffffffffffffffffffffffffffffffffffff168173ffffffffffffffffffffffffffffffffffffffff16145b610819576040517f08c379a000000000000000000000000000000000000000000000000000000000815260206004820152600e60248201527f494e56414c49445f5349474e455200000000000000000000000000000000000060448201526064016105d6565b73ffffffffffffffffffffffffffffffffffffffff9081165f9081526004602090815260408083208a8516808552908352928190208990555188815291928a16917f8c5be1e5ebec7d5bd14f71427d1e84f3dd0314c0f7b2291e5b200ac8c7c3b925910160405180910390a350505050505050565b5f7f8b73c3c69bb8fe3d512ecc4cf759cc79239f7b179b0ffacaa9a75d522b39400f5f6040516108be9190610bf4565b6040805191829003822060208301939093528101919091527fc89efdaa54c0f20c7adf612882df0950f5a951637e0307cdcb4c672f298b8bc660608201524660808201523060a082015260c00160405160208183030381529060405280519060200120905090565b73ffffffffffffffffffffffffffffffffffffffff82165f908152600360205260408120805483929061095a908490610bbc565b90915550506002805482900390556040518181525f9073ffffffffffffffffffffffffffffffffffffffff8416907fddf252ad1be2c89b69c2b068fc378daa952ba7f163c4a11628f55a4df523b3ef9060200160405180910390a35050565b602081525f82518060208401528060208501604085015e5f6040828501015260407fffffffffffffffffffffffffffffffffffffffffffffffffffffffffffffffe0601f83011684010191505092915050565b803573ffffffffffffffffffffffffffffffffffffffff81168114610a2f575f5ffd5b919050565b5f5f60408385031215610a45575f5ffd5b610a4e83610a0c565b946020939093013593505050565b5f5f5f60608486031215610a6e575f5ffd5b610a7784610a0c565b9250610a8560208501610a0c565b929592945050506040919091013590565b5f60208284031215610aa6575f5ffd5b5035919050565b5f60208284031215610abd575f5ffd5b610ac682610a0c565b9392505050565b5f5f5f5f5f5f5f60e0888a031215610ae3575f5ffd5b610aec88610a0c565b9650610afa60208901610a0c565b95506040880135945060608801359350608088013560ff81168114610b1d575f5ffd5b9699959850939692959460a0840135945060c09093013592915050565b5f5f60408385031215610b4b575f5ffd5b610b5483610a0c565b9150610b6260208401610a0c565b90509250929050565b600181811c90821680610b7f57607f821691505b602082108103610bb6577f4e487b71000000000000000000000000000000000000000000000000000000005f52602260045260245ffd5b50919050565b81810381811115610333577f4e487b71000000000000000000000000000000000000000000000000000000005f52601160045260245ffd5b5f5f83545f8160011c90506001821680610c0f57607f821691505b602082108103610c46577f4e487b71000000000000000000000000000000000000000000000000000000005f52602260045260245ffd5b808015610c5a5760018114610c8d57610cbb565b7fffffffffffffffffffffffffffffffffffffffffffffffffffffffffffffff0084168752821515830287019450610cbb565b5f888152602090205f5b84811015610cb357815489820152600190910190602001610c97565b505082870194505b5092969550505050505056fea26469706673582212205df7019458ddc6a358585d679221b07a9e24fb31dbf8c630fcd1d119dc2aee2864736f6c634300081c0033a264697066735822122007d9d7d9594d8d768bbf1b9ef8d76b89fc424f7b091bb26392931307bdedc57764736f6c634300081c0033",
  "linkReferences": {},
  "deployedLinkReferences": {}
}