{
  "_format": "hh-sol-artifact-1",
  "contractName": "UniswapPriceOracle",
  "sourceName": "contracts/oracles/UniswapPriceOracle.sol",
  "abi": [
    {
      "inputs": [
        {
          "internalType": "address",
          "name": "_nativeToken",
          "type": "address"
        },
        {
          "internalType": "uint256",
          "name": "_maxSlippage",
          "type": "uint256"
        },
        {
          "internalType": "address",
          "name": "_pair",
          "type": "address"
        }
      ],
      "stateMutability": "nonpayable",
      "type": "constructor"
    },
    {
      "inputs": [],
      "name": "direction",
      "outputs": [
        {
          "internalType": "uint256",
          "name": "",
          "type": "uint256"
        }
      ],
      "stateMutability": "view",
      "type": "function"
    },
    {
      "inputs": [],
      "name": "getPrice",
      "outputs": [
        {
          "internalType": "uint256",
          "name": "",
          "type": "uint256"
        }
      ],
      "stateMutability": "view",
      "type": "function"
    },
    {
      "inputs": [],
      "name": "maxSlippage",
      "outputs": [
        {
          "internalType": "uint256",
          "name": "",
          "type": "uint256"
        }
      ],
      "stateMutability": "view",
      "type": "function"
    },
    {
      "inputs": [],
      "name": "pair",
      "outputs": [
        {
          "internalType": "address",
          "name": "",
          "type": "address"
        }
      ],
      "stateMutability": "view",
      "type": "function"
    },
    {
      "inputs": [],
      "name": "updatePrice",
      "outputs": [
        {
          "internalType": "bool",
          "name": "",
          "type": "bool"
        }
      ],
      "stateMutability": "pure",
      "type": "function"
    },
    {
      "inputs": [
        {
          "internalType": "uint256",
          "name": "slippage",
          "type": "uint256"
        }
      ],
      "name": "validatePrice",
      "outputs": [
        {
          "internalType": "bool",
          "name": "",
          "type": "bool"
        }
      ],
      "stateMutability": "view",
      "type": "function"
    }
  ],
  "bytecode": "0x60e060405234801561001057600080fd5b506040516109ef3803806109ef83398101604081905261002f916100eb565b6001600160a01b038116608081905260a083905260408051630dfe168160e01b8152905160009291630dfe16819160048083019260209291908290030181865afa158015610081573d6000803e3d6000fd5b505050506040513d601f19601f820116820180604052508101906100a59190610127565b9050836001600160a01b0316816001600160a01b0316146100c657600160c0525b50505050610149565b80516001600160a01b03811681146100e657600080fd5b919050565b60008060006060848603121561010057600080fd5b610109846100cf565b92506020840151915061011e604085016100cf565b90509250925092565b60006020828403121561013957600080fd5b610142826100cf565b9392505050565b60805160a05160c0516108416101ae6000396000818160a4015281816101ea015281816105b801526105f801526000818160e0015261015a01526000818161010f01528181610212015281816102a80152818161033c01526104c101526108416000f3fe608060405234801561001057600080fd5b50600436106100725760003560e01c80638c04166f116100505780638c04166f146100db57806398d5fdca14610102578063a8aa1b311461010a57600080fd5b8063136d6f2114610077578063645539ed1461009f578063673a7e28146100d4575b600080fd5b61008a61008536600461066e565b610156565b60405190151581526020015b60405180910390f35b6100c67f000000000000000000000000000000000000000000000000000000000000000081565b604051908152602001610096565b600061008a565b6100c67f000000000000000000000000000000000000000000000000000000000000000081565b6100c661049a565b6101317f000000000000000000000000000000000000000000000000000000000000000081565b60405173ffffffffffffffffffffffffffffffffffffffff9091168152602001610096565b60007f00000000000000000000000000000000000000000000000000000000000000008211156101e6576040517f08c379a000000000000000000000000000000000000000000000000000000000815260206004820152601160248201527f536c697070616765206f766572666c6f77000000000000000000000000000000604482015260640160405180910390fd5b60007f00000000000000000000000000000000000000000000000000000000000000006000036102a6577f000000000000000000000000000000000000000000000000000000000000000073ffffffffffffffffffffffffffffffffffffffff16635a3d54936040518163ffffffff1660e01b8152600401602060405180830381865afa15801561027b573d6000803e3d6000fd5b505050506040513d601f19601f8201168201806040525081019061029f9190610687565b9050610338565b7f000000000000000000000000000000000000000000000000000000000000000073ffffffffffffffffffffffffffffffffffffffff16635909c0d56040518163ffffffff1660e01b8152600401602060405180830381865afa158015610311573d6000803e3d6000fd5b505050506040513d601f19601f820116820180604052508101906103359190610687565b90505b60007f000000000000000000000000000000000000000000000000000000000000000073ffffffffffffffffffffffffffffffffffffffff16630902f1ac6040518163ffffffff1660e01b8152600401606060405180830381865afa1580156103a5573d6000803e3d6000fd5b505050506040513d601f19601f820116820180604052508101906103c991906106c3565b63ffffffff16925050508042036103e4575060009392505050565b60006103f08242610742565b905060006103fc61049a565b9050600061040a838361075b565b6104149086610772565b90506000836104238784610742565b61042d91906107b4565b9050600081841161046357816104438582610742565b61045490662386f26fc1000061075b565b61045e91906107b4565b610489565b8161046e8186610742565b61047f90662386f26fc1000061075b565b61048991906107b4565b989098111598975050505050505050565b604080516002808252606082018352600092839291906020830190803683370190505090507f000000000000000000000000000000000000000000000000000000000000000073ffffffffffffffffffffffffffffffffffffffff16630902f1ac6040518163ffffffff1660e01b8152600401606060405180830381865afa15801561052a573d6000803e3d6000fd5b505050506040513d601f19601f8201168201806040525081019061054e91906106c3565b826dffffffffffffffffffffffffffff169250816dffffffffffffffffffffffffffff1691505082600081518110610588576105886107c8565b60200260200101836001815181106105a2576105a26107c8565b60200260200101828152508281525050506000817f0000000000000000000000000000000000000000000000000000000000000000815181106105e7576105e76107c8565b6020026020010151905060008260027f000000000000000000000000000000000000000000000000000000000000000060016106239190610772565b61062d91906107f7565b8151811061063d5761063d6107c8565b602002602001015190508181670de0b6b3a764000061065c919061075b565b61066691906107b4565b935050505090565b60006020828403121561068057600080fd5b5035919050565b60006020828403121561069957600080fd5b5051919050565b80516dffffffffffffffffffffffffffff811681146106be57600080fd5b919050565b6000806000606084860312156106d857600080fd5b6106e1846106a0565b92506106ef602085016106a0565b9150604084015163ffffffff8116811461070857600080fd5b809150509250925092565b7f4e487b7100000000000000000000000000000000000000000000000000000000600052601160045260246000fd5b8181038181111561075557610755610713565b92915050565b808202811582820484141761075557610755610713565b8082018082111561075557610755610713565b7f4e487b7100000000000000000000000000000000000000000000000000000000600052601260045260246000fd5b6000826107c3576107c3610785565b500490565b7f4e487b7100000000000000000000000000000000000000000000000000000000600052603260045260246000fd5b60008261080657610806610785565b50069056fea2646970667358221220c50a735dd47b8192be41810e9e423ed323f149aa1dc955d0a38384c1c306dd4a64736f6c634300081c0033",
  "linkReferences": {},
  "deployedLinkReferences": {}
}